{
  "contractName": "Bridge",
  "abi": [
    {
      "inputs": [
        {
          "internalType": "address",
          "name": "tokenAddress",
          "type": "address"
        }
      ],
      "stateMutability": "nonpayable",
      "type": "constructor"
    },
    {
      "anonymous": false,
      "inputs": [
        {
          "indexed": false,
          "internalType": "address",
          "name": "from",
          "type": "address"
        },
        {
          "indexed": false,
          "internalType": "uint256",
          "name": "amount",
          "type": "uint256"
        },
        {
          "indexed": false,
          "internalType": "uint256",
          "name": "toFee",
          "type": "uint256"
        },
        {
          "indexed": false,
          "internalType": "string",
          "name": "toAddress",
          "type": "string"
        },
        {
          "indexed": false,
          "internalType": "string",
          "name": "toBlockchain",
          "type": "string"
        }
      ],
      "name": "CrossRequest",
      "type": "event"
    },
    {
      "anonymous": false,
      "inputs": [
        {
          "indexed": false,
          "internalType": "uint256",
          "name": "oldFee",
          "type": "uint256"
        },
        {
          "indexed": false,
          "internalType": "uint256",
          "name": "newFee",
          "type": "uint256"
        }
      ],
      "name": "FeePercentageBridgeChanged",
      "type": "event"
    },
    {
      "anonymous": false,
      "inputs": [
        {
          "indexed": false,
          "internalType": "address",
          "name": "account",
          "type": "address"
        }
      ],
      "name": "Paused",
      "type": "event"
    },
    {
      "anonymous": false,
      "inputs": [
        {
          "indexed": true,
          "internalType": "bytes32",
          "name": "role",
          "type": "bytes32"
        },
        {
          "indexed": true,
          "internalType": "bytes32",
          "name": "previousAdminRole",
          "type": "bytes32"
        },
        {
          "indexed": true,
          "internalType": "bytes32",
          "name": "newAdminRole",
          "type": "bytes32"
        }
      ],
      "name": "RoleAdminChanged",
      "type": "event"
    },
    {
      "anonymous": false,
      "inputs": [
        {
          "indexed": true,
          "internalType": "bytes32",
          "name": "role",
          "type": "bytes32"
        },
        {
          "indexed": true,
          "internalType": "address",
          "name": "account",
          "type": "address"
        },
        {
          "indexed": true,
          "internalType": "address",
          "name": "sender",
          "type": "address"
        }
      ],
      "name": "RoleGranted",
      "type": "event"
    },
    {
      "anonymous": false,
      "inputs": [
        {
          "indexed": true,
          "internalType": "bytes32",
          "name": "role",
          "type": "bytes32"
        },
        {
          "indexed": true,
          "internalType": "address",
          "name": "account",
          "type": "address"
        },
        {
          "indexed": true,
          "internalType": "address",
          "name": "sender",
          "type": "address"
        }
      ],
      "name": "RoleRevoked",
      "type": "event"
    },
    {
      "anonymous": false,
      "inputs": [
        {
          "indexed": false,
          "internalType": "address",
          "name": "tokenAddress",
          "type": "address"
        }
      ],
      "name": "TokenChanged",
      "type": "event"
    },
    {
      "anonymous": false,
      "inputs": [
        {
          "indexed": false,
          "internalType": "address",
          "name": "account",
          "type": "address"
        }
      ],
      "name": "Unpaused",
      "type": "event"
    },
    {
      "inputs": [],
      "name": "DECIMALPERCENT",
      "outputs": [
        {
          "internalType": "uint256",
          "name": "",
          "type": "uint256"
        }
      ],
      "stateMutability": "view",
      "type": "function"
    },
    {
      "inputs": [],
      "name": "DEFAULT_ADMIN_ROLE",
      "outputs": [
        {
          "internalType": "bytes32",
          "name": "",
          "type": "bytes32"
        }
      ],
      "stateMutability": "view",
      "type": "function"
    },
    {
      "inputs": [],
      "name": "MONITOR_ROLE",
      "outputs": [
        {
          "internalType": "bytes32",
          "name": "",
          "type": "bytes32"
        }
      ],
      "stateMutability": "view",
      "type": "function"
    },
    {
      "inputs": [
        {
          "internalType": "uint256",
          "name": "",
          "type": "uint256"
        }
      ],
      "name": "blockchain",
      "outputs": [
        {
          "internalType": "string",
          "name": "",
          "type": "string"
        }
      ],
      "stateMutability": "view",
      "type": "function"
    },
    {
      "inputs": [
        {
          "internalType": "bytes32",
          "name": "role",
          "type": "bytes32"
        }
      ],
      "name": "getRoleAdmin",
      "outputs": [
        {
          "internalType": "bytes32",
          "name": "",
          "type": "bytes32"
        }
      ],
      "stateMutability": "view",
      "type": "function"
    },
    {
      "inputs": [
        {
          "internalType": "bytes32",
          "name": "role",
          "type": "bytes32"
        },
        {
          "internalType": "address",
          "name": "account",
          "type": "address"
        }
      ],
      "name": "grantRole",
      "outputs": [],
      "stateMutability": "nonpayable",
      "type": "function"
    },
    {
      "inputs": [
        {
          "internalType": "bytes32",
          "name": "role",
          "type": "bytes32"
        },
        {
          "internalType": "address",
          "name": "account",
          "type": "address"
        }
      ],
      "name": "hasRole",
      "outputs": [
        {
          "internalType": "bool",
          "name": "",
          "type": "bool"
        }
      ],
      "stateMutability": "view",
      "type": "function"
    },
    {
      "inputs": [],
      "name": "paused",
      "outputs": [
        {
          "internalType": "bool",
          "name": "",
          "type": "bool"
        }
      ],
      "stateMutability": "view",
      "type": "function"
    },
    {
      "inputs": [
        {
          "internalType": "bytes32",
          "name": "",
          "type": "bytes32"
        }
      ],
      "name": "processed",
      "outputs": [
        {
          "internalType": "bool",
          "name": "",
          "type": "bool"
        }
      ],
      "stateMutability": "view",
      "type": "function"
    },
    {
      "inputs": [
        {
          "internalType": "bytes32",
          "name": "role",
          "type": "bytes32"
        },
        {
          "internalType": "address",
          "name": "account",
          "type": "address"
        }
      ],
      "name": "renounceRole",
      "outputs": [],
      "stateMutability": "nonpayable",
      "type": "function"
    },
    {
      "inputs": [
        {
          "internalType": "bytes32",
          "name": "role",
          "type": "bytes32"
        },
        {
          "internalType": "address",
          "name": "account",
          "type": "address"
        }
      ],
      "name": "revokeRole",
      "outputs": [],
      "stateMutability": "nonpayable",
      "type": "function"
    },
    {
      "inputs": [
        {
          "internalType": "bytes4",
          "name": "interfaceId",
          "type": "bytes4"
        }
      ],
      "name": "supportsInterface",
      "outputs": [
        {
          "internalType": "bool",
          "name": "",
          "type": "bool"
        }
      ],
      "stateMutability": "view",
      "type": "function"
    },
    {
      "inputs": [],
      "name": "token",
      "outputs": [
        {
          "internalType": "contract IERC20",
          "name": "",
          "type": "address"
        }
      ],
      "stateMutability": "view",
      "type": "function"
    },
    {
      "inputs": [],
      "name": "version",
      "outputs": [
        {
          "internalType": "string",
          "name": "",
          "type": "string"
        }
      ],
      "stateMutability": "pure",
      "type": "function"
    },
    {
      "inputs": [
        {
          "internalType": "uint256",
          "name": "amount",
          "type": "uint256"
        },
        {
          "internalType": "uint256[2]",
          "name": "transactionFee",
          "type": "uint256[2]"
        },
        {
          "internalType": "string",
          "name": "toBlockchain",
          "type": "string"
        },
        {
          "internalType": "string",
          "name": "toAddress",
          "type": "string"
        }
      ],
      "name": "receiveTokens",
      "outputs": [
        {
          "internalType": "bool",
          "name": "",
          "type": "bool"
        }
      ],
      "stateMutability": "nonpayable",
      "type": "function"
    },
    {
      "inputs": [
        {
          "internalType": "address",
          "name": "receiver",
          "type": "address"
        },
        {
          "internalType": "uint256",
          "name": "amount",
          "type": "uint256"
        },
        {
          "internalType": "string",
          "name": "sender",
          "type": "string"
        },
        {
          "internalType": "string",
          "name": "toBlockchain",
          "type": "string"
        },
        {
          "internalType": "bytes32[2]",
          "name": "hashes",
          "type": "bytes32[2]"
        },
        {
          "internalType": "uint32",
          "name": "logIndex",
          "type": "uint32"
        }
      ],
      "name": "acceptTransfer",
      "outputs": [
        {
          "internalType": "bool",
          "name": "",
          "type": "bool"
        }
      ],
      "stateMutability": "nonpayable",
      "type": "function"
    },
    {
      "inputs": [
        {
          "internalType": "bytes32[2]",
          "name": "hashes",
          "type": "bytes32[2]"
        },
        {
          "internalType": "address",
          "name": "receiver",
          "type": "address"
        },
        {
          "internalType": "uint256",
          "name": "amount",
          "type": "uint256"
        },
        {
          "internalType": "uint32",
          "name": "logIndex",
          "type": "uint32"
        }
      ],
      "name": "getTransactionId",
      "outputs": [
        {
          "internalType": "bytes32",
          "name": "",
          "type": "bytes32"
        }
      ],
      "stateMutability": "pure",
      "type": "function"
    },
    {
      "inputs": [
        {
          "internalType": "address",
          "name": "monitorAddress",
          "type": "address"
        }
      ],
      "name": "addMonitor",
      "outputs": [
        {
          "internalType": "bool",
          "name": "",
          "type": "bool"
        }
      ],
      "stateMutability": "nonpayable",
      "type": "function"
    },
    {
      "inputs": [
        {
          "internalType": "address",
          "name": "monitorAddress",
          "type": "address"
        }
      ],
      "name": "delMonitor",
      "outputs": [
        {
          "internalType": "bool",
          "name": "",
          "type": "bool"
        }
      ],
      "stateMutability": "nonpayable",
      "type": "function"
    },
    {
      "inputs": [
        {
          "internalType": "uint256",
          "name": "newFee",
          "type": "uint256"
        }
      ],
      "name": "setFeePercentageBridge",
      "outputs": [
        {
          "internalType": "bool",
          "name": "",
          "type": "bool"
        }
      ],
      "stateMutability": "nonpayable",
      "type": "function"
    },
    {
      "inputs": [],
      "name": "getFeePercentageBridge",
      "outputs": [
        {
          "internalType": "uint256",
          "name": "",
          "type": "uint256"
        }
      ],
      "stateMutability": "view",
      "type": "function"
    },
    {
      "inputs": [
        {
          "internalType": "address",
          "name": "tokenAddress",
          "type": "address"
        }
      ],
      "name": "setToken",
      "outputs": [
        {
          "internalType": "bool",
          "name": "",
          "type": "bool"
        }
      ],
      "stateMutability": "nonpayable",
      "type": "function"
    },
    {
      "inputs": [],
      "name": "getTotalFeeReceivedBridge",
      "outputs": [
        {
          "internalType": "uint256",
          "name": "",
          "type": "uint256"
        }
      ],
      "stateMutability": "view",
      "type": "function"
    },
    {
      "inputs": [],
      "name": "getTokenBalance",
      "outputs": [
        {
          "internalType": "uint256",
          "name": "",
          "type": "uint256"
        }
      ],
      "stateMutability": "view",
      "type": "function"
    },
    {
      "inputs": [
        {
          "internalType": "uint256",
          "name": "amount",
          "type": "uint256"
        }
      ],
      "name": "withdrawToken",
      "outputs": [
        {
          "internalType": "bool",
          "name": "",
          "type": "bool"
        }
      ],
      "stateMutability": "nonpayable",
      "type": "function"
    },
    {
      "inputs": [
        {
          "internalType": "string",
          "name": "name",
          "type": "string"
        }
      ],
      "name": "existsBlockchain",
      "outputs": [
        {
          "internalType": "bool",
          "name": "",
          "type": "bool"
        }
      ],
      "stateMutability": "view",
      "type": "function"
    },
    {
      "inputs": [],
      "name": "listBlockchain",
      "outputs": [
        {
          "internalType": "string[]",
          "name": "",
          "type": "string[]"
        }
      ],
      "stateMutability": "view",
      "type": "function"
    },
    {
      "inputs": [
        {
          "internalType": "string",
          "name": "name",
          "type": "string"
        }
      ],
      "name": "addBlockchain",
      "outputs": [
        {
          "internalType": "uint256",
          "name": "",
          "type": "uint256"
        }
      ],
      "stateMutability": "nonpayable",
      "type": "function"
    },
    {
      "inputs": [
        {
          "internalType": "string",
          "name": "name",
          "type": "string"
        }
      ],
      "name": "delBlockchain",
      "outputs": [
        {
          "internalType": "bool",
          "name": "",
          "type": "bool"
        }
      ],
      "stateMutability": "nonpayable",
      "type": "function"
    },
    {
      "inputs": [],
      "name": "pause",
      "outputs": [],
      "stateMutability": "nonpayable",
      "type": "function"
    },
    {
      "inputs": [],
      "name": "unpause",
      "outputs": [],
      "stateMutability": "nonpayable",
      "type": "function"
    }
  ],
  "bytecode": "0x60806040523480156200001157600080fd5b506040516200492e3803806200492e833981810160405281019062000037919062000255565b6000600160006101000a81548160ff021916908315150217905550620000766000801b6200006a620000c560201b60201c565b620000cd60201b60201c565b806001806101000a81548173ffffffffffffffffffffffffffffffffffffffff021916908373ffffffffffffffffffffffffffffffffffffffff160217905550600a60038190555050620002cf565b600033905090565b620000df8282620000e360201b60201c565b5050565b620000f58282620001d460201b60201c565b620001d057600160008084815260200190815260200160002060000160008373ffffffffffffffffffffffffffffffffffffffff1673ffffffffffffffffffffffffffffffffffffffff16815260200190815260200160002060006101000a81548160ff02191690831515021790555062000175620000c560201b60201c565b73ffffffffffffffffffffffffffffffffffffffff168173ffffffffffffffffffffffffffffffffffffffff16837f2f8788117e7eff1d82e926ec794901d17c78024a50270940304540a733656f0d60405160405180910390a45b5050565b600080600084815260200190815260200160002060000160008373ffffffffffffffffffffffffffffffffffffffff1673ffffffffffffffffffffffffffffffffffffffff16815260200190815260200160002060009054906101000a900460ff16905092915050565b6000815190506200024f81620002b5565b92915050565b6000602082840312156200026857600080fd5b600062000278848285016200023e565b91505092915050565b60006200028e8262000295565b9050919050565b600073ffffffffffffffffffffffffffffffffffffffff82169050919050565b620002c08162000281565b8114620002cc57600080fd5b50565b61464f80620002df6000396000f3fe608060405234801561001057600080fd5b50600436106101e55760003560e01c80635d27fc701161010f578063b8c48a28116100a2578063cd09fc2811610071578063cd09fc28146105f6578063d547741f14610626578063e1343dae14610642578063fc0c546a14610660576101e5565b8063b8c48a2814610536578063bb52228b14610566578063c1f0808a14610596578063c25b1eaf146105c6576101e5565b806392830770116100de578063928307701461049a57806399cd19d3146104b8578063a217fddf146104e8578063aeb670e314610506576101e5565b80635d27fc701461041257806382b2e257146104425780638456cb591461046057806391d148541461046a576101e5565b806336568abe1161018757806350baa6221161015657806350baa62214610376578063525a34e3146103a657806354fd4d50146103d65780635c975abb146103f4576101e5565b806336568abe146103025780633f4ba83a1461031e578063420c04f0146103285780634d9b47e214610358576101e5565b8063144fa6d7116101c3578063144fa6d714610268578063248a9ca3146102985780632f2ff15d146102c85780633222a6aa146102e4576101e5565b806301ffc9a7146101ea5780630e7fef1e1461021a57806310c22fa61461024a575b600080fd5b61020460048036038101906101ff9190612f38565b61067e565b6040516102119190613796565b60405180910390f35b610234600480360381019061022f9190612ff4565b6106f8565b6040516102419190613796565b60405180910390f35b6102526109dc565b60405161025f9190613b09565b60405180910390f35b610282600480360381019061027d9190612d5b565b6109e2565b60405161028f9190613796565b60405180910390f35b6102b260048036038101906102ad9190612ed3565b610b6f565b6040516102bf91906137b1565b60405180910390f35b6102e260048036038101906102dd9190612efc565b610b8e565b005b6102ec610bb7565b6040516102f99190613b09565b60405180910390f35b61031c60048036038101906103179190612efc565b610bc1565b005b610326610c44565b005b610342600480360381019061033d9190612d84565b610ca1565b60405161034f9190613796565b60405180910390f35b610360610fc9565b60405161036d91906137b1565b60405180910390f35b610390600480360381019061038b9190612fa2565b610fed565b60405161039d9190613796565b60405180910390f35b6103c060048036038101906103bb9190612fa2565b6111eb565b6040516103cd9190613796565b60405180910390f35b6103de611376565b6040516103eb91906137e7565b60405180910390f35b6103fc6113b3565b6040516104099190613796565b60405180910390f35b61042c60048036038101906104279190612d5b565b6113ca565b6040516104399190613796565b60405180910390f35b61044a61149a565b6040516104579190613b09565b60405180910390f35b61046861154a565b005b610484600480360381019061047f9190612efc565b6115a7565b6040516104919190613796565b60405180910390f35b6104a2611611565b6040516104af9190613b09565b60405180910390f35b6104d260048036038101906104cd9190612f61565b61161b565b6040516104df9190613b09565b60405180910390f35b6104f0611756565b6040516104fd91906137b1565b60405180910390f35b610520600480360381019061051b9190612e47565b61175d565b60405161052d91906137b1565b60405180910390f35b610550600480360381019061054b9190612d5b565b611814565b60405161055d9190613796565b60405180910390f35b610580600480360381019061057b9190612f61565b6118e4565b60405161058d9190613796565b60405180910390f35b6105b060048036038101906105ab9190612ed3565b611c2e565b6040516105bd9190613796565b60405180910390f35b6105e060048036038101906105db9190612fa2565b611c4e565b6040516105ed91906137e7565b60405180910390f35b610610600480360381019061060b9190612f61565b611cfa565b60405161061d9190613796565b60405180910390f35b610640600480360381019061063b9190612efc565b611e18565b005b61064a611e41565b6040516106579190613774565b60405180910390f35b610668611f1a565b60405161067591906137cc565b60405180910390f35b60007f7965db0b000000000000000000000000000000000000000000000000000000007bffffffffffffffffffffffffffffffffffffffffffffffffffffffff1916827bffffffffffffffffffffffffffffffffffffffffffffffffffffffff191614806106f157506106f082611f3e565b5b9050919050565b600061070383611cfa565b610742576040517f08c379a000000000000000000000000000000000000000000000000000000000815260040161073990613aa9565b60405180910390fd5b61075b8260405180602001604052806000815250611fa8565b1561079b576040517f08c379a000000000000000000000000000000000000000000000000000000000815260040161079290613969565b60405180910390fd5b600085116107de576040517f08c379a00000000000000000000000000000000000000000000000000000000081526004016107d5906138c9565b60405180910390fd5b60006108318560006002811061081d577f4e487b7100000000000000000000000000000000000000000000000000000000600052603260045260246000fd5b60200201518761200190919063ffffffff16565b9050600061085e6127106108506003548a61201790919063ffffffff16565b61202d90919063ffffffff16565b90506000610875828961204390919063ffffffff16565b905061088c8260025461200190919063ffffffff16565b6002819055507f0424dad9840ff9e43e3db8fbda830b4db1af324cf59b056dd728876c88ea88076108bb612059565b82896001600281106108f6577f4e487b7100000000000000000000000000000000000000000000000000000000600052603260045260246000fd5b6020020151888a60405161090e959493929190613713565b60405180910390a160018054906101000a900473ffffffffffffffffffffffffffffffffffffffff1673ffffffffffffffffffffffffffffffffffffffff166323b872dd61095a612059565b30866040518463ffffffff1660e01b815260040161097a939291906136b3565b602060405180830381600087803b15801561099457600080fd5b505af11580156109a8573d6000803e3d6000fd5b505050506040513d601f19601f820116820180604052508101906109cc9190612eaa565b5060019350505050949350505050565b61271081565b60006109f86000801b6109f3612059565b6115a7565b610a37576040517f08c379a0000000000000000000000000000000000000000000000000000000008152600401610a2e90613a09565b60405180910390fd5b610a3f6113b3565b15610a7f576040517f08c379a0000000000000000000000000000000000000000000000000000000008152600401610a7690613989565b60405180910390fd5b600073ffffffffffffffffffffffffffffffffffffffff168273ffffffffffffffffffffffffffffffffffffffff161415610aef576040517f08c379a0000000000000000000000000000000000000000000000000000000008152600401610ae690613a69565b60405180910390fd5b7f5d108ca248943e98e1886bbc2c38beda701271994a14354258a11692b81b73cf82604051610b1e9190613698565b60405180910390a1816001806101000a81548173ffffffffffffffffffffffffffffffffffffffff021916908373ffffffffffffffffffffffffffffffffffffffff16021790555060019050919050565b6000806000838152602001908152602001600020600101549050919050565b610b9782610b6f565b610ba881610ba3612059565b612061565b610bb283836120fe565b505050565b6000600254905090565b610bc9612059565b73ffffffffffffffffffffffffffffffffffffffff168173ffffffffffffffffffffffffffffffffffffffff1614610c36576040517f08c379a0000000000000000000000000000000000000000000000000000000008152600401610c2d90613ae9565b60405180910390fd5b610c4082826121de565b5050565b610c586000801b610c53612059565b6115a7565b610c97576040517f08c379a0000000000000000000000000000000000000000000000000000000008152600401610c8e90613a09565b60405180910390fd5b610c9f6122bf565b565b6000610cd47f8227712ef8ad39d0f26f06731ef0df8665eb7ada7f41b1ee089adf3c238862a2610ccf612059565b6115a7565b610d13576040517f08c379a0000000000000000000000000000000000000000000000000000000008152600401610d0a90613909565b60405180910390fd5b610d1b6113b3565b15610d5b576040517f08c379a0000000000000000000000000000000000000000000000000000000008152600401610d5290613989565b60405180910390fd5b600073ffffffffffffffffffffffffffffffffffffffff168973ffffffffffffffffffffffffffffffffffffffff161415610dcb576040517f08c379a0000000000000000000000000000000000000000000000000000000008152600401610dc2906138e9565b60405180910390fd5b60008811610e0e576040517f08c379a0000000000000000000000000000000000000000000000000000000008152600401610e0590613829565b60405180910390fd5b60008787905011610e54576040517f08c379a0000000000000000000000000000000000000000000000000000000008152600401610e4b906139a9565b60405180910390fd5b60008585905011610e9a576040517f08c379a0000000000000000000000000000000000000000000000000000000008152600401610e91906139c9565b60405180910390fd5b6000801b83600060028110610ed8577f4e487b7100000000000000000000000000000000000000000000000000000000600052603260045260246000fd5b60200201351415610f1e576040517f08c379a0000000000000000000000000000000000000000000000000000000008152600401610f15906139e9565b60405180910390fd5b6000801b83600160028110610f5c577f4e487b7100000000000000000000000000000000000000000000000000000000600052603260045260246000fd5b60200201351415610fa2576040517f08c379a0000000000000000000000000000000000000000000000000000000008152600401610f99906138a9565b60405180910390fd5b610fae838a8a85612361565b610fb88989612405565b506001905098975050505050505050565b7f8227712ef8ad39d0f26f06731ef0df8665eb7ada7f41b1ee089adf3c238862a281565b60006110036000801b610ffe612059565b6115a7565b611042576040517f08c379a000000000000000000000000000000000000000000000000000000000815260040161103990613a09565b60405180910390fd5b60018054906101000a900473ffffffffffffffffffffffffffffffffffffffff1673ffffffffffffffffffffffffffffffffffffffff166370a08231306040518263ffffffff1660e01b815260040161109b9190613698565b60206040518083038186803b1580156110b357600080fd5b505afa1580156110c7573d6000803e3d6000fd5b505050506040513d601f19601f820116820180604052508101906110eb9190612fcb565b82111561112d576040517f08c379a000000000000000000000000000000000000000000000000000000000815260040161112490613869565b60405180910390fd5b60018054906101000a900473ffffffffffffffffffffffffffffffffffffffff1673ffffffffffffffffffffffffffffffffffffffff1663a9059cbb611171612059565b846040518363ffffffff1660e01b815260040161118f9291906136ea565b602060405180830381600087803b1580156111a957600080fd5b505af11580156111bd573d6000803e3d6000fd5b505050506040513d601f19601f820116820180604052508101906111e19190612eaa565b5060019050919050565b60006112016000801b6111fc612059565b6115a7565b611240576040517f08c379a000000000000000000000000000000000000000000000000000000000815260040161123790613a09565b60405180910390fd5b6112486113b3565b15611288576040517f08c379a000000000000000000000000000000000000000000000000000000000815260040161127f90613989565b60405180910390fd5b61129c6000801b611297612059565b6115a7565b6112db576040517f08c379a00000000000000000000000000000000000000000000000000000000081526004016112d290613a49565b60405180910390fd5b600a6127106112ea9190613c90565b821061132b576040517f08c379a000000000000000000000000000000000000000000000000000000000815260040161132290613ac9565b60405180910390fd5b7f423d9a8a1d4011c45245817ab10cc09937b0786496dad82dba18141ca4fb7c8e6003548360405161135e929190613b24565b60405180910390a18160038190555060019050919050565b60606040518060400160405280600281526020017f7630000000000000000000000000000000000000000000000000000000000000815250905090565b6000600160009054906101000a900460ff16905090565b60006113e06000801b6113db612059565b6115a7565b61141f576040517f08c379a000000000000000000000000000000000000000000000000000000000815260040161141690613a09565b60405180910390fd5b6114276113b3565b15611467576040517f08c379a000000000000000000000000000000000000000000000000000000000815260040161145e90613989565b60405180910390fd5b6114917f8227712ef8ad39d0f26f06731ef0df8665eb7ada7f41b1ee089adf3c238862a283611e18565b60019050919050565b600060018054906101000a900473ffffffffffffffffffffffffffffffffffffffff1673ffffffffffffffffffffffffffffffffffffffff166370a08231306040518263ffffffff1660e01b81526004016114f59190613698565b60206040518083038186803b15801561150d57600080fd5b505afa158015611521573d6000803e3d6000fd5b505050506040513d601f19601f820116820180604052508101906115459190612fcb565b905090565b61155e6000801b611559612059565b6115a7565b61159d576040517f08c379a000000000000000000000000000000000000000000000000000000000815260040161159490613a09565b60405180910390fd5b6115a5612662565b565b600080600084815260200190815260200160002060000160008373ffffffffffffffffffffffffffffffffffffffff1673ffffffffffffffffffffffffffffffffffffffff16815260200190815260200160002060009054906101000a900460ff16905092915050565b6000600354905090565b60006116316000801b61162c612059565b6115a7565b611670576040517f08c379a000000000000000000000000000000000000000000000000000000000815260040161166790613a09565b60405180910390fd5b6116786113b3565b156116b8576040517f08c379a00000000000000000000000000000000000000000000000000000000081526004016116af90613989565b60405180910390fd5b6116c182611cfa565b15611701576040517f08c379a00000000000000000000000000000000000000000000000000000000081526004016116f890613a29565b60405180910390fd5b60048290806001815401808255809150506001900390600052602060002001600090919091909150908051906020019061173c9291906129fe565b50600160048054905061174f9190613d1b565b9050919050565b6000801b81565b600084600060028110611799577f4e487b7100000000000000000000000000000000000000000000000000000000600052603260045260246000fd5b6020020135856001600281106117d8577f4e487b7100000000000000000000000000000000000000000000000000000000600052603260045260246000fd5b60200201358585856040516020016117f49594939291906135e8565b604051602081830303815290604052805190602001209050949350505050565b600061182a6000801b611825612059565b6115a7565b611869576040517f08c379a000000000000000000000000000000000000000000000000000000000815260040161186090613a09565b60405180910390fd5b6118716113b3565b156118b1576040517f08c379a00000000000000000000000000000000000000000000000000000000081526004016118a890613989565b60405180910390fd5b6118db7f8227712ef8ad39d0f26f06731ef0df8665eb7ada7f41b1ee089adf3c238862a283610b8e565b60019050919050565b60006118fa6000801b6118f5612059565b6115a7565b611939576040517f08c379a000000000000000000000000000000000000000000000000000000000815260040161193090613a09565b60405180910390fd5b6119416113b3565b15611981576040517f08c379a000000000000000000000000000000000000000000000000000000000815260040161197890613989565b60405180910390fd5b61198a82611cfa565b6119c9576040517f08c379a00000000000000000000000000000000000000000000000000000000081526004016119c090613949565b60405180910390fd5b600160048054905011611a11576040517f08c379a0000000000000000000000000000000000000000000000000000000008152600401611a0890613a89565b60405180910390fd5b600080600090505b600480549050811015611b1c57611afc8460048381548110611a64577f4e487b7100000000000000000000000000000000000000000000000000000000600052603260045260246000fd5b906000526020600020018054611a7990613e7a565b80601f0160208091040260200160405190810160405280929190818152602001828054611aa590613e7a565b8015611af25780601f10611ac757610100808354040283529160200191611af2565b820191906000526020600020905b815481529060010190602001808311611ad557829003601f168201915b5050505050611fa8565b15611b0957809150611b1c565b8080611b1490613edd565b915050611a19565b5060046001600480549050611b319190613d1b565b81548110611b68577f4e487b7100000000000000000000000000000000000000000000000000000000600052603260045260246000fd5b9060005260206000200160048281548110611bac577f4e487b7100000000000000000000000000000000000000000000000000000000600052603260045260246000fd5b90600052602060002001908054611bc290613e7a565b611bcd929190612a84565b506004805480611c06577f4e487b7100000000000000000000000000000000000000000000000000000000600052603160045260246000fd5b600190038181906000526020600020016000611c229190612b11565b90556001915050919050565b60056020528060005260406000206000915054906101000a900460ff1681565b60048181548110611c5e57600080fd5b906000526020600020016000915090508054611c7990613e7a565b80601f0160208091040260200160405190810160405280929190818152602001828054611ca590613e7a565b8015611cf25780601f10611cc757610100808354040283529160200191611cf2565b820191906000526020600020905b815481529060010190602001808311611cd557829003601f168201915b505050505081565b600080600090505b6004805490508160ff161015611e0d57611deb8360048360ff1681548110611d53577f4e487b7100000000000000000000000000000000000000000000000000000000600052603260045260246000fd5b906000526020600020018054611d6890613e7a565b80601f0160208091040260200160405190810160405280929190818152602001828054611d9490613e7a565b8015611de15780601f10611db657610100808354040283529160200191611de1565b820191906000526020600020905b815481529060010190602001808311611dc457829003601f168201915b5050505050611fa8565b15611dfa576001915050611e13565b8080611e0590613f26565b915050611d02565b50600090505b919050565b611e2182610b6f565b611e3281611e2d612059565b612061565b611e3c83836121de565b505050565b60606004805480602002602001604051908101604052809291908181526020016000905b82821015611f11578382906000526020600020018054611e8490613e7a565b80601f0160208091040260200160405190810160405280929190818152602001828054611eb090613e7a565b8015611efd5780601f10611ed257610100808354040283529160200191611efd565b820191906000526020600020905b815481529060010190602001808311611ee057829003601f168201915b505050505081526020019060010190611e65565b50505050905090565b60018054906101000a900473ffffffffffffffffffffffffffffffffffffffff1681565b60007f01ffc9a7000000000000000000000000000000000000000000000000000000007bffffffffffffffffffffffffffffffffffffffffffffffffffffffff1916827bffffffffffffffffffffffffffffffffffffffffffffffffffffffff1916149050919050565b600081604051602001611fbb9190613647565b6040516020818303038152906040528051906020012083604051602001611fe29190613647565b6040516020818303038152906040528051906020012014905092915050565b6000818361200f9190613c3a565b905092915050565b600081836120259190613cc1565b905092915050565b6000818361203b9190613c90565b905092915050565b600081836120519190613d1b565b905092915050565b600033905090565b61206b82826115a7565b6120fa576120908173ffffffffffffffffffffffffffffffffffffffff166014612704565b61209e8360001c6020612704565b6040516020016120af92919061365e565b6040516020818303038152906040526040517f08c379a00000000000000000000000000000000000000000000000000000000081526004016120f191906137e7565b60405180910390fd5b5050565b61210882826115a7565b6121da57600160008084815260200190815260200160002060000160008373ffffffffffffffffffffffffffffffffffffffff1673ffffffffffffffffffffffffffffffffffffffff16815260200190815260200160002060006101000a81548160ff02191690831515021790555061217f612059565b73ffffffffffffffffffffffffffffffffffffffff168173ffffffffffffffffffffffffffffffffffffffff16837f2f8788117e7eff1d82e926ec794901d17c78024a50270940304540a733656f0d60405160405180910390a45b5050565b6121e882826115a7565b156122bb57600080600084815260200190815260200160002060000160008373ffffffffffffffffffffffffffffffffffffffff1673ffffffffffffffffffffffffffffffffffffffff16815260200190815260200160002060006101000a81548160ff021916908315150217905550612260612059565b73ffffffffffffffffffffffffffffffffffffffff168173ffffffffffffffffffffffffffffffffffffffff16837ff6391f5c32d9c69d2a47ea670b442974b53935d1edc7fd64eb21e047a839171b60405160405180910390a45b5050565b6122c76113b3565b612306576040517f08c379a00000000000000000000000000000000000000000000000000000000081526004016122fd90613849565b60405180910390fd5b6000600160006101000a81548160ff0219169083151502179055507f5db9ee0a495bf2e6ff9c91a7834c1ba4fdd244a5e8aa4e537bd38aeae4b073aa61234a612059565b6040516123579190613698565b60405180910390a1565b600061236f8585858561175d565b90506005600082815260200190815260200160002060009054906101000a900460ff16156123d2576040517f08c379a00000000000000000000000000000000000000000000000000000000081526004016123c990613889565b60405180910390fd5b60016005600083815260200190815260200160002060006101000a81548160ff0219169083151502179055505050505050565b60006124387f8227712ef8ad39d0f26f06731ef0df8665eb7ada7f41b1ee089adf3c238862a2612433612059565b6115a7565b612477576040517f08c379a000000000000000000000000000000000000000000000000000000000815260040161246e90613909565b60405180910390fd5b61247f6113b3565b156124bf576040517f08c379a00000000000000000000000000000000000000000000000000000000081526004016124b690613989565b60405180910390fd5b8160018054906101000a900473ffffffffffffffffffffffffffffffffffffffff1673ffffffffffffffffffffffffffffffffffffffff166370a08231306040518263ffffffff1660e01b81526004016125199190613698565b60206040518083038186803b15801561253157600080fd5b505afa158015612545573d6000803e3d6000fd5b505050506040513d601f19601f820116820180604052508101906125699190612fcb565b10156125aa576040517f08c379a00000000000000000000000000000000000000000000000000000000081526004016125a190613929565b60405180910390fd5b60018054906101000a900473ffffffffffffffffffffffffffffffffffffffff1673ffffffffffffffffffffffffffffffffffffffff1663a9059cbb84846040518363ffffffff1660e01b81526004016126059291906136ea565b602060405180830381600087803b15801561261f57600080fd5b505af1158015612633573d6000803e3d6000fd5b505050506040513d601f19601f820116820180604052508101906126579190612eaa565b506001905092915050565b61266a6113b3565b156126aa576040517f08c379a00000000000000000000000000000000000000000000000000000000081526004016126a190613989565b60405180910390fd5b60018060006101000a81548160ff0219169083151502179055507f62e78cea01bee320cd4e420270b5ea74000d11b0c9f74754ebdbfc544b05a2586126ed612059565b6040516126fa9190613698565b60405180910390a1565b6060600060028360026127179190613cc1565b6127219190613c3a565b67ffffffffffffffff811115612760577f4e487b7100000000000000000000000000000000000000000000000000000000600052604160045260246000fd5b6040519080825280601f01601f1916602001820160405280156127925781602001600182028036833780820191505090505b5090507f3000000000000000000000000000000000000000000000000000000000000000816000815181106127f0577f4e487b7100000000000000000000000000000000000000000000000000000000600052603260045260246000fd5b60200101907effffffffffffffffffffffffffffffffffffffffffffffffffffffffffffff1916908160001a9053507f78000000000000000000000000000000000000000000000000000000000000008160018151811061287a577f4e487b7100000000000000000000000000000000000000000000000000000000600052603260045260246000fd5b60200101907effffffffffffffffffffffffffffffffffffffffffffffffffffffffffffff1916908160001a905350600060018460026128ba9190613cc1565b6128c49190613c3a565b90505b60018111156129b0577f3031323334353637383961626364656600000000000000000000000000000000600f86166010811061292c577f4e487b7100000000000000000000000000000000000000000000000000000000600052603260045260246000fd5b1a60f81b828281518110612969577f4e487b7100000000000000000000000000000000000000000000000000000000600052603260045260246000fd5b60200101907effffffffffffffffffffffffffffffffffffffffffffffffffffffffffffff1916908160001a905350600485901c9450806129a990613e50565b90506128c7565b50600084146129f4576040517f08c379a00000000000000000000000000000000000000000000000000000000081526004016129eb90613809565b60405180910390fd5b8091505092915050565b828054612a0a90613e7a565b90600052602060002090601f016020900481019282612a2c5760008555612a73565b82601f10612a4557805160ff1916838001178555612a73565b82800160010185558215612a73579182015b82811115612a72578251825591602001919060010190612a57565b5b509050612a809190612b51565b5090565b828054612a9090613e7a565b90600052602060002090601f016020900481019282612ab25760008555612b00565b82601f10612ac35780548555612b00565b82800160010185558215612b0057600052602060002091601f016020900482015b82811115612aff578254825591600101919060010190612ae4565b5b509050612b0d9190612b51565b5090565b508054612b1d90613e7a565b6000825580601f10612b2f5750612b4e565b601f016020900490600052602060002090810190612b4d9190612b51565b5b50565b5b80821115612b6a576000816000905550600101612b52565b5090565b6000612b81612b7c84613b72565b613b4d565b90508082856020860282011115612b9757600080fd5b60005b85811015612bc75781612bad8882612d1c565b845260208401935060208301925050600181019050612b9a565b5050509392505050565b6000612be4612bdf84613b98565b613b4d565b905082815260208101848484011115612bfc57600080fd5b612c07848285613e0e565b509392505050565b600081359050612c1e8161458f565b92915050565b600081905082602060020282011115612c3c57600080fd5b92915050565b600082601f830112612c5357600080fd5b6002612c60848285612b6e565b91505092915050565b600081519050612c78816145a6565b92915050565b600081359050612c8d816145bd565b92915050565b600081359050612ca2816145d4565b92915050565b60008083601f840112612cba57600080fd5b8235905067ffffffffffffffff811115612cd357600080fd5b602083019150836001820283011115612ceb57600080fd5b9250929050565b600082601f830112612d0357600080fd5b8135612d13848260208601612bd1565b91505092915050565b600081359050612d2b816145eb565b92915050565b600081519050612d40816145eb565b92915050565b600081359050612d5581614602565b92915050565b600060208284031215612d6d57600080fd5b6000612d7b84828501612c0f565b91505092915050565b60008060008060008060008060e0898b031215612da057600080fd5b6000612dae8b828c01612c0f565b9850506020612dbf8b828c01612d1c565b975050604089013567ffffffffffffffff811115612ddc57600080fd5b612de88b828c01612ca8565b9650965050606089013567ffffffffffffffff811115612e0757600080fd5b612e138b828c01612ca8565b94509450506080612e268b828c01612c24565b92505060c0612e378b828c01612d46565b9150509295985092959890939650565b60008060008060a08587031215612e5d57600080fd5b6000612e6b87828801612c24565b9450506040612e7c87828801612c0f565b9350506060612e8d87828801612d1c565b9250506080612e9e87828801612d46565b91505092959194509250565b600060208284031215612ebc57600080fd5b6000612eca84828501612c69565b91505092915050565b600060208284031215612ee557600080fd5b6000612ef384828501612c7e565b91505092915050565b60008060408385031215612f0f57600080fd5b6000612f1d85828601612c7e565b9250506020612f2e85828601612c0f565b9150509250929050565b600060208284031215612f4a57600080fd5b6000612f5884828501612c93565b91505092915050565b600060208284031215612f7357600080fd5b600082013567ffffffffffffffff811115612f8d57600080fd5b612f9984828501612cf2565b91505092915050565b600060208284031215612fb457600080fd5b6000612fc284828501612d1c565b91505092915050565b600060208284031215612fdd57600080fd5b6000612feb84828501612d31565b91505092915050565b60008060008060a0858703121561300a57600080fd5b600061301887828801612d1c565b945050602061302987828801612c42565b935050606085013567ffffffffffffffff81111561304657600080fd5b61305287828801612cf2565b925050608085013567ffffffffffffffff81111561306f57600080fd5b61307b87828801612cf2565b91505092959194509250565b6000613093838361317a565b905092915050565b6130a481613d4f565b82525050565b6130bb6130b682613d4f565b613f50565b82525050565b60006130cc82613bd9565b6130d68185613bfc565b9350836020820285016130e885613bc9565b8060005b8581101561312457848403895281516131058582613087565b945061311083613bef565b925060208a019950506001810190506130ec565b50829750879550505050505092915050565b61313f81613d61565b82525050565b61314e81613d6d565b82525050565b61316561316082613d6d565b613f62565b82525050565b61317481613dea565b82525050565b600061318582613be4565b61318f8185613c0d565b935061319f818560208601613e1d565b6131a881614056565b840191505092915050565b60006131be82613be4565b6131c88185613c1e565b93506131d8818560208601613e1d565b6131e181614056565b840191505092915050565b60006131f782613be4565b6132018185613c2f565b9350613211818560208601613e1d565b80840191505092915050565b600061322a602083613c1e565b915061323582614081565b602082019050919050565b600061324d601383613c1e565b9150613258826140aa565b602082019050919050565b6000613270601483613c1e565b915061327b826140d3565b602082019050919050565b6000613293601b83613c1e565b915061329e826140fc565b602082019050919050565b60006132b6601983613c1e565b91506132c182614125565b602082019050919050565b60006132d9601f83613c1e565b91506132e48261414e565b602082019050919050565b60006132fc602183613c1e565b915061330782614177565b604082019050919050565b600061331f601883613c1e565b915061332a826141c6565b602082019050919050565b6000613342601383613c1e565b915061334d826141ef565b602082019050919050565b6000613365601283613c1e565b915061337082614218565b602082019050919050565b6000613388601d83613c1e565b915061339382614241565b602082019050919050565b60006133ab602783613c1e565b91506133b68261426a565b604082019050919050565b60006133ce601083613c1e565b91506133d9826142b9565b602082019050919050565b60006133f1601183613c1e565b91506133fc826142e2565b602082019050919050565b6000613414601583613c1e565b915061341f8261430b565b602082019050919050565b6000613437601983613c1e565b915061344282614334565b602082019050919050565b600061345a601183613c1e565b91506134658261435d565b602082019050919050565b600061347d602183613c1e565b915061348882614386565b604082019050919050565b60006134a0601183613c1e565b91506134ab826143d5565b602082019050919050565b60006134c3601483613c1e565b91506134ce826143fe565b602082019050919050565b60006134e6601783613c2f565b91506134f182614427565b601782019050919050565b6000613509602683613c1e565b915061351482614450565b604082019050919050565b600061352c602d83613c1e565b91506135378261449f565b604082019050919050565b600061354f601783613c1e565b915061355a826144ee565b602082019050919050565b6000613572601183613c2f565b915061357d82614517565b601182019050919050565b6000613595602f83613c1e565b91506135a082614540565b604082019050919050565b6135b481613dc3565b82525050565b6135cb6135c682613dc3565b613f7e565b82525050565b6135e26135dd82613dcd565b613f88565b82525050565b60006135f48288613154565b6020820191506136048287613154565b60208201915061361482866130aa565b60148201915061362482856135ba565b60208201915061363482846135d1565b6004820191508190509695505050505050565b600061365382846131ec565b915081905092915050565b6000613669826134d9565b915061367582856131ec565b915061368082613565565b915061368c82846131ec565b91508190509392505050565b60006020820190506136ad600083018461309b565b92915050565b60006060820190506136c8600083018661309b565b6136d5602083018561309b565b6136e260408301846135ab565b949350505050565b60006040820190506136ff600083018561309b565b61370c60208301846135ab565b9392505050565b600060a082019050613728600083018861309b565b61373560208301876135ab565b61374260408301866135ab565b818103606083015261375481856131b3565b9050818103608083015261376881846131b3565b90509695505050505050565b6000602082019050818103600083015261378e81846130c1565b905092915050565b60006020820190506137ab6000830184613136565b92915050565b60006020820190506137c66000830184613145565b92915050565b60006020820190506137e1600083018461316b565b92915050565b6000602082019050818103600083015261380181846131b3565b905092915050565b600060208201905081810360008301526138228161321d565b9050919050565b6000602082019050818103600083015261384281613240565b9050919050565b6000602082019050818103600083015261386281613263565b9050919050565b6000602082019050818103600083015261388281613286565b9050919050565b600060208201905081810360008301526138a2816132a9565b9050919050565b600060208201905081810360008301526138c2816132cc565b9050919050565b600060208201905081810360008301526138e2816132ef565b9050919050565b6000602082019050818103600083015261390281613312565b9050919050565b6000602082019050818103600083015261392281613335565b9050919050565b6000602082019050818103600083015261394281613358565b9050919050565b600060208201905081810360008301526139628161337b565b9050919050565b600060208201905081810360008301526139828161339e565b9050919050565b600060208201905081810360008301526139a2816133c1565b9050919050565b600060208201905081810360008301526139c2816133e4565b9050919050565b600060208201905081810360008301526139e281613407565b9050919050565b60006020820190508181036000830152613a028161342a565b9050919050565b60006020820190508181036000830152613a228161344d565b9050919050565b60006020820190508181036000830152613a4281613470565b9050919050565b60006020820190508181036000830152613a6281613493565b9050919050565b60006020820190508181036000830152613a82816134b6565b9050919050565b60006020820190508181036000830152613aa2816134fc565b9050919050565b60006020820190508181036000830152613ac28161351f565b9050919050565b60006020820190508181036000830152613ae281613542565b9050919050565b60006020820190508181036000830152613b0281613588565b9050919050565b6000602082019050613b1e60008301846135ab565b92915050565b6000604082019050613b3960008301856135ab565b613b4660208301846135ab565b9392505050565b6000613b57613b68565b9050613b638282613eac565b919050565b6000604051905090565b600067ffffffffffffffff821115613b8d57613b8c614027565b5b602082029050919050565b600067ffffffffffffffff821115613bb357613bb2614027565b5b613bbc82614056565b9050602081019050919050565b6000819050602082019050919050565b600081519050919050565b600081519050919050565b6000602082019050919050565b600082825260208201905092915050565b600082825260208201905092915050565b600082825260208201905092915050565b600081905092915050565b6000613c4582613dc3565b9150613c5083613dc3565b9250827fffffffffffffffffffffffffffffffffffffffffffffffffffffffffffffffff03821115613c8557613c84613f9a565b5b828201905092915050565b6000613c9b82613dc3565b9150613ca683613dc3565b925082613cb657613cb5613fc9565b5b828204905092915050565b6000613ccc82613dc3565b9150613cd783613dc3565b9250817fffffffffffffffffffffffffffffffffffffffffffffffffffffffffffffffff0483118215151615613d1057613d0f613f9a565b5b828202905092915050565b6000613d2682613dc3565b9150613d3183613dc3565b925082821015613d4457613d43613f9a565b5b828203905092915050565b6000613d5a82613da3565b9050919050565b60008115159050919050565b6000819050919050565b60007fffffffff0000000000000000000000000000000000000000000000000000000082169050919050565b600073ffffffffffffffffffffffffffffffffffffffff82169050919050565b6000819050919050565b600063ffffffff82169050919050565b600060ff82169050919050565b6000613df582613dfc565b9050919050565b6000613e0782613da3565b9050919050565b82818337600083830152505050565b60005b83811015613e3b578082015181840152602081019050613e20565b83811115613e4a576000848401525b50505050565b6000613e5b82613dc3565b91506000821415613e6f57613e6e613f9a565b5b600182039050919050565b60006002820490506001821680613e9257607f821691505b60208210811415613ea657613ea5613ff8565b5b50919050565b613eb582614056565b810181811067ffffffffffffffff82111715613ed457613ed3614027565b5b80604052505050565b6000613ee882613dc3565b91507fffffffffffffffffffffffffffffffffffffffffffffffffffffffffffffffff821415613f1b57613f1a613f9a565b5b600182019050919050565b6000613f3182613ddd565b915060ff821415613f4557613f44613f9a565b5b600182019050919050565b6000613f5b82613f6c565b9050919050565b6000819050919050565b6000613f7782614074565b9050919050565b6000819050919050565b6000613f9382614067565b9050919050565b7f4e487b7100000000000000000000000000000000000000000000000000000000600052601160045260246000fd5b7f4e487b7100000000000000000000000000000000000000000000000000000000600052601260045260246000fd5b7f4e487b7100000000000000000000000000000000000000000000000000000000600052602260045260246000fd5b7f4e487b7100000000000000000000000000000000000000000000000000000000600052604160045260246000fd5b6000601f19601f8301169050919050565b60008160e01b9050919050565b60008160601b9050919050565b7f537472696e67733a20686578206c656e67746820696e73756666696369656e74600082015250565b7f4272696467653a20616d6f756e74206973203000000000000000000000000000600082015250565b7f5061757361626c653a206e6f7420706175736564000000000000000000000000600082015250565b7f4272696467653a20696e737566696369656e742062616c616e63650000000000600082015250565b7f4272696467653a20616c72656164792070726f63657373656400000000000000600082015250565b7f4272696467653a207472616e73616374696f6e48617368206973206e756c6c00600082015250565b7f4272696467652072656365697665546f6b656e733a20616d6f756e742069732060008201527f3000000000000000000000000000000000000000000000000000000000000000602082015250565b7f4272696467653a207265636569766572206973207a65726f0000000000000000600082015250565b7f4272696467653a206e6f74206d6f6e69746f7200000000000000000000000000600082015250565b7f4272696467653a206e6f2062616c616e63650000000000000000000000000000600082015250565b7f4272696467653a20626c6f636b636861696e206e6f7420657869737473000000600082015250565b7f4272696467652072656365697665546f6b656e733a20746f416464726573732060008201527f6973206e756c6c00000000000000000000000000000000000000000000000000602082015250565b7f5061757361626c653a2070617573656400000000000000000000000000000000600082015250565b7f4272696467653a206e6f2073656e646572000000000000000000000000000000600082015250565b7f4272696467653a206e6f20626c6f636b636861696e0000000000000000000000600082015250565b7f4272696467653a20626c6f636b48617368206973206e756c6c00000000000000600082015250565b7f4272696467653a206e6f74206f776e6572000000000000000000000000000000600082015250565b7f4272696467653a20626c6f636b636861696e20616c726561647920657869737460008201527f7300000000000000000000000000000000000000000000000000000000000000602082015250565b7f4272696467653a206e6f742061646d696e000000000000000000000000000000600082015250565b7f4272696467653a207a65726f2061646472657373000000000000000000000000600082015250565b7f416363657373436f6e74726f6c3a206163636f756e7420000000000000000000600082015250565b7f4272696467653a207265717569726573206174206c65617374203120626c6f6360008201527f6b636861696e0000000000000000000000000000000000000000000000000000602082015250565b7f4272696467652072656365697665546f6b656e733a20746f426c6f636b63686160008201527f696e204e4f542065786973747300000000000000000000000000000000000000602082015250565b7f4272696467653a20626967676572207468616e20313025000000000000000000600082015250565b7f206973206d697373696e6720726f6c6520000000000000000000000000000000600082015250565b7f416363657373436f6e74726f6c3a2063616e206f6e6c792072656e6f756e636560008201527f20726f6c657320666f722073656c660000000000000000000000000000000000602082015250565b61459881613d4f565b81146145a357600080fd5b50565b6145af81613d61565b81146145ba57600080fd5b50565b6145c681613d6d565b81146145d157600080fd5b50565b6145dd81613d77565b81146145e857600080fd5b50565b6145f481613dc3565b81146145ff57600080fd5b50565b61460b81613dcd565b811461461657600080fd5b5056fea2646970667358221220c91b9c5cd32fd4fc3cde654b7df0858c2ca0359eed5a4f45082b8def4884309164736f6c63430008040033",
  "immutableReferences": {},
  "source": "// SPDX-License-Identifier: MIT\npragma solidity 0.8.4;\n\n/// @title BRZ token Bridge\n/// @author Solange Gueiros\n\n// Inpired on https://github.com/rsksmart/tokenbridge/blob/master/bridge/contracts/Bridge.sol\n\n// AccessControl.sol :  https://github.com/OpenZeppelin/openzeppelin-contracts/blob/v4.1.0/contracts/access/AccessControl.sol\n// Pausable.sol :       https://github.com/OpenZeppelin/openzeppelin-contracts/blob/v4.1.0/contracts/security/Pausable.sol\n// SafeMath.sol :       https://github.com/OpenZeppelin/openzeppelin-contracts/blob/v4.1.0/contracts/utils/math/SafeMath.sol\nimport \"./ozeppelin/access/AccessControl.sol\";\nimport \"./ozeppelin/security/Pausable.sol\";\nimport \"./ozeppelin/utils/math/SafeMath.sol\";\nimport \"./IBridge.sol\";\n\n/**\n * @dev BRZ token Bridge\n * Author: Solange Gueiros \n *\n * Smart contract to cross the BRZ token between EVM compatible blockchains.\n * \n * It is crossed by TransferoSwiss, the company that controls the issuance of BRZs.\n *\n * It uses Open Zeppelin Contracts.\n * - Source: https://github.com/OpenZeppelin/openzeppelin-contracts/blob/v4.1.0/\n*/\ncontract Bridge is AccessControl, IBridge, Pausable {\n  using SafeMath for uint256;\n\n  address private constant ZERO_ADDRESS = address(0);\n  bytes32 private constant NULL_HASH = bytes32(0);\n  bytes32 public constant MONITOR_ROLE = keccak256(\"MONITOR_ROLE\");\n\n  /**\n  * @dev DECIMALPERCENT is the representation of 100% using (2) decimal places\n  * 100.00 = percentage accuracy (2) to 100%\n  */\n  uint256 public constant DECIMALPERCENT = 10000; \n\n  IERC20 public token;\n  uint256 private totalFeeReceivedBridge; //fee received per Bridge, not for transaction in other blockchain\n  uint256 private feePercentageBridge; //Include 2 decimal places\n  string[] public blockchain;\n  mapping(bytes32 => bool) public processed;\n\n  /**\n  * @dev function called only when the smart contract is deployed.\n  *\n  * Parameters: \n  * - address tokenAddress - address of BRZ token used in this blockchain network\n  * \n  * Actions:\n  * - the transaction's sender will be added in the DEFAULT_ADMIN_ROLE.\n  * - the token will be defined by the parameter tokenAddress\n  * - the feePercentageBridge default value is be setted in 10, which means 0.1%\n  */\n  constructor(address tokenAddress) {\n    _setupRole(DEFAULT_ADMIN_ROLE, _msgSender());\n    token = IERC20(tokenAddress);\n    feePercentageBridge = 10; //0.1%\n  }\n\n  /**\n  * @dev Function which returns the bridge's version\n  *\n  * This is a fixed value define in source code\n  *\n  * Parameters: nothing\n  * \n  * Returns: string\n  */\n  function version() override external pure returns (string memory) {\n    return \"v0\";\n  }\n\n  /**\n  * @dev Modifier which verifies if the caller is an owner, \n  * it means he has the role `DEFAULT_ADMIN_ROLE`.\n  *\n  * The role `DEFAULT_ADMIN_ROLE` is defined by Open Zeppelin's AccessControl smart contract.\n  *\n  * By default (setted in the constructor) the account which deployed this smart contract is in this role.\n  * This owner can add / remove other owners.\n  */\n  modifier onlyOwner() {\n    require(hasRole(DEFAULT_ADMIN_ROLE, _msgSender()), \"Bridge: not owner\");\n    _;\n  }\n\n  /**\n  * @dev Modifier which verifies if the caller is a monitor,\n  * it means he has the role `MONITOR_ROLE`.\n  *\n  * Role MONITOR are referred to its `bytes32` identifier, \n  * defined in the `public constant` called MONITOR_ROLE. \n  * It should be exposed in the external API and be unique.\n  * \n  * Role MONITOR is used to manage the permissions of monitor's addresses.\n  */ \n  modifier onlyMonitor() {\n    require(hasRole(MONITOR_ROLE, _msgSender()), \"Bridge: not monitor\");\n    _;\n  }\n\n  /**\n  * @dev Private function to compare two strings\n  * and returns `true` if the strings are equal, \n  * otherwise it returns false.\n  *\n  * Parameters: stringA, stringB\n  * \n  * Returns: bool  \n  */\n  function compareStrings(string memory a, string memory b)\n    private\n    pure\n    returns (bool)\n  {\n    return (keccak256(abi.encodePacked((a))) ==\n      keccak256(abi.encodePacked((b))));\n  }\n\n  /**\n  * @dev This function starts the process of crossing tokens in the Bridge.\n  * - Any person can call it!\n  *\n  * It will calls the internal function which really do the action.\n  * \n  * Can not be called if the Bridge is paused.\n  * \n  * Parameters:\n  * - amount - gross amount of tokens to be crossed.\n  * - The Bridge fee will be deducted from this amount.\n  * transactionFee - array with the fees:\n  * - transactionFee[0] - fee in BRL - this fee will be added to amount transfered from caller's account\n  * - transactionFee[1] - fee in destiny currency(minor unit) - this information will be \n  * used in the destination Blockchain, by the monitor who will create the transaction and send using this fee defined here. \n  * - toBlockchain - the amount will be sent to this blockchain\n  * - toAddress - the amount will be sent to this address. It can be diferent from caller's address.\n  * This is a string because some blockchain could not have the same pattern from Etherem / RSK / BSC\n  *\n  * Returns: bool - true if it is sucessful\n  *\n  * More about Fees:\n  *\n  * Blockchain / transaction fee in BRL - it will be transfered from user's account,\n  * along with the amount he wants to receive in the account to be spent in `toBlockchain`.\n  * Does not depend of amount, but of destination Blockchain.  \n  * \n  * Bridge Fee - it is deducted from the requested amount.\n  * It is a percentage of the requested amount.\n  * Cannot include the transaction fee in order to be calculated.\n  *  \n  * > Before call this function, the caller MUST have called function `approve` in BRZ token\n  * > Allowing the bridge's smart contract address to use the BRZ tokens,\n  * > calling the function `transferFrom`\n  *\n  * References:\n  *\n  * ERC-20 tokens approve and transferFrom pattern: \n  * [eip-20#transferfrom](https://eips.ethereum.org/EIPS/eip-20#transferfrom)\n  *\n  * Requires:\n  * - existsBlockchain(toBlockchain)\n  * - toAddress is not \"\"\n  * - amount > 0\n  *\n  * Actions:\n  * - add the blockchain fee in BRZ to amount in BRZ, in totalAmount\n  * - BRZ transfer totalAmount from the caller's address to bridge address\n  * - calculate bridge's fee using the original amount to be sent\n  * - discount bridge's fee from the original amount, in amountMinusFees\n  * - add bridge's fee to `totalFeeReceivedBridge`, a variable to store all the fees received by the bridge\n  * - emit the event `CrossRequest`, with the parameters:\n  *   - \n  *   - \n  *   - \n  *   - \n  *   - \n  *\n  * The `CrossRequest` is very important because it must be listened by the monitors \n  * that will send the transaction on the destination blockchain\n  *     \n  */\n  function receiveTokens(\n    uint256 amount,\n    uint256[2] memory transactionFee,\n    string memory toBlockchain,\n    string memory toAddress\n  ) external override returns (bool) {\n    require(\n      existsBlockchain(toBlockchain),\n      \"Bridge receiveTokens: toBlockchain NOT exists\"\n    );\n    require(\n      !compareStrings(toAddress, \"\"),\n      \"Bridge receiveTokens: toAddress is null\"\n    );\n    require(amount > 0, \"Bridge receiveTokens: amount is 0\");\n\n    //The total amount is the amount desired plus the blockchain fee to destination, in the token unit\n    uint256 totalAmount = amount.add(transactionFee[0]);\n\n    //Bridge Fee\n    uint256 bridgeFee = amount.mul(feePercentageBridge).div(DECIMALPERCENT);\n    uint256 amountMinusFees = amount.sub(bridgeFee);\n    totalFeeReceivedBridge = totalFeeReceivedBridge.add(bridgeFee);\n\n    //This is the message for Monitor off-chain manage the transaction and send the tokens on the other Blockchain\n    emit CrossRequest(\n      _msgSender(),\n      amountMinusFees,\n      transactionFee[1],\n      toAddress,\n      toBlockchain\n    );\n\n    //Transfer the tokens on IERC20, they should be already approved for the bridge Address to use them\n    token.transferFrom(_msgSender(), address(this), totalAmount);\n    return true;\n  }\n\n\n\n  function acceptTransfer(\n    address receiver,\n    uint256 amount,\n    string calldata sender,\n    string calldata toBlockchain,\n    bytes32[2] calldata hashes, //blockHash, transactionHash\n    uint32 logIndex\n  ) override external onlyMonitor whenNotPaused returns (bool) {\n    require(receiver != ZERO_ADDRESS, \"Bridge: receiver is zero\");\n    require(amount > 0, \"Bridge: amount is 0\");\n    require(bytes(sender).length > 0, \"Bridge: no sender\");\n    require(bytes(toBlockchain).length > 0, \"Bridge: no blockchain\");\n    require(hashes[0] != NULL_HASH, \"Bridge: blockHash is null\");\n    require(hashes[1] != NULL_HASH, \"Bridge: transactionHash is null\");\n\n    _processTransaction(hashes, receiver, amount, logIndex);\n    _sendToken(receiver, amount);\n    return true;\n  }\n\n\n  function _sendToken(address to, uint256 amount) private onlyMonitor whenNotPaused returns (bool) {\n    require(token.balanceOf(address(this)) >= amount, \"Bridge: no balance\");\n    token.transfer(to, amount);\n    return true;\n  }\n\n  function getTransactionId(\n    bytes32[2] calldata hashes, //blockHash, transactionHash\n    address receiver,\n    uint256 amount,\n    uint32 logIndex\n  ) public pure override returns (bytes32) {\n    return\n      keccak256(\n        abi.encodePacked(hashes[0], hashes[1], receiver, amount, logIndex)\n      );\n  }\n\n  function _processTransaction(\n    bytes32[2] calldata hashes, //blockHash, transactionHash\n    address receiver,\n    uint256 amount,\n    uint32 logIndex\n  ) private {\n    bytes32 transactionId = getTransactionId(hashes, receiver, amount, logIndex);\n    require(!processed[transactionId], \"Bridge: already processed\");\n    processed[transactionId] = true;\n  }\n\n  function addMonitor(address monitorAddress) external onlyOwner whenNotPaused returns (bool) {\n    //Can be called only by the account defined in constructor: DEFAULT_ADMIN_ROLE\n    grantRole(MONITOR_ROLE, monitorAddress);\n    return true;\n  }\n\n  function delMonitor(address monitorAddress) external onlyOwner whenNotPaused returns (bool) {\n    //Can be called only by the account defined in constructor: DEFAULT_ADMIN_ROLE\n    revokeRole(MONITOR_ROLE, monitorAddress);\n    return true;\n  }\n\n  function setFeePercentageBridge(uint256 newFee) external onlyOwner whenNotPaused returns (bool) {\n    require(hasRole(DEFAULT_ADMIN_ROLE, _msgSender()), \"Bridge: not admin\");\n    require(newFee < (DECIMALPERCENT / 10), \"Bridge: bigger than 10%\");\n    emit FeePercentageBridgeChanged(feePercentageBridge, newFee);\n    feePercentageBridge = newFee;\n    return true;\n  }\n\n  function getFeePercentageBridge() external view override returns (uint256) {\n    return feePercentageBridge;\n  }\n\n  function setToken(address tokenAddress) external onlyOwner whenNotPaused returns (bool) {\n    require(tokenAddress != ZERO_ADDRESS, \"Bridge: zero address\");\n    emit TokenChanged(tokenAddress);\n    token = IERC20(tokenAddress);\n    return true;\n  }\n\n  function getTotalFeeReceivedBridge() override external view returns (uint256) {\n    return totalFeeReceivedBridge;\n  }\n\n  function getTokenBalance() override external view returns (uint256) {\n    return token.balanceOf(address(this));\n  }\n\n  function withdrawToken(uint256 amount) external onlyOwner returns (bool) {\n    require(\n      amount <= token.balanceOf(address(this)),\n      \"Bridge: insuficient balance\"\n    );\n    token.transfer(_msgSender(), amount);\n    return true;\n  }\n\n  function existsBlockchain(string memory name) override public view returns (bool) {\n    for (uint8 i = 0; i < blockchain.length; i++) {\n      if (compareStrings(name, blockchain[i])) {\n        return true;\n      }\n    }\n    return false;\n  }\n\n  function listBlockchain() override external view returns (string[] memory) {\n    return blockchain;\n  }\n\n  function addBlockchain(string memory name) external onlyOwner whenNotPaused returns (uint256) {\n    require(!existsBlockchain(name), \"Bridge: blockchain already exists\");\n    blockchain.push(name);\n    return (blockchain.length - 1);\n  }\n\n  function delBlockchain(string memory name) external onlyOwner whenNotPaused returns (bool) {\n    require(existsBlockchain(name), \"Bridge: blockchain not exists\");\n    require(blockchain.length > 1, \"Bridge: requires at least 1 blockchain\");\n\n    uint256 index;\n    for (uint256 i = 0; i < blockchain.length; i++) {\n      if (compareStrings(name, blockchain[i])) {\n        index = i;\n        break;\n      }\n    }\n    blockchain[index] = blockchain[blockchain.length - 1];\n    blockchain.pop();\n    return true;\n  }\n\n  function pause() external onlyOwner {\n    /**\n     * @dev See {Pausable-_pause}.\n     *\n     * Requirements:\n     *\n     * - The contract must not be paused.\n     */\n    _pause();\n  }\n\n  function unpause() external onlyOwner {\n    /**\n     * @dev See {Pausable-_unpause}.\n     *\n     * Requirements:\n     *\n     * - The contract must be paused.\n     */\n    _unpause();\n  }\n}\n",
  "sourcePath": "C:\\BLOCKCHAIN\\TRANSFERO\\GITHUB\\brz-token-bridge-SOL\\contracts\\Bridge.sol",
  "compiler": {
    "name": "solc",
    "version": "0.8.4+commit.c7e474f2.Emscripten.clang"
  },
  "schemaVersion": "3.4.3",
  "updatedAt": "2021-09-01T22:57:07.570Z",
  "devdoc": {
    "details": "BRZ token Bridge Author: Solange Gueiros  Smart contract to cross the BRZ token between EVM compatible blockchains.  It is crossed by TransferoSwiss, the company that controls the issuance of BRZs. It uses Open Zeppelin Contracts. - Source: https://github.com/OpenZeppelin/openzeppelin-contracts/blob/v4.1.0/",
    "kind": "dev",
    "methods": {
      "constructor": {
        "details": "function called only when the smart contract is deployed. Parameters:  - address tokenAddress - address of BRZ token used in this blockchain network  Actions: - the transaction's sender will be added in the DEFAULT_ADMIN_ROLE. - the token will be defined by the parameter tokenAddress - the feePercentageBridge default value is be setted in 10, which means 0.1%"
      },
      "getRoleAdmin(bytes32)": {
        "details": "Returns the admin role that controls `role`. See {grantRole} and {revokeRole}. To change a role's admin, use {_setRoleAdmin}."
      },
      "grantRole(bytes32,address)": {
        "details": "Grants `role` to `account`. If `account` had not been already granted `role`, emits a {RoleGranted} event. Requirements: - the caller must have ``role``'s admin role."
      },
      "hasRole(bytes32,address)": {
        "details": "Returns `true` if `account` has been granted `role`."
      },
      "paused()": {
        "details": "Returns true if the contract is paused, and false otherwise."
      },
      "receiveTokens(uint256,uint256[2],string,string)": {
        "details": "This function starts the process of crossing tokens in the Bridge. - Any person can call it! It will calls the internal function which really do the action.  Can not be called if the Bridge is paused.  Parameters: - amount - gross amount of tokens to be crossed. - The Bridge fee will be deducted from this amount. transactionFee - array with the fees: - transactionFee[0] - fee in BRL - this fee will be added to amount transfered from caller's account - transactionFee[1] - fee in destiny currency(minor unit) - this information will be  used in the destination Blockchain, by the monitor who will create the transaction and send using this fee defined here.  - toBlockchain - the amount will be sent to this blockchain - toAddress - the amount will be sent to this address. It can be diferent from caller's address. This is a string because some blockchain could not have the same pattern from Etherem / RSK / BSC Returns: bool - true if it is sucessful More about Fees: Blockchain / transaction fee in BRL - it will be transfered from user's account, along with the amount he wants to receive in the account to be spent in `toBlockchain`. Does not depend of amount, but of destination Blockchain.    Bridge Fee - it is deducted from the requested amount. It is a percentage of the requested amount. Cannot include the transaction fee in order to be calculated.   > Before call this function, the caller MUST have called function `approve` in BRZ token > Allowing the bridge's smart contract address to use the BRZ tokens, > calling the function `transferFrom` References: ERC-20 tokens approve and transferFrom pattern:  [eip-20#transferfrom](https://eips.ethereum.org/EIPS/eip-20#transferfrom) Requires: - existsBlockchain(toBlockchain) - toAddress is not \"\" - amount > 0 Actions: - add the blockchain fee in BRZ to amount in BRZ, in totalAmount - BRZ transfer totalAmount from the caller's address to bridge address - calculate bridge's fee using the original amount to be sent - discount bridge's fee from the original amount, in amountMinusFees - add bridge's fee to `totalFeeReceivedBridge`, a variable to store all the fees received by the bridge - emit the event `CrossRequest`, with the parameters:   -    -    -    -    -  The `CrossRequest` is very important because it must be listened by the monitors  that will send the transaction on the destination blockchain     "
      },
      "renounceRole(bytes32,address)": {
        "details": "Revokes `role` from the calling account. Roles are often managed via {grantRole} and {revokeRole}: this function's purpose is to provide a mechanism for accounts to lose their privileges if they are compromised (such as when a trusted device is misplaced). If the calling account had been granted `role`, emits a {RoleRevoked} event. Requirements: - the caller must be `account`."
      },
      "revokeRole(bytes32,address)": {
        "details": "Revokes `role` from `account`. If `account` had been granted `role`, emits a {RoleRevoked} event. Requirements: - the caller must have ``role``'s admin role."
      },
      "supportsInterface(bytes4)": {
        "details": "See {IERC165-supportsInterface}."
      },
      "version()": {
        "details": "Function which returns the bridge's version This is a fixed value define in source code Parameters: nothing  Returns: string"
      }
    },
    "stateVariables": {
      "DECIMALPERCENT": {
        "details": "DECIMALPERCENT is the representation of 100% using (2) decimal places 100.00 = percentage accuracy (2) to 100%"
      }
    },
    "version": 1
  },
  "userdoc": {
    "kind": "user",
    "methods": {},
    "version": 1
  }
}