{
  "contractName": "Bridge",
  "abi": [
    {
      "inputs": [
        {
          "internalType": "address",
          "name": "_tokenAddress",
          "type": "address"
        }
      ],
      "stateMutability": "nonpayable",
      "type": "constructor"
    },
    {
      "anonymous": false,
      "inputs": [
        {
          "indexed": false,
          "internalType": "address",
          "name": "_from",
          "type": "address"
        },
        {
          "indexed": false,
          "internalType": "uint256",
          "name": "_amount",
          "type": "uint256"
        },
        {
          "indexed": false,
          "internalType": "uint256",
          "name": "_toFee",
          "type": "uint256"
        },
        {
          "indexed": false,
          "internalType": "string",
          "name": "_toAddress",
          "type": "string"
        },
        {
          "indexed": false,
          "internalType": "string",
          "name": "_toBlockchain",
          "type": "string"
        }
      ],
      "name": "CrossRequest",
      "type": "event"
    },
    {
      "anonymous": false,
      "inputs": [
        {
          "indexed": false,
          "internalType": "address",
          "name": "account",
          "type": "address"
        }
      ],
      "name": "Paused",
      "type": "event"
    },
    {
      "anonymous": false,
      "inputs": [
        {
          "indexed": true,
          "internalType": "bytes32",
          "name": "role",
          "type": "bytes32"
        },
        {
          "indexed": true,
          "internalType": "bytes32",
          "name": "previousAdminRole",
          "type": "bytes32"
        },
        {
          "indexed": true,
          "internalType": "bytes32",
          "name": "newAdminRole",
          "type": "bytes32"
        }
      ],
      "name": "RoleAdminChanged",
      "type": "event"
    },
    {
      "anonymous": false,
      "inputs": [
        {
          "indexed": true,
          "internalType": "bytes32",
          "name": "role",
          "type": "bytes32"
        },
        {
          "indexed": true,
          "internalType": "address",
          "name": "account",
          "type": "address"
        },
        {
          "indexed": true,
          "internalType": "address",
          "name": "sender",
          "type": "address"
        }
      ],
      "name": "RoleGranted",
      "type": "event"
    },
    {
      "anonymous": false,
      "inputs": [
        {
          "indexed": true,
          "internalType": "bytes32",
          "name": "role",
          "type": "bytes32"
        },
        {
          "indexed": true,
          "internalType": "address",
          "name": "account",
          "type": "address"
        },
        {
          "indexed": true,
          "internalType": "address",
          "name": "sender",
          "type": "address"
        }
      ],
      "name": "RoleRevoked",
      "type": "event"
    },
    {
      "anonymous": false,
      "inputs": [
        {
          "indexed": false,
          "internalType": "address",
          "name": "_tokenAddress",
          "type": "address"
        }
      ],
      "name": "TokenChanged",
      "type": "event"
    },
    {
      "anonymous": false,
      "inputs": [
        {
          "indexed": false,
          "internalType": "address",
          "name": "account",
          "type": "address"
        }
      ],
      "name": "Unpaused",
      "type": "event"
    },
    {
      "anonymous": false,
      "inputs": [
        {
          "indexed": false,
          "internalType": "uint256",
          "name": "_oldFee",
          "type": "uint256"
        },
        {
          "indexed": false,
          "internalType": "uint256",
          "name": "_newFee",
          "type": "uint256"
        }
      ],
      "name": "feePercentageBridgeChanged",
      "type": "event"
    },
    {
      "inputs": [],
      "name": "DEFAULT_ADMIN_ROLE",
      "outputs": [
        {
          "internalType": "bytes32",
          "name": "",
          "type": "bytes32"
        }
      ],
      "stateMutability": "view",
      "type": "function"
    },
    {
      "inputs": [],
      "name": "MONITOR_ROLE",
      "outputs": [
        {
          "internalType": "bytes32",
          "name": "",
          "type": "bytes32"
        }
      ],
      "stateMutability": "view",
      "type": "function"
    },
    {
      "inputs": [
        {
          "internalType": "uint256",
          "name": "",
          "type": "uint256"
        }
      ],
      "name": "blockchain",
      "outputs": [
        {
          "internalType": "string",
          "name": "",
          "type": "string"
        }
      ],
      "stateMutability": "view",
      "type": "function"
    },
    {
      "inputs": [],
      "name": "decimalpercent",
      "outputs": [
        {
          "internalType": "uint256",
          "name": "",
          "type": "uint256"
        }
      ],
      "stateMutability": "view",
      "type": "function"
    },
    {
      "inputs": [
        {
          "internalType": "bytes32",
          "name": "role",
          "type": "bytes32"
        }
      ],
      "name": "getRoleAdmin",
      "outputs": [
        {
          "internalType": "bytes32",
          "name": "",
          "type": "bytes32"
        }
      ],
      "stateMutability": "view",
      "type": "function"
    },
    {
      "inputs": [
        {
          "internalType": "bytes32",
          "name": "role",
          "type": "bytes32"
        },
        {
          "internalType": "address",
          "name": "account",
          "type": "address"
        }
      ],
      "name": "grantRole",
      "outputs": [],
      "stateMutability": "nonpayable",
      "type": "function"
    },
    {
      "inputs": [
        {
          "internalType": "bytes32",
          "name": "role",
          "type": "bytes32"
        },
        {
          "internalType": "address",
          "name": "account",
          "type": "address"
        }
      ],
      "name": "hasRole",
      "outputs": [
        {
          "internalType": "bool",
          "name": "",
          "type": "bool"
        }
      ],
      "stateMutability": "view",
      "type": "function"
    },
    {
      "inputs": [],
      "name": "paused",
      "outputs": [
        {
          "internalType": "bool",
          "name": "",
          "type": "bool"
        }
      ],
      "stateMutability": "view",
      "type": "function"
    },
    {
      "inputs": [
        {
          "internalType": "bytes32",
          "name": "",
          "type": "bytes32"
        }
      ],
      "name": "processed",
      "outputs": [
        {
          "internalType": "bool",
          "name": "",
          "type": "bool"
        }
      ],
      "stateMutability": "view",
      "type": "function"
    },
    {
      "inputs": [
        {
          "internalType": "bytes32",
          "name": "role",
          "type": "bytes32"
        },
        {
          "internalType": "address",
          "name": "account",
          "type": "address"
        }
      ],
      "name": "renounceRole",
      "outputs": [],
      "stateMutability": "nonpayable",
      "type": "function"
    },
    {
      "inputs": [
        {
          "internalType": "bytes32",
          "name": "role",
          "type": "bytes32"
        },
        {
          "internalType": "address",
          "name": "account",
          "type": "address"
        }
      ],
      "name": "revokeRole",
      "outputs": [],
      "stateMutability": "nonpayable",
      "type": "function"
    },
    {
      "inputs": [
        {
          "internalType": "bytes4",
          "name": "interfaceId",
          "type": "bytes4"
        }
      ],
      "name": "supportsInterface",
      "outputs": [
        {
          "internalType": "bool",
          "name": "",
          "type": "bool"
        }
      ],
      "stateMutability": "view",
      "type": "function"
    },
    {
      "inputs": [],
      "name": "token",
      "outputs": [
        {
          "internalType": "contract IERC20",
          "name": "",
          "type": "address"
        }
      ],
      "stateMutability": "view",
      "type": "function"
    },
    {
      "inputs": [],
      "name": "version",
      "outputs": [
        {
          "internalType": "string",
          "name": "",
          "type": "string"
        }
      ],
      "stateMutability": "pure",
      "type": "function"
    },
    {
      "inputs": [
        {
          "internalType": "uint256",
          "name": "amount",
          "type": "uint256"
        },
        {
          "internalType": "uint256[2]",
          "name": "transactionFee",
          "type": "uint256[2]"
        },
        {
          "internalType": "string",
          "name": "toBlockchain",
          "type": "string"
        },
        {
          "internalType": "string",
          "name": "toAddress",
          "type": "string"
        }
      ],
      "name": "receiveTokens",
      "outputs": [
        {
          "internalType": "bool",
          "name": "",
          "type": "bool"
        }
      ],
      "stateMutability": "nonpayable",
      "type": "function"
    },
    {
      "inputs": [
        {
          "internalType": "address",
          "name": "receiver",
          "type": "address"
        },
        {
          "internalType": "uint256",
          "name": "amount",
          "type": "uint256"
        },
        {
          "internalType": "string",
          "name": "sender",
          "type": "string"
        },
        {
          "internalType": "string",
          "name": "toBlockchain",
          "type": "string"
        },
        {
          "internalType": "bytes32[2]",
          "name": "hashes",
          "type": "bytes32[2]"
        },
        {
          "internalType": "uint32",
          "name": "logIndex",
          "type": "uint32"
        }
      ],
      "name": "acceptTransfer",
      "outputs": [
        {
          "internalType": "bool",
          "name": "",
          "type": "bool"
        }
      ],
      "stateMutability": "nonpayable",
      "type": "function"
    },
    {
      "inputs": [
        {
          "internalType": "bytes32[2]",
          "name": "_hashes",
          "type": "bytes32[2]"
        },
        {
          "internalType": "address",
          "name": "_receiver",
          "type": "address"
        },
        {
          "internalType": "uint256",
          "name": "_amount",
          "type": "uint256"
        },
        {
          "internalType": "uint32",
          "name": "_logIndex",
          "type": "uint32"
        }
      ],
      "name": "getTransactionId",
      "outputs": [
        {
          "internalType": "bytes32",
          "name": "",
          "type": "bytes32"
        }
      ],
      "stateMutability": "pure",
      "type": "function"
    },
    {
      "inputs": [
        {
          "internalType": "address",
          "name": "_monitorAddress",
          "type": "address"
        }
      ],
      "name": "addMonitor",
      "outputs": [
        {
          "internalType": "bool",
          "name": "",
          "type": "bool"
        }
      ],
      "stateMutability": "nonpayable",
      "type": "function"
    },
    {
      "inputs": [
        {
          "internalType": "address",
          "name": "_monitorAddress",
          "type": "address"
        }
      ],
      "name": "delMonitor",
      "outputs": [
        {
          "internalType": "bool",
          "name": "",
          "type": "bool"
        }
      ],
      "stateMutability": "nonpayable",
      "type": "function"
    },
    {
      "inputs": [
        {
          "internalType": "uint256",
          "name": "newFee",
          "type": "uint256"
        }
      ],
      "name": "setfeePercentageBridge",
      "outputs": [
        {
          "internalType": "bool",
          "name": "",
          "type": "bool"
        }
      ],
      "stateMutability": "nonpayable",
      "type": "function"
    },
    {
      "inputs": [],
      "name": "getfeePercentageBridge",
      "outputs": [
        {
          "internalType": "uint256",
          "name": "",
          "type": "uint256"
        }
      ],
      "stateMutability": "view",
      "type": "function"
    },
    {
      "inputs": [
        {
          "internalType": "address",
          "name": "_tokenAddress",
          "type": "address"
        }
      ],
      "name": "setToken",
      "outputs": [
        {
          "internalType": "bool",
          "name": "",
          "type": "bool"
        }
      ],
      "stateMutability": "nonpayable",
      "type": "function"
    },
    {
      "inputs": [],
      "name": "gettotalFeeReceived",
      "outputs": [
        {
          "internalType": "uint256",
          "name": "",
          "type": "uint256"
        }
      ],
      "stateMutability": "view",
      "type": "function"
    },
    {
      "inputs": [],
      "name": "getTokenBalance",
      "outputs": [
        {
          "internalType": "uint256",
          "name": "",
          "type": "uint256"
        }
      ],
      "stateMutability": "view",
      "type": "function"
    },
    {
      "inputs": [
        {
          "internalType": "uint256",
          "name": "amount",
          "type": "uint256"
        }
      ],
      "name": "withdrawToken",
      "outputs": [
        {
          "internalType": "bool",
          "name": "",
          "type": "bool"
        }
      ],
      "stateMutability": "nonpayable",
      "type": "function"
    },
    {
      "inputs": [
        {
          "internalType": "string",
          "name": "name",
          "type": "string"
        }
      ],
      "name": "existsBlockchain",
      "outputs": [
        {
          "internalType": "bool",
          "name": "",
          "type": "bool"
        }
      ],
      "stateMutability": "view",
      "type": "function"
    },
    {
      "inputs": [],
      "name": "listBlockchain",
      "outputs": [
        {
          "internalType": "string[]",
          "name": "",
          "type": "string[]"
        }
      ],
      "stateMutability": "view",
      "type": "function"
    },
    {
      "inputs": [
        {
          "internalType": "string",
          "name": "name",
          "type": "string"
        }
      ],
      "name": "addBlockchain",
      "outputs": [
        {
          "internalType": "uint256",
          "name": "",
          "type": "uint256"
        }
      ],
      "stateMutability": "nonpayable",
      "type": "function"
    },
    {
      "inputs": [
        {
          "internalType": "string",
          "name": "name",
          "type": "string"
        }
      ],
      "name": "delBlockchain",
      "outputs": [
        {
          "internalType": "bool",
          "name": "",
          "type": "bool"
        }
      ],
      "stateMutability": "nonpayable",
      "type": "function"
    }
  ],
  "bytecode": "0x60806040523480156200001157600080fd5b50604051620045a2380380620045a283398181016040528101906200003791906200024d565b6000600160006101000a81548160ff021916908315150217905550620000766000801b6200006a620000bd60201b60201c565b620000c560201b60201c565b806001806101000a81548173ffffffffffffffffffffffffffffffffffffffff021916908373ffffffffffffffffffffffffffffffffffffffff16021790555050620002c7565b600033905090565b620000d78282620000db60201b60201c565b5050565b620000ed8282620001cc60201b60201c565b620001c857600160008084815260200190815260200160002060000160008373ffffffffffffffffffffffffffffffffffffffff1673ffffffffffffffffffffffffffffffffffffffff16815260200190815260200160002060006101000a81548160ff0219169083151502179055506200016d620000bd60201b60201c565b73ffffffffffffffffffffffffffffffffffffffff168173ffffffffffffffffffffffffffffffffffffffff16837f2f8788117e7eff1d82e926ec794901d17c78024a50270940304540a733656f0d60405160405180910390a45b5050565b600080600084815260200190815260200160002060000160008373ffffffffffffffffffffffffffffffffffffffff1673ffffffffffffffffffffffffffffffffffffffff16815260200190815260200160002060009054906101000a900460ff16905092915050565b6000815190506200024781620002ad565b92915050565b6000602082840312156200026057600080fd5b6000620002708482850162000236565b91505092915050565b600062000286826200028d565b9050919050565b600073ffffffffffffffffffffffffffffffffffffffff82169050919050565b620002b88162000279565b8114620002c457600080fd5b50565b6142cb80620002d76000396000f3fe608060405234801561001057600080fd5b50600436106101cf5760003560e01c806382b2e25711610104578063bb52228b116100a2578063d547741f11610071578063d547741f146105de578063e10ebf52146105fa578063e1343dae14610618578063fc0c546a14610636576101cf565b8063bb52228b1461051e578063c1f0808a1461054e578063c25b1eaf1461057e578063cd09fc28146105ae576101cf565b8063a217fddf116100de578063a217fddf14610482578063aeb670e3146104a0578063b8c48a28146104d0578063ba3131fc14610500576101cf565b806382b2e2571461040457806391d148541461042257806399cd19d314610452576101cf565b8063420c04f01161017157806354fd4d501161014b57806354fd4d501461037a5780635c975abb146103985780635d27fc70146103b65780637efc6063146103e6576101cf565b8063420c04f0146102fc5780634d9b47e21461032c57806350baa6221461034a576101cf565b8063144fa6d7116101ad578063144fa6d714610264578063248a9ca3146102945780632f2ff15d146102c457806336568abe146102e0576101cf565b806301ffc9a7146101d45780630c4dfa70146102045780630e7fef1e14610234575b600080fd5b6101ee60048036038101906101e99190612dd6565b610654565b6040516101fb91906135a8565b60405180910390f35b61021e60048036038101906102199190612e40565b6106ce565b60405161022b91906135a8565b60405180910390f35b61024e60048036038101906102499190612e92565b610858565b60405161025b91906135a8565b60405180910390f35b61027e60048036038101906102799190612bf9565b610870565b60405161028b91906135a8565b60405180910390f35b6102ae60048036038101906102a99190612d71565b6109fd565b6040516102bb91906135c3565b60405180910390f35b6102de60048036038101906102d99190612d9a565b610a1c565b005b6102fa60048036038101906102f59190612d9a565b610a45565b005b61031660048036038101906103119190612c22565b610ac8565b60405161032391906135a8565b60405180910390f35b610334610b6e565b60405161034191906135c3565b60405180910390f35b610364600480360381019061035f9190612e40565b610b92565b60405161037191906135a8565b60405180910390f35b610382610d90565b60405161038f91906135f9565b60405180910390f35b6103a0610dcd565b6040516103ad91906135a8565b60405180910390f35b6103d060048036038101906103cb9190612bf9565b610de4565b6040516103dd91906135a8565b60405180910390f35b6103ee610eb4565b6040516103fb919061389b565b60405180910390f35b61040c610ebe565b604051610419919061389b565b60405180910390f35b61043c60048036038101906104379190612d9a565b610f6e565b60405161044991906135a8565b60405180910390f35b61046c60048036038101906104679190612dff565b610fd8565b604051610479919061389b565b60405180910390f35b61048a611166565b60405161049791906135c3565b60405180910390f35b6104ba60048036038101906104b59190612ce5565b61116d565b6040516104c791906135c3565b60405180910390f35b6104ea60048036038101906104e59190612bf9565b611224565b6040516104f791906135a8565b60405180910390f35b6105086112f4565b604051610515919061389b565b60405180910390f35b61053860048036038101906105339190612dff565b6112fe565b60405161054591906135a8565b60405180910390f35b61056860048036038101906105639190612d71565b61169b565b60405161057591906135a8565b60405180910390f35b61059860048036038101906105939190612e40565b6116bb565b6040516105a591906135f9565b60405180910390f35b6105c860048036038101906105c39190612dff565b611767565b6040516105d591906135a8565b60405180910390f35b6105f860048036038101906105f39190612d9a565b611885565b005b6106026118ae565b60405161060f919061389b565b60405180910390f35b6106206118b4565b60405161062d9190613586565b60405180910390f35b61063e61198d565b60405161064b91906135de565b60405180910390f35b60007f7965db0b000000000000000000000000000000000000000000000000000000007bffffffffffffffffffffffffffffffffffffffffffffffffffffffff1916827bffffffffffffffffffffffffffffffffffffffffffffffffffffffff191614806106c757506106c6826119b1565b5b9050919050565b60006106e46000801b6106df611a1b565b610f6e565b610723576040517f08c379a000000000000000000000000000000000000000000000000000000000815260040161071a9061379b565b60405180910390fd5b61072b610dcd565b1561076b576040517f08c379a00000000000000000000000000000000000000000000000000000000081526004016107629061371b565b60405180910390fd5b61077f6000801b61077a611a1b565b610f6e565b6107be576040517f08c379a00000000000000000000000000000000000000000000000000000000081526004016107b5906137db565b60405180910390fd5b600a6127106107cd9190613a22565b821061080e576040517f08c379a00000000000000000000000000000000000000000000000000000000081526004016108059061385b565b60405180910390fd5b7e4a68e5352b38bd8e908b358a10ec64101330d0148eb30aa425fc168f35ce21600354836040516108409291906138b6565b60405180910390a18160038190555060019050919050565b600061086685858585611a23565b9050949350505050565b60006108866000801b610881611a1b565b610f6e565b6108c5576040517f08c379a00000000000000000000000000000000000000000000000000000000081526004016108bc9061379b565b60405180910390fd5b6108cd610dcd565b1561090d576040517f08c379a00000000000000000000000000000000000000000000000000000000081526004016109049061371b565b60405180910390fd5b600073ffffffffffffffffffffffffffffffffffffffff168273ffffffffffffffffffffffffffffffffffffffff16141561097d576040517f08c379a00000000000000000000000000000000000000000000000000000000081526004016109749061383b565b60405180910390fd5b816001806101000a81548173ffffffffffffffffffffffffffffffffffffffff021916908373ffffffffffffffffffffffffffffffffffffffff1602179055507f5d108ca248943e98e1886bbc2c38beda701271994a14354258a11692b81b73cf826040516109ec91906134aa565b60405180910390a160019050919050565b6000806000838152602001908152602001600020600101549050919050565b610a25826109fd565b610a3681610a31611a1b565b611c70565b610a408383611d0d565b505050565b610a4d611a1b565b73ffffffffffffffffffffffffffffffffffffffff168173ffffffffffffffffffffffffffffffffffffffff1614610aba576040517f08c379a0000000000000000000000000000000000000000000000000000000008152600401610ab19061387b565b60405180910390fd5b610ac48282611ded565b5050565b6000610b60898989898080601f016020809104026020016040519081016040528093929190818152602001838380828437600081840152601f19601f8201169050808301925050505050505088888080601f016020809104026020016040519081016040528093929190818152602001838380828437600081840152601f19601f820116905080830192505050505050508787611ece565b905098975050505050505050565b7f8227712ef8ad39d0f26f06731ef0df8665eb7ada7f41b1ee089adf3c238862a281565b6000610ba86000801b610ba3611a1b565b610f6e565b610be7576040517f08c379a0000000000000000000000000000000000000000000000000000000008152600401610bde9061379b565b60405180910390fd5b60018054906101000a900473ffffffffffffffffffffffffffffffffffffffff1673ffffffffffffffffffffffffffffffffffffffff166370a08231306040518263ffffffff1660e01b8152600401610c4091906134aa565b60206040518083038186803b158015610c5857600080fd5b505afa158015610c6c573d6000803e3d6000fd5b505050506040513d601f19601f82011682018060405250810190610c909190612e69565b821115610cd2576040517f08c379a0000000000000000000000000000000000000000000000000000000008152600401610cc99061365b565b60405180910390fd5b60018054906101000a900473ffffffffffffffffffffffffffffffffffffffff1673ffffffffffffffffffffffffffffffffffffffff1663a9059cbb610d16611a1b565b846040518363ffffffff1660e01b8152600401610d349291906134fc565b602060405180830381600087803b158015610d4e57600080fd5b505af1158015610d62573d6000803e3d6000fd5b505050506040513d601f19601f82011682018060405250810190610d869190612d48565b5060019050919050565b60606040518060400160405280600281526020017f7630000000000000000000000000000000000000000000000000000000000000815250905090565b6000600160009054906101000a900460ff16905090565b6000610dfa6000801b610df5611a1b565b610f6e565b610e39576040517f08c379a0000000000000000000000000000000000000000000000000000000008152600401610e309061379b565b60405180910390fd5b610e41610dcd565b15610e81576040517f08c379a0000000000000000000000000000000000000000000000000000000008152600401610e789061371b565b60405180910390fd5b610eab7f8227712ef8ad39d0f26f06731ef0df8665eb7ada7f41b1ee089adf3c238862a283611885565b60019050919050565b6000600354905090565b600060018054906101000a900473ffffffffffffffffffffffffffffffffffffffff1673ffffffffffffffffffffffffffffffffffffffff166370a08231306040518263ffffffff1660e01b8152600401610f1991906134aa565b60206040518083038186803b158015610f3157600080fd5b505afa158015610f45573d6000803e3d6000fd5b505050506040513d601f19601f82011682018060405250810190610f699190612e69565b905090565b600080600084815260200190815260200160002060000160008373ffffffffffffffffffffffffffffffffffffffff1673ffffffffffffffffffffffffffffffffffffffff16815260200190815260200160002060009054906101000a900460ff16905092915050565b6000610fee6000801b610fe9611a1b565b610f6e565b61102d576040517f08c379a00000000000000000000000000000000000000000000000000000000081526004016110249061379b565b60405180910390fd5b611035610dcd565b15611075576040517f08c379a000000000000000000000000000000000000000000000000000000000815260040161106c9061371b565b60405180910390fd5b6110896000801b611084611a1b565b610f6e565b6110c8576040517f08c379a00000000000000000000000000000000000000000000000000000000081526004016110bf906137db565b60405180910390fd5b6110d182611767565b15611111576040517f08c379a0000000000000000000000000000000000000000000000000000000008152600401611108906137bb565b60405180910390fd5b60048290806001815401808255809150506001900390600052602060002001600090919091909150908051906020019061114c92919061289c565b50600160048054905061115f9190613aad565b9050919050565b6000801b81565b6000846000600281106111a9577f4e487b7100000000000000000000000000000000000000000000000000000000600052603260045260246000fd5b6020020135856001600281106111e8577f4e487b7100000000000000000000000000000000000000000000000000000000600052603260045260246000fd5b60200201358585856040516020016112049594939291906133fa565b604051602081830303815290604052805190602001209050949350505050565b600061123a6000801b611235611a1b565b610f6e565b611279576040517f08c379a00000000000000000000000000000000000000000000000000000000081526004016112709061379b565b60405180910390fd5b611281610dcd565b156112c1576040517f08c379a00000000000000000000000000000000000000000000000000000000081526004016112b89061371b565b60405180910390fd5b6112eb7f8227712ef8ad39d0f26f06731ef0df8665eb7ada7f41b1ee089adf3c238862a283610a1c565b60019050919050565b6000600254905090565b60006113146000801b61130f611a1b565b610f6e565b611353576040517f08c379a000000000000000000000000000000000000000000000000000000000815260040161134a9061379b565b60405180910390fd5b61135b610dcd565b1561139b576040517f08c379a00000000000000000000000000000000000000000000000000000000081526004016113929061371b565b60405180910390fd5b6113af6000801b6113aa611a1b565b610f6e565b6113ee576040517f08c379a00000000000000000000000000000000000000000000000000000000081526004016113e5906137db565b60405180910390fd5b6113f782611767565b611436576040517f08c379a000000000000000000000000000000000000000000000000000000000815260040161142d906136fb565b60405180910390fd5b60016004805490501161147e576040517f08c379a00000000000000000000000000000000000000000000000000000000081526004016114759061381b565b60405180910390fd5b600080600090505b6004805490508110156115895761156984600483815481106114d1577f4e487b7100000000000000000000000000000000000000000000000000000000600052603260045260246000fd5b9060005260206000200180546114e690613c0c565b80601f016020809104026020016040519081016040528092919081815260200182805461151290613c0c565b801561155f5780601f106115345761010080835404028352916020019161155f565b820191906000526020600020905b81548152906001019060200180831161154257829003601f168201915b50505050506121f0565b1561157657809150611589565b808061158190613c6f565b915050611486565b506004600160048054905061159e9190613aad565b815481106115d5577f4e487b7100000000000000000000000000000000000000000000000000000000600052603260045260246000fd5b9060005260206000200160048281548110611619577f4e487b7100000000000000000000000000000000000000000000000000000000600052603260045260246000fd5b9060005260206000200190805461162f90613c0c565b61163a929190612922565b506004805480611673577f4e487b7100000000000000000000000000000000000000000000000000000000600052603160045260246000fd5b60019003818190600052602060002001600061168f91906129af565b90556001915050919050565b60056020528060005260406000206000915054906101000a900460ff1681565b600481815481106116cb57600080fd5b9060005260206000200160009150905080546116e690613c0c565b80601f016020809104026020016040519081016040528092919081815260200182805461171290613c0c565b801561175f5780601f106117345761010080835404028352916020019161175f565b820191906000526020600020905b81548152906001019060200180831161174257829003601f168201915b505050505081565b600080600090505b6004805490508160ff16101561187a576118588360048360ff16815481106117c0577f4e487b7100000000000000000000000000000000000000000000000000000000600052603260045260246000fd5b9060005260206000200180546117d590613c0c565b80601f016020809104026020016040519081016040528092919081815260200182805461180190613c0c565b801561184e5780601f106118235761010080835404028352916020019161184e565b820191906000526020600020905b81548152906001019060200180831161183157829003601f168201915b50505050506121f0565b15611867576001915050611880565b808061187290613cb8565b91505061176f565b50600090505b919050565b61188e826109fd565b61189f8161189a611a1b565b611c70565b6118a98383611ded565b505050565b61271081565b60606004805480602002602001604051908101604052809291908181526020016000905b828210156119845783829060005260206000200180546118f790613c0c565b80601f016020809104026020016040519081016040528092919081815260200182805461192390613c0c565b80156119705780601f1061194557610100808354040283529160200191611970565b820191906000526020600020905b81548152906001019060200180831161195357829003601f168201915b5050505050815260200190600101906118d8565b50505050905090565b60018054906101000a900473ffffffffffffffffffffffffffffffffffffffff1681565b60007f01ffc9a7000000000000000000000000000000000000000000000000000000007bffffffffffffffffffffffffffffffffffffffffffffffffffffffff1916827bffffffffffffffffffffffffffffffffffffffffffffffffffffffff1916149050919050565b600033905090565b6000611a2d610dcd565b15611a6d576040517f08c379a0000000000000000000000000000000000000000000000000000000008152600401611a649061371b565b60405180910390fd5b6000611ac085600060028110611aac577f4e487b7100000000000000000000000000000000000000000000000000000000600052603260045260246000fd5b60200201518761224990919063ffffffff16565b905060018054906101000a900473ffffffffffffffffffffffffffffffffffffffff1673ffffffffffffffffffffffffffffffffffffffff166323b872dd611b06611a1b565b30846040518463ffffffff1660e01b8152600401611b26939291906134c5565b602060405180830381600087803b158015611b4057600080fd5b505af1158015611b54573d6000803e3d6000fd5b505050506040513d601f19601f82011682018060405250810190611b789190612d48565b506000611ba4612710611b966003548a61225f90919063ffffffff16565b61227590919063ffffffff16565b90506000611bbb828961228b90919063ffffffff16565b90506000821115611bdd57611bdb8260025461224990919063ffffffff16565b505b7f0424dad9840ff9e43e3db8fbda830b4db1af324cf59b056dd728876c88ea8807611c06611a1b565b8289600160028110611c41577f4e487b7100000000000000000000000000000000000000000000000000000000600052603260045260246000fd5b6020020151888a604051611c59959493929190613525565b60405180910390a160019350505050949350505050565b611c7a8282610f6e565b611d0957611c9f8173ffffffffffffffffffffffffffffffffffffffff1660146122a1565b611cad8360001c60206122a1565b604051602001611cbe929190613470565b6040516020818303038152906040526040517f08c379a0000000000000000000000000000000000000000000000000000000008152600401611d0091906135f9565b60405180910390fd5b5050565b611d178282610f6e565b611de957600160008084815260200190815260200160002060000160008373ffffffffffffffffffffffffffffffffffffffff1673ffffffffffffffffffffffffffffffffffffffff16815260200190815260200160002060006101000a81548160ff021916908315150217905550611d8e611a1b565b73ffffffffffffffffffffffffffffffffffffffff168173ffffffffffffffffffffffffffffffffffffffff16837f2f8788117e7eff1d82e926ec794901d17c78024a50270940304540a733656f0d60405160405180910390a45b5050565b611df78282610f6e565b15611eca57600080600084815260200190815260200160002060000160008373ffffffffffffffffffffffffffffffffffffffff1673ffffffffffffffffffffffffffffffffffffffff16815260200190815260200160002060006101000a81548160ff021916908315150217905550611e6f611a1b565b73ffffffffffffffffffffffffffffffffffffffff168173ffffffffffffffffffffffffffffffffffffffff16837ff6391f5c32d9c69d2a47ea670b442974b53935d1edc7fd64eb21e047a839171b60405160405180910390a45b5050565b6000611f017f8227712ef8ad39d0f26f06731ef0df8665eb7ada7f41b1ee089adf3c238862a2611efc611a1b565b610f6e565b611f40576040517f08c379a0000000000000000000000000000000000000000000000000000000008152600401611f37906136bb565b60405180910390fd5b611f48610dcd565b15611f88576040517f08c379a0000000000000000000000000000000000000000000000000000000008152600401611f7f9061371b565b60405180910390fd5b600073ffffffffffffffffffffffffffffffffffffffff168773ffffffffffffffffffffffffffffffffffffffff161415611ff8576040517f08c379a0000000000000000000000000000000000000000000000000000000008152600401611fef906137fb565b60405180910390fd5b6000861161203b576040517f08c379a00000000000000000000000000000000000000000000000000000000081526004016120329061363b565b60405180910390fd5b600085511161207f576040517f08c379a00000000000000000000000000000000000000000000000000000000081526004016120769061373b565b60405180910390fd5b60008451116120c3576040517f08c379a00000000000000000000000000000000000000000000000000000000081526004016120ba9061375b565b60405180910390fd5b6000801b83600060028110612101577f4e487b7100000000000000000000000000000000000000000000000000000000600052603260045260246000fd5b60200201351415612147576040517f08c379a000000000000000000000000000000000000000000000000000000000815260040161213e9061377b565b60405180910390fd5b6000801b83600160028110612185577f4e487b7100000000000000000000000000000000000000000000000000000000600052603260045260246000fd5b602002013514156121cb576040517f08c379a00000000000000000000000000000000000000000000000000000000081526004016121c29061369b565b60405180910390fd5b6121d78388888561259b565b6121e1878761263f565b50600190509695505050505050565b6000816040516020016122039190613459565b604051602081830303815290604052805190602001208360405160200161222a9190613459565b6040516020818303038152906040528051906020012014905092915050565b6000818361225791906139cc565b905092915050565b6000818361226d9190613a53565b905092915050565b600081836122839190613a22565b905092915050565b600081836122999190613aad565b905092915050565b6060600060028360026122b49190613a53565b6122be91906139cc565b67ffffffffffffffff8111156122fd577f4e487b7100000000000000000000000000000000000000000000000000000000600052604160045260246000fd5b6040519080825280601f01601f19166020018201604052801561232f5781602001600182028036833780820191505090505b5090507f30000000000000000000000000000000000000000000000000000000000000008160008151811061238d577f4e487b7100000000000000000000000000000000000000000000000000000000600052603260045260246000fd5b60200101907effffffffffffffffffffffffffffffffffffffffffffffffffffffffffffff1916908160001a9053507f780000000000000000000000000000000000000000000000000000000000000081600181518110612417577f4e487b7100000000000000000000000000000000000000000000000000000000600052603260045260246000fd5b60200101907effffffffffffffffffffffffffffffffffffffffffffffffffffffffffffff1916908160001a905350600060018460026124579190613a53565b61246191906139cc565b90505b600181111561254d577f3031323334353637383961626364656600000000000000000000000000000000600f8616601081106124c9577f4e487b7100000000000000000000000000000000000000000000000000000000600052603260045260246000fd5b1a60f81b828281518110612506577f4e487b7100000000000000000000000000000000000000000000000000000000600052603260045260246000fd5b60200101907effffffffffffffffffffffffffffffffffffffffffffffffffffffffffffff1916908160001a905350600485901c94508061254690613be2565b9050612464565b5060008414612591576040517f08c379a00000000000000000000000000000000000000000000000000000000081526004016125889061361b565b60405180910390fd5b8091505092915050565b60006125a98585858561116d565b90506005600082815260200190815260200160002060009054906101000a900460ff161561260c576040517f08c379a00000000000000000000000000000000000000000000000000000000081526004016126039061367b565b60405180910390fd5b60016005600083815260200190815260200160002060006101000a81548160ff0219169083151502179055505050505050565b60006126727f8227712ef8ad39d0f26f06731ef0df8665eb7ada7f41b1ee089adf3c238862a261266d611a1b565b610f6e565b6126b1576040517f08c379a00000000000000000000000000000000000000000000000000000000081526004016126a8906136bb565b60405180910390fd5b6126b9610dcd565b156126f9576040517f08c379a00000000000000000000000000000000000000000000000000000000081526004016126f09061371b565b60405180910390fd5b8160018054906101000a900473ffffffffffffffffffffffffffffffffffffffff1673ffffffffffffffffffffffffffffffffffffffff166370a08231306040518263ffffffff1660e01b815260040161275391906134aa565b60206040518083038186803b15801561276b57600080fd5b505afa15801561277f573d6000803e3d6000fd5b505050506040513d601f19601f820116820180604052508101906127a39190612e69565b10156127e4576040517f08c379a00000000000000000000000000000000000000000000000000000000081526004016127db906136db565b60405180910390fd5b60018054906101000a900473ffffffffffffffffffffffffffffffffffffffff1673ffffffffffffffffffffffffffffffffffffffff1663a9059cbb84846040518363ffffffff1660e01b815260040161283f9291906134fc565b602060405180830381600087803b15801561285957600080fd5b505af115801561286d573d6000803e3d6000fd5b505050506040513d601f19601f820116820180604052508101906128919190612d48565b506001905092915050565b8280546128a890613c0c565b90600052602060002090601f0160209004810192826128ca5760008555612911565b82601f106128e357805160ff1916838001178555612911565b82800160010185558215612911579182015b828111156129105782518255916020019190600101906128f5565b5b50905061291e91906129ef565b5090565b82805461292e90613c0c565b90600052602060002090601f016020900481019282612950576000855561299e565b82601f10612961578054855561299e565b8280016001018555821561299e57600052602060002091601f016020900482015b8281111561299d578254825591600101919060010190612982565b5b5090506129ab91906129ef565b5090565b5080546129bb90613c0c565b6000825580601f106129cd57506129ec565b601f0160209004906000526020600020908101906129eb91906129ef565b5b50565b5b80821115612a085760008160009055506001016129f0565b5090565b6000612a1f612a1a84613904565b6138df565b90508082856020860282011115612a3557600080fd5b60005b85811015612a655781612a4b8882612bba565b845260208401935060208301925050600181019050612a38565b5050509392505050565b6000612a82612a7d8461392a565b6138df565b905082815260208101848484011115612a9a57600080fd5b612aa5848285613ba0565b509392505050565b600081359050612abc8161420b565b92915050565b600081905082602060020282011115612ada57600080fd5b92915050565b600082601f830112612af157600080fd5b6002612afe848285612a0c565b91505092915050565b600081519050612b1681614222565b92915050565b600081359050612b2b81614239565b92915050565b600081359050612b4081614250565b92915050565b60008083601f840112612b5857600080fd5b8235905067ffffffffffffffff811115612b7157600080fd5b602083019150836001820283011115612b8957600080fd5b9250929050565b600082601f830112612ba157600080fd5b8135612bb1848260208601612a6f565b91505092915050565b600081359050612bc981614267565b92915050565b600081519050612bde81614267565b92915050565b600081359050612bf38161427e565b92915050565b600060208284031215612c0b57600080fd5b6000612c1984828501612aad565b91505092915050565b60008060008060008060008060e0898b031215612c3e57600080fd5b6000612c4c8b828c01612aad565b9850506020612c5d8b828c01612bba565b975050604089013567ffffffffffffffff811115612c7a57600080fd5b612c868b828c01612b46565b9650965050606089013567ffffffffffffffff811115612ca557600080fd5b612cb18b828c01612b46565b94509450506080612cc48b828c01612ac2565b92505060c0612cd58b828c01612be4565b9150509295985092959890939650565b60008060008060a08587031215612cfb57600080fd5b6000612d0987828801612ac2565b9450506040612d1a87828801612aad565b9350506060612d2b87828801612bba565b9250506080612d3c87828801612be4565b91505092959194509250565b600060208284031215612d5a57600080fd5b6000612d6884828501612b07565b91505092915050565b600060208284031215612d8357600080fd5b6000612d9184828501612b1c565b91505092915050565b60008060408385031215612dad57600080fd5b6000612dbb85828601612b1c565b9250506020612dcc85828601612aad565b9150509250929050565b600060208284031215612de857600080fd5b6000612df684828501612b31565b91505092915050565b600060208284031215612e1157600080fd5b600082013567ffffffffffffffff811115612e2b57600080fd5b612e3784828501612b90565b91505092915050565b600060208284031215612e5257600080fd5b6000612e6084828501612bba565b91505092915050565b600060208284031215612e7b57600080fd5b6000612e8984828501612bcf565b91505092915050565b60008060008060a08587031215612ea857600080fd5b6000612eb687828801612bba565b9450506020612ec787828801612ae0565b935050606085013567ffffffffffffffff811115612ee457600080fd5b612ef087828801612b90565b925050608085013567ffffffffffffffff811115612f0d57600080fd5b612f1987828801612b90565b91505092959194509250565b6000612f318383613018565b905092915050565b612f4281613ae1565b82525050565b612f59612f5482613ae1565b613ce2565b82525050565b6000612f6a8261396b565b612f74818561398e565b935083602082028501612f868561395b565b8060005b85811015612fc25784840389528151612fa38582612f25565b9450612fae83613981565b925060208a01995050600181019050612f8a565b50829750879550505050505092915050565b612fdd81613af3565b82525050565b612fec81613aff565b82525050565b613003612ffe82613aff565b613cf4565b82525050565b61301281613b7c565b82525050565b600061302382613976565b61302d818561399f565b935061303d818560208601613baf565b61304681613de8565b840191505092915050565b600061305c82613976565b61306681856139b0565b9350613076818560208601613baf565b61307f81613de8565b840191505092915050565b600061309582613976565b61309f81856139c1565b93506130af818560208601613baf565b80840191505092915050565b60006130c86020836139b0565b91506130d382613e13565b602082019050919050565b60006130eb6013836139b0565b91506130f682613e3c565b602082019050919050565b600061310e601b836139b0565b915061311982613e65565b602082019050919050565b60006131316019836139b0565b915061313c82613e8e565b602082019050919050565b6000613154601f836139b0565b915061315f82613eb7565b602082019050919050565b60006131776013836139b0565b915061318282613ee0565b602082019050919050565b600061319a6012836139b0565b91506131a582613f09565b602082019050919050565b60006131bd601d836139b0565b91506131c882613f32565b602082019050919050565b60006131e06010836139b0565b91506131eb82613f5b565b602082019050919050565b60006132036011836139b0565b915061320e82613f84565b602082019050919050565b60006132266015836139b0565b915061323182613fad565b602082019050919050565b60006132496019836139b0565b915061325482613fd6565b602082019050919050565b600061326c6011836139b0565b915061327782613fff565b602082019050919050565b600061328f6021836139b0565b915061329a82614028565b604082019050919050565b60006132b26011836139b0565b91506132bd82614077565b602082019050919050565b60006132d56018836139b0565b91506132e0826140a0565b602082019050919050565b60006132f86017836139c1565b9150613303826140c9565b601782019050919050565b600061331b6026836139b0565b9150613326826140f2565b604082019050919050565b600061333e6014836139b0565b915061334982614141565b602082019050919050565b60006133616017836139b0565b915061336c8261416a565b602082019050919050565b60006133846011836139c1565b915061338f82614193565b601182019050919050565b60006133a7602f836139b0565b91506133b2826141bc565b604082019050919050565b6133c681613b55565b82525050565b6133dd6133d882613b55565b613d10565b82525050565b6133f46133ef82613b5f565b613d1a565b82525050565b60006134068288612ff2565b6020820191506134168287612ff2565b6020820191506134268286612f48565b60148201915061343682856133cc565b60208201915061344682846133e3565b6004820191508190509695505050505050565b6000613465828461308a565b915081905092915050565b600061347b826132eb565b9150613487828561308a565b915061349282613377565b915061349e828461308a565b91508190509392505050565b60006020820190506134bf6000830184612f39565b92915050565b60006060820190506134da6000830186612f39565b6134e76020830185612f39565b6134f460408301846133bd565b949350505050565b60006040820190506135116000830185612f39565b61351e60208301846133bd565b9392505050565b600060a08201905061353a6000830188612f39565b61354760208301876133bd565b61355460408301866133bd565b81810360608301526135668185613051565b9050818103608083015261357a8184613051565b90509695505050505050565b600060208201905081810360008301526135a08184612f5f565b905092915050565b60006020820190506135bd6000830184612fd4565b92915050565b60006020820190506135d86000830184612fe3565b92915050565b60006020820190506135f36000830184613009565b92915050565b600060208201905081810360008301526136138184613051565b905092915050565b60006020820190508181036000830152613634816130bb565b9050919050565b60006020820190508181036000830152613654816130de565b9050919050565b6000602082019050818103600083015261367481613101565b9050919050565b6000602082019050818103600083015261369481613124565b9050919050565b600060208201905081810360008301526136b481613147565b9050919050565b600060208201905081810360008301526136d48161316a565b9050919050565b600060208201905081810360008301526136f48161318d565b9050919050565b60006020820190508181036000830152613714816131b0565b9050919050565b60006020820190508181036000830152613734816131d3565b9050919050565b60006020820190508181036000830152613754816131f6565b9050919050565b6000602082019050818103600083015261377481613219565b9050919050565b600060208201905081810360008301526137948161323c565b9050919050565b600060208201905081810360008301526137b48161325f565b9050919050565b600060208201905081810360008301526137d481613282565b9050919050565b600060208201905081810360008301526137f4816132a5565b9050919050565b60006020820190508181036000830152613814816132c8565b9050919050565b600060208201905081810360008301526138348161330e565b9050919050565b6000602082019050818103600083015261385481613331565b9050919050565b6000602082019050818103600083015261387481613354565b9050919050565b600060208201905081810360008301526138948161339a565b9050919050565b60006020820190506138b060008301846133bd565b92915050565b60006040820190506138cb60008301856133bd565b6138d860208301846133bd565b9392505050565b60006138e96138fa565b90506138f58282613c3e565b919050565b6000604051905090565b600067ffffffffffffffff82111561391f5761391e613db9565b5b602082029050919050565b600067ffffffffffffffff82111561394557613944613db9565b5b61394e82613de8565b9050602081019050919050565b6000819050602082019050919050565b600081519050919050565b600081519050919050565b6000602082019050919050565b600082825260208201905092915050565b600082825260208201905092915050565b600082825260208201905092915050565b600081905092915050565b60006139d782613b55565b91506139e283613b55565b9250827fffffffffffffffffffffffffffffffffffffffffffffffffffffffffffffffff03821115613a1757613a16613d2c565b5b828201905092915050565b6000613a2d82613b55565b9150613a3883613b55565b925082613a4857613a47613d5b565b5b828204905092915050565b6000613a5e82613b55565b9150613a6983613b55565b9250817fffffffffffffffffffffffffffffffffffffffffffffffffffffffffffffffff0483118215151615613aa257613aa1613d2c565b5b828202905092915050565b6000613ab882613b55565b9150613ac383613b55565b925082821015613ad657613ad5613d2c565b5b828203905092915050565b6000613aec82613b35565b9050919050565b60008115159050919050565b6000819050919050565b60007fffffffff0000000000000000000000000000000000000000000000000000000082169050919050565b600073ffffffffffffffffffffffffffffffffffffffff82169050919050565b6000819050919050565b600063ffffffff82169050919050565b600060ff82169050919050565b6000613b8782613b8e565b9050919050565b6000613b9982613b35565b9050919050565b82818337600083830152505050565b60005b83811015613bcd578082015181840152602081019050613bb2565b83811115613bdc576000848401525b50505050565b6000613bed82613b55565b91506000821415613c0157613c00613d2c565b5b600182039050919050565b60006002820490506001821680613c2457607f821691505b60208210811415613c3857613c37613d8a565b5b50919050565b613c4782613de8565b810181811067ffffffffffffffff82111715613c6657613c65613db9565b5b80604052505050565b6000613c7a82613b55565b91507fffffffffffffffffffffffffffffffffffffffffffffffffffffffffffffffff821415613cad57613cac613d2c565b5b600182019050919050565b6000613cc382613b6f565b915060ff821415613cd757613cd6613d2c565b5b600182019050919050565b6000613ced82613cfe565b9050919050565b6000819050919050565b6000613d0982613e06565b9050919050565b6000819050919050565b6000613d2582613df9565b9050919050565b7f4e487b7100000000000000000000000000000000000000000000000000000000600052601160045260246000fd5b7f4e487b7100000000000000000000000000000000000000000000000000000000600052601260045260246000fd5b7f4e487b7100000000000000000000000000000000000000000000000000000000600052602260045260246000fd5b7f4e487b7100000000000000000000000000000000000000000000000000000000600052604160045260246000fd5b6000601f19601f8301169050919050565b60008160e01b9050919050565b60008160601b9050919050565b7f537472696e67733a20686578206c656e67746820696e73756666696369656e74600082015250565b7f4272696467653a20616d6f756e74206973203000000000000000000000000000600082015250565b7f4272696467653a20696e737566696369656e742062616c616e63650000000000600082015250565b7f4272696467653a20616c72656164792070726f63657373656400000000000000600082015250565b7f4272696467653a207472616e73616374696f6e48617368206973206e756c6c00600082015250565b7f4272696467653a206e6f74206d6f6e69746f7200000000000000000000000000600082015250565b7f4272696467653a206e6f2062616c616e63650000000000000000000000000000600082015250565b7f4272696467653a20626c6f636b636861696e206e6f7420657869737473000000600082015250565b7f5061757361626c653a2070617573656400000000000000000000000000000000600082015250565b7f4272696467653a206e6f2073656e646572000000000000000000000000000000600082015250565b7f4272696467653a206e6f20626c6f636b636861696e0000000000000000000000600082015250565b7f4272696467653a20626c6f636b48617368206973206e756c6c00000000000000600082015250565b7f4272696467653a206e6f74206f776e6572000000000000000000000000000000600082015250565b7f4272696467653a20626c6f636b636861696e20616c726561647920657869737460008201527f7300000000000000000000000000000000000000000000000000000000000000602082015250565b7f4272696467653a206e6f742061646d696e000000000000000000000000000000600082015250565b7f4272696467653a207265636569766572206973206e756c6c0000000000000000600082015250565b7f416363657373436f6e74726f6c3a206163636f756e7420000000000000000000600082015250565b7f4272696467653a207265717569726573206174206c65617374203120626c6f6360008201527f6b636861696e0000000000000000000000000000000000000000000000000000602082015250565b7f4272696467653a206e756c6c2061646472657373000000000000000000000000600082015250565b7f4272696467653a20626967676572207468616e20313025000000000000000000600082015250565b7f206973206d697373696e6720726f6c6520000000000000000000000000000000600082015250565b7f416363657373436f6e74726f6c3a2063616e206f6e6c792072656e6f756e636560008201527f20726f6c657320666f722073656c660000000000000000000000000000000000602082015250565b61421481613ae1565b811461421f57600080fd5b50565b61422b81613af3565b811461423657600080fd5b50565b61424281613aff565b811461424d57600080fd5b50565b61425981613b09565b811461426457600080fd5b50565b61427081613b55565b811461427b57600080fd5b50565b61428781613b5f565b811461429257600080fd5b5056fea264697066735822122015d9bb4fde2b00ea39f8a68fac2bd556ed8f213c0d1c16cb4efb1801d8684ffa64736f6c63430008040033",
  "immutableReferences": {},
  "source": "// SPDX-License-Identifier: MIT\r\npragma solidity 0.8.4;\r\n\r\n// Inpired on https://github.com/rsksmart/tokenbridge/blob/master/bridge/contracts/Bridge.sol\r\n\r\nimport './ozeppelin/access/AccessControl.sol';\r\nimport \"./ozeppelin/security/Pausable.sol\";\r\nimport \"./ozeppelin/utils/math/SafeMath.sol\";\r\nimport \"./IBridge.sol\";\r\n\r\ncontract Bridge is AccessControl, IBridge, Pausable {\r\n  using SafeMath for uint256;\r\n\r\n  address constant private NULL_ADDRESS = address(0);\r\n  bytes32 constant private NULL_HASH = bytes32(0);\r\n  bytes32 constant public MONITOR_ROLE = keccak256(\"MONITOR_ROLE\");\r\n\r\n  uint256 public constant decimalpercent = 10000; //100.00 = percentage accuracy (2) to 100%\r\n\r\n  IERC20 public token;\r\n  uint private totalFeeReceived;\r\n  uint private feePercentageBridge; //Include 2 decimal places\r\n  string[] public blockchain;\r\n  mapping(bytes32 => bool) public processed;\r\n\r\n  constructor(address _tokenAddress) {\r\n    _setupRole(DEFAULT_ADMIN_ROLE, _msgSender());\r\n    token = IERC20(_tokenAddress);\r\n  }\r\n\r\n  function version() external override pure returns (string memory) {\r\n      return \"v0\";\r\n  }\r\n\r\n  modifier onlyOwner() {\r\n    require(hasRole(DEFAULT_ADMIN_ROLE, _msgSender()), \"Bridge: not owner\");\r\n    _;\r\n  }\r\n\r\n  modifier onlyMonitor() {\r\n    require(hasRole(MONITOR_ROLE, _msgSender()), \"Bridge: not monitor\");\r\n    _;\r\n  }\r\n\r\n\r\n  function compareStrings(string memory a, string memory b) private pure returns (bool) {\r\n      return (keccak256(abi.encodePacked((a))) == keccak256(abi.encodePacked((b))));\r\n  }\r\n\r\n  function receiveTokens(uint amount, uint[2] memory transactionFee, string memory toBlockchain, string memory toAddress) external override returns(bool) {\r\n    return _receiveTokens(amount, transactionFee, toBlockchain, toAddress);\r\n  }\r\n\r\n  /**\r\n    * ERC-20 tokens approve and transferFrom pattern\r\n    * See https://eips.ethereum.org/EIPS/eip-20#transferfrom\r\n    */\r\n  function _receiveTokens(\r\n      uint256 amount, uint[2] memory transactionFee,\r\n      string memory toBlockchain, string memory toAddress\r\n  ) private whenNotPaused returns(bool) {\r\n\r\n    // transactionFee[0] - fee in BRL\r\n    // transactionFee[1] - fee in destiny currency - minor unit \r\n    \r\n    // if(transactionFee > 0) {\r\n    //   //token.transfer(owner(), fee);\r\n    //   totalFeeReceived.add(fee);\r\n    // }  \r\n\r\n    //Transfer the tokens on IERC20, they should be already Approved for the bridge Address to use them\r\n    uint totalAmount = amount.add(transactionFee[0]); \r\n    token.transferFrom(_msgSender(), address(this), totalAmount);\r\n\r\n    uint fee = amount.mul(feePercentageBridge).div(decimalpercent);\r\n    uint256 amountMinusFees = amount.sub(fee);\r\n\r\n    if(fee > 0) {\r\n      //token.transfer(owner(), fee);\r\n      totalFeeReceived.add(fee);\r\n    }\r\n\r\n    //This is the message for Monitor off-chain manage the transaction and send the tokens on the other Blockchain\r\n    emit CrossRequest(_msgSender(), amountMinusFees, transactionFee[1], toAddress, toBlockchain); \r\n    return true;\r\n  }\r\n\r\n  function acceptTransfer(\r\n    address receiver,\r\n    uint256 amount,\r\n    string calldata sender,\r\n    string calldata toBlockchain,\r\n    bytes32[2] calldata hashes, //blockHash, transactionHash\r\n    uint32 logIndex\r\n  ) external override returns(bool) {\r\n    return _acceptTransfer(receiver, amount, sender, toBlockchain, hashes, logIndex);\r\n  }\r\n\r\n  function _acceptTransfer(\r\n    address receiver,\r\n    uint256 amount,\r\n    string memory sender,\r\n    string memory toBlockchain,\r\n    bytes32[2] calldata hashes, //blockHash, transactionHash\r\n    uint32 logIndex\r\n  ) internal onlyMonitor whenNotPaused returns(bool) {\r\n    require(receiver != NULL_ADDRESS, \"Bridge: receiver is null\");\r\n    require(amount > 0, \"Bridge: amount is 0\");\r\n    require(bytes(sender).length > 0, \"Bridge: no sender\");\r\n    require(bytes(toBlockchain).length > 0, \"Bridge: no blockchain\");\r\n    require(hashes[0] != NULL_HASH, \"Bridge: blockHash is null\");\r\n    require(hashes[1] != NULL_HASH, \"Bridge: transactionHash is null\");\r\n\r\n    _processTransaction(hashes, receiver, amount, logIndex);\r\n    _sendToken(receiver, amount);\r\n\r\n    return true;\r\n  }\r\n  \r\n  function _sendToken(address to, uint amount) internal onlyMonitor whenNotPaused returns (bool) {    \r\n    require (token.balanceOf(address(this)) >= amount, \"Bridge: no balance\");\r\n    token.transfer(to, amount);\r\n    return true;\r\n  }\r\n\r\n  function getTransactionId(\r\n    bytes32[2] calldata _hashes, //blockHash, transactionHash\r\n    address _receiver,\r\n    uint256 _amount,\r\n    uint32 _logIndex\r\n  ) public override pure returns(bytes32) {\r\n    return keccak256(abi.encodePacked(_hashes[0], _hashes[1], _receiver, _amount, _logIndex));\r\n  }\r\n\r\n  function _processTransaction(\r\n    bytes32[2] calldata _hashes, //blockHash, transactionHash\r\n    address _receiver,\r\n    uint256 _amount,\r\n    uint32 _logIndex\r\n  ) private {\r\n    bytes32 transactionId = getTransactionId(_hashes, _receiver, _amount, _logIndex);\r\n    require(!processed[transactionId], \"Bridge: already processed\");\r\n    processed[transactionId] = true;\r\n  }\r\n\r\n  function addMonitor(address _monitorAddress) external onlyOwner whenNotPaused returns (bool) {\r\n    //Can be called only by the account defined in constructor: DEFAULT_ADMIN_ROLE\r\n    grantRole(MONITOR_ROLE, _monitorAddress);\r\n    return true;\r\n  }\r\n\r\n  function delMonitor(address _monitorAddress) external onlyOwner whenNotPaused returns (bool) {\r\n    //Can be called only by the account defined in constructor: DEFAULT_ADMIN_ROLE\r\n    revokeRole(MONITOR_ROLE, _monitorAddress);\r\n    return true;\r\n  }\r\n\r\n  function setfeePercentageBridge(uint newFee) external onlyOwner whenNotPaused returns (bool) {\r\n    require(hasRole(DEFAULT_ADMIN_ROLE, _msgSender()), \"Bridge: not admin\");\r\n    require(newFee < (decimalpercent/10), \"Bridge: bigger than 10%\");\r\n    emit feePercentageBridgeChanged(feePercentageBridge, newFee);\r\n    feePercentageBridge = newFee;\r\n    return true;\r\n  }\r\n\r\n  function getfeePercentageBridge() external override view returns(uint) {\r\n      return feePercentageBridge;\r\n  }\r\n\r\n  function setToken(address _tokenAddress) external onlyOwner whenNotPaused returns (bool) {\r\n    require(_tokenAddress != NULL_ADDRESS, \"Bridge: null address\");\r\n    token = IERC20(_tokenAddress);\r\n    emit TokenChanged(_tokenAddress);\r\n    return true;\r\n  }\r\n\r\n  function gettotalFeeReceived() external override view returns(uint) {\r\n      return totalFeeReceived;\r\n  }\r\n\r\n  function getTokenBalance() external override view returns (uint) {\r\n    return token.balanceOf(address(this));\r\n  }\r\n\r\n  function withdrawToken(uint amount) external onlyOwner returns (bool) {\r\n    require (amount <= token.balanceOf(address(this)), \"Bridge: insuficient balance\");\r\n    token.transfer(_msgSender(), amount);\r\n    return true;\r\n  }\r\n\r\n  function existsBlockchain(string memory name) public override view returns (bool) {\r\n    for (uint8 i=0; i < blockchain.length; i++) {\r\n      if (compareStrings(name, blockchain[i])) {\r\n        return true;\r\n      }\r\n    }\r\n    return false;\r\n  }\r\n\r\n  function listBlockchain() external override view returns (string[] memory) {\r\n    return blockchain;\r\n  }\r\n\r\n  function addBlockchain(string memory name) external onlyOwner whenNotPaused returns (uint) {\r\n    require(hasRole(DEFAULT_ADMIN_ROLE, _msgSender()), \"Bridge: not admin\");\r\n    require(!existsBlockchain(name), \"Bridge: blockchain already exists\");    \r\n    blockchain.push(name);\r\n    return (blockchain.length - 1);\r\n  }\r\n\r\n  function delBlockchain(string memory name) external onlyOwner whenNotPaused returns (bool) {\r\n    require(hasRole(DEFAULT_ADMIN_ROLE, _msgSender()), \"Bridge: not admin\");\r\n    require(existsBlockchain(name), \"Bridge: blockchain not exists\");\r\n    require(blockchain.length > 1, \"Bridge: requires at least 1 blockchain\");\r\n\r\n    uint index;\r\n\r\n    for (uint i = 0; i < blockchain.length; i++) {\r\n      if (compareStrings(name, blockchain[i])) {\r\n        index = i;\r\n        break;\r\n      }      \r\n    }\r\n\r\n    blockchain[index] = blockchain[blockchain.length - 1];\r\n    blockchain.pop();\r\n    return true;\r\n  }\r\n\r\n}",
  "sourcePath": "C:\\BLOCKCHAIN\\TRANSFERO\\brz-token-bridge-SOL\\contracts\\Bridge.sol",
  "compiler": {
    "name": "solc",
    "version": "0.8.4+commit.c7e474f2.Emscripten.clang"
  },
  "schemaVersion": "3.4.3",
  "updatedAt": "2021-08-16T19:34:27.555Z",
  "devdoc": {
    "kind": "dev",
    "methods": {
      "getRoleAdmin(bytes32)": {
        "details": "Returns the admin role that controls `role`. See {grantRole} and {revokeRole}. To change a role's admin, use {_setRoleAdmin}."
      },
      "grantRole(bytes32,address)": {
        "details": "Grants `role` to `account`. If `account` had not been already granted `role`, emits a {RoleGranted} event. Requirements: - the caller must have ``role``'s admin role."
      },
      "hasRole(bytes32,address)": {
        "details": "Returns `true` if `account` has been granted `role`."
      },
      "paused()": {
        "details": "Returns true if the contract is paused, and false otherwise."
      },
      "renounceRole(bytes32,address)": {
        "details": "Revokes `role` from the calling account. Roles are often managed via {grantRole} and {revokeRole}: this function's purpose is to provide a mechanism for accounts to lose their privileges if they are compromised (such as when a trusted device is misplaced). If the calling account had been granted `role`, emits a {RoleRevoked} event. Requirements: - the caller must be `account`."
      },
      "revokeRole(bytes32,address)": {
        "details": "Revokes `role` from `account`. If `account` had been granted `role`, emits a {RoleRevoked} event. Requirements: - the caller must have ``role``'s admin role."
      },
      "supportsInterface(bytes4)": {
        "details": "See {IERC165-supportsInterface}."
      }
    },
    "version": 1
  },
  "userdoc": {
    "kind": "user",
    "methods": {},
    "version": 1
  }
}