{
  "contractName": "Bridge",
  "abi": [
    {
      "inputs": [
        {
          "internalType": "address",
          "name": "tokenAddress",
          "type": "address"
        }
      ],
      "stateMutability": "nonpayable",
      "type": "constructor"
    },
    {
      "anonymous": false,
      "inputs": [
        {
          "indexed": false,
          "internalType": "address",
          "name": "receiver",
          "type": "address"
        },
        {
          "indexed": false,
          "internalType": "uint256",
          "name": "amount",
          "type": "uint256"
        },
        {
          "indexed": false,
          "internalType": "string",
          "name": "sender",
          "type": "string"
        },
        {
          "indexed": false,
          "internalType": "string",
          "name": "fromBlockchain",
          "type": "string"
        },
        {
          "indexed": false,
          "internalType": "bytes32[2]",
          "name": "hashes",
          "type": "bytes32[2]"
        },
        {
          "indexed": false,
          "internalType": "uint32",
          "name": "logIndex",
          "type": "uint32"
        }
      ],
      "name": "CrossAccepted",
      "type": "event"
    },
    {
      "anonymous": false,
      "inputs": [
        {
          "indexed": false,
          "internalType": "address",
          "name": "from",
          "type": "address"
        },
        {
          "indexed": false,
          "internalType": "uint256",
          "name": "amount",
          "type": "uint256"
        },
        {
          "indexed": false,
          "internalType": "string",
          "name": "toAddress",
          "type": "string"
        },
        {
          "indexed": false,
          "internalType": "string",
          "name": "toBlockchain",
          "type": "string"
        }
      ],
      "name": "CrossRequest",
      "type": "event"
    },
    {
      "anonymous": false,
      "inputs": [
        {
          "indexed": false,
          "internalType": "uint256",
          "name": "oldFee",
          "type": "uint256"
        },
        {
          "indexed": false,
          "internalType": "uint256",
          "name": "newFee",
          "type": "uint256"
        }
      ],
      "name": "FeePercentageBridgeChanged",
      "type": "event"
    },
    {
      "anonymous": false,
      "inputs": [
        {
          "indexed": false,
          "internalType": "address",
          "name": "account",
          "type": "address"
        }
      ],
      "name": "Paused",
      "type": "event"
    },
    {
      "anonymous": false,
      "inputs": [
        {
          "indexed": true,
          "internalType": "bytes32",
          "name": "role",
          "type": "bytes32"
        },
        {
          "indexed": true,
          "internalType": "bytes32",
          "name": "previousAdminRole",
          "type": "bytes32"
        },
        {
          "indexed": true,
          "internalType": "bytes32",
          "name": "newAdminRole",
          "type": "bytes32"
        }
      ],
      "name": "RoleAdminChanged",
      "type": "event"
    },
    {
      "anonymous": false,
      "inputs": [
        {
          "indexed": true,
          "internalType": "bytes32",
          "name": "role",
          "type": "bytes32"
        },
        {
          "indexed": true,
          "internalType": "address",
          "name": "account",
          "type": "address"
        },
        {
          "indexed": true,
          "internalType": "address",
          "name": "sender",
          "type": "address"
        }
      ],
      "name": "RoleGranted",
      "type": "event"
    },
    {
      "anonymous": false,
      "inputs": [
        {
          "indexed": true,
          "internalType": "bytes32",
          "name": "role",
          "type": "bytes32"
        },
        {
          "indexed": true,
          "internalType": "address",
          "name": "account",
          "type": "address"
        },
        {
          "indexed": true,
          "internalType": "address",
          "name": "sender",
          "type": "address"
        }
      ],
      "name": "RoleRevoked",
      "type": "event"
    },
    {
      "anonymous": false,
      "inputs": [
        {
          "indexed": false,
          "internalType": "address",
          "name": "tokenAddress",
          "type": "address"
        }
      ],
      "name": "TokenChanged",
      "type": "event"
    },
    {
      "anonymous": false,
      "inputs": [
        {
          "indexed": false,
          "internalType": "address",
          "name": "account",
          "type": "address"
        }
      ],
      "name": "Unpaused",
      "type": "event"
    },
    {
      "inputs": [],
      "name": "DECIMALPERCENT",
      "outputs": [
        {
          "internalType": "uint256",
          "name": "",
          "type": "uint256"
        }
      ],
      "stateMutability": "view",
      "type": "function",
      "constant": true
    },
    {
      "inputs": [],
      "name": "DEFAULT_ADMIN_ROLE",
      "outputs": [
        {
          "internalType": "bytes32",
          "name": "",
          "type": "bytes32"
        }
      ],
      "stateMutability": "view",
      "type": "function",
      "constant": true
    },
    {
      "inputs": [],
      "name": "MONITOR_ROLE",
      "outputs": [
        {
          "internalType": "bytes32",
          "name": "",
          "type": "bytes32"
        }
      ],
      "stateMutability": "view",
      "type": "function",
      "constant": true
    },
    {
      "inputs": [
        {
          "internalType": "uint256",
          "name": "",
          "type": "uint256"
        }
      ],
      "name": "blockchain",
      "outputs": [
        {
          "internalType": "string",
          "name": "",
          "type": "string"
        }
      ],
      "stateMutability": "view",
      "type": "function",
      "constant": true
    },
    {
      "inputs": [
        {
          "internalType": "bytes32",
          "name": "role",
          "type": "bytes32"
        }
      ],
      "name": "getRoleAdmin",
      "outputs": [
        {
          "internalType": "bytes32",
          "name": "",
          "type": "bytes32"
        }
      ],
      "stateMutability": "view",
      "type": "function",
      "constant": true
    },
    {
      "inputs": [
        {
          "internalType": "bytes32",
          "name": "role",
          "type": "bytes32"
        },
        {
          "internalType": "address",
          "name": "account",
          "type": "address"
        }
      ],
      "name": "grantRole",
      "outputs": [],
      "stateMutability": "nonpayable",
      "type": "function"
    },
    {
      "inputs": [
        {
          "internalType": "bytes32",
          "name": "role",
          "type": "bytes32"
        },
        {
          "internalType": "address",
          "name": "account",
          "type": "address"
        }
      ],
      "name": "hasRole",
      "outputs": [
        {
          "internalType": "bool",
          "name": "",
          "type": "bool"
        }
      ],
      "stateMutability": "view",
      "type": "function",
      "constant": true
    },
    {
      "inputs": [],
      "name": "paused",
      "outputs": [
        {
          "internalType": "bool",
          "name": "",
          "type": "bool"
        }
      ],
      "stateMutability": "view",
      "type": "function",
      "constant": true
    },
    {
      "inputs": [
        {
          "internalType": "bytes32",
          "name": "",
          "type": "bytes32"
        }
      ],
      "name": "processed",
      "outputs": [
        {
          "internalType": "bool",
          "name": "",
          "type": "bool"
        }
      ],
      "stateMutability": "view",
      "type": "function",
      "constant": true
    },
    {
      "inputs": [
        {
          "internalType": "bytes32",
          "name": "role",
          "type": "bytes32"
        },
        {
          "internalType": "address",
          "name": "account",
          "type": "address"
        }
      ],
      "name": "renounceRole",
      "outputs": [],
      "stateMutability": "nonpayable",
      "type": "function"
    },
    {
      "inputs": [
        {
          "internalType": "bytes32",
          "name": "role",
          "type": "bytes32"
        },
        {
          "internalType": "address",
          "name": "account",
          "type": "address"
        }
      ],
      "name": "revokeRole",
      "outputs": [],
      "stateMutability": "nonpayable",
      "type": "function"
    },
    {
      "inputs": [
        {
          "internalType": "bytes4",
          "name": "interfaceId",
          "type": "bytes4"
        }
      ],
      "name": "supportsInterface",
      "outputs": [
        {
          "internalType": "bool",
          "name": "",
          "type": "bool"
        }
      ],
      "stateMutability": "view",
      "type": "function",
      "constant": true
    },
    {
      "inputs": [],
      "name": "token",
      "outputs": [
        {
          "internalType": "contract IERC20",
          "name": "",
          "type": "address"
        }
      ],
      "stateMutability": "view",
      "type": "function",
      "constant": true
    },
    {
      "inputs": [],
      "name": "version",
      "outputs": [
        {
          "internalType": "string",
          "name": "",
          "type": "string"
        }
      ],
      "stateMutability": "pure",
      "type": "function",
      "constant": true
    },
    {
      "inputs": [
        {
          "internalType": "uint256",
          "name": "amount",
          "type": "uint256"
        },
        {
          "internalType": "string",
          "name": "toBlockchain",
          "type": "string"
        },
        {
          "internalType": "string",
          "name": "toAddress",
          "type": "string"
        }
      ],
      "name": "receiveTokens",
      "outputs": [
        {
          "internalType": "bool",
          "name": "",
          "type": "bool"
        }
      ],
      "stateMutability": "nonpayable",
      "type": "function"
    },
    {
      "inputs": [
        {
          "internalType": "bytes32[2]",
          "name": "hashes",
          "type": "bytes32[2]"
        },
        {
          "internalType": "address",
          "name": "receiver",
          "type": "address"
        },
        {
          "internalType": "uint256",
          "name": "amount",
          "type": "uint256"
        },
        {
          "internalType": "uint32",
          "name": "logIndex",
          "type": "uint32"
        }
      ],
      "name": "getTransactionId",
      "outputs": [
        {
          "internalType": "bytes32",
          "name": "",
          "type": "bytes32"
        }
      ],
      "stateMutability": "pure",
      "type": "function",
      "constant": true
    },
    {
      "inputs": [
        {
          "internalType": "address",
          "name": "receiver",
          "type": "address"
        },
        {
          "internalType": "uint256",
          "name": "amount",
          "type": "uint256"
        },
        {
          "internalType": "string",
          "name": "sender",
          "type": "string"
        },
        {
          "internalType": "string",
          "name": "fromBlockchain",
          "type": "string"
        },
        {
          "internalType": "bytes32[2]",
          "name": "hashes",
          "type": "bytes32[2]"
        },
        {
          "internalType": "uint32",
          "name": "logIndex",
          "type": "uint32"
        }
      ],
      "name": "acceptTransfer",
      "outputs": [
        {
          "internalType": "bool",
          "name": "",
          "type": "bool"
        }
      ],
      "stateMutability": "nonpayable",
      "type": "function"
    },
    {
      "inputs": [],
      "name": "claim",
      "outputs": [
        {
          "internalType": "uint256",
          "name": "receivedAmount",
          "type": "uint256"
        }
      ],
      "stateMutability": "nonpayable",
      "type": "function"
    },
    {
      "inputs": [],
      "name": "getTotalFeeReceivedBridge",
      "outputs": [
        {
          "internalType": "uint256",
          "name": "",
          "type": "uint256"
        }
      ],
      "stateMutability": "view",
      "type": "function",
      "constant": true
    },
    {
      "inputs": [
        {
          "internalType": "address",
          "name": "account",
          "type": "address"
        }
      ],
      "name": "getBalanceToClaim",
      "outputs": [
        {
          "internalType": "uint256",
          "name": "",
          "type": "uint256"
        }
      ],
      "stateMutability": "view",
      "type": "function",
      "constant": true
    },
    {
      "inputs": [],
      "name": "getTokenBalance",
      "outputs": [
        {
          "internalType": "uint256",
          "name": "",
          "type": "uint256"
        }
      ],
      "stateMutability": "view",
      "type": "function",
      "constant": true
    },
    {
      "inputs": [],
      "name": "getTotalToClaim",
      "outputs": [
        {
          "internalType": "uint256",
          "name": "",
          "type": "uint256"
        }
      ],
      "stateMutability": "view",
      "type": "function",
      "constant": true
    },
    {
      "inputs": [
        {
          "internalType": "uint256",
          "name": "amount",
          "type": "uint256"
        }
      ],
      "name": "withdrawToken",
      "outputs": [
        {
          "internalType": "bool",
          "name": "",
          "type": "bool"
        }
      ],
      "stateMutability": "nonpayable",
      "type": "function"
    },
    {
      "inputs": [
        {
          "internalType": "address",
          "name": "monitorAddress",
          "type": "address"
        }
      ],
      "name": "addMonitor",
      "outputs": [
        {
          "internalType": "bool",
          "name": "",
          "type": "bool"
        }
      ],
      "stateMutability": "nonpayable",
      "type": "function"
    },
    {
      "inputs": [
        {
          "internalType": "address",
          "name": "monitorAddress",
          "type": "address"
        }
      ],
      "name": "delMonitor",
      "outputs": [
        {
          "internalType": "bool",
          "name": "",
          "type": "bool"
        }
      ],
      "stateMutability": "nonpayable",
      "type": "function"
    },
    {
      "inputs": [
        {
          "internalType": "uint256",
          "name": "newFee",
          "type": "uint256"
        }
      ],
      "name": "setFeePercentageBridge",
      "outputs": [
        {
          "internalType": "bool",
          "name": "",
          "type": "bool"
        }
      ],
      "stateMutability": "nonpayable",
      "type": "function"
    },
    {
      "inputs": [],
      "name": "getFeePercentageBridge",
      "outputs": [
        {
          "internalType": "uint256",
          "name": "",
          "type": "uint256"
        }
      ],
      "stateMutability": "view",
      "type": "function",
      "constant": true
    },
    {
      "inputs": [
        {
          "internalType": "address",
          "name": "tokenAddress",
          "type": "address"
        }
      ],
      "name": "setToken",
      "outputs": [
        {
          "internalType": "bool",
          "name": "",
          "type": "bool"
        }
      ],
      "stateMutability": "nonpayable",
      "type": "function"
    },
    {
      "inputs": [
        {
          "internalType": "string",
          "name": "name",
          "type": "string"
        }
      ],
      "name": "existsBlockchain",
      "outputs": [
        {
          "internalType": "bool",
          "name": "",
          "type": "bool"
        }
      ],
      "stateMutability": "view",
      "type": "function",
      "constant": true
    },
    {
      "inputs": [],
      "name": "listBlockchain",
      "outputs": [
        {
          "internalType": "string[]",
          "name": "",
          "type": "string[]"
        }
      ],
      "stateMutability": "view",
      "type": "function",
      "constant": true
    },
    {
      "inputs": [
        {
          "internalType": "string",
          "name": "name",
          "type": "string"
        }
      ],
      "name": "addBlockchain",
      "outputs": [
        {
          "internalType": "uint256",
          "name": "",
          "type": "uint256"
        }
      ],
      "stateMutability": "nonpayable",
      "type": "function"
    },
    {
      "inputs": [
        {
          "internalType": "string",
          "name": "name",
          "type": "string"
        }
      ],
      "name": "delBlockchain",
      "outputs": [
        {
          "internalType": "bool",
          "name": "",
          "type": "bool"
        }
      ],
      "stateMutability": "nonpayable",
      "type": "function"
    },
    {
      "inputs": [],
      "name": "pause",
      "outputs": [],
      "stateMutability": "nonpayable",
      "type": "function"
    },
    {
      "inputs": [],
      "name": "unpause",
      "outputs": [],
      "stateMutability": "nonpayable",
      "type": "function"
    }
  ],
  "bytecode": "0x60806040523480156200001157600080fd5b5060405162004abc38038062004abc833981810160405281019062000037919062000256565b6000600160006101000a81548160ff021916908315150217905550620000766000801b6200006a620000c660201b60201c565b620000ce60201b60201c565b80600460006101000a81548173ffffffffffffffffffffffffffffffffffffffff021916908373ffffffffffffffffffffffffffffffffffffffff160217905550600a60068190555050620002d0565b600033905090565b620000e08282620000e460201b60201c565b5050565b620000f68282620001d560201b60201c565b620001d157600160008084815260200190815260200160002060000160008373ffffffffffffffffffffffffffffffffffffffff1673ffffffffffffffffffffffffffffffffffffffff16815260200190815260200160002060006101000a81548160ff02191690831515021790555062000176620000c660201b60201c565b73ffffffffffffffffffffffffffffffffffffffff168173ffffffffffffffffffffffffffffffffffffffff16837f2f8788117e7eff1d82e926ec794901d17c78024a50270940304540a733656f0d60405160405180910390a45b5050565b600080600084815260200190815260200160002060000160008373ffffffffffffffffffffffffffffffffffffffff1673ffffffffffffffffffffffffffffffffffffffff16815260200190815260200160002060009054906101000a900460ff16905092915050565b6000815190506200025081620002b6565b92915050565b6000602082840312156200026957600080fd5b600062000279848285016200023f565b91505092915050565b60006200028f8262000296565b9050919050565b600073ffffffffffffffffffffffffffffffffffffffff82169050919050565b620002c18162000282565b8114620002cd57600080fd5b50565b6147dc80620002e06000396000f3fe608060405234801561001057600080fd5b50600436106102065760003560e01c806382b2e2571161011a578063b8c48a28116100ad578063c25b1eaf1161007c578063c25b1eaf14610653578063cd09fc2814610683578063d547741f146106b3578063e1343dae146106cf578063fc0c546a146106ed57610206565b8063b8c48a2814610593578063bb52228b146105c3578063bdf30f39146105f3578063c1f0808a1461062357610206565b806399cd19d3116100e957806399cd19d3146104e5578063a217fddf14610515578063a36185f414610533578063aeb670e31461056357610206565b806382b2e2571461046f5780638456cb591461048d57806391d148541461049757806392830770146104c757610206565b8063420c04f01161019d57806350baa6221161016c57806350baa622146103a3578063525a34e3146103d357806354fd4d50146104035780635c975abb146104215780635d27fc701461043f57610206565b8063420c04f0146103195780634d9b47e2146103495780634e5c7416146103675780634e71d92d1461038557610206565b80632f2ff15d116101d95780632f2ff15d146102b95780633222a6aa146102d557806336568abe146102f35780633f4ba83a1461030f57610206565b806301ffc9a71461020b57806310c22fa61461023b578063144fa6d714610259578063248a9ca314610289575b600080fd5b61022560048036038101906102209190613172565b61070b565b6040516102329190613a27565b60405180910390f35b610243610785565b6040516102509190613d5a565b60405180910390f35b610273600480360381019061026e9190612f95565b61078b565b6040516102809190613a27565b60405180910390f35b6102a3600480360381019061029e919061310d565b610919565b6040516102b09190613a42565b60405180910390f35b6102d360048036038101906102ce9190613136565b610938565b005b6102dd610961565b6040516102ea9190613d5a565b60405180910390f35b61030d60048036038101906103089190613136565b61096b565b005b6103176109ee565b005b610333600480360381019061032e9190612fbe565b610a4b565b6040516103409190613a27565b60405180910390f35b610351610dfe565b60405161035e9190613a42565b60405180910390f35b61036f610e22565b60405161037c9190613d5a565b60405180910390f35b61038d610e2c565b60405161039a9190613d5a565b60405180910390f35b6103bd60048036038101906103b891906131dc565b610fef565b6040516103ca9190613a27565b60405180910390f35b6103ed60048036038101906103e891906131dc565b61120a565b6040516103fa9190613a27565b60405180910390f35b61040b611342565b6040516104189190613a78565b60405180910390f35b61042961137f565b6040516104369190613a27565b60405180910390f35b61045960048036038101906104549190612f95565b611396565b6040516104669190613a27565b60405180910390f35b610477611466565b6040516104849190613d5a565b60405180910390f35b610495611518565b005b6104b160048036038101906104ac9190613136565b611575565b6040516104be9190613a27565b60405180910390f35b6104cf6115df565b6040516104dc9190613d5a565b60405180910390f35b6104ff60048036038101906104fa919061319b565b6115e9565b60405161050c9190613d5a565b60405180910390f35b61051d611724565b60405161052a9190613a42565b60405180910390f35b61054d6004803603810190610548919061322e565b61172b565b60405161055a9190613a27565b60405180910390f35b61057d60048036038101906105789190613081565b6119ab565b60405161058a9190613a42565b60405180910390f35b6105ad60048036038101906105a89190612f95565b611a62565b6040516105ba9190613a27565b60405180910390f35b6105dd60048036038101906105d8919061319b565b611b32565b6040516105ea9190613a27565b60405180910390f35b61060d60048036038101906106089190612f95565b611e7c565b60405161061a9190613d5a565b60405180910390f35b61063d6004803603810190610638919061310d565b611ec5565b60405161064a9190613a27565b60405180910390f35b61066d600480360381019061066891906131dc565b611ee5565b60405161067a9190613a78565b60405180910390f35b61069d6004803603810190610698919061319b565b611f91565b6040516106aa9190613a27565b60405180910390f35b6106cd60048036038101906106c89190613136565b6120af565b005b6106d76120d8565b6040516106e49190613a05565b60405180910390f35b6106f56121b1565b6040516107029190613a5d565b60405180910390f35b60007f7965db0b000000000000000000000000000000000000000000000000000000007bffffffffffffffffffffffffffffffffffffffffffffffffffffffff1916827bffffffffffffffffffffffffffffffffffffffffffffffffffffffff1916148061077e575061077d826121d7565b5b9050919050565b61271081565b60006107a16000801b61079c612241565b611575565b6107e0576040517f08c379a00000000000000000000000000000000000000000000000000000000081526004016107d790613c7a565b60405180910390fd5b6107e861137f565b15610828576040517f08c379a000000000000000000000000000000000000000000000000000000000815260040161081f90613bda565b60405180910390fd5b600073ffffffffffffffffffffffffffffffffffffffff168273ffffffffffffffffffffffffffffffffffffffff161415610898576040517f08c379a000000000000000000000000000000000000000000000000000000000815260040161088f90613cba565b60405180910390fd5b7f5d108ca248943e98e1886bbc2c38beda701271994a14354258a11692b81b73cf826040516108c791906138c4565b60405180910390a181600460006101000a81548173ffffffffffffffffffffffffffffffffffffffff021916908373ffffffffffffffffffffffffffffffffffffffff16021790555060019050919050565b6000806000838152602001908152602001600020600101549050919050565b61094182610919565b6109528161094d612241565b612249565b61095c83836122e6565b505050565b6000600554905090565b610973612241565b73ffffffffffffffffffffffffffffffffffffffff168173ffffffffffffffffffffffffffffffffffffffff16146109e0576040517f08c379a00000000000000000000000000000000000000000000000000000000081526004016109d790613d3a565b60405180910390fd5b6109ea82826123c6565b5050565b610a026000801b6109fd612241565b611575565b610a41576040517f08c379a0000000000000000000000000000000000000000000000000000000008152600401610a3890613c7a565b60405180910390fd5b610a496124a7565b565b6000610a7e7f8227712ef8ad39d0f26f06731ef0df8665eb7ada7f41b1ee089adf3c238862a2610a79612241565b611575565b610abd576040517f08c379a0000000000000000000000000000000000000000000000000000000008152600401610ab490613b7a565b60405180910390fd5b610ac561137f565b15610b05576040517f08c379a0000000000000000000000000000000000000000000000000000000008152600401610afc90613bda565b60405180910390fd5b600073ffffffffffffffffffffffffffffffffffffffff168973ffffffffffffffffffffffffffffffffffffffff161415610b75576040517f08c379a0000000000000000000000000000000000000000000000000000000008152600401610b6c90613b5a565b60405180910390fd5b60008811610bb8576040517f08c379a0000000000000000000000000000000000000000000000000000000008152600401610baf90613aba565b60405180910390fd5b60008787905011610bfe576040517f08c379a0000000000000000000000000000000000000000000000000000000008152600401610bf590613bfa565b60405180910390fd5b610c4b85858080601f016020809104026020016040519081016040528093929190818152602001838380828437600081840152601f19601f82011690508083019250505050505050611f91565b610c8a576040517f08c379a0000000000000000000000000000000000000000000000000000000008152600401610c8190613c5a565b60405180910390fd5b6000801b83600060028110610cc8577f4e487b7100000000000000000000000000000000000000000000000000000000600052603260045260246000fd5b60200201351415610d0e576040517f08c379a0000000000000000000000000000000000000000000000000000000008152600401610d0590613c3a565b60405180910390fd5b6000801b83600160028110610d4c577f4e487b7100000000000000000000000000000000000000000000000000000000600052603260045260246000fd5b60200201351415610d92576040517f08c379a0000000000000000000000000000000000000000000000000000000008152600401610d8990613b1a565b60405180910390fd5b610d9e838a8a85612549565b7faea29b4db8ea6183180285684fa440e7d8142b49c873906809df7644286408818989898989898989604051610ddb98979695949392919061393f565b60405180910390a1610ded89896126a5565b506001905098975050505050505050565b7f8227712ef8ad39d0f26f06731ef0df8665eb7ada7f41b1ee089adf3c238862a281565b6000600354905090565b60008060026000610e3b612241565b73ffffffffffffffffffffffffffffffffffffffff1673ffffffffffffffffffffffffffffffffffffffff16815260200190815260200160002054905060008111610ebb576040517f08c379a0000000000000000000000000000000000000000000000000000000008152600401610eb290613c1a565b60405180910390fd5b8060026000610ec8612241565b73ffffffffffffffffffffffffffffffffffffffff1673ffffffffffffffffffffffffffffffffffffffff1681526020019081526020016000206000828254610f119190613f46565b925050819055508060036000828254610f2a9190613f46565b92505081905550600460009054906101000a900473ffffffffffffffffffffffffffffffffffffffff1673ffffffffffffffffffffffffffffffffffffffff1663a9059cbb610f77612241565b836040518363ffffffff1660e01b8152600401610f95929190613916565b602060405180830381600087803b158015610faf57600080fd5b505af1158015610fc3573d6000803e3d6000fd5b505050506040513d601f19601f82011682018060405250810190610fe791906130e4565b508091505090565b60006110056000801b611000612241565b611575565b611044576040517f08c379a000000000000000000000000000000000000000000000000000000000815260040161103b90613c7a565b60405180910390fd5b6000600460009054906101000a900473ffffffffffffffffffffffffffffffffffffffff1673ffffffffffffffffffffffffffffffffffffffff166370a08231306040518263ffffffff1660e01b81526004016110a191906138c4565b60206040518083038186803b1580156110b957600080fd5b505afa1580156110cd573d6000803e3d6000fd5b505050506040513d601f19601f820116820180604052508101906110f19190613205565b90506000600354826111039190613f46565b905080841115611148576040517f08c379a000000000000000000000000000000000000000000000000000000000815260040161113f90613b9a565b60405180910390fd5b600460009054906101000a900473ffffffffffffffffffffffffffffffffffffffff1673ffffffffffffffffffffffffffffffffffffffff1663a9059cbb61118e612241565b866040518363ffffffff1660e01b81526004016111ac929190613916565b602060405180830381600087803b1580156111c657600080fd5b505af11580156111da573d6000803e3d6000fd5b505050506040513d601f19601f820116820180604052508101906111fe91906130e4565b50600192505050919050565b60006112206000801b61121b612241565b611575565b61125f576040517f08c379a000000000000000000000000000000000000000000000000000000000815260040161125690613c7a565b60405180910390fd5b61126761137f565b156112a7576040517f08c379a000000000000000000000000000000000000000000000000000000000815260040161129e90613bda565b60405180910390fd5b600a6127106112b69190613ebb565b82106112f7576040517f08c379a00000000000000000000000000000000000000000000000000000000081526004016112ee90613d1a565b60405180910390fd5b7f423d9a8a1d4011c45245817ab10cc09937b0786496dad82dba18141ca4fb7c8e6006548360405161132a929190613d75565b60405180910390a18160068190555060019050919050565b60606040518060400160405280600281526020017f7630000000000000000000000000000000000000000000000000000000000000815250905090565b6000600160009054906101000a900460ff16905090565b60006113ac6000801b6113a7612241565b611575565b6113eb576040517f08c379a00000000000000000000000000000000000000000000000000000000081526004016113e290613c7a565b60405180910390fd5b6113f361137f565b15611433576040517f08c379a000000000000000000000000000000000000000000000000000000000815260040161142a90613bda565b60405180910390fd5b61145d7f8227712ef8ad39d0f26f06731ef0df8665eb7ada7f41b1ee089adf3c238862a2836120af565b60019050919050565b6000600460009054906101000a900473ffffffffffffffffffffffffffffffffffffffff1673ffffffffffffffffffffffffffffffffffffffff166370a08231306040518263ffffffff1660e01b81526004016114c391906138c4565b60206040518083038186803b1580156114db57600080fd5b505afa1580156114ef573d6000803e3d6000fd5b505050506040513d601f19601f820116820180604052508101906115139190613205565b905090565b61152c6000801b611527612241565b611575565b61156b576040517f08c379a000000000000000000000000000000000000000000000000000000000815260040161156290613c7a565b60405180910390fd5b6115736128cd565b565b600080600084815260200190815260200160002060000160008373ffffffffffffffffffffffffffffffffffffffff1673ffffffffffffffffffffffffffffffffffffffff16815260200190815260200160002060009054906101000a900460ff16905092915050565b6000600654905090565b60006115ff6000801b6115fa612241565b611575565b61163e576040517f08c379a000000000000000000000000000000000000000000000000000000000815260040161163590613c7a565b60405180910390fd5b61164661137f565b15611686576040517f08c379a000000000000000000000000000000000000000000000000000000000815260040161167d90613bda565b60405180910390fd5b61168f82611f91565b156116cf576040517f08c379a00000000000000000000000000000000000000000000000000000000081526004016116c690613c9a565b60405180910390fd5b60078290806001815401808255809150506001900390600052602060002001600090919091909150908051906020019061170a929190612cc2565b50600160078054905061171d9190613f46565b9050919050565b6000801b81565b600061173561137f565b15611775576040517f08c379a000000000000000000000000000000000000000000000000000000000815260040161176c90613bda565b60405180910390fd5b61177e83611f91565b6117bd576040517f08c379a00000000000000000000000000000000000000000000000000000000081526004016117b490613b3a565b60405180910390fd5b6117d6826040518060200160405280600081525061296f565b15611816576040517f08c379a000000000000000000000000000000000000000000000000000000000815260040161180d90613cfa565b60405180910390fd5b60008411611859576040517f08c379a000000000000000000000000000000000000000000000000000000000815260040161185090613aba565b60405180910390fd5b60006127106006548661186c9190613eec565b6118769190613ebb565b9050600081866118869190613f46565b9050816005600082825461189a9190613e65565b925050819055507f4b07d21301cc34286797eac5a16d2f1c0131fcf7b2051b24457f8d9a0949479d6118ca612241565b8286886040516118dd94939291906139b2565b60405180910390a1600460009054906101000a900473ffffffffffffffffffffffffffffffffffffffff1673ffffffffffffffffffffffffffffffffffffffff166323b872dd61192b612241565b30896040518463ffffffff1660e01b815260040161194b939291906138df565b602060405180830381600087803b15801561196557600080fd5b505af1158015611979573d6000803e3d6000fd5b505050506040513d601f19601f8201168201806040525081019061199d91906130e4565b506001925050509392505050565b6000846000600281106119e7577f4e487b7100000000000000000000000000000000000000000000000000000000600052603260045260246000fd5b602002013585600160028110611a26577f4e487b7100000000000000000000000000000000000000000000000000000000600052603260045260246000fd5b6020020135858585604051602001611a42959493929190613814565b604051602081830303815290604052805190602001209050949350505050565b6000611a786000801b611a73612241565b611575565b611ab7576040517f08c379a0000000000000000000000000000000000000000000000000000000008152600401611aae90613c7a565b60405180910390fd5b611abf61137f565b15611aff576040517f08c379a0000000000000000000000000000000000000000000000000000000008152600401611af690613bda565b60405180910390fd5b611b297f8227712ef8ad39d0f26f06731ef0df8665eb7ada7f41b1ee089adf3c238862a283610938565b60019050919050565b6000611b486000801b611b43612241565b611575565b611b87576040517f08c379a0000000000000000000000000000000000000000000000000000000008152600401611b7e90613c7a565b60405180910390fd5b611b8f61137f565b15611bcf576040517f08c379a0000000000000000000000000000000000000000000000000000000008152600401611bc690613bda565b60405180910390fd5b611bd882611f91565b611c17576040517f08c379a0000000000000000000000000000000000000000000000000000000008152600401611c0e90613bba565b60405180910390fd5b600160078054905011611c5f576040517f08c379a0000000000000000000000000000000000000000000000000000000008152600401611c5690613cda565b60405180910390fd5b600080600090505b600780549050811015611d6a57611d4a8460078381548110611cb2577f4e487b7100000000000000000000000000000000000000000000000000000000600052603260045260246000fd5b906000526020600020018054611cc7906140a5565b80601f0160208091040260200160405190810160405280929190818152602001828054611cf3906140a5565b8015611d405780601f10611d1557610100808354040283529160200191611d40565b820191906000526020600020905b815481529060010190602001808311611d2357829003601f168201915b505050505061296f565b15611d5757809150611d6a565b8080611d6290614108565b915050611c67565b5060076001600780549050611d7f9190613f46565b81548110611db6577f4e487b7100000000000000000000000000000000000000000000000000000000600052603260045260246000fd5b9060005260206000200160078281548110611dfa577f4e487b7100000000000000000000000000000000000000000000000000000000600052603260045260246000fd5b90600052602060002001908054611e10906140a5565b611e1b929190612d48565b506007805480611e54577f4e487b7100000000000000000000000000000000000000000000000000000000600052603160045260246000fd5b600190038181906000526020600020016000611e709190612dd5565b90556001915050919050565b6000600260008373ffffffffffffffffffffffffffffffffffffffff1673ffffffffffffffffffffffffffffffffffffffff168152602001908152602001600020549050919050565b60086020528060005260406000206000915054906101000a900460ff1681565b60078181548110611ef557600080fd5b906000526020600020016000915090508054611f10906140a5565b80601f0160208091040260200160405190810160405280929190818152602001828054611f3c906140a5565b8015611f895780601f10611f5e57610100808354040283529160200191611f89565b820191906000526020600020905b815481529060010190602001808311611f6c57829003601f168201915b505050505081565b600080600090505b6007805490508160ff1610156120a4576120828360078360ff1681548110611fea577f4e487b7100000000000000000000000000000000000000000000000000000000600052603260045260246000fd5b906000526020600020018054611fff906140a5565b80601f016020809104026020016040519081016040528092919081815260200182805461202b906140a5565b80156120785780601f1061204d57610100808354040283529160200191612078565b820191906000526020600020905b81548152906001019060200180831161205b57829003601f168201915b505050505061296f565b156120915760019150506120aa565b808061209c90614151565b915050611f99565b50600090505b919050565b6120b882610919565b6120c9816120c4612241565b612249565b6120d383836123c6565b505050565b60606007805480602002602001604051908101604052809291908181526020016000905b828210156121a857838290600052602060002001805461211b906140a5565b80601f0160208091040260200160405190810160405280929190818152602001828054612147906140a5565b80156121945780601f1061216957610100808354040283529160200191612194565b820191906000526020600020905b81548152906001019060200180831161217757829003601f168201915b5050505050815260200190600101906120fc565b50505050905090565b600460009054906101000a900473ffffffffffffffffffffffffffffffffffffffff1681565b60007f01ffc9a7000000000000000000000000000000000000000000000000000000007bffffffffffffffffffffffffffffffffffffffffffffffffffffffff1916827bffffffffffffffffffffffffffffffffffffffffffffffffffffffff1916149050919050565b600033905090565b6122538282611575565b6122e2576122788173ffffffffffffffffffffffffffffffffffffffff1660146129c8565b6122868360001c60206129c8565b60405160200161229792919061388a565b6040516020818303038152906040526040517f08c379a00000000000000000000000000000000000000000000000000000000081526004016122d99190613a78565b60405180910390fd5b5050565b6122f08282611575565b6123c257600160008084815260200190815260200160002060000160008373ffffffffffffffffffffffffffffffffffffffff1673ffffffffffffffffffffffffffffffffffffffff16815260200190815260200160002060006101000a81548160ff021916908315150217905550612367612241565b73ffffffffffffffffffffffffffffffffffffffff168173ffffffffffffffffffffffffffffffffffffffff16837f2f8788117e7eff1d82e926ec794901d17c78024a50270940304540a733656f0d60405160405180910390a45b5050565b6123d08282611575565b156124a357600080600084815260200190815260200160002060000160008373ffffffffffffffffffffffffffffffffffffffff1673ffffffffffffffffffffffffffffffffffffffff16815260200190815260200160002060006101000a81548160ff021916908315150217905550612448612241565b73ffffffffffffffffffffffffffffffffffffffff168173ffffffffffffffffffffffffffffffffffffffff16837ff6391f5c32d9c69d2a47ea670b442974b53935d1edc7fd64eb21e047a839171b60405160405180910390a45b5050565b6124af61137f565b6124ee576040517f08c379a00000000000000000000000000000000000000000000000000000000081526004016124e590613ada565b60405180910390fd5b6000600160006101000a81548160ff0219169083151502179055507f5db9ee0a495bf2e6ff9c91a7834c1ba4fdd244a5e8aa4e537bd38aeae4b073aa612532612241565b60405161253f91906138c4565b60405180910390a1565b61257a7f8227712ef8ad39d0f26f06731ef0df8665eb7ada7f41b1ee089adf3c238862a2612575612241565b611575565b6125b9576040517f08c379a00000000000000000000000000000000000000000000000000000000081526004016125b090613b7a565b60405180910390fd5b6125c161137f565b15612601576040517f08c379a00000000000000000000000000000000000000000000000000000000081526004016125f890613bda565b60405180910390fd5b600061260f858585856119ab565b90506008600082815260200190815260200160002060009054906101000a900460ff1615612672576040517f08c379a000000000000000000000000000000000000000000000000000000000815260040161266990613afa565b60405180910390fd5b60016008600083815260200190815260200160002060006101000a81548160ff0219169083151502179055505050505050565b60006126d87f8227712ef8ad39d0f26f06731ef0df8665eb7ada7f41b1ee089adf3c238862a26126d3612241565b611575565b612717576040517f08c379a000000000000000000000000000000000000000000000000000000000815260040161270e90613b7a565b60405180910390fd5b61271f61137f565b1561275f576040517f08c379a000000000000000000000000000000000000000000000000000000000815260040161275690613bda565b60405180910390fd5b6000600460009054906101000a900473ffffffffffffffffffffffffffffffffffffffff1673ffffffffffffffffffffffffffffffffffffffff166370a08231306040518263ffffffff1660e01b81526004016127bc91906138c4565b60206040518083038186803b1580156127d457600080fd5b505afa1580156127e8573d6000803e3d6000fd5b505050506040513d601f19601f8201168201806040525081019061280c9190613205565b905082600360008282546128209190613e65565b9250508190555060035481101561286c576040517f08c379a000000000000000000000000000000000000000000000000000000000815260040161286390613b9a565b60405180910390fd5b82600260008673ffffffffffffffffffffffffffffffffffffffff1673ffffffffffffffffffffffffffffffffffffffff16815260200190815260200160002060008282546128bb9190613e65565b92505081905550600191505092915050565b6128d561137f565b15612915576040517f08c379a000000000000000000000000000000000000000000000000000000000815260040161290c90613bda565b60405180910390fd5b60018060006101000a81548160ff0219169083151502179055507f62e78cea01bee320cd4e420270b5ea74000d11b0c9f74754ebdbfc544b05a258612958612241565b60405161296591906138c4565b60405180910390a1565b6000816040516020016129829190613873565b60405160208183030381529060405280519060200120836040516020016129a99190613873565b6040516020818303038152906040528051906020012014905092915050565b6060600060028360026129db9190613eec565b6129e59190613e65565b67ffffffffffffffff811115612a24577f4e487b7100000000000000000000000000000000000000000000000000000000600052604160045260246000fd5b6040519080825280601f01601f191660200182016040528015612a565781602001600182028036833780820191505090505b5090507f300000000000000000000000000000000000000000000000000000000000000081600081518110612ab4577f4e487b7100000000000000000000000000000000000000000000000000000000600052603260045260246000fd5b60200101907effffffffffffffffffffffffffffffffffffffffffffffffffffffffffffff1916908160001a9053507f780000000000000000000000000000000000000000000000000000000000000081600181518110612b3e577f4e487b7100000000000000000000000000000000000000000000000000000000600052603260045260246000fd5b60200101907effffffffffffffffffffffffffffffffffffffffffffffffffffffffffffff1916908160001a90535060006001846002612b7e9190613eec565b612b889190613e65565b90505b6001811115612c74577f3031323334353637383961626364656600000000000000000000000000000000600f861660108110612bf0577f4e487b7100000000000000000000000000000000000000000000000000000000600052603260045260246000fd5b1a60f81b828281518110612c2d577f4e487b7100000000000000000000000000000000000000000000000000000000600052603260045260246000fd5b60200101907effffffffffffffffffffffffffffffffffffffffffffffffffffffffffffff1916908160001a905350600485901c945080612c6d9061407b565b9050612b8b565b5060008414612cb8576040517f08c379a0000000000000000000000000000000000000000000000000000000008152600401612caf90613a9a565b60405180910390fd5b8091505092915050565b828054612cce906140a5565b90600052602060002090601f016020900481019282612cf05760008555612d37565b82601f10612d0957805160ff1916838001178555612d37565b82800160010185558215612d37579182015b82811115612d36578251825591602001919060010190612d1b565b5b509050612d449190612e15565b5090565b828054612d54906140a5565b90600052602060002090601f016020900481019282612d765760008555612dc4565b82601f10612d875780548555612dc4565b82800160010185558215612dc457600052602060002091601f016020900482015b82811115612dc3578254825591600101919060010190612da8565b5b509050612dd19190612e15565b5090565b508054612de1906140a5565b6000825580601f10612df35750612e12565b601f016020900490600052602060002090810190612e119190612e15565b5b50565b5b80821115612e2e576000816000905550600101612e16565b5090565b6000612e45612e4084613dc3565b613d9e565b905082815260208101848484011115612e5d57600080fd5b612e68848285614039565b509392505050565b600081359050612e7f8161471c565b92915050565b600081905082602060020282011115612e9d57600080fd5b92915050565b600081519050612eb281614733565b92915050565b600081359050612ec78161474a565b92915050565b600081359050612edc81614761565b92915050565b60008083601f840112612ef457600080fd5b8235905067ffffffffffffffff811115612f0d57600080fd5b602083019150836001820283011115612f2557600080fd5b9250929050565b600082601f830112612f3d57600080fd5b8135612f4d848260208601612e32565b91505092915050565b600081359050612f6581614778565b92915050565b600081519050612f7a81614778565b92915050565b600081359050612f8f8161478f565b92915050565b600060208284031215612fa757600080fd5b6000612fb584828501612e70565b91505092915050565b60008060008060008060008060e0898b031215612fda57600080fd5b6000612fe88b828c01612e70565b9850506020612ff98b828c01612f56565b975050604089013567ffffffffffffffff81111561301657600080fd5b6130228b828c01612ee2565b9650965050606089013567ffffffffffffffff81111561304157600080fd5b61304d8b828c01612ee2565b945094505060806130608b828c01612e85565b92505060c06130718b828c01612f80565b9150509295985092959890939650565b60008060008060a0858703121561309757600080fd5b60006130a587828801612e85565b94505060406130b687828801612e70565b93505060606130c787828801612f56565b92505060806130d887828801612f80565b91505092959194509250565b6000602082840312156130f657600080fd5b600061310484828501612ea3565b91505092915050565b60006020828403121561311f57600080fd5b600061312d84828501612eb8565b91505092915050565b6000806040838503121561314957600080fd5b600061315785828601612eb8565b925050602061316885828601612e70565b9150509250929050565b60006020828403121561318457600080fd5b600061319284828501612ecd565b91505092915050565b6000602082840312156131ad57600080fd5b600082013567ffffffffffffffff8111156131c757600080fd5b6131d384828501612f2c565b91505092915050565b6000602082840312156131ee57600080fd5b60006131fc84828501612f56565b91505092915050565b60006020828403121561321757600080fd5b600061322584828501612f6b565b91505092915050565b60008060006060848603121561324357600080fd5b600061325186828701612f56565b935050602084013567ffffffffffffffff81111561326e57600080fd5b61327a86828701612f2c565b925050604084013567ffffffffffffffff81111561329757600080fd5b6132a386828701612f2c565b9150509250925092565b60006132b983836133dd565b905092915050565b6132ca81613f7a565b82525050565b6132e16132dc82613f7a565b61417b565b82525050565b6132f360408383614039565b5050565b600061330282613e04565b61330c8185613e27565b93508360208202850161331e85613df4565b8060005b8581101561335a578484038952815161333b85826132ad565b945061334683613e1a565b925060208a01995050600181019050613322565b50829750879550505050505092915050565b61337581613f8c565b82525050565b61338481613f98565b82525050565b61339b61339682613f98565b61418d565b82525050565b6133aa81614015565b82525050565b60006133bc8385613e49565b93506133c9838584614039565b6133d283614281565b840190509392505050565b60006133e882613e0f565b6133f28185613e38565b9350613402818560208601614048565b61340b81614281565b840191505092915050565b600061342182613e0f565b61342b8185613e49565b935061343b818560208601614048565b61344481614281565b840191505092915050565b600061345a82613e0f565b6134648185613e5a565b9350613474818560208601614048565b80840191505092915050565b600061348d602083613e49565b9150613498826142ac565b602082019050919050565b60006134b0601383613e49565b91506134bb826142d5565b602082019050919050565b60006134d3601483613e49565b91506134de826142fe565b602082019050919050565b60006134f6601983613e49565b915061350182614327565b602082019050919050565b6000613519601f83613e49565b915061352482614350565b602082019050919050565b600061353c601f83613e49565b915061354782614379565b602082019050919050565b600061355f601883613e49565b915061356a826143a2565b602082019050919050565b6000613582601383613e49565b915061358d826143cb565b602082019050919050565b60006135a5601c83613e49565b91506135b0826143f4565b602082019050919050565b60006135c8601d83613e49565b91506135d38261441d565b602082019050919050565b60006135eb601083613e49565b91506135f682614446565b602082019050919050565b600061360e601183613e49565b91506136198261446f565b602082019050919050565b6000613631601b83613e49565b915061363c82614498565b602082019050919050565b6000613654601983613e49565b915061365f826144c1565b602082019050919050565b6000613677602183613e49565b9150613682826144ea565b604082019050919050565b600061369a601183613e49565b91506136a582614539565b602082019050919050565b60006136bd602183613e49565b91506136c882614562565b604082019050919050565b60006136e0601483613e49565b91506136eb826145b1565b602082019050919050565b6000613703601783613e5a565b915061370e826145da565b601782019050919050565b6000613726602683613e49565b915061373182614603565b604082019050919050565b6000613749601983613e49565b915061375482614652565b602082019050919050565b600061376c601783613e49565b91506137778261467b565b602082019050919050565b600061378f601183613e5a565b915061379a826146a4565b601182019050919050565b60006137b2602f83613e49565b91506137bd826146cd565b604082019050919050565b6137d181613fee565b82525050565b6137e86137e382613fee565b6141a9565b82525050565b6137f781613ff8565b82525050565b61380e61380982613ff8565b6141b3565b82525050565b6000613820828861338a565b602082019150613830828761338a565b60208201915061384082866132d0565b60148201915061385082856137d7565b60208201915061386082846137fd565b6004820191508190509695505050505050565b600061387f828461344f565b915081905092915050565b6000613895826136f6565b91506138a1828561344f565b91506138ac82613782565b91506138b8828461344f565b91508190509392505050565b60006020820190506138d960008301846132c1565b92915050565b60006060820190506138f460008301866132c1565b61390160208301856132c1565b61390e60408301846137c8565b949350505050565b600060408201905061392b60008301856132c1565b61393860208301846137c8565b9392505050565b600060e082019050613954600083018b6132c1565b613961602083018a6137c8565b818103604083015261397481888a6133b0565b905081810360608301526139898186886133b0565b905061399860808301856132e7565b6139a560c08301846137ee565b9998505050505050505050565b60006080820190506139c760008301876132c1565b6139d460208301866137c8565b81810360408301526139e68185613416565b905081810360608301526139fa8184613416565b905095945050505050565b60006020820190508181036000830152613a1f81846132f7565b905092915050565b6000602082019050613a3c600083018461336c565b92915050565b6000602082019050613a57600083018461337b565b92915050565b6000602082019050613a7260008301846133a1565b92915050565b60006020820190508181036000830152613a928184613416565b905092915050565b60006020820190508181036000830152613ab381613480565b9050919050565b60006020820190508181036000830152613ad3816134a3565b9050919050565b60006020820190508181036000830152613af3816134c6565b9050919050565b60006020820190508181036000830152613b13816134e9565b9050919050565b60006020820190508181036000830152613b338161350c565b9050919050565b60006020820190508181036000830152613b538161352f565b9050919050565b60006020820190508181036000830152613b7381613552565b9050919050565b60006020820190508181036000830152613b9381613575565b9050919050565b60006020820190508181036000830152613bb381613598565b9050919050565b60006020820190508181036000830152613bd3816135bb565b9050919050565b60006020820190508181036000830152613bf3816135de565b9050919050565b60006020820190508181036000830152613c1381613601565b9050919050565b60006020820190508181036000830152613c3381613624565b9050919050565b60006020820190508181036000830152613c5381613647565b9050919050565b60006020820190508181036000830152613c738161366a565b9050919050565b60006020820190508181036000830152613c938161368d565b9050919050565b60006020820190508181036000830152613cb3816136b0565b9050919050565b60006020820190508181036000830152613cd3816136d3565b9050919050565b60006020820190508181036000830152613cf381613719565b9050919050565b60006020820190508181036000830152613d138161373c565b9050919050565b60006020820190508181036000830152613d338161375f565b9050919050565b60006020820190508181036000830152613d53816137a5565b9050919050565b6000602082019050613d6f60008301846137c8565b92915050565b6000604082019050613d8a60008301856137c8565b613d9760208301846137c8565b9392505050565b6000613da8613db9565b9050613db482826140d7565b919050565b6000604051905090565b600067ffffffffffffffff821115613dde57613ddd614252565b5b613de782614281565b9050602081019050919050565b6000819050602082019050919050565b600081519050919050565b600081519050919050565b6000602082019050919050565b600082825260208201905092915050565b600082825260208201905092915050565b600082825260208201905092915050565b600081905092915050565b6000613e7082613fee565b9150613e7b83613fee565b9250827fffffffffffffffffffffffffffffffffffffffffffffffffffffffffffffffff03821115613eb057613eaf6141c5565b5b828201905092915050565b6000613ec682613fee565b9150613ed183613fee565b925082613ee157613ee06141f4565b5b828204905092915050565b6000613ef782613fee565b9150613f0283613fee565b9250817fffffffffffffffffffffffffffffffffffffffffffffffffffffffffffffffff0483118215151615613f3b57613f3a6141c5565b5b828202905092915050565b6000613f5182613fee565b9150613f5c83613fee565b925082821015613f6f57613f6e6141c5565b5b828203905092915050565b6000613f8582613fce565b9050919050565b60008115159050919050565b6000819050919050565b60007fffffffff0000000000000000000000000000000000000000000000000000000082169050919050565b600073ffffffffffffffffffffffffffffffffffffffff82169050919050565b6000819050919050565b600063ffffffff82169050919050565b600060ff82169050919050565b600061402082614027565b9050919050565b600061403282613fce565b9050919050565b82818337600083830152505050565b60005b8381101561406657808201518184015260208101905061404b565b83811115614075576000848401525b50505050565b600061408682613fee565b9150600082141561409a576140996141c5565b5b600182039050919050565b600060028204905060018216806140bd57607f821691505b602082108114156140d1576140d0614223565b5b50919050565b6140e082614281565b810181811067ffffffffffffffff821117156140ff576140fe614252565b5b80604052505050565b600061411382613fee565b91507fffffffffffffffffffffffffffffffffffffffffffffffffffffffffffffffff821415614146576141456141c5565b5b600182019050919050565b600061415c82614008565b915060ff8214156141705761416f6141c5565b5b600182019050919050565b600061418682614197565b9050919050565b6000819050919050565b60006141a28261429f565b9050919050565b6000819050919050565b60006141be82614292565b9050919050565b7f4e487b7100000000000000000000000000000000000000000000000000000000600052601160045260246000fd5b7f4e487b7100000000000000000000000000000000000000000000000000000000600052601260045260246000fd5b7f4e487b7100000000000000000000000000000000000000000000000000000000600052602260045260246000fd5b7f4e487b7100000000000000000000000000000000000000000000000000000000600052604160045260246000fd5b6000601f19601f8301169050919050565b60008160e01b9050919050565b60008160601b9050919050565b7f537472696e67733a20686578206c656e67746820696e73756666696369656e74600082015250565b7f4272696467653a20616d6f756e74206973203000000000000000000000000000600082015250565b7f5061757361626c653a206e6f7420706175736564000000000000000000000000600082015250565b7f4272696467653a20616c72656164792070726f63657373656400000000000000600082015250565b7f4272696467653a207472616e73616374696f6e48617368206973206e756c6c00600082015250565b7f4272696467653a20746f426c6f636b636861696e206e6f742065786973747300600082015250565b7f4272696467653a207265636569766572206973207a65726f0000000000000000600082015250565b7f4272696467653a206e6f74206d6f6e69746f7200000000000000000000000000600082015250565b7f4272696467653a20696e73756666696369656e742062616c616e636500000000600082015250565b7f4272696467653a20626c6f636b636861696e206e6f7420657869737473000000600082015250565b7f5061757361626c653a2070617573656400000000000000000000000000000000600082015250565b7f4272696467653a206e6f2073656e646572000000000000000000000000000000600082015250565b7f4272696467653a206e6f2062616c616e636520746f20636c61696d0000000000600082015250565b7f4272696467653a20626c6f636b48617368206973206e756c6c00000000000000600082015250565b7f4272696467653a2066726f6d426c6f636b636861696e206e6f7420657869737460008201527f7300000000000000000000000000000000000000000000000000000000000000602082015250565b7f4272696467653a206e6f74206f776e6572000000000000000000000000000000600082015250565b7f4272696467653a20626c6f636b636861696e20616c726561647920657869737460008201527f7300000000000000000000000000000000000000000000000000000000000000602082015250565b7f4272696467653a207a65726f2061646472657373000000000000000000000000600082015250565b7f416363657373436f6e74726f6c3a206163636f756e7420000000000000000000600082015250565b7f4272696467653a207265717569726573206174206c65617374203120626c6f6360008201527f6b636861696e0000000000000000000000000000000000000000000000000000602082015250565b7f4272696467653a20746f41646472657373206973206e756c6c00000000000000600082015250565b7f4272696467653a20626967676572207468616e20313025000000000000000000600082015250565b7f206973206d697373696e6720726f6c6520000000000000000000000000000000600082015250565b7f416363657373436f6e74726f6c3a2063616e206f6e6c792072656e6f756e636560008201527f20726f6c657320666f722073656c660000000000000000000000000000000000602082015250565b61472581613f7a565b811461473057600080fd5b50565b61473c81613f8c565b811461474757600080fd5b50565b61475381613f98565b811461475e57600080fd5b50565b61476a81613fa2565b811461477557600080fd5b50565b61478181613fee565b811461478c57600080fd5b50565b61479881613ff8565b81146147a357600080fd5b5056fea26469706673582212200d076755e1188e83f466f8883c00f98d5d278dda884cdec9271221fedffa8b1764736f6c63430008040033",
  "immutableReferences": {},
  "source": "// SPDX-License-Identifier: MIT\npragma solidity 0.8.4;\n\n/// @title BRZ token Bridge\n/// @author Solange Gueiros\n\n// Inpired on https://github.com/rsksmart/tokenbridge/blob/master/bridge/contracts/Bridge.sol\n\n// AccessControl.sol :  https://github.com/OpenZeppelin/openzeppelin-contracts/blob/v4.1.0/contracts/access/AccessControl.sol\n// Pausable.sol :       https://github.com/OpenZeppelin/openzeppelin-contracts/blob/v4.1.0/contracts/security/Pausable.sol\n// SafeMath.sol :       https://github.com/OpenZeppelin/openzeppelin-contracts/blob/v4.1.0/contracts/utils/math/SafeMath.sol\nimport \"./ozeppelin/access/AccessControl.sol\";\nimport \"./ozeppelin/security/Pausable.sol\";\nimport \"./IBridge.sol\";\n\n/**\n * @dev BRZ token Bridge\n *\n * Author: Solange Gueiros\n *\n * Smart contract to cross the BRZ token between EVM compatible blockchains.\n *\n * The tokens are crossed by TransferoSwiss, the company that controls the issuance of BRZs.\n *\n * It uses [Open Zeppelin Contracts]\n * (https://github.com/OpenZeppelin/openzeppelin-contracts/blob/v4.1.0/)\n *\n */\ncontract Bridge is AccessControl, IBridge, Pausable {\n  address private constant ZERO_ADDRESS = address(0);\n  bytes32 private constant NULL_HASH = bytes32(0);\n  bytes32 public constant MONITOR_ROLE = keccak256(\"MONITOR_ROLE\");\n\n  /**\n   * @dev DECIMALPERCENT is the representation of 100% using (2) decimal places\n   * 100.00 = percentage accuracy (2) to 100%\n   */\n  uint256 public constant DECIMALPERCENT = 10000;\n\n  mapping(address => uint256) private balances; // Internal balances of address which needs to claim tokens crossed.\n  uint256 private totalToClaim; // locked value in bridge. The bridge's token balance can never be less than the totalToClaim.\n\n  IERC20 public token;\n  uint256 private totalFeeReceivedBridge; //fee received per Bridge, not for transaction in other blockchain\n  uint256 private feePercentageBridge; //Include 2 decimal places\n  string[] public blockchain;\n  mapping(bytes32 => bool) public processed;\n\n  /**\n   * @dev Function called only when the smart contract is deployed.\n   *\n   * Parameters:\n   * - address tokenAddress - address of BRZ token used in this blockchain network\n   *\n   * Actions:\n   * - the transaction's sender will be added in the DEFAULT_ADMIN_ROLE.\n   * - the token will be defined by the parameter tokenAddress\n   * - the feePercentageBridge default value is be setted in 10, which means 0.1%\n   */\n  constructor(address tokenAddress) {\n    _setupRole(DEFAULT_ADMIN_ROLE, _msgSender());\n    token = IERC20(tokenAddress);\n    feePercentageBridge = 10; //0.1%\n  }\n\n  /**\n   * @dev Modifier which verifies if the caller is an owner,\n   * it means he has the role `DEFAULT_ADMIN_ROLE`.\n   *\n   * The role `DEFAULT_ADMIN_ROLE` is defined by Open Zeppelin's AccessControl smart contract.\n   *\n   * By default (setted in the constructor) the account which deployed this smart contract is in this role.\n   *\n   * This owner can add / remove other owners.\n   */\n  modifier onlyOwner() {\n    require(hasRole(DEFAULT_ADMIN_ROLE, _msgSender()), \"Bridge: not owner\");\n    _;\n  }\n\n  /**\n   * @dev Modifier which verifies if the caller is a monitor,\n   * it means he has the role `MONITOR_ROLE`.\n   *\n   * Role MONITOR are referred to its `bytes32` identifier,\n   * defined in the `public constant` called MONITOR_ROLE.\n   * It should be exposed in the external API and be unique.\n   *\n   * Role MONITOR is used to manage the permissions of monitor's addresses.\n   */\n  modifier onlyMonitor() {\n    require(hasRole(MONITOR_ROLE, _msgSender()), \"Bridge: not monitor\");\n    _;\n  }\n\n  /**\n   * @dev Function which returns the bridge's version.\n   *\n   * This is a fixed value define in source code.\n   *\n   * Parameters: none\n   *\n   * Returns: string\n   */\n  function version() external pure override returns (string memory) {\n    return \"v0\";\n  }\n\n  /**\n   * @dev Private function to compare two strings\n   * and returns `true` if the strings are equal,\n   * otherwise it returns false.\n   *\n   * Parameters: stringA, stringB\n   *\n   * Returns: bool\n   */\n  function compareStrings(string memory a, string memory b)\n    private\n    pure\n    returns (bool)\n  {\n    return (keccak256(abi.encodePacked((a))) ==\n      keccak256(abi.encodePacked((b))));\n  }\n\n  /**\n   * @dev This function starts the process of crossing tokens in the Bridge.\n   *\n   * > Any account / person can call it!\n   *\n   * Can not be called if the Bridge is paused.\n   *\n   * Parameters:\n   * - amount - gross amount of tokens to be crossed.\n   * - toBlockchain - the amount will be sent to this blockchain.\n   * - toAddress - the amount will be sent to this address. It can be diferent from caller's address.\n   * This is a string because some blockchain could not have the same pattern from Etherem / RSK / BSC.\n   *\n   * Returns: bool - true if it is sucessful.\n   *\n   * Bridge Fee: it is deducted from the requested amount.\n   * It is a percentage of the requested amount.\n   *\n   * > Before call this function, the caller MUST have called function `approve` in BRZ token,\n   * > allowing the bridge's smart contract address to use the BRZ tokens,\n   * > calling the function `transferFrom`.\n   *\n   * References:\n   *\n   * ERC-20 tokens approve and transferFrom pattern:\n   * [eip-20#transferfrom](https://eips.ethereum.org/EIPS/eip-20#transferfrom)\n   *\n   * Requirements:\n   * - toBlockchain exists.\n   * - toAddress is not an empty string.\n   * - amount greater than zero.\n   *\n   * Actions:\n   * - calculate bridge's fee using the original amount to be sent.\n   * - discount bridge's fee from the original amount, in amountMinusFees.\n   * - add bridge's fee to `totalFeeReceivedBridge`, a variable to store all the fees received by the bridge.\n   * - BRZ transfer amount from the caller's address to bridge address.\n   * - emit `CrossRequest` event, with the parameters:\n   *   - from - address of the caller's function.\n   *   - amount - the net amount to be transfered in the destination blockchain.\n   *   - toAddress - string representing the address which will receive the tokens.\n   *   - toBlockchain - the destination blockchain.\n   *\n   * > The `CrossRequest` event is very important because it must be listened by the monitor,\n   * an external program which will\n   * send the transaction on the destination blockchain.\n   *\n   */\n  function receiveTokens(\n    uint256 amount,\n    string memory toBlockchain,\n    string memory toAddress\n  ) external override whenNotPaused returns (bool) {\n    require(existsBlockchain(toBlockchain), \"Bridge: toBlockchain not exists\");\n    require(!compareStrings(toAddress, \"\"), \"Bridge: toAddress is null\");\n    require(amount > 0, \"Bridge: amount is 0\");\n\n    //Bridge fee or service fee\n    uint256 bridgeFee = (amount * feePercentageBridge) / DECIMALPERCENT;\n    uint256 amountMinusFees = amount - bridgeFee;\n    totalFeeReceivedBridge += bridgeFee;\n\n    //This is the message for Monitor off-chain manage the transaction and send the tokens on the other Blockchain\n    emit CrossRequest(_msgSender(), amountMinusFees, toAddress, toBlockchain);\n\n    //Transfer the tokens on IERC20, they should be already approved for the bridge Address to use them\n    token.transferFrom(_msgSender(), address(this), amount);\n    return true;\n  }\n\n  /**\n   * @dev This function calculate a transaction id hash.\n   *\n   * Any person can call it.\n   *\n   * Parameters:\n   * - hashes - from transaction in the origin blockchain:\n   *   - blockHash - hash of the block where was the transaction `receiveTokens`\n   *   - transactionHash - hash of the transaction `receiveTokens` with the event `CrossRequest`.\n   * - receiver - the address which will receive the tokens.\n   * - amount - the net amount to be transfered.\n   * - logIndex - the index of the event `CrossRequest` in the logs of transaction.\n   *\n   * Returns: a bytes32 hash of all the information sent.\n   *\n   * Notes:\n   * It did not use origin blockchain and sender address\n   * because the possibility of having the same origin transaction from different blockchain source is minimal.\n   *\n   * It is a point to be evaluated in an audit.\n   *\n   */\n  function getTransactionId(\n    bytes32[2] calldata hashes, //blockHash, transactionHash\n    address receiver,\n    uint256 amount,\n    uint32 logIndex\n  ) public pure override returns (bytes32) {\n    return\n      keccak256(\n        abi.encodePacked(hashes[0], hashes[1], receiver, amount, logIndex)\n      );\n  }\n\n  /**\n   * @dev This function update the variable processed for a transaction\n   *\n   * > Only monitor can call it!\n   *\n   * This variable is a public mapping.\n   *\n   * Each bytes32 which represents a Transaction Id has his boolen value stored.\n   *\n   */\n  function _processTransaction(\n    bytes32[2] calldata hashes, //blockHash, transactionHash\n    address receiver,\n    uint256 amount,\n    uint32 logIndex\n  ) private onlyMonitor whenNotPaused {\n    bytes32 transactionId = getTransactionId(\n      hashes,\n      receiver,\n      amount,\n      logIndex\n    );\n    require(!processed[transactionId], \"Bridge: already processed\");\n    processed[transactionId] = true;\n  }\n\n  /**\n   * @dev This function transfer tokens from the the internal balance of bridge smart contract\n   * to the internal balance of the destination address.\n   *\n   * The token.balanceOf(bridgeAddress) must always be greather than or equal the total amount to be claimed by users,\n   * as there may be tokens not yet claimed.\n   *\n   * Can not be called if the Bridge is paused.\n   *\n   * > Only monitor can call it!\n   *\n   */\n  function _sendToken(address to, uint256 amount)\n    private\n    onlyMonitor\n    whenNotPaused\n    returns (bool)\n  {\n    uint256 bridgeBalance = token.balanceOf(address(this));\n    totalToClaim += amount;\n    require(bridgeBalance >= totalToClaim, \"Bridge: insufficient balance\");\n\n    balances[to] += amount;\n    return true;\n  }\n\n  /**\n   * @dev This function accept the cross of token,\n   * which means it is called in the destination blockchain,\n   * who will send the tokens accepted to be crossed\n   * to the internal balance of the destination address.\n   *\n   * After this the balance will be available for the destination address claims it.\n   *\n   * In this way, an address can send tokens many times, calling the fucntion receiveTokens,\n   * but can receive the total amount in one single transaction, saving gas fees.\n   *\n   * > Only monitor can call it!\n   *\n   * Can not be called if the Bridge is paused.\n   *\n   * Parameters:\n   * - receiver - the address which will receive the tokens.\n   * - amount - the net amount to be transfered.\n   * - sender - string representing the address of the token's sender.\n   * - fromBlockchain - the origin blockchain.\n   * - hashes - from transaction in the origin blockchain:\n   *   - blockHash - hash of the block where was the transaction `receiveTokens`.\n   *   - transactionHash - hash of the transaction `receiveTokens` with the event `CrossRequest`.\n   * - logIndex - the index of the event `CrossRequest` in the transaction logs.\n   *\n   * Returns: bool - true if it is sucessful\n   *\n   * Requirements:\n   * - receiver is not a zero address.\n   * - amount greater than zero.\n   * - sender is not an empty string.\n   * - fromBlockchain exists.\n   * - blockHash is not null hash.\n   * - transactionHash is not hash.\n   *\n   * Actions:\n   * - processTransaction:\n   *   - getTransactionId\n   *   - verify if the transactionId was already processed\n   *   - update the status processed for transactionId\n   * - sendToken:\n   *   - check if the bridge has in his balance at least the amount required to do the transfer\n   *   - transfer the amount tokens to destination address\n   *\n   */\n  function acceptTransfer(\n    address receiver,\n    uint256 amount,\n    string calldata sender,\n    string calldata fromBlockchain,\n    bytes32[2] calldata hashes, //blockHash, transactionHash\n    uint32 logIndex\n  ) external override onlyMonitor whenNotPaused returns (bool) {\n    require(receiver != ZERO_ADDRESS, \"Bridge: receiver is zero\");\n    require(amount > 0, \"Bridge: amount is 0\");\n    require(bytes(sender).length > 0, \"Bridge: no sender\");\n    require(\n      existsBlockchain(fromBlockchain),\n      \"Bridge: fromBlockchain not exists\"\n    );\n    require(hashes[0] != NULL_HASH, \"Bridge: blockHash is null\");\n    require(hashes[1] != NULL_HASH, \"Bridge: transactionHash is null\");\n\n    _processTransaction(hashes, receiver, amount, logIndex);\n\n    emit CrossAccepted(\n      receiver,\n      amount,\n      sender,\n      fromBlockchain,\n      hashes,\n      logIndex\n    );\n\n    _sendToken(receiver, amount);\n    return true;\n  }\n\n  /**\n   * @dev This function transfer tokens from bridge to destination address,\n   * who must be the address who called the function.\n   *\n   * When the monitor accept a transfer, it will call the function acceptTransfer,\n   * which will internaly transfer the tokens crossed to the destination address,\n   * updating the internal destination's balance.\n   *\n   * After this, the balance will be available for the destination address claims it,\n   * using the function `claim()`.\n   *\n   * > Any account / person can call it!\n   *\n   * It must have the internal destination's balance greather then zero.\n   *\n   * Can be called even if the Bridge is paused,\n   * because can happens a problem and it is necessary to withdraw tokens,\n   * maybe to create a new version of bridge, for example.\n   *\n   */\n  function claim() external override returns (uint256 receivedAmount) {\n    uint256 amount = balances[_msgSender()];\n    require(amount > 0, \"Bridge: no balance to claim\");\n\n    balances[_msgSender()] -= amount;\n    totalToClaim -= amount;\n    token.transfer(_msgSender(), amount);\n    return amount;\n  }\n\n  /**\n   * @dev Returns total of fees received by bridge.\n   *\n   * Parameters: none\n   *\n   * Returns: integer\n   *\n   */\n  function getTotalFeeReceivedBridge()\n    external\n    view\n    override\n    returns (uint256)\n  {\n    return totalFeeReceivedBridge;\n  }\n\n  /**\n   * @dev Returns the token's amount available to claim by an account.\n   *\n   * Parameters: address of an account.\n   *\n   * Returns: integer amount of tokens available to claim in bridge.\n   *\n   */\n  function getBalanceToClaim(address account)\n    external\n    view\n    override\n    returns (uint256)\n  {\n    return balances[account];\n  }\n\n  /**\n   * @dev Returns token balance in bridge.\n   *\n   * Parameters: none\n   *\n   * Returns: integer amount of tokens in bridge\n   *\n   */\n  function getTokenBalance() external view override returns (uint256) {\n    return token.balanceOf(address(this));\n  }\n\n  /**\n   * @dev Returns the token balance locked in the bridge.\n   * The bridge's token balance can never be less than the totalToClaim.\n   *\n   * Parameters: none.\n   *\n   * Returns: integer amount of tokens locked.\n   *\n   */\n  function getTotalToClaim() external view override returns (uint256) {\n    return totalToClaim;\n  }\n\n  /**\n   * @dev Withdraw tokens from bridge\n   *\n   * Only owner can call it.\n   *\n   * Can be called even if the Bridge is paused,\n   * because can happens a problem and it is necessary to withdraw tokens,\n   * maybe to create a new version of bridge, for example.\n   *\n   * The tokens only can be sent to the caller's function.\n   *\n   * Parameters: integer amount of tokens\n   *\n   * Returns: true if it is successful\n   *\n   * Requirements:\n   * - The amount of unclaimed tokens must be in the bridge.\n   * - amount to withdraw <= bridge's balance minus total to claim.\n   *\n   */\n  function withdrawToken(uint256 amount) external onlyOwner returns (bool) {\n    uint256 bridgeBalance = token.balanceOf(address(this));\n    uint256 availableToWithdraw = bridgeBalance - totalToClaim;\n    require(amount <= availableToWithdraw, \"Bridge: insufficient balance\");\n\n    token.transfer(_msgSender(), amount);\n    return true;\n  }\n\n  /**\n   * @dev This function add an address in the `MONITOR_ROLE`.\n   *\n   * Only owner can call it.\n   *\n   * Can not be called if the Bridge is paused.\n   *\n   * Parameters: address of monitor to be added\n   *\n   * Returns: bool - true if it is sucessful\n   *\n   */\n  function addMonitor(address monitorAddress)\n    external\n    onlyOwner\n    whenNotPaused\n    returns (bool)\n  {\n    grantRole(MONITOR_ROLE, monitorAddress);\n    return true;\n  }\n\n  /**\n   * @dev This function excludes an address in the `MONITOR_ROLE`.\n   *\n   * Only owner can call it.\n   *\n   * Can not be called if the Bridge is paused.\n   *\n   * Parameters: address of monitor to be excluded\n   *\n   * Returns: bool - true if it is sucessful\n   *\n   */\n  function delMonitor(address monitorAddress)\n    external\n    onlyOwner\n    whenNotPaused\n    returns (bool)\n  {\n    //Can be called only by the account defined in constructor: DEFAULT_ADMIN_ROLE\n    revokeRole(MONITOR_ROLE, monitorAddress);\n    return true;\n  }\n\n  /**\n   * @dev This function update the fee percentage bridge.\n   *\n   * Only owner can call it.\n   *\n   * Can not be called if the Bridge is paused.\n   *\n   * Parameters: integer, the new fee\n   *\n   * Returns: bool - true if it is sucessful\n   *\n   * Requirements:\n   * - The new fee must be lower than 10% .\n   *\n   * Emit the event `FeePercentageBridgeChanged(oldFee, newFee)`.\n   *\n   */\n  function setFeePercentageBridge(uint256 newFee)\n    external\n    onlyOwner\n    whenNotPaused\n    returns (bool)\n  {\n    require(newFee < (DECIMALPERCENT / 10), \"Bridge: bigger than 10%\");\n    emit FeePercentageBridgeChanged(feePercentageBridge, newFee);\n    feePercentageBridge = newFee;\n    return true;\n  }\n\n  /**\n   * @dev Returns the fee percentage bridge.\n   *\n   * For each amount received in the bridge, a fee percentage is discounted.\n   * This function returns this fee percentage bridge.\n   *\n   * Parameters: none\n   *\n   * Returns: integer\n   *\n   */\n  function getFeePercentageBridge() external view override returns (uint256) {\n    return feePercentageBridge;\n  }\n\n  /**\n   * @dev This function update the BRZ token.\n   *\n   * Only owner can call it.\n   *\n   * Can not be called if the Bridge is paused.\n   *\n   * Parameters: address of new BRZ token\n   *\n   * Returns: bool - true if it is sucessful\n   *\n   * Requirements:\n   * - The token address must not be a zero address.\n   *\n   * Emit the event `TokenChanged(tokenAddress)`.\n   *\n   */\n  function setToken(address tokenAddress)\n    external\n    onlyOwner\n    whenNotPaused\n    returns (bool)\n  {\n    require(tokenAddress != ZERO_ADDRESS, \"Bridge: zero address\");\n    emit TokenChanged(tokenAddress);\n    token = IERC20(tokenAddress);\n    return true;\n  }\n\n  /**\n   * @dev Returns if a blockchain is in the list of allowed blockchains to cross tokens using the bridge.\n   *\n   * Parameters: string name of blockchain\n   *\n   * Returns: boolean true if it is in the list\n   *\n   */\n  function existsBlockchain(string memory name)\n    public\n    view\n    override\n    returns (bool)\n  {\n    for (uint8 i = 0; i < blockchain.length; i++) {\n      if (compareStrings(name, blockchain[i])) {\n        return true;\n      }\n    }\n    return false;\n  }\n\n  /**\n   * @dev List of blockchains allowed to cross tokens using the bridge.\n   *\n   * Parameters: none\n   *\n   * Returns: an array of strings containing the blockchain list\n   *\n   */\n  function listBlockchain() external view override returns (string[] memory) {\n    return blockchain;\n  }\n\n  /**\n   * @dev This function include a new blockchain in the list of allowed blockchains used in the bridge.\n   *\n   * Only owner can call it.\n   *\n   * Can not be called if the Bridge is paused.\n   *\n   * Parameters: string name of blockchain to be added\n   *\n   * Returns: index of blockchain in the array\n   *\n   * Requirements:\n   * - blockchain not exists.\n   *\n   */\n  function addBlockchain(string memory name)\n    external\n    onlyOwner\n    whenNotPaused\n    returns (uint256)\n  {\n    require(!existsBlockchain(name), \"Bridge: blockchain already exists\");\n    blockchain.push(name);\n    return (blockchain.length - 1);\n  }\n\n  /**\n   * @dev This function exclude a blockchain in the list of allowed blockchains used in the bridge.\n   *\n   * Only owner can call it.\n   *\n   * Can not be called if the Bridge is paused.\n   *\n   * Parameters: string name of blockchain to be excluded\n   *\n   * Returns: bool - true if it is sucessful\n   *\n   * Requirements:\n   * - blockchain exists.\n   * - there must be at least one blockchain left.\n   *\n   */\n  function delBlockchain(string memory name)\n    external\n    onlyOwner\n    whenNotPaused\n    returns (bool)\n  {\n    require(existsBlockchain(name), \"Bridge: blockchain not exists\");\n    require(blockchain.length > 1, \"Bridge: requires at least 1 blockchain\");\n\n    uint256 index;\n    for (uint256 i = 0; i < blockchain.length; i++) {\n      if (compareStrings(name, blockchain[i])) {\n        index = i;\n        break;\n      }\n    }\n    blockchain[index] = blockchain[blockchain.length - 1];\n    blockchain.pop();\n    return true;\n  }\n\n  /**\n   * @dev This function pauses the bridge.\n   *\n   * Only owner can call it.\n   *\n   * Parameters: none\n   *\n   * Returns: none\n   *\n   * Requirements:\n   *\n   * - The contract must not be paused.\n   *\n   */\n  function pause() external onlyOwner {\n    /**\n     * @dev See {Pausable-_pause}.\n     *\n     * Requirements:\n     *\n     * - The contract must not be paused.\n     */\n    _pause();\n  }\n\n  /**\n   * @dev This function unpauses the bridge.\n   *\n   * Only owner can call it.\n   *\n   * Parameters: none\n   *\n   * Returns: none\n   *\n   * Requirements:\n   *\n   * - The contract must be paused.\n   */\n  function unpause() external onlyOwner {\n    /**\n     * @dev See {Pausable-_unpause}.\n     *\n     * Requirements:\n     *\n     * - The contract must be paused.\n     */\n    _unpause();\n  }\n}\n",
  "sourcePath": "C:\\BLOCKCHAIN\\TRANSFERO\\GITHUB\\brz-token-bridge\\contracts\\Bridge.sol",
  "compiler": {
    "name": "solc",
    "version": "0.8.4+commit.c7e474f2.Emscripten.clang"
  },
  "schemaVersion": "3.4.3",
  "updatedAt": "2021-09-16T14:03:40.647Z",
  "networkType": "ethereum",
  "devdoc": {
    "details": "BRZ token Bridge Author: Solange Gueiros Smart contract to cross the BRZ token between EVM compatible blockchains. The tokens are crossed by TransferoSwiss, the company that controls the issuance of BRZs. It uses [Open Zeppelin Contracts] (https://github.com/OpenZeppelin/openzeppelin-contracts/blob/v4.1.0/)",
    "kind": "dev",
    "methods": {
      "acceptTransfer(address,uint256,string,string,bytes32[2],uint32)": {
        "details": "This function accept the cross of token, which means it is called in the destination blockchain, who will send the tokens accepted to be crossed to the internal balance of the destination address. After this the balance will be available for the destination address claims it. In this way, an address can send tokens many times, calling the fucntion receiveTokens, but can receive the total amount in one single transaction, saving gas fees. > Only monitor can call it! Can not be called if the Bridge is paused. Parameters: - receiver - the address which will receive the tokens. - amount - the net amount to be transfered. - sender - string representing the address of the token's sender. - fromBlockchain - the origin blockchain. - hashes - from transaction in the origin blockchain:   - blockHash - hash of the block where was the transaction `receiveTokens`.   - transactionHash - hash of the transaction `receiveTokens` with the event `CrossRequest`. - logIndex - the index of the event `CrossRequest` in the transaction logs. Returns: bool - true if it is sucessful Requirements: - receiver is not a zero address. - amount greater than zero. - sender is not an empty string. - fromBlockchain exists. - blockHash is not null hash. - transactionHash is not hash. Actions: - processTransaction:   - getTransactionId   - verify if the transactionId was already processed   - update the status processed for transactionId - sendToken:   - check if the bridge has in his balance at least the amount required to do the transfer   - transfer the amount tokens to destination address"
      },
      "addBlockchain(string)": {
        "details": "This function include a new blockchain in the list of allowed blockchains used in the bridge. Only owner can call it. Can not be called if the Bridge is paused. Parameters: string name of blockchain to be added Returns: index of blockchain in the array Requirements: - blockchain not exists."
      },
      "addMonitor(address)": {
        "details": "This function add an address in the `MONITOR_ROLE`. Only owner can call it. Can not be called if the Bridge is paused. Parameters: address of monitor to be added Returns: bool - true if it is sucessful"
      },
      "claim()": {
        "details": "This function transfer tokens from bridge to destination address, who must be the address who called the function. When the monitor accept a transfer, it will call the function acceptTransfer, which will internaly transfer the tokens crossed to the destination address, updating the internal destination's balance. After this, the balance will be available for the destination address claims it, using the function `claim()`. > Any account / person can call it! It must have the internal destination's balance greather then zero. Can be called even if the Bridge is paused, because can happens a problem and it is necessary to withdraw tokens, maybe to create a new version of bridge, for example."
      },
      "constructor": {
        "details": "Function called only when the smart contract is deployed. Parameters: - address tokenAddress - address of BRZ token used in this blockchain network Actions: - the transaction's sender will be added in the DEFAULT_ADMIN_ROLE. - the token will be defined by the parameter tokenAddress - the feePercentageBridge default value is be setted in 10, which means 0.1%"
      },
      "delBlockchain(string)": {
        "details": "This function exclude a blockchain in the list of allowed blockchains used in the bridge. Only owner can call it. Can not be called if the Bridge is paused. Parameters: string name of blockchain to be excluded Returns: bool - true if it is sucessful Requirements: - blockchain exists. - there must be at least one blockchain left."
      },
      "delMonitor(address)": {
        "details": "This function excludes an address in the `MONITOR_ROLE`. Only owner can call it. Can not be called if the Bridge is paused. Parameters: address of monitor to be excluded Returns: bool - true if it is sucessful"
      },
      "existsBlockchain(string)": {
        "details": "Returns if a blockchain is in the list of allowed blockchains to cross tokens using the bridge. Parameters: string name of blockchain Returns: boolean true if it is in the list"
      },
      "getBalanceToClaim(address)": {
        "details": "Returns the token's amount available to claim by an account. Parameters: address of an account. Returns: integer amount of tokens available to claim in bridge."
      },
      "getFeePercentageBridge()": {
        "details": "Returns the fee percentage bridge. For each amount received in the bridge, a fee percentage is discounted. This function returns this fee percentage bridge. Parameters: none Returns: integer"
      },
      "getRoleAdmin(bytes32)": {
        "details": "Returns the admin role that controls `role`. See {grantRole} and {revokeRole}. To change a role's admin, use {_setRoleAdmin}."
      },
      "getTokenBalance()": {
        "details": "Returns token balance in bridge. Parameters: none Returns: integer amount of tokens in bridge"
      },
      "getTotalFeeReceivedBridge()": {
        "details": "Returns total of fees received by bridge. Parameters: none Returns: integer"
      },
      "getTotalToClaim()": {
        "details": "Returns the token balance locked in the bridge. The bridge's token balance can never be less than the totalToClaim. Parameters: none. Returns: integer amount of tokens locked."
      },
      "getTransactionId(bytes32[2],address,uint256,uint32)": {
        "details": "This function calculate a transaction id hash. Any person can call it. Parameters: - hashes - from transaction in the origin blockchain:   - blockHash - hash of the block where was the transaction `receiveTokens`   - transactionHash - hash of the transaction `receiveTokens` with the event `CrossRequest`. - receiver - the address which will receive the tokens. - amount - the net amount to be transfered. - logIndex - the index of the event `CrossRequest` in the logs of transaction. Returns: a bytes32 hash of all the information sent. Notes: It did not use origin blockchain and sender address because the possibility of having the same origin transaction from different blockchain source is minimal. It is a point to be evaluated in an audit."
      },
      "grantRole(bytes32,address)": {
        "details": "Grants `role` to `account`. If `account` had not been already granted `role`, emits a {RoleGranted} event. Requirements: - the caller must have ``role``'s admin role."
      },
      "hasRole(bytes32,address)": {
        "details": "Returns `true` if `account` has been granted `role`."
      },
      "listBlockchain()": {
        "details": "List of blockchains allowed to cross tokens using the bridge. Parameters: none Returns: an array of strings containing the blockchain list"
      },
      "pause()": {
        "details": "This function pauses the bridge. Only owner can call it. Parameters: none Returns: none Requirements: - The contract must not be paused."
      },
      "paused()": {
        "details": "Returns true if the contract is paused, and false otherwise."
      },
      "receiveTokens(uint256,string,string)": {
        "details": "This function starts the process of crossing tokens in the Bridge. > Any account / person can call it! Can not be called if the Bridge is paused. Parameters: - amount - gross amount of tokens to be crossed. - toBlockchain - the amount will be sent to this blockchain. - toAddress - the amount will be sent to this address. It can be diferent from caller's address. This is a string because some blockchain could not have the same pattern from Etherem / RSK / BSC. Returns: bool - true if it is sucessful. Bridge Fee: it is deducted from the requested amount. It is a percentage of the requested amount. > Before call this function, the caller MUST have called function `approve` in BRZ token, > allowing the bridge's smart contract address to use the BRZ tokens, > calling the function `transferFrom`. References: ERC-20 tokens approve and transferFrom pattern: [eip-20#transferfrom](https://eips.ethereum.org/EIPS/eip-20#transferfrom) Requirements: - toBlockchain exists. - toAddress is not an empty string. - amount greater than zero. Actions: - calculate bridge's fee using the original amount to be sent. - discount bridge's fee from the original amount, in amountMinusFees. - add bridge's fee to `totalFeeReceivedBridge`, a variable to store all the fees received by the bridge. - BRZ transfer amount from the caller's address to bridge address. - emit `CrossRequest` event, with the parameters:   - from - address of the caller's function.   - amount - the net amount to be transfered in the destination blockchain.   - toAddress - string representing the address which will receive the tokens.   - toBlockchain - the destination blockchain. > The `CrossRequest` event is very important because it must be listened by the monitor, an external program which will send the transaction on the destination blockchain."
      },
      "renounceRole(bytes32,address)": {
        "details": "Revokes `role` from the calling account. Roles are often managed via {grantRole} and {revokeRole}: this function's purpose is to provide a mechanism for accounts to lose their privileges if they are compromised (such as when a trusted device is misplaced). If the calling account had been granted `role`, emits a {RoleRevoked} event. Requirements: - the caller must be `account`."
      },
      "revokeRole(bytes32,address)": {
        "details": "Revokes `role` from `account`. If `account` had been granted `role`, emits a {RoleRevoked} event. Requirements: - the caller must have ``role``'s admin role."
      },
      "setFeePercentageBridge(uint256)": {
        "details": "This function update the fee percentage bridge. Only owner can call it. Can not be called if the Bridge is paused. Parameters: integer, the new fee Returns: bool - true if it is sucessful Requirements: - The new fee must be lower than 10% . Emit the event `FeePercentageBridgeChanged(oldFee, newFee)`."
      },
      "setToken(address)": {
        "details": "This function update the BRZ token. Only owner can call it. Can not be called if the Bridge is paused. Parameters: address of new BRZ token Returns: bool - true if it is sucessful Requirements: - The token address must not be a zero address. Emit the event `TokenChanged(tokenAddress)`."
      },
      "supportsInterface(bytes4)": {
        "details": "See {IERC165-supportsInterface}."
      },
      "unpause()": {
        "details": "This function unpauses the bridge. Only owner can call it. Parameters: none Returns: none Requirements: - The contract must be paused."
      },
      "version()": {
        "details": "Function which returns the bridge's version. This is a fixed value define in source code. Parameters: none Returns: string"
      },
      "withdrawToken(uint256)": {
        "details": "Withdraw tokens from bridge Only owner can call it. Can be called even if the Bridge is paused, because can happens a problem and it is necessary to withdraw tokens, maybe to create a new version of bridge, for example. The tokens only can be sent to the caller's function. Parameters: integer amount of tokens Returns: true if it is successful Requirements: - The amount of unclaimed tokens must be in the bridge. - amount to withdraw <= bridge's balance minus total to claim."
      }
    },
    "stateVariables": {
      "DECIMALPERCENT": {
        "details": "DECIMALPERCENT is the representation of 100% using (2) decimal places 100.00 = percentage accuracy (2) to 100%"
      }
    },
    "version": 1
  },
  "userdoc": {
    "kind": "user",
    "methods": {},
    "version": 1
  }
}