{
  "contractName": "Bridge",
  "abi": [
    {
      "inputs": [
        {
          "internalType": "address",
          "name": "_tokenAddress",
          "type": "address"
        }
      ],
      "stateMutability": "nonpayable",
      "type": "constructor"
    },
    {
      "anonymous": false,
      "inputs": [
        {
          "indexed": true,
          "internalType": "address",
          "name": "_from",
          "type": "address"
        },
        {
          "indexed": false,
          "internalType": "uint256",
          "name": "_amount",
          "type": "uint256"
        },
        {
          "indexed": false,
          "internalType": "uint256",
          "name": "_toFee",
          "type": "uint256"
        },
        {
          "indexed": true,
          "internalType": "string",
          "name": "_toAddress",
          "type": "string"
        },
        {
          "indexed": true,
          "internalType": "string",
          "name": "_toBlockchain",
          "type": "string"
        }
      ],
      "name": "CrossRequest",
      "type": "event"
    },
    {
      "anonymous": false,
      "inputs": [
        {
          "indexed": false,
          "internalType": "address",
          "name": "account",
          "type": "address"
        }
      ],
      "name": "Paused",
      "type": "event"
    },
    {
      "anonymous": false,
      "inputs": [
        {
          "indexed": true,
          "internalType": "bytes32",
          "name": "role",
          "type": "bytes32"
        },
        {
          "indexed": true,
          "internalType": "bytes32",
          "name": "previousAdminRole",
          "type": "bytes32"
        },
        {
          "indexed": true,
          "internalType": "bytes32",
          "name": "newAdminRole",
          "type": "bytes32"
        }
      ],
      "name": "RoleAdminChanged",
      "type": "event"
    },
    {
      "anonymous": false,
      "inputs": [
        {
          "indexed": true,
          "internalType": "bytes32",
          "name": "role",
          "type": "bytes32"
        },
        {
          "indexed": true,
          "internalType": "address",
          "name": "account",
          "type": "address"
        },
        {
          "indexed": true,
          "internalType": "address",
          "name": "sender",
          "type": "address"
        }
      ],
      "name": "RoleGranted",
      "type": "event"
    },
    {
      "anonymous": false,
      "inputs": [
        {
          "indexed": true,
          "internalType": "bytes32",
          "name": "role",
          "type": "bytes32"
        },
        {
          "indexed": true,
          "internalType": "address",
          "name": "account",
          "type": "address"
        },
        {
          "indexed": true,
          "internalType": "address",
          "name": "sender",
          "type": "address"
        }
      ],
      "name": "RoleRevoked",
      "type": "event"
    },
    {
      "anonymous": false,
      "inputs": [
        {
          "indexed": true,
          "internalType": "address",
          "name": "_tokenAddress",
          "type": "address"
        }
      ],
      "name": "TokenChanged",
      "type": "event"
    },
    {
      "anonymous": false,
      "inputs": [
        {
          "indexed": false,
          "internalType": "address",
          "name": "account",
          "type": "address"
        }
      ],
      "name": "Unpaused",
      "type": "event"
    },
    {
      "anonymous": false,
      "inputs": [
        {
          "indexed": false,
          "internalType": "uint256",
          "name": "_oldFee",
          "type": "uint256"
        },
        {
          "indexed": false,
          "internalType": "uint256",
          "name": "_newFee",
          "type": "uint256"
        }
      ],
      "name": "feePercentageBridgeChanged",
      "type": "event"
    },
    {
      "inputs": [],
      "name": "DEFAULT_ADMIN_ROLE",
      "outputs": [
        {
          "internalType": "bytes32",
          "name": "",
          "type": "bytes32"
        }
      ],
      "stateMutability": "view",
      "type": "function",
      "constant": true
    },
    {
      "inputs": [],
      "name": "MONITOR_ROLE",
      "outputs": [
        {
          "internalType": "bytes32",
          "name": "",
          "type": "bytes32"
        }
      ],
      "stateMutability": "view",
      "type": "function",
      "constant": true
    },
    {
      "inputs": [
        {
          "internalType": "uint256",
          "name": "",
          "type": "uint256"
        }
      ],
      "name": "blockchain",
      "outputs": [
        {
          "internalType": "string",
          "name": "",
          "type": "string"
        }
      ],
      "stateMutability": "view",
      "type": "function",
      "constant": true
    },
    {
      "inputs": [],
      "name": "decimalpercent",
      "outputs": [
        {
          "internalType": "uint256",
          "name": "",
          "type": "uint256"
        }
      ],
      "stateMutability": "view",
      "type": "function",
      "constant": true
    },
    {
      "inputs": [
        {
          "internalType": "bytes32",
          "name": "role",
          "type": "bytes32"
        }
      ],
      "name": "getRoleAdmin",
      "outputs": [
        {
          "internalType": "bytes32",
          "name": "",
          "type": "bytes32"
        }
      ],
      "stateMutability": "view",
      "type": "function",
      "constant": true
    },
    {
      "inputs": [
        {
          "internalType": "bytes32",
          "name": "role",
          "type": "bytes32"
        },
        {
          "internalType": "address",
          "name": "account",
          "type": "address"
        }
      ],
      "name": "grantRole",
      "outputs": [],
      "stateMutability": "nonpayable",
      "type": "function"
    },
    {
      "inputs": [
        {
          "internalType": "bytes32",
          "name": "role",
          "type": "bytes32"
        },
        {
          "internalType": "address",
          "name": "account",
          "type": "address"
        }
      ],
      "name": "hasRole",
      "outputs": [
        {
          "internalType": "bool",
          "name": "",
          "type": "bool"
        }
      ],
      "stateMutability": "view",
      "type": "function",
      "constant": true
    },
    {
      "inputs": [],
      "name": "paused",
      "outputs": [
        {
          "internalType": "bool",
          "name": "",
          "type": "bool"
        }
      ],
      "stateMutability": "view",
      "type": "function",
      "constant": true
    },
    {
      "inputs": [
        {
          "internalType": "bytes32",
          "name": "",
          "type": "bytes32"
        }
      ],
      "name": "processed",
      "outputs": [
        {
          "internalType": "bool",
          "name": "",
          "type": "bool"
        }
      ],
      "stateMutability": "view",
      "type": "function",
      "constant": true
    },
    {
      "inputs": [
        {
          "internalType": "bytes32",
          "name": "role",
          "type": "bytes32"
        },
        {
          "internalType": "address",
          "name": "account",
          "type": "address"
        }
      ],
      "name": "renounceRole",
      "outputs": [],
      "stateMutability": "nonpayable",
      "type": "function"
    },
    {
      "inputs": [
        {
          "internalType": "bytes32",
          "name": "role",
          "type": "bytes32"
        },
        {
          "internalType": "address",
          "name": "account",
          "type": "address"
        }
      ],
      "name": "revokeRole",
      "outputs": [],
      "stateMutability": "nonpayable",
      "type": "function"
    },
    {
      "inputs": [
        {
          "internalType": "bytes4",
          "name": "interfaceId",
          "type": "bytes4"
        }
      ],
      "name": "supportsInterface",
      "outputs": [
        {
          "internalType": "bool",
          "name": "",
          "type": "bool"
        }
      ],
      "stateMutability": "view",
      "type": "function",
      "constant": true
    },
    {
      "inputs": [],
      "name": "token",
      "outputs": [
        {
          "internalType": "contract IERC20",
          "name": "",
          "type": "address"
        }
      ],
      "stateMutability": "view",
      "type": "function",
      "constant": true
    },
    {
      "inputs": [],
      "name": "version",
      "outputs": [
        {
          "internalType": "string",
          "name": "",
          "type": "string"
        }
      ],
      "stateMutability": "pure",
      "type": "function",
      "constant": true
    },
    {
      "inputs": [
        {
          "internalType": "uint256",
          "name": "amount",
          "type": "uint256"
        },
        {
          "internalType": "uint256[2]",
          "name": "transactionFee",
          "type": "uint256[2]"
        },
        {
          "internalType": "string",
          "name": "toBlockchain",
          "type": "string"
        },
        {
          "internalType": "string",
          "name": "toAddress",
          "type": "string"
        }
      ],
      "name": "receiveTokens",
      "outputs": [
        {
          "internalType": "bool",
          "name": "",
          "type": "bool"
        }
      ],
      "stateMutability": "nonpayable",
      "type": "function"
    },
    {
      "inputs": [
        {
          "internalType": "address",
          "name": "receiver",
          "type": "address"
        },
        {
          "internalType": "uint256",
          "name": "amount",
          "type": "uint256"
        },
        {
          "internalType": "string",
          "name": "sender",
          "type": "string"
        },
        {
          "internalType": "string",
          "name": "toBlockchain",
          "type": "string"
        },
        {
          "internalType": "bytes32[2]",
          "name": "hashes",
          "type": "bytes32[2]"
        },
        {
          "internalType": "uint32",
          "name": "logIndex",
          "type": "uint32"
        }
      ],
      "name": "acceptTransfer",
      "outputs": [
        {
          "internalType": "bool",
          "name": "",
          "type": "bool"
        }
      ],
      "stateMutability": "nonpayable",
      "type": "function"
    },
    {
      "inputs": [
        {
          "internalType": "bytes32[2]",
          "name": "_hashes",
          "type": "bytes32[2]"
        },
        {
          "internalType": "address",
          "name": "_receiver",
          "type": "address"
        },
        {
          "internalType": "uint256",
          "name": "_amount",
          "type": "uint256"
        },
        {
          "internalType": "uint32",
          "name": "_logIndex",
          "type": "uint32"
        }
      ],
      "name": "getTransactionId",
      "outputs": [
        {
          "internalType": "bytes32",
          "name": "",
          "type": "bytes32"
        }
      ],
      "stateMutability": "pure",
      "type": "function",
      "constant": true
    },
    {
      "inputs": [
        {
          "internalType": "address",
          "name": "_monitorAddress",
          "type": "address"
        }
      ],
      "name": "addMonitor",
      "outputs": [
        {
          "internalType": "bool",
          "name": "",
          "type": "bool"
        }
      ],
      "stateMutability": "nonpayable",
      "type": "function"
    },
    {
      "inputs": [
        {
          "internalType": "address",
          "name": "_monitorAddress",
          "type": "address"
        }
      ],
      "name": "delMonitor",
      "outputs": [
        {
          "internalType": "bool",
          "name": "",
          "type": "bool"
        }
      ],
      "stateMutability": "nonpayable",
      "type": "function"
    },
    {
      "inputs": [
        {
          "internalType": "uint256",
          "name": "newFee",
          "type": "uint256"
        }
      ],
      "name": "setfeePercentageBridge",
      "outputs": [
        {
          "internalType": "bool",
          "name": "",
          "type": "bool"
        }
      ],
      "stateMutability": "nonpayable",
      "type": "function"
    },
    {
      "inputs": [],
      "name": "getfeePercentageBridge",
      "outputs": [
        {
          "internalType": "uint256",
          "name": "",
          "type": "uint256"
        }
      ],
      "stateMutability": "view",
      "type": "function",
      "constant": true
    },
    {
      "inputs": [
        {
          "internalType": "address",
          "name": "_tokenAddress",
          "type": "address"
        }
      ],
      "name": "setToken",
      "outputs": [
        {
          "internalType": "bool",
          "name": "",
          "type": "bool"
        }
      ],
      "stateMutability": "nonpayable",
      "type": "function"
    },
    {
      "inputs": [],
      "name": "gettotalFeeReceived",
      "outputs": [
        {
          "internalType": "uint256",
          "name": "",
          "type": "uint256"
        }
      ],
      "stateMutability": "view",
      "type": "function",
      "constant": true
    },
    {
      "inputs": [],
      "name": "getTokenBalance",
      "outputs": [
        {
          "internalType": "uint256",
          "name": "",
          "type": "uint256"
        }
      ],
      "stateMutability": "view",
      "type": "function",
      "constant": true
    },
    {
      "inputs": [
        {
          "internalType": "uint256",
          "name": "amount",
          "type": "uint256"
        }
      ],
      "name": "withdrawToken",
      "outputs": [
        {
          "internalType": "bool",
          "name": "",
          "type": "bool"
        }
      ],
      "stateMutability": "nonpayable",
      "type": "function"
    },
    {
      "inputs": [
        {
          "internalType": "string",
          "name": "name",
          "type": "string"
        }
      ],
      "name": "existsBlockchain",
      "outputs": [
        {
          "internalType": "bool",
          "name": "",
          "type": "bool"
        }
      ],
      "stateMutability": "view",
      "type": "function",
      "constant": true
    },
    {
      "inputs": [],
      "name": "listBlockchain",
      "outputs": [
        {
          "internalType": "string[]",
          "name": "",
          "type": "string[]"
        }
      ],
      "stateMutability": "view",
      "type": "function",
      "constant": true
    },
    {
      "inputs": [
        {
          "internalType": "string",
          "name": "name",
          "type": "string"
        }
      ],
      "name": "addBlockchain",
      "outputs": [
        {
          "internalType": "uint256",
          "name": "",
          "type": "uint256"
        }
      ],
      "stateMutability": "nonpayable",
      "type": "function"
    },
    {
      "inputs": [
        {
          "internalType": "string",
          "name": "name",
          "type": "string"
        }
      ],
      "name": "delBlockchain",
      "outputs": [
        {
          "internalType": "bool",
          "name": "",
          "type": "bool"
        }
      ],
      "stateMutability": "nonpayable",
      "type": "function"
    }
  ],
  "bytecode": "0x60806040523480156200001157600080fd5b506040516200458a3803806200458a83398181016040528101906200003791906200024d565b6000600160006101000a81548160ff021916908315150217905550620000766000801b6200006a620000bd60201b60201c565b620000c560201b60201c565b806001806101000a81548173ffffffffffffffffffffffffffffffffffffffff021916908373ffffffffffffffffffffffffffffffffffffffff16021790555050620002c7565b600033905090565b620000d78282620000db60201b60201c565b5050565b620000ed8282620001cc60201b60201c565b620001c857600160008084815260200190815260200160002060000160008373ffffffffffffffffffffffffffffffffffffffff1673ffffffffffffffffffffffffffffffffffffffff16815260200190815260200160002060006101000a81548160ff0219169083151502179055506200016d620000bd60201b60201c565b73ffffffffffffffffffffffffffffffffffffffff168173ffffffffffffffffffffffffffffffffffffffff16837f2f8788117e7eff1d82e926ec794901d17c78024a50270940304540a733656f0d60405160405180910390a45b5050565b600080600084815260200190815260200160002060000160008373ffffffffffffffffffffffffffffffffffffffff1673ffffffffffffffffffffffffffffffffffffffff16815260200190815260200160002060009054906101000a900460ff16905092915050565b6000815190506200024781620002ad565b92915050565b6000602082840312156200026057600080fd5b6000620002708482850162000236565b91505092915050565b600062000286826200028d565b9050919050565b600073ffffffffffffffffffffffffffffffffffffffff82169050919050565b620002b88162000279565b8114620002c457600080fd5b50565b6142b380620002d76000396000f3fe608060405234801561001057600080fd5b50600436106101cf5760003560e01c806382b2e25711610104578063bb52228b116100a2578063d547741f11610071578063d547741f146105de578063e10ebf52146105fa578063e1343dae14610618578063fc0c546a14610636576101cf565b8063bb52228b1461051e578063c1f0808a1461054e578063c25b1eaf1461057e578063cd09fc28146105ae576101cf565b8063a217fddf116100de578063a217fddf14610482578063aeb670e3146104a0578063b8c48a28146104d0578063ba3131fc14610500576101cf565b806382b2e2571461040457806391d148541461042257806399cd19d314610452576101cf565b8063420c04f01161017157806354fd4d501161014b57806354fd4d501461037a5780635c975abb146103985780635d27fc70146103b65780637efc6063146103e6576101cf565b8063420c04f0146102fc5780634d9b47e21461032c57806350baa6221461034a576101cf565b8063144fa6d7116101ad578063144fa6d714610264578063248a9ca3146102945780632f2ff15d146102c457806336568abe146102e0576101cf565b806301ffc9a7146101d45780630c4dfa70146102045780630e7fef1e14610234575b600080fd5b6101ee60048036038101906101e99190612e1f565b610654565b6040516101fb9190613590565b60405180910390f35b61021e60048036038101906102199190612e89565b6106ce565b60405161022b9190613590565b60405180910390f35b61024e60048036038101906102499190612edb565b610858565b60405161025b9190613590565b60405180910390f35b61027e60048036038101906102799190612c42565b610870565b60405161028b9190613590565b60405180910390f35b6102ae60048036038101906102a99190612dba565b610a09565b6040516102bb91906135ab565b60405180910390f35b6102de60048036038101906102d99190612de3565b610a28565b005b6102fa60048036038101906102f59190612de3565b610a51565b005b61031660048036038101906103119190612c6b565b610ad4565b6040516103239190613590565b60405180910390f35b610334610b7a565b60405161034191906135ab565b60405180910390f35b610364600480360381019061035f9190612e89565b610b9e565b6040516103719190613590565b60405180910390f35b610382610d9c565b60405161038f91906135e1565b60405180910390f35b6103a0610dd9565b6040516103ad9190613590565b60405180910390f35b6103d060048036038101906103cb9190612c42565b610df0565b6040516103dd9190613590565b60405180910390f35b6103ee610ec0565b6040516103fb9190613883565b60405180910390f35b61040c610eca565b6040516104199190613883565b60405180910390f35b61043c60048036038101906104379190612de3565b610f7a565b6040516104499190613590565b60405180910390f35b61046c60048036038101906104679190612e48565b610fe4565b6040516104799190613883565b60405180910390f35b61048a611172565b60405161049791906135ab565b60405180910390f35b6104ba60048036038101906104b59190612d2e565b611179565b6040516104c791906135ab565b60405180910390f35b6104ea60048036038101906104e59190612c42565b611230565b6040516104f79190613590565b60405180910390f35b610508611300565b6040516105159190613883565b60405180910390f35b61053860048036038101906105339190612e48565b61130a565b6040516105459190613590565b60405180910390f35b61056860048036038101906105639190612dba565b6116a7565b6040516105759190613590565b60405180910390f35b61059860048036038101906105939190612e89565b6116c7565b6040516105a591906135e1565b60405180910390f35b6105c860048036038101906105c39190612e48565b611773565b6040516105d59190613590565b60405180910390f35b6105f860048036038101906105f39190612de3565b611891565b005b6106026118ba565b60405161060f9190613883565b60405180910390f35b6106206118c0565b60405161062d919061356e565b60405180910390f35b61063e611999565b60405161064b91906135c6565b60405180910390f35b60007f7965db0b000000000000000000000000000000000000000000000000000000007bffffffffffffffffffffffffffffffffffffffffffffffffffffffff1916827bffffffffffffffffffffffffffffffffffffffffffffffffffffffff191614806106c757506106c6826119bd565b5b9050919050565b60006106e46000801b6106df611a27565b610f7a565b610723576040517f08c379a000000000000000000000000000000000000000000000000000000000815260040161071a90613783565b60405180910390fd5b61072b610dd9565b1561076b576040517f08c379a000000000000000000000000000000000000000000000000000000000815260040161076290613703565b60405180910390fd5b61077f6000801b61077a611a27565b610f7a565b6107be576040517f08c379a00000000000000000000000000000000000000000000000000000000081526004016107b5906137c3565b60405180910390fd5b600a6127106107cd9190613a0a565b821061080e576040517f08c379a000000000000000000000000000000000000000000000000000000000815260040161080590613843565b60405180910390fd5b7e4a68e5352b38bd8e908b358a10ec64101330d0148eb30aa425fc168f35ce216003548360405161084092919061389e565b60405180910390a18160038190555060019050919050565b600061086685858585611a2f565b9050949350505050565b60006108866000801b610881611a27565b610f7a565b6108c5576040517f08c379a00000000000000000000000000000000000000000000000000000000081526004016108bc90613783565b60405180910390fd5b6108cd610dd9565b1561090d576040517f08c379a000000000000000000000000000000000000000000000000000000000815260040161090490613703565b60405180910390fd5b600073ffffffffffffffffffffffffffffffffffffffff168273ffffffffffffffffffffffffffffffffffffffff16141561097d576040517f08c379a000000000000000000000000000000000000000000000000000000000815260040161097490613823565b60405180910390fd5b816001806101000a81548173ffffffffffffffffffffffffffffffffffffffff021916908373ffffffffffffffffffffffffffffffffffffffff1602179055508173ffffffffffffffffffffffffffffffffffffffff167f5d108ca248943e98e1886bbc2c38beda701271994a14354258a11692b81b73cf60405160405180910390a260019050919050565b6000806000838152602001908152602001600020600101549050919050565b610a3182610a09565b610a4281610a3d611a27565b611cb9565b610a4c8383611d56565b505050565b610a59611a27565b73ffffffffffffffffffffffffffffffffffffffff168173ffffffffffffffffffffffffffffffffffffffff1614610ac6576040517f08c379a0000000000000000000000000000000000000000000000000000000008152600401610abd90613863565b60405180910390fd5b610ad08282611e36565b5050565b6000610b6c898989898080601f016020809104026020016040519081016040528093929190818152602001838380828437600081840152601f19601f8201169050808301925050505050505088888080601f016020809104026020016040519081016040528093929190818152602001838380828437600081840152601f19601f820116905080830192505050505050508787611f17565b905098975050505050505050565b7f8227712ef8ad39d0f26f06731ef0df8665eb7ada7f41b1ee089adf3c238862a281565b6000610bb46000801b610baf611a27565b610f7a565b610bf3576040517f08c379a0000000000000000000000000000000000000000000000000000000008152600401610bea90613783565b60405180910390fd5b60018054906101000a900473ffffffffffffffffffffffffffffffffffffffff1673ffffffffffffffffffffffffffffffffffffffff166370a08231306040518263ffffffff1660e01b8152600401610c4c91906134f3565b60206040518083038186803b158015610c6457600080fd5b505afa158015610c78573d6000803e3d6000fd5b505050506040513d601f19601f82011682018060405250810190610c9c9190612eb2565b821115610cde576040517f08c379a0000000000000000000000000000000000000000000000000000000008152600401610cd590613643565b60405180910390fd5b60018054906101000a900473ffffffffffffffffffffffffffffffffffffffff1673ffffffffffffffffffffffffffffffffffffffff1663a9059cbb610d22611a27565b846040518363ffffffff1660e01b8152600401610d40929190613545565b602060405180830381600087803b158015610d5a57600080fd5b505af1158015610d6e573d6000803e3d6000fd5b505050506040513d601f19601f82011682018060405250810190610d929190612d91565b5060019050919050565b60606040518060400160405280600281526020017f7630000000000000000000000000000000000000000000000000000000000000815250905090565b6000600160009054906101000a900460ff16905090565b6000610e066000801b610e01611a27565b610f7a565b610e45576040517f08c379a0000000000000000000000000000000000000000000000000000000008152600401610e3c90613783565b60405180910390fd5b610e4d610dd9565b15610e8d576040517f08c379a0000000000000000000000000000000000000000000000000000000008152600401610e8490613703565b60405180910390fd5b610eb77f8227712ef8ad39d0f26f06731ef0df8665eb7ada7f41b1ee089adf3c238862a283611891565b60019050919050565b6000600354905090565b600060018054906101000a900473ffffffffffffffffffffffffffffffffffffffff1673ffffffffffffffffffffffffffffffffffffffff166370a08231306040518263ffffffff1660e01b8152600401610f2591906134f3565b60206040518083038186803b158015610f3d57600080fd5b505afa158015610f51573d6000803e3d6000fd5b505050506040513d601f19601f82011682018060405250810190610f759190612eb2565b905090565b600080600084815260200190815260200160002060000160008373ffffffffffffffffffffffffffffffffffffffff1673ffffffffffffffffffffffffffffffffffffffff16815260200190815260200160002060009054906101000a900460ff16905092915050565b6000610ffa6000801b610ff5611a27565b610f7a565b611039576040517f08c379a000000000000000000000000000000000000000000000000000000000815260040161103090613783565b60405180910390fd5b611041610dd9565b15611081576040517f08c379a000000000000000000000000000000000000000000000000000000000815260040161107890613703565b60405180910390fd5b6110956000801b611090611a27565b610f7a565b6110d4576040517f08c379a00000000000000000000000000000000000000000000000000000000081526004016110cb906137c3565b60405180910390fd5b6110dd82611773565b1561111d576040517f08c379a0000000000000000000000000000000000000000000000000000000008152600401611114906137a3565b60405180910390fd5b6004829080600181540180825580915050600190039060005260206000200160009091909190915090805190602001906111589291906128e5565b50600160048054905061116b9190613a95565b9050919050565b6000801b81565b6000846000600281106111b5577f4e487b7100000000000000000000000000000000000000000000000000000000600052603260045260246000fd5b6020020135856001600281106111f4577f4e487b7100000000000000000000000000000000000000000000000000000000600052603260045260246000fd5b6020020135858585604051602001611210959493929190613443565b604051602081830303815290604052805190602001209050949350505050565b60006112466000801b611241611a27565b610f7a565b611285576040517f08c379a000000000000000000000000000000000000000000000000000000000815260040161127c90613783565b60405180910390fd5b61128d610dd9565b156112cd576040517f08c379a00000000000000000000000000000000000000000000000000000000081526004016112c490613703565b60405180910390fd5b6112f77f8227712ef8ad39d0f26f06731ef0df8665eb7ada7f41b1ee089adf3c238862a283610a28565b60019050919050565b6000600254905090565b60006113206000801b61131b611a27565b610f7a565b61135f576040517f08c379a000000000000000000000000000000000000000000000000000000000815260040161135690613783565b60405180910390fd5b611367610dd9565b156113a7576040517f08c379a000000000000000000000000000000000000000000000000000000000815260040161139e90613703565b60405180910390fd5b6113bb6000801b6113b6611a27565b610f7a565b6113fa576040517f08c379a00000000000000000000000000000000000000000000000000000000081526004016113f1906137c3565b60405180910390fd5b61140382611773565b611442576040517f08c379a0000000000000000000000000000000000000000000000000000000008152600401611439906136e3565b60405180910390fd5b60016004805490501161148a576040517f08c379a000000000000000000000000000000000000000000000000000000000815260040161148190613803565b60405180910390fd5b600080600090505b6004805490508110156115955761157584600483815481106114dd577f4e487b7100000000000000000000000000000000000000000000000000000000600052603260045260246000fd5b9060005260206000200180546114f290613bf4565b80601f016020809104026020016040519081016040528092919081815260200182805461151e90613bf4565b801561156b5780601f106115405761010080835404028352916020019161156b565b820191906000526020600020905b81548152906001019060200180831161154e57829003601f168201915b5050505050612239565b1561158257809150611595565b808061158d90613c57565b915050611492565b50600460016004805490506115aa9190613a95565b815481106115e1577f4e487b7100000000000000000000000000000000000000000000000000000000600052603260045260246000fd5b9060005260206000200160048281548110611625577f4e487b7100000000000000000000000000000000000000000000000000000000600052603260045260246000fd5b9060005260206000200190805461163b90613bf4565b61164692919061296b565b50600480548061167f577f4e487b7100000000000000000000000000000000000000000000000000000000600052603160045260246000fd5b60019003818190600052602060002001600061169b91906129f8565b90556001915050919050565b60056020528060005260406000206000915054906101000a900460ff1681565b600481815481106116d757600080fd5b9060005260206000200160009150905080546116f290613bf4565b80601f016020809104026020016040519081016040528092919081815260200182805461171e90613bf4565b801561176b5780601f106117405761010080835404028352916020019161176b565b820191906000526020600020905b81548152906001019060200180831161174e57829003601f168201915b505050505081565b600080600090505b6004805490508160ff161015611886576118648360048360ff16815481106117cc577f4e487b7100000000000000000000000000000000000000000000000000000000600052603260045260246000fd5b9060005260206000200180546117e190613bf4565b80601f016020809104026020016040519081016040528092919081815260200182805461180d90613bf4565b801561185a5780601f1061182f5761010080835404028352916020019161185a565b820191906000526020600020905b81548152906001019060200180831161183d57829003601f168201915b5050505050612239565b1561187357600191505061188c565b808061187e90613ca0565b91505061177b565b50600090505b919050565b61189a82610a09565b6118ab816118a6611a27565b611cb9565b6118b58383611e36565b505050565b61271081565b60606004805480602002602001604051908101604052809291908181526020016000905b8282101561199057838290600052602060002001805461190390613bf4565b80601f016020809104026020016040519081016040528092919081815260200182805461192f90613bf4565b801561197c5780601f106119515761010080835404028352916020019161197c565b820191906000526020600020905b81548152906001019060200180831161195f57829003601f168201915b5050505050815260200190600101906118e4565b50505050905090565b60018054906101000a900473ffffffffffffffffffffffffffffffffffffffff1681565b60007f01ffc9a7000000000000000000000000000000000000000000000000000000007bffffffffffffffffffffffffffffffffffffffffffffffffffffffff1916827bffffffffffffffffffffffffffffffffffffffffffffffffffffffff1916149050919050565b600033905090565b6000611a39610dd9565b15611a79576040517f08c379a0000000000000000000000000000000000000000000000000000000008152600401611a7090613703565b60405180910390fd5b6000611acc85600060028110611ab8577f4e487b7100000000000000000000000000000000000000000000000000000000600052603260045260246000fd5b60200201518761229290919063ffffffff16565b905060018054906101000a900473ffffffffffffffffffffffffffffffffffffffff1673ffffffffffffffffffffffffffffffffffffffff166323b872dd611b12611a27565b30846040518463ffffffff1660e01b8152600401611b329392919061350e565b602060405180830381600087803b158015611b4c57600080fd5b505af1158015611b60573d6000803e3d6000fd5b505050506040513d601f19601f82011682018060405250810190611b849190612d91565b506000611bb0612710611ba26003548a6122a890919063ffffffff16565b6122be90919063ffffffff16565b90506000611bc782896122d490919063ffffffff16565b90506000821115611be957611be78260025461229290919063ffffffff16565b505b85604051611bf791906134a2565b604051809103902085604051611c0d91906134a2565b6040518091039020611c1d611a27565b73ffffffffffffffffffffffffffffffffffffffff167f0424dad9840ff9e43e3db8fbda830b4db1af324cf59b056dd728876c88ea8807848b600160028110611c8f577f4e487b7100000000000000000000000000000000000000000000000000000000600052603260045260246000fd5b6020020151604051611ca292919061389e565b60405180910390a460019350505050949350505050565b611cc38282610f7a565b611d5257611ce88173ffffffffffffffffffffffffffffffffffffffff1660146122ea565b611cf68360001c60206122ea565b604051602001611d079291906134b9565b6040516020818303038152906040526040517f08c379a0000000000000000000000000000000000000000000000000000000008152600401611d4991906135e1565b60405180910390fd5b5050565b611d608282610f7a565b611e3257600160008084815260200190815260200160002060000160008373ffffffffffffffffffffffffffffffffffffffff1673ffffffffffffffffffffffffffffffffffffffff16815260200190815260200160002060006101000a81548160ff021916908315150217905550611dd7611a27565b73ffffffffffffffffffffffffffffffffffffffff168173ffffffffffffffffffffffffffffffffffffffff16837f2f8788117e7eff1d82e926ec794901d17c78024a50270940304540a733656f0d60405160405180910390a45b5050565b611e408282610f7a565b15611f1357600080600084815260200190815260200160002060000160008373ffffffffffffffffffffffffffffffffffffffff1673ffffffffffffffffffffffffffffffffffffffff16815260200190815260200160002060006101000a81548160ff021916908315150217905550611eb8611a27565b73ffffffffffffffffffffffffffffffffffffffff168173ffffffffffffffffffffffffffffffffffffffff16837ff6391f5c32d9c69d2a47ea670b442974b53935d1edc7fd64eb21e047a839171b60405160405180910390a45b5050565b6000611f4a7f8227712ef8ad39d0f26f06731ef0df8665eb7ada7f41b1ee089adf3c238862a2611f45611a27565b610f7a565b611f89576040517f08c379a0000000000000000000000000000000000000000000000000000000008152600401611f80906136a3565b60405180910390fd5b611f91610dd9565b15611fd1576040517f08c379a0000000000000000000000000000000000000000000000000000000008152600401611fc890613703565b60405180910390fd5b600073ffffffffffffffffffffffffffffffffffffffff168773ffffffffffffffffffffffffffffffffffffffff161415612041576040517f08c379a0000000000000000000000000000000000000000000000000000000008152600401612038906137e3565b60405180910390fd5b60008611612084576040517f08c379a000000000000000000000000000000000000000000000000000000000815260040161207b90613623565b60405180910390fd5b60008551116120c8576040517f08c379a00000000000000000000000000000000000000000000000000000000081526004016120bf90613723565b60405180910390fd5b600084511161210c576040517f08c379a000000000000000000000000000000000000000000000000000000000815260040161210390613743565b60405180910390fd5b6000801b8360006002811061214a577f4e487b7100000000000000000000000000000000000000000000000000000000600052603260045260246000fd5b60200201351415612190576040517f08c379a000000000000000000000000000000000000000000000000000000000815260040161218790613763565b60405180910390fd5b6000801b836001600281106121ce577f4e487b7100000000000000000000000000000000000000000000000000000000600052603260045260246000fd5b60200201351415612214576040517f08c379a000000000000000000000000000000000000000000000000000000000815260040161220b90613683565b60405180910390fd5b612220838888856125e4565b61222a8787612688565b50600190509695505050505050565b60008160405160200161224c91906134a2565b604051602081830303815290604052805190602001208360405160200161227391906134a2565b6040516020818303038152906040528051906020012014905092915050565b600081836122a091906139b4565b905092915050565b600081836122b69190613a3b565b905092915050565b600081836122cc9190613a0a565b905092915050565b600081836122e29190613a95565b905092915050565b6060600060028360026122fd9190613a3b565b61230791906139b4565b67ffffffffffffffff811115612346577f4e487b7100000000000000000000000000000000000000000000000000000000600052604160045260246000fd5b6040519080825280601f01601f1916602001820160405280156123785781602001600182028036833780820191505090505b5090507f3000000000000000000000000000000000000000000000000000000000000000816000815181106123d6577f4e487b7100000000000000000000000000000000000000000000000000000000600052603260045260246000fd5b60200101907effffffffffffffffffffffffffffffffffffffffffffffffffffffffffffff1916908160001a9053507f780000000000000000000000000000000000000000000000000000000000000081600181518110612460577f4e487b7100000000000000000000000000000000000000000000000000000000600052603260045260246000fd5b60200101907effffffffffffffffffffffffffffffffffffffffffffffffffffffffffffff1916908160001a905350600060018460026124a09190613a3b565b6124aa91906139b4565b90505b6001811115612596577f3031323334353637383961626364656600000000000000000000000000000000600f861660108110612512577f4e487b7100000000000000000000000000000000000000000000000000000000600052603260045260246000fd5b1a60f81b82828151811061254f577f4e487b7100000000000000000000000000000000000000000000000000000000600052603260045260246000fd5b60200101907effffffffffffffffffffffffffffffffffffffffffffffffffffffffffffff1916908160001a905350600485901c94508061258f90613bca565b90506124ad565b50600084146125da576040517f08c379a00000000000000000000000000000000000000000000000000000000081526004016125d190613603565b60405180910390fd5b8091505092915050565b60006125f285858585611179565b90506005600082815260200190815260200160002060009054906101000a900460ff1615612655576040517f08c379a000000000000000000000000000000000000000000000000000000000815260040161264c90613663565b60405180910390fd5b60016005600083815260200190815260200160002060006101000a81548160ff0219169083151502179055505050505050565b60006126bb7f8227712ef8ad39d0f26f06731ef0df8665eb7ada7f41b1ee089adf3c238862a26126b6611a27565b610f7a565b6126fa576040517f08c379a00000000000000000000000000000000000000000000000000000000081526004016126f1906136a3565b60405180910390fd5b612702610dd9565b15612742576040517f08c379a000000000000000000000000000000000000000000000000000000000815260040161273990613703565b60405180910390fd5b8160018054906101000a900473ffffffffffffffffffffffffffffffffffffffff1673ffffffffffffffffffffffffffffffffffffffff166370a08231306040518263ffffffff1660e01b815260040161279c91906134f3565b60206040518083038186803b1580156127b457600080fd5b505afa1580156127c8573d6000803e3d6000fd5b505050506040513d601f19601f820116820180604052508101906127ec9190612eb2565b101561282d576040517f08c379a0000000000000000000000000000000000000000000000000000000008152600401612824906136c3565b60405180910390fd5b60018054906101000a900473ffffffffffffffffffffffffffffffffffffffff1673ffffffffffffffffffffffffffffffffffffffff1663a9059cbb84846040518363ffffffff1660e01b8152600401612888929190613545565b602060405180830381600087803b1580156128a257600080fd5b505af11580156128b6573d6000803e3d6000fd5b505050506040513d601f19601f820116820180604052508101906128da9190612d91565b506001905092915050565b8280546128f190613bf4565b90600052602060002090601f016020900481019282612913576000855561295a565b82601f1061292c57805160ff191683800117855561295a565b8280016001018555821561295a579182015b8281111561295957825182559160200191906001019061293e565b5b5090506129679190612a38565b5090565b82805461297790613bf4565b90600052602060002090601f01602090048101928261299957600085556129e7565b82601f106129aa57805485556129e7565b828001600101855582156129e757600052602060002091601f016020900482015b828111156129e65782548255916001019190600101906129cb565b5b5090506129f49190612a38565b5090565b508054612a0490613bf4565b6000825580601f10612a165750612a35565b601f016020900490600052602060002090810190612a349190612a38565b5b50565b5b80821115612a51576000816000905550600101612a39565b5090565b6000612a68612a63846138ec565b6138c7565b90508082856020860282011115612a7e57600080fd5b60005b85811015612aae5781612a948882612c03565b845260208401935060208301925050600181019050612a81565b5050509392505050565b6000612acb612ac684613912565b6138c7565b905082815260208101848484011115612ae357600080fd5b612aee848285613b88565b509392505050565b600081359050612b05816141f3565b92915050565b600081905082602060020282011115612b2357600080fd5b92915050565b600082601f830112612b3a57600080fd5b6002612b47848285612a55565b91505092915050565b600081519050612b5f8161420a565b92915050565b600081359050612b7481614221565b92915050565b600081359050612b8981614238565b92915050565b60008083601f840112612ba157600080fd5b8235905067ffffffffffffffff811115612bba57600080fd5b602083019150836001820283011115612bd257600080fd5b9250929050565b600082601f830112612bea57600080fd5b8135612bfa848260208601612ab8565b91505092915050565b600081359050612c128161424f565b92915050565b600081519050612c278161424f565b92915050565b600081359050612c3c81614266565b92915050565b600060208284031215612c5457600080fd5b6000612c6284828501612af6565b91505092915050565b60008060008060008060008060e0898b031215612c8757600080fd5b6000612c958b828c01612af6565b9850506020612ca68b828c01612c03565b975050604089013567ffffffffffffffff811115612cc357600080fd5b612ccf8b828c01612b8f565b9650965050606089013567ffffffffffffffff811115612cee57600080fd5b612cfa8b828c01612b8f565b94509450506080612d0d8b828c01612b0b565b92505060c0612d1e8b828c01612c2d565b9150509295985092959890939650565b60008060008060a08587031215612d4457600080fd5b6000612d5287828801612b0b565b9450506040612d6387828801612af6565b9350506060612d7487828801612c03565b9250506080612d8587828801612c2d565b91505092959194509250565b600060208284031215612da357600080fd5b6000612db184828501612b50565b91505092915050565b600060208284031215612dcc57600080fd5b6000612dda84828501612b65565b91505092915050565b60008060408385031215612df657600080fd5b6000612e0485828601612b65565b9250506020612e1585828601612af6565b9150509250929050565b600060208284031215612e3157600080fd5b6000612e3f84828501612b7a565b91505092915050565b600060208284031215612e5a57600080fd5b600082013567ffffffffffffffff811115612e7457600080fd5b612e8084828501612bd9565b91505092915050565b600060208284031215612e9b57600080fd5b6000612ea984828501612c03565b91505092915050565b600060208284031215612ec457600080fd5b6000612ed284828501612c18565b91505092915050565b60008060008060a08587031215612ef157600080fd5b6000612eff87828801612c03565b9450506020612f1087828801612b29565b935050606085013567ffffffffffffffff811115612f2d57600080fd5b612f3987828801612bd9565b925050608085013567ffffffffffffffff811115612f5657600080fd5b612f6287828801612bd9565b91505092959194509250565b6000612f7a8383613061565b905092915050565b612f8b81613ac9565b82525050565b612fa2612f9d82613ac9565b613cca565b82525050565b6000612fb382613953565b612fbd8185613976565b935083602082028501612fcf85613943565b8060005b8581101561300b5784840389528151612fec8582612f6e565b9450612ff783613969565b925060208a01995050600181019050612fd3565b50829750879550505050505092915050565b61302681613adb565b82525050565b61303581613ae7565b82525050565b61304c61304782613ae7565b613cdc565b82525050565b61305b81613b64565b82525050565b600061306c8261395e565b6130768185613987565b9350613086818560208601613b97565b61308f81613dd0565b840191505092915050565b60006130a58261395e565b6130af8185613998565b93506130bf818560208601613b97565b6130c881613dd0565b840191505092915050565b60006130de8261395e565b6130e881856139a9565b93506130f8818560208601613b97565b80840191505092915050565b6000613111602083613998565b915061311c82613dfb565b602082019050919050565b6000613134601383613998565b915061313f82613e24565b602082019050919050565b6000613157601b83613998565b915061316282613e4d565b602082019050919050565b600061317a601983613998565b915061318582613e76565b602082019050919050565b600061319d601f83613998565b91506131a882613e9f565b602082019050919050565b60006131c0601383613998565b91506131cb82613ec8565b602082019050919050565b60006131e3601283613998565b91506131ee82613ef1565b602082019050919050565b6000613206601d83613998565b915061321182613f1a565b602082019050919050565b6000613229601083613998565b915061323482613f43565b602082019050919050565b600061324c601183613998565b915061325782613f6c565b602082019050919050565b600061326f601583613998565b915061327a82613f95565b602082019050919050565b6000613292601983613998565b915061329d82613fbe565b602082019050919050565b60006132b5601183613998565b91506132c082613fe7565b602082019050919050565b60006132d8602183613998565b91506132e382614010565b604082019050919050565b60006132fb601183613998565b91506133068261405f565b602082019050919050565b600061331e601883613998565b915061332982614088565b602082019050919050565b60006133416017836139a9565b915061334c826140b1565b601782019050919050565b6000613364602683613998565b915061336f826140da565b604082019050919050565b6000613387601483613998565b915061339282614129565b602082019050919050565b60006133aa601783613998565b91506133b582614152565b602082019050919050565b60006133cd6011836139a9565b91506133d88261417b565b601182019050919050565b60006133f0602f83613998565b91506133fb826141a4565b604082019050919050565b61340f81613b3d565b82525050565b61342661342182613b3d565b613cf8565b82525050565b61343d61343882613b47565b613d02565b82525050565b600061344f828861303b565b60208201915061345f828761303b565b60208201915061346f8286612f91565b60148201915061347f8285613415565b60208201915061348f828461342c565b6004820191508190509695505050505050565b60006134ae82846130d3565b915081905092915050565b60006134c482613334565b91506134d082856130d3565b91506134db826133c0565b91506134e782846130d3565b91508190509392505050565b60006020820190506135086000830184612f82565b92915050565b60006060820190506135236000830186612f82565b6135306020830185612f82565b61353d6040830184613406565b949350505050565b600060408201905061355a6000830185612f82565b6135676020830184613406565b9392505050565b600060208201905081810360008301526135888184612fa8565b905092915050565b60006020820190506135a5600083018461301d565b92915050565b60006020820190506135c0600083018461302c565b92915050565b60006020820190506135db6000830184613052565b92915050565b600060208201905081810360008301526135fb818461309a565b905092915050565b6000602082019050818103600083015261361c81613104565b9050919050565b6000602082019050818103600083015261363c81613127565b9050919050565b6000602082019050818103600083015261365c8161314a565b9050919050565b6000602082019050818103600083015261367c8161316d565b9050919050565b6000602082019050818103600083015261369c81613190565b9050919050565b600060208201905081810360008301526136bc816131b3565b9050919050565b600060208201905081810360008301526136dc816131d6565b9050919050565b600060208201905081810360008301526136fc816131f9565b9050919050565b6000602082019050818103600083015261371c8161321c565b9050919050565b6000602082019050818103600083015261373c8161323f565b9050919050565b6000602082019050818103600083015261375c81613262565b9050919050565b6000602082019050818103600083015261377c81613285565b9050919050565b6000602082019050818103600083015261379c816132a8565b9050919050565b600060208201905081810360008301526137bc816132cb565b9050919050565b600060208201905081810360008301526137dc816132ee565b9050919050565b600060208201905081810360008301526137fc81613311565b9050919050565b6000602082019050818103600083015261381c81613357565b9050919050565b6000602082019050818103600083015261383c8161337a565b9050919050565b6000602082019050818103600083015261385c8161339d565b9050919050565b6000602082019050818103600083015261387c816133e3565b9050919050565b60006020820190506138986000830184613406565b92915050565b60006040820190506138b36000830185613406565b6138c06020830184613406565b9392505050565b60006138d16138e2565b90506138dd8282613c26565b919050565b6000604051905090565b600067ffffffffffffffff82111561390757613906613da1565b5b602082029050919050565b600067ffffffffffffffff82111561392d5761392c613da1565b5b61393682613dd0565b9050602081019050919050565b6000819050602082019050919050565b600081519050919050565b600081519050919050565b6000602082019050919050565b600082825260208201905092915050565b600082825260208201905092915050565b600082825260208201905092915050565b600081905092915050565b60006139bf82613b3d565b91506139ca83613b3d565b9250827fffffffffffffffffffffffffffffffffffffffffffffffffffffffffffffffff038211156139ff576139fe613d14565b5b828201905092915050565b6000613a1582613b3d565b9150613a2083613b3d565b925082613a3057613a2f613d43565b5b828204905092915050565b6000613a4682613b3d565b9150613a5183613b3d565b9250817fffffffffffffffffffffffffffffffffffffffffffffffffffffffffffffffff0483118215151615613a8a57613a89613d14565b5b828202905092915050565b6000613aa082613b3d565b9150613aab83613b3d565b925082821015613abe57613abd613d14565b5b828203905092915050565b6000613ad482613b1d565b9050919050565b60008115159050919050565b6000819050919050565b60007fffffffff0000000000000000000000000000000000000000000000000000000082169050919050565b600073ffffffffffffffffffffffffffffffffffffffff82169050919050565b6000819050919050565b600063ffffffff82169050919050565b600060ff82169050919050565b6000613b6f82613b76565b9050919050565b6000613b8182613b1d565b9050919050565b82818337600083830152505050565b60005b83811015613bb5578082015181840152602081019050613b9a565b83811115613bc4576000848401525b50505050565b6000613bd582613b3d565b91506000821415613be957613be8613d14565b5b600182039050919050565b60006002820490506001821680613c0c57607f821691505b60208210811415613c2057613c1f613d72565b5b50919050565b613c2f82613dd0565b810181811067ffffffffffffffff82111715613c4e57613c4d613da1565b5b80604052505050565b6000613c6282613b3d565b91507fffffffffffffffffffffffffffffffffffffffffffffffffffffffffffffffff821415613c9557613c94613d14565b5b600182019050919050565b6000613cab82613b57565b915060ff821415613cbf57613cbe613d14565b5b600182019050919050565b6000613cd582613ce6565b9050919050565b6000819050919050565b6000613cf182613dee565b9050919050565b6000819050919050565b6000613d0d82613de1565b9050919050565b7f4e487b7100000000000000000000000000000000000000000000000000000000600052601160045260246000fd5b7f4e487b7100000000000000000000000000000000000000000000000000000000600052601260045260246000fd5b7f4e487b7100000000000000000000000000000000000000000000000000000000600052602260045260246000fd5b7f4e487b7100000000000000000000000000000000000000000000000000000000600052604160045260246000fd5b6000601f19601f8301169050919050565b60008160e01b9050919050565b60008160601b9050919050565b7f537472696e67733a20686578206c656e67746820696e73756666696369656e74600082015250565b7f4272696467653a20616d6f756e74206973203000000000000000000000000000600082015250565b7f4272696467653a20696e737566696369656e742062616c616e63650000000000600082015250565b7f4272696467653a20616c72656164792070726f63657373656400000000000000600082015250565b7f4272696467653a207472616e73616374696f6e48617368206973206e756c6c00600082015250565b7f4272696467653a206e6f74206d6f6e69746f7200000000000000000000000000600082015250565b7f4272696467653a206e6f2062616c616e63650000000000000000000000000000600082015250565b7f4272696467653a20626c6f636b636861696e206e6f7420657869737473000000600082015250565b7f5061757361626c653a2070617573656400000000000000000000000000000000600082015250565b7f4272696467653a206e6f2073656e646572000000000000000000000000000000600082015250565b7f4272696467653a206e6f20626c6f636b636861696e0000000000000000000000600082015250565b7f4272696467653a20626c6f636b48617368206973206e756c6c00000000000000600082015250565b7f4272696467653a206e6f74206f776e6572000000000000000000000000000000600082015250565b7f4272696467653a20626c6f636b636861696e20616c726561647920657869737460008201527f7300000000000000000000000000000000000000000000000000000000000000602082015250565b7f4272696467653a206e6f742061646d696e000000000000000000000000000000600082015250565b7f4272696467653a207265636569766572206973206e756c6c0000000000000000600082015250565b7f416363657373436f6e74726f6c3a206163636f756e7420000000000000000000600082015250565b7f4272696467653a207265717569726573206174206c65617374203120626c6f6360008201527f6b636861696e0000000000000000000000000000000000000000000000000000602082015250565b7f4272696467653a206e756c6c2061646472657373000000000000000000000000600082015250565b7f4272696467653a20626967676572207468616e20313025000000000000000000600082015250565b7f206973206d697373696e6720726f6c6520000000000000000000000000000000600082015250565b7f416363657373436f6e74726f6c3a2063616e206f6e6c792072656e6f756e636560008201527f20726f6c657320666f722073656c660000000000000000000000000000000000602082015250565b6141fc81613ac9565b811461420757600080fd5b50565b61421381613adb565b811461421e57600080fd5b50565b61422a81613ae7565b811461423557600080fd5b50565b61424181613af1565b811461424c57600080fd5b50565b61425881613b3d565b811461426357600080fd5b50565b61426f81613b47565b811461427a57600080fd5b5056fea26469706673582212203890ee1f2d68f823acc0802c5f12c4bc354af9c6c4e7276d3866062c087e5a8a64736f6c63430008040033",
  "immutableReferences": {},
  "source": "// SPDX-License-Identifier: MIT\r\npragma solidity 0.8.4;\r\n\r\n// Inpired on https://github.com/rsksmart/tokenbridge/blob/master/bridge/contracts/Bridge.sol\r\n\r\nimport './ozeppelin/access/AccessControl.sol';\r\nimport \"./ozeppelin/token/ERC20/IERC20.sol\";\r\nimport \"./ozeppelin/security/Pausable.sol\";\r\nimport \"./ozeppelin/utils/math/SafeMath.sol\";\r\nimport \"./IBridge.sol\";\r\n\r\ncontract Bridge is AccessControl, IBridge, Pausable {\r\n  using SafeMath for uint256;\r\n\r\n  address constant private NULL_ADDRESS = address(0);\r\n  bytes32 constant private NULL_HASH = bytes32(0);\r\n  bytes32 constant public MONITOR_ROLE = keccak256(\"MONITOR_ROLE\");\r\n\r\n  uint256 public constant decimalpercent = 10000; //100.00 = percentage accuracy (2) to 100%\r\n\r\n  IERC20 public token;\r\n  uint private totalFeeReceived;\r\n  uint private feePercentageBridge; //Include 2 decimal places\r\n  string[] public blockchain;\r\n  mapping(bytes32 => bool) public processed;\r\n\r\n  constructor(address _tokenAddress) {\r\n    _setupRole(DEFAULT_ADMIN_ROLE, _msgSender());\r\n    token = IERC20(_tokenAddress);\r\n  }\r\n\r\n  function version() external override pure returns (string memory) {\r\n      return \"v0\";\r\n  }\r\n\r\n  modifier onlyOwner() {\r\n    require(hasRole(DEFAULT_ADMIN_ROLE, _msgSender()), \"Bridge: not owner\");\r\n    _;\r\n  }\r\n\r\n  modifier onlyMonitor() {\r\n    require(hasRole(MONITOR_ROLE, _msgSender()), \"Bridge: not monitor\");\r\n    _;\r\n  }\r\n\r\n\r\n  function compareStrings(string memory a, string memory b) private pure returns (bool) {\r\n      return (keccak256(abi.encodePacked((a))) == keccak256(abi.encodePacked((b))));\r\n  }\r\n\r\n  function receiveTokens(uint amount, uint[2] memory transactionFee, string memory toBlockchain, string memory toAddress) external override returns(bool) {\r\n    return _receiveTokens(amount, transactionFee, toBlockchain, toAddress);\r\n  }\r\n\r\n  /**\r\n    * ERC-20 tokens approve and transferFrom pattern\r\n    * See https://eips.ethereum.org/EIPS/eip-20#transferfrom\r\n    */\r\n  function _receiveTokens(\r\n      uint256 amount, uint[2] memory transactionFee,\r\n      string memory toBlockchain, string memory toAddress\r\n  ) private whenNotPaused returns(bool) {\r\n\r\n    // transactionFee[0] - fee in BRL\r\n    // transactionFee[1] - fee in destiny currency - minor unit \r\n    \r\n    // if(transactionFee > 0) {\r\n    //   //token.transfer(owner(), fee);\r\n    //   totalFeeReceived.add(fee);\r\n    // }  \r\n\r\n    //Transfer the tokens on IERC20, they should be already Approved for the bridge Address to use them\r\n    uint totalAmount = amount.add(transactionFee[0]); \r\n    token.transferFrom(_msgSender(), address(this), totalAmount);\r\n\r\n    uint fee = amount.mul(feePercentageBridge).div(decimalpercent);\r\n    uint256 amountMinusFees = amount.sub(fee);\r\n\r\n    if(fee > 0) {\r\n      //token.transfer(owner(), fee);\r\n      totalFeeReceived.add(fee);\r\n    }\r\n\r\n    //This is the message for Monitor off-chain manage the transaction and send the tokens on the other Blockchain\r\n    emit CrossRequest(_msgSender(), amountMinusFees, transactionFee[1], toAddress, toBlockchain); \r\n    return true;\r\n  }\r\n\r\n  function acceptTransfer(\r\n    address receiver,\r\n    uint256 amount,\r\n    string calldata sender,\r\n    string calldata toBlockchain,\r\n    bytes32[2] calldata hashes, //blockHash, transactionHash\r\n    uint32 logIndex\r\n  ) external override returns(bool) {\r\n    return _acceptTransfer(receiver, amount, sender, toBlockchain, hashes, logIndex);\r\n  }\r\n\r\n  function _acceptTransfer(\r\n    address receiver,\r\n    uint256 amount,\r\n    string memory sender,\r\n    string memory toBlockchain,\r\n    bytes32[2] calldata hashes, //blockHash, transactionHash\r\n    uint32 logIndex\r\n  ) internal onlyMonitor whenNotPaused returns(bool) {\r\n    require(receiver != NULL_ADDRESS, \"Bridge: receiver is null\");\r\n    require(amount > 0, \"Bridge: amount is 0\");\r\n    require(bytes(sender).length > 0, \"Bridge: no sender\");\r\n    require(bytes(toBlockchain).length > 0, \"Bridge: no blockchain\");\r\n    require(hashes[0] != NULL_HASH, \"Bridge: blockHash is null\");\r\n    require(hashes[1] != NULL_HASH, \"Bridge: transactionHash is null\");\r\n\r\n    _processTransaction(hashes, receiver, amount, logIndex);\r\n    _sendToken(receiver, amount);\r\n\r\n    return true;\r\n  }\r\n  \r\n  function _sendToken(address to, uint amount) internal onlyMonitor whenNotPaused returns (bool) {    \r\n    require (token.balanceOf(address(this)) >= amount, \"Bridge: no balance\");\r\n    token.transfer(to, amount);\r\n    return true;\r\n  }\r\n\r\n  function getTransactionId(\r\n    bytes32[2] calldata _hashes, //blockHash, transactionHash\r\n    address _receiver,\r\n    uint256 _amount,\r\n    uint32 _logIndex\r\n  ) public override pure returns(bytes32) {\r\n    return keccak256(abi.encodePacked(_hashes[0], _hashes[1], _receiver, _amount, _logIndex));\r\n  }\r\n\r\n  function _processTransaction(\r\n    bytes32[2] calldata _hashes, //blockHash, transactionHash\r\n    address _receiver,\r\n    uint256 _amount,\r\n    uint32 _logIndex\r\n  ) private {\r\n    bytes32 transactionId = getTransactionId(_hashes, _receiver, _amount, _logIndex);\r\n    require(!processed[transactionId], \"Bridge: already processed\");\r\n    processed[transactionId] = true;\r\n  }\r\n\r\n  function addMonitor(address _monitorAddress) external onlyOwner whenNotPaused returns (bool) {\r\n    //Can be called only by the account defined in constructor: DEFAULT_ADMIN_ROLE\r\n    grantRole(MONITOR_ROLE, _monitorAddress);\r\n    return true;\r\n  }\r\n\r\n  function delMonitor(address _monitorAddress) external onlyOwner whenNotPaused returns (bool) {\r\n    //Can be called only by the account defined in constructor: DEFAULT_ADMIN_ROLE\r\n    revokeRole(MONITOR_ROLE, _monitorAddress);\r\n    return true;\r\n  }\r\n\r\n  function setfeePercentageBridge(uint newFee) external onlyOwner whenNotPaused returns (bool) {\r\n    require(hasRole(DEFAULT_ADMIN_ROLE, _msgSender()), \"Bridge: not admin\");\r\n    require(newFee < (decimalpercent/10), \"Bridge: bigger than 10%\");\r\n    emit feePercentageBridgeChanged(feePercentageBridge, newFee);\r\n    feePercentageBridge = newFee;\r\n    return true;\r\n  }\r\n\r\n  function getfeePercentageBridge() external override view returns(uint) {\r\n      return feePercentageBridge;\r\n  }\r\n\r\n  function setToken(address _tokenAddress) external onlyOwner whenNotPaused returns (bool) {\r\n    require(_tokenAddress != NULL_ADDRESS, \"Bridge: null address\");\r\n    token = IERC20(_tokenAddress);\r\n    emit TokenChanged(_tokenAddress);\r\n    return true;\r\n  }\r\n\r\n  function gettotalFeeReceived() external override view returns(uint) {\r\n      return totalFeeReceived;\r\n  }\r\n\r\n  function getTokenBalance() external override view returns (uint) {\r\n    return token.balanceOf(address(this));\r\n  }\r\n\r\n  function withdrawToken(uint amount) external onlyOwner returns (bool) {\r\n    require (amount <= token.balanceOf(address(this)), \"Bridge: insuficient balance\");\r\n    token.transfer(_msgSender(), amount);\r\n    return true;\r\n  }\r\n\r\n  function existsBlockchain(string memory name) public override view returns (bool) {\r\n    for (uint8 i=0; i < blockchain.length; i++) {\r\n      if (compareStrings(name, blockchain[i])) {\r\n        return true;\r\n      }\r\n    }\r\n    return false;\r\n  }\r\n\r\n  function listBlockchain() external override view returns (string[] memory) {\r\n    return blockchain;\r\n  }\r\n\r\n  function addBlockchain(string memory name) external onlyOwner whenNotPaused returns (uint) {\r\n    require(hasRole(DEFAULT_ADMIN_ROLE, _msgSender()), \"Bridge: not admin\");\r\n    require(!existsBlockchain(name), \"Bridge: blockchain already exists\");    \r\n    blockchain.push(name);\r\n    return (blockchain.length - 1);\r\n  }\r\n\r\n  function delBlockchain(string memory name) external onlyOwner whenNotPaused returns (bool) {\r\n    require(hasRole(DEFAULT_ADMIN_ROLE, _msgSender()), \"Bridge: not admin\");\r\n    require(existsBlockchain(name), \"Bridge: blockchain not exists\");\r\n    require(blockchain.length > 1, \"Bridge: requires at least 1 blockchain\");\r\n\r\n    uint index;\r\n\r\n    for (uint i = 0; i < blockchain.length; i++) {\r\n      if (compareStrings(name, blockchain[i])) {\r\n        index = i;\r\n        break;\r\n      }      \r\n    }\r\n\r\n    blockchain[index] = blockchain[blockchain.length - 1];\r\n    blockchain.pop();\r\n    return true;\r\n  }\r\n\r\n\r\n}",
  "sourcePath": "C:/BLOCKCHAIN/TRANSFERO/brz-tokenbridge/contracts/Bridge.sol",
  "compiler": {
    "name": "solc",
    "version": "0.8.4+commit.c7e474f2.Emscripten.clang"
  },
  "schemaVersion": "3.4.1",
  "updatedAt": "2021-06-15T19:09:36.343Z",
  "networkType": "ethereum",
  "devdoc": {
    "kind": "dev",
    "methods": {
      "getRoleAdmin(bytes32)": {
        "details": "Returns the admin role that controls `role`. See {grantRole} and {revokeRole}. To change a role's admin, use {_setRoleAdmin}."
      },
      "grantRole(bytes32,address)": {
        "details": "Grants `role` to `account`. If `account` had not been already granted `role`, emits a {RoleGranted} event. Requirements: - the caller must have ``role``'s admin role."
      },
      "hasRole(bytes32,address)": {
        "details": "Returns `true` if `account` has been granted `role`."
      },
      "paused()": {
        "details": "Returns true if the contract is paused, and false otherwise."
      },
      "renounceRole(bytes32,address)": {
        "details": "Revokes `role` from the calling account. Roles are often managed via {grantRole} and {revokeRole}: this function's purpose is to provide a mechanism for accounts to lose their privileges if they are compromised (such as when a trusted device is misplaced). If the calling account had been granted `role`, emits a {RoleRevoked} event. Requirements: - the caller must be `account`."
      },
      "revokeRole(bytes32,address)": {
        "details": "Revokes `role` from `account`. If `account` had been granted `role`, emits a {RoleRevoked} event. Requirements: - the caller must have ``role``'s admin role."
      },
      "supportsInterface(bytes4)": {
        "details": "See {IERC165-supportsInterface}."
      }
    },
    "version": 1
  },
  "userdoc": {
    "kind": "user",
    "methods": {},
    "version": 1
  }
}