{
  "contractName": "Bridge",
  "abi": [
    {
      "inputs": [
        {
          "internalType": "address",
          "name": "tokenAddress",
          "type": "address"
        }
      ],
      "stateMutability": "nonpayable",
      "type": "constructor"
    },
    {
      "anonymous": false,
      "inputs": [
        {
          "indexed": false,
          "internalType": "address",
          "name": "from",
          "type": "address"
        },
        {
          "indexed": false,
          "internalType": "uint256",
          "name": "amount",
          "type": "uint256"
        },
        {
          "indexed": false,
          "internalType": "uint256",
          "name": "toFee",
          "type": "uint256"
        },
        {
          "indexed": false,
          "internalType": "string",
          "name": "toAddress",
          "type": "string"
        },
        {
          "indexed": false,
          "internalType": "string",
          "name": "toBlockchain",
          "type": "string"
        }
      ],
      "name": "CrossRequest",
      "type": "event"
    },
    {
      "anonymous": false,
      "inputs": [
        {
          "indexed": false,
          "internalType": "uint256",
          "name": "oldFee",
          "type": "uint256"
        },
        {
          "indexed": false,
          "internalType": "uint256",
          "name": "newFee",
          "type": "uint256"
        }
      ],
      "name": "FeePercentageBridgeChanged",
      "type": "event"
    },
    {
      "anonymous": false,
      "inputs": [
        {
          "indexed": false,
          "internalType": "address",
          "name": "account",
          "type": "address"
        }
      ],
      "name": "Paused",
      "type": "event"
    },
    {
      "anonymous": false,
      "inputs": [
        {
          "indexed": true,
          "internalType": "bytes32",
          "name": "role",
          "type": "bytes32"
        },
        {
          "indexed": true,
          "internalType": "bytes32",
          "name": "previousAdminRole",
          "type": "bytes32"
        },
        {
          "indexed": true,
          "internalType": "bytes32",
          "name": "newAdminRole",
          "type": "bytes32"
        }
      ],
      "name": "RoleAdminChanged",
      "type": "event"
    },
    {
      "anonymous": false,
      "inputs": [
        {
          "indexed": true,
          "internalType": "bytes32",
          "name": "role",
          "type": "bytes32"
        },
        {
          "indexed": true,
          "internalType": "address",
          "name": "account",
          "type": "address"
        },
        {
          "indexed": true,
          "internalType": "address",
          "name": "sender",
          "type": "address"
        }
      ],
      "name": "RoleGranted",
      "type": "event"
    },
    {
      "anonymous": false,
      "inputs": [
        {
          "indexed": true,
          "internalType": "bytes32",
          "name": "role",
          "type": "bytes32"
        },
        {
          "indexed": true,
          "internalType": "address",
          "name": "account",
          "type": "address"
        },
        {
          "indexed": true,
          "internalType": "address",
          "name": "sender",
          "type": "address"
        }
      ],
      "name": "RoleRevoked",
      "type": "event"
    },
    {
      "anonymous": false,
      "inputs": [
        {
          "indexed": false,
          "internalType": "address",
          "name": "tokenAddress",
          "type": "address"
        }
      ],
      "name": "TokenChanged",
      "type": "event"
    },
    {
      "anonymous": false,
      "inputs": [
        {
          "indexed": false,
          "internalType": "address",
          "name": "account",
          "type": "address"
        }
      ],
      "name": "Unpaused",
      "type": "event"
    },
    {
      "inputs": [],
      "name": "DECIMALPERCENT",
      "outputs": [
        {
          "internalType": "uint256",
          "name": "",
          "type": "uint256"
        }
      ],
      "stateMutability": "view",
      "type": "function"
    },
    {
      "inputs": [],
      "name": "DEFAULT_ADMIN_ROLE",
      "outputs": [
        {
          "internalType": "bytes32",
          "name": "",
          "type": "bytes32"
        }
      ],
      "stateMutability": "view",
      "type": "function"
    },
    {
      "inputs": [],
      "name": "MONITOR_ROLE",
      "outputs": [
        {
          "internalType": "bytes32",
          "name": "",
          "type": "bytes32"
        }
      ],
      "stateMutability": "view",
      "type": "function"
    },
    {
      "inputs": [
        {
          "internalType": "uint256",
          "name": "",
          "type": "uint256"
        }
      ],
      "name": "blockchain",
      "outputs": [
        {
          "internalType": "string",
          "name": "",
          "type": "string"
        }
      ],
      "stateMutability": "view",
      "type": "function"
    },
    {
      "inputs": [
        {
          "internalType": "bytes32",
          "name": "role",
          "type": "bytes32"
        }
      ],
      "name": "getRoleAdmin",
      "outputs": [
        {
          "internalType": "bytes32",
          "name": "",
          "type": "bytes32"
        }
      ],
      "stateMutability": "view",
      "type": "function"
    },
    {
      "inputs": [
        {
          "internalType": "bytes32",
          "name": "role",
          "type": "bytes32"
        },
        {
          "internalType": "address",
          "name": "account",
          "type": "address"
        }
      ],
      "name": "grantRole",
      "outputs": [],
      "stateMutability": "nonpayable",
      "type": "function"
    },
    {
      "inputs": [
        {
          "internalType": "bytes32",
          "name": "role",
          "type": "bytes32"
        },
        {
          "internalType": "address",
          "name": "account",
          "type": "address"
        }
      ],
      "name": "hasRole",
      "outputs": [
        {
          "internalType": "bool",
          "name": "",
          "type": "bool"
        }
      ],
      "stateMutability": "view",
      "type": "function"
    },
    {
      "inputs": [],
      "name": "paused",
      "outputs": [
        {
          "internalType": "bool",
          "name": "",
          "type": "bool"
        }
      ],
      "stateMutability": "view",
      "type": "function"
    },
    {
      "inputs": [
        {
          "internalType": "bytes32",
          "name": "",
          "type": "bytes32"
        }
      ],
      "name": "processed",
      "outputs": [
        {
          "internalType": "bool",
          "name": "",
          "type": "bool"
        }
      ],
      "stateMutability": "view",
      "type": "function"
    },
    {
      "inputs": [
        {
          "internalType": "bytes32",
          "name": "role",
          "type": "bytes32"
        },
        {
          "internalType": "address",
          "name": "account",
          "type": "address"
        }
      ],
      "name": "renounceRole",
      "outputs": [],
      "stateMutability": "nonpayable",
      "type": "function"
    },
    {
      "inputs": [
        {
          "internalType": "bytes32",
          "name": "role",
          "type": "bytes32"
        },
        {
          "internalType": "address",
          "name": "account",
          "type": "address"
        }
      ],
      "name": "revokeRole",
      "outputs": [],
      "stateMutability": "nonpayable",
      "type": "function"
    },
    {
      "inputs": [
        {
          "internalType": "bytes4",
          "name": "interfaceId",
          "type": "bytes4"
        }
      ],
      "name": "supportsInterface",
      "outputs": [
        {
          "internalType": "bool",
          "name": "",
          "type": "bool"
        }
      ],
      "stateMutability": "view",
      "type": "function"
    },
    {
      "inputs": [],
      "name": "token",
      "outputs": [
        {
          "internalType": "contract IERC20",
          "name": "",
          "type": "address"
        }
      ],
      "stateMutability": "view",
      "type": "function"
    },
    {
      "inputs": [],
      "name": "version",
      "outputs": [
        {
          "internalType": "string",
          "name": "",
          "type": "string"
        }
      ],
      "stateMutability": "pure",
      "type": "function"
    },
    {
      "inputs": [
        {
          "internalType": "uint256",
          "name": "amount",
          "type": "uint256"
        },
        {
          "internalType": "uint256[2]",
          "name": "transactionFee",
          "type": "uint256[2]"
        },
        {
          "internalType": "string",
          "name": "toBlockchain",
          "type": "string"
        },
        {
          "internalType": "string",
          "name": "toAddress",
          "type": "string"
        }
      ],
      "name": "receiveTokens",
      "outputs": [
        {
          "internalType": "bool",
          "name": "",
          "type": "bool"
        }
      ],
      "stateMutability": "nonpayable",
      "type": "function"
    },
    {
      "inputs": [
        {
          "internalType": "bytes32[2]",
          "name": "hashes",
          "type": "bytes32[2]"
        },
        {
          "internalType": "address",
          "name": "receiver",
          "type": "address"
        },
        {
          "internalType": "uint256",
          "name": "amount",
          "type": "uint256"
        },
        {
          "internalType": "uint32",
          "name": "logIndex",
          "type": "uint32"
        }
      ],
      "name": "getTransactionId",
      "outputs": [
        {
          "internalType": "bytes32",
          "name": "",
          "type": "bytes32"
        }
      ],
      "stateMutability": "pure",
      "type": "function"
    },
    {
      "inputs": [
        {
          "internalType": "address",
          "name": "receiver",
          "type": "address"
        },
        {
          "internalType": "uint256",
          "name": "amount",
          "type": "uint256"
        },
        {
          "internalType": "string",
          "name": "sender",
          "type": "string"
        },
        {
          "internalType": "string",
          "name": "fromBlockchain",
          "type": "string"
        },
        {
          "internalType": "bytes32[2]",
          "name": "hashes",
          "type": "bytes32[2]"
        },
        {
          "internalType": "uint32",
          "name": "logIndex",
          "type": "uint32"
        }
      ],
      "name": "acceptTransfer",
      "outputs": [
        {
          "internalType": "bool",
          "name": "",
          "type": "bool"
        }
      ],
      "stateMutability": "nonpayable",
      "type": "function"
    },
    {
      "inputs": [
        {
          "internalType": "address",
          "name": "monitorAddress",
          "type": "address"
        }
      ],
      "name": "addMonitor",
      "outputs": [
        {
          "internalType": "bool",
          "name": "",
          "type": "bool"
        }
      ],
      "stateMutability": "nonpayable",
      "type": "function"
    },
    {
      "inputs": [
        {
          "internalType": "address",
          "name": "monitorAddress",
          "type": "address"
        }
      ],
      "name": "delMonitor",
      "outputs": [
        {
          "internalType": "bool",
          "name": "",
          "type": "bool"
        }
      ],
      "stateMutability": "nonpayable",
      "type": "function"
    },
    {
      "inputs": [
        {
          "internalType": "uint256",
          "name": "newFee",
          "type": "uint256"
        }
      ],
      "name": "setFeePercentageBridge",
      "outputs": [
        {
          "internalType": "bool",
          "name": "",
          "type": "bool"
        }
      ],
      "stateMutability": "nonpayable",
      "type": "function"
    },
    {
      "inputs": [],
      "name": "getFeePercentageBridge",
      "outputs": [
        {
          "internalType": "uint256",
          "name": "",
          "type": "uint256"
        }
      ],
      "stateMutability": "view",
      "type": "function"
    },
    {
      "inputs": [
        {
          "internalType": "address",
          "name": "tokenAddress",
          "type": "address"
        }
      ],
      "name": "setToken",
      "outputs": [
        {
          "internalType": "bool",
          "name": "",
          "type": "bool"
        }
      ],
      "stateMutability": "nonpayable",
      "type": "function"
    },
    {
      "inputs": [],
      "name": "getTotalFeeReceivedBridge",
      "outputs": [
        {
          "internalType": "uint256",
          "name": "",
          "type": "uint256"
        }
      ],
      "stateMutability": "view",
      "type": "function"
    },
    {
      "inputs": [],
      "name": "getTokenBalance",
      "outputs": [
        {
          "internalType": "uint256",
          "name": "",
          "type": "uint256"
        }
      ],
      "stateMutability": "view",
      "type": "function"
    },
    {
      "inputs": [
        {
          "internalType": "uint256",
          "name": "amount",
          "type": "uint256"
        }
      ],
      "name": "withdrawToken",
      "outputs": [
        {
          "internalType": "bool",
          "name": "",
          "type": "bool"
        }
      ],
      "stateMutability": "nonpayable",
      "type": "function"
    },
    {
      "inputs": [
        {
          "internalType": "string",
          "name": "name",
          "type": "string"
        }
      ],
      "name": "existsBlockchain",
      "outputs": [
        {
          "internalType": "bool",
          "name": "",
          "type": "bool"
        }
      ],
      "stateMutability": "view",
      "type": "function"
    },
    {
      "inputs": [],
      "name": "listBlockchain",
      "outputs": [
        {
          "internalType": "string[]",
          "name": "",
          "type": "string[]"
        }
      ],
      "stateMutability": "view",
      "type": "function"
    },
    {
      "inputs": [
        {
          "internalType": "string",
          "name": "name",
          "type": "string"
        }
      ],
      "name": "addBlockchain",
      "outputs": [
        {
          "internalType": "uint256",
          "name": "",
          "type": "uint256"
        }
      ],
      "stateMutability": "nonpayable",
      "type": "function"
    },
    {
      "inputs": [
        {
          "internalType": "string",
          "name": "name",
          "type": "string"
        }
      ],
      "name": "delBlockchain",
      "outputs": [
        {
          "internalType": "bool",
          "name": "",
          "type": "bool"
        }
      ],
      "stateMutability": "nonpayable",
      "type": "function"
    },
    {
      "inputs": [],
      "name": "pause",
      "outputs": [],
      "stateMutability": "nonpayable",
      "type": "function"
    },
    {
      "inputs": [],
      "name": "unpause",
      "outputs": [],
      "stateMutability": "nonpayable",
      "type": "function"
    }
  ],
  "bytecode": "0x60806040523480156200001157600080fd5b50604051620048fd380380620048fd833981810160405281019062000037919062000255565b6000600160006101000a81548160ff021916908315150217905550620000766000801b6200006a620000c560201b60201c565b620000cd60201b60201c565b806001806101000a81548173ffffffffffffffffffffffffffffffffffffffff021916908373ffffffffffffffffffffffffffffffffffffffff160217905550600a60038190555050620002cf565b600033905090565b620000df8282620000e360201b60201c565b5050565b620000f58282620001d460201b60201c565b620001d057600160008084815260200190815260200160002060000160008373ffffffffffffffffffffffffffffffffffffffff1673ffffffffffffffffffffffffffffffffffffffff16815260200190815260200160002060006101000a81548160ff02191690831515021790555062000175620000c560201b60201c565b73ffffffffffffffffffffffffffffffffffffffff168173ffffffffffffffffffffffffffffffffffffffff16837f2f8788117e7eff1d82e926ec794901d17c78024a50270940304540a733656f0d60405160405180910390a45b5050565b600080600084815260200190815260200160002060000160008373ffffffffffffffffffffffffffffffffffffffff1673ffffffffffffffffffffffffffffffffffffffff16815260200190815260200160002060009054906101000a900460ff16905092915050565b6000815190506200024f81620002b5565b92915050565b6000602082840312156200026857600080fd5b600062000278848285016200023e565b91505092915050565b60006200028e8262000295565b9050919050565b600073ffffffffffffffffffffffffffffffffffffffff82169050919050565b620002c08162000281565b8114620002cc57600080fd5b50565b61461e80620002df6000396000f3fe608060405234801561001057600080fd5b50600436106101e55760003560e01c80635d27fc701161010f578063b8c48a28116100a2578063cd09fc2811610071578063cd09fc28146105f6578063d547741f14610626578063e1343dae14610642578063fc0c546a14610660576101e5565b8063b8c48a2814610536578063bb52228b14610566578063c1f0808a14610596578063c25b1eaf146105c6576101e5565b806392830770116100de578063928307701461049a57806399cd19d3146104b8578063a217fddf146104e8578063aeb670e314610506576101e5565b80635d27fc701461041257806382b2e257146104425780638456cb591461046057806391d148541461046a576101e5565b806336568abe1161018757806350baa6221161015657806350baa62214610376578063525a34e3146103a657806354fd4d50146103d65780635c975abb146103f4576101e5565b806336568abe146103025780633f4ba83a1461031e578063420c04f0146103285780634d9b47e214610358576101e5565b8063144fa6d7116101c3578063144fa6d714610268578063248a9ca3146102985780632f2ff15d146102c85780633222a6aa146102e4576101e5565b806301ffc9a7146101ea5780630e7fef1e1461021a57806310c22fa61461024a575b600080fd5b61020460048036038101906101ff919061302b565b61067e565b6040516102119190613843565b60405180910390f35b610234600480360381019061022f91906130e7565b6106f8565b6040516102419190613843565b60405180910390f35b610252610a24565b60405161025f9190613b76565b60405180910390f35b610282600480360381019061027d9190612e4e565b610a2a565b60405161028f9190613843565b60405180910390f35b6102b260048036038101906102ad9190612fc6565b610bb7565b6040516102bf919061385e565b60405180910390f35b6102e260048036038101906102dd9190612fef565b610bd6565b005b6102ec610bff565b6040516102f99190613b76565b60405180910390f35b61031c60048036038101906103179190612fef565b610c09565b005b610326610c8c565b005b610342600480360381019061033d9190612e77565b610ce9565b60405161034f9190613843565b60405180910390f35b610360611057565b60405161036d919061385e565b60405180910390f35b610390600480360381019061038b9190613095565b61107b565b60405161039d9190613843565b60405180910390f35b6103c060048036038101906103bb9190613095565b611279565b6040516103cd9190613843565b60405180910390f35b6103de6113b1565b6040516103eb9190613894565b60405180910390f35b6103fc6113ee565b6040516104099190613843565b60405180910390f35b61042c60048036038101906104279190612e4e565b611405565b6040516104399190613843565b60405180910390f35b61044a6114d5565b6040516104579190613b76565b60405180910390f35b610468611585565b005b610484600480360381019061047f9190612fef565b6115e2565b6040516104919190613843565b60405180910390f35b6104a261164c565b6040516104af9190613b76565b60405180910390f35b6104d260048036038101906104cd9190613054565b611656565b6040516104df9190613b76565b60405180910390f35b6104f0611791565b6040516104fd919061385e565b60405180910390f35b610520600480360381019061051b9190612f3a565b611798565b60405161052d919061385e565b60405180910390f35b610550600480360381019061054b9190612e4e565b61184f565b60405161055d9190613843565b60405180910390f35b610580600480360381019061057b9190613054565b61191f565b60405161058d9190613843565b60405180910390f35b6105b060048036038101906105ab9190612fc6565b611c69565b6040516105bd9190613843565b60405180910390f35b6105e060048036038101906105db9190613095565b611c89565b6040516105ed9190613894565b60405180910390f35b610610600480360381019061060b9190613054565b611d35565b60405161061d9190613843565b60405180910390f35b610640600480360381019061063b9190612fef565b611e53565b005b61064a611e7c565b6040516106579190613821565b60405180910390f35b610668611f55565b6040516106759190613879565b60405180910390f35b60007f7965db0b000000000000000000000000000000000000000000000000000000007bffffffffffffffffffffffffffffffffffffffffffffffffffffffff1916827bffffffffffffffffffffffffffffffffffffffffffffffffffffffff191614806106f157506106f082611f79565b5b9050919050565b60006107026113ee565b15610742576040517f08c379a000000000000000000000000000000000000000000000000000000000815260040161073990613a16565b60405180910390fd5b61074b83611d35565b61078a576040517f08c379a000000000000000000000000000000000000000000000000000000000815260040161078190613976565b60405180910390fd5b6107a38260405180602001604052806000815250611fe3565b156107e3576040517f08c379a00000000000000000000000000000000000000000000000000000000081526004016107da90613b16565b60405180910390fd5b60008511610826576040517f08c379a000000000000000000000000000000000000000000000000000000000815260040161081d906138d6565b60405180910390fd5b600061087985600060028110610865577f4e487b7100000000000000000000000000000000000000000000000000000000600052603260045260246000fd5b60200201518761203c90919063ffffffff16565b905060006108a66127106108986003548a61205290919063ffffffff16565b61206890919063ffffffff16565b905060006108bd828961207e90919063ffffffff16565b90506108d48260025461203c90919063ffffffff16565b6002819055507f0424dad9840ff9e43e3db8fbda830b4db1af324cf59b056dd728876c88ea8807610903612094565b828960016002811061093e577f4e487b7100000000000000000000000000000000000000000000000000000000600052603260045260246000fd5b6020020151888a6040516109569594939291906137c0565b60405180910390a160018054906101000a900473ffffffffffffffffffffffffffffffffffffffff1673ffffffffffffffffffffffffffffffffffffffff166323b872dd6109a2612094565b30866040518463ffffffff1660e01b81526004016109c293929190613760565b602060405180830381600087803b1580156109dc57600080fd5b505af11580156109f0573d6000803e3d6000fd5b505050506040513d601f19601f82011682018060405250810190610a149190612f9d565b5060019350505050949350505050565b61271081565b6000610a406000801b610a3b612094565b6115e2565b610a7f576040517f08c379a0000000000000000000000000000000000000000000000000000000008152600401610a7690613a96565b60405180910390fd5b610a876113ee565b15610ac7576040517f08c379a0000000000000000000000000000000000000000000000000000000008152600401610abe90613a16565b60405180910390fd5b600073ffffffffffffffffffffffffffffffffffffffff168273ffffffffffffffffffffffffffffffffffffffff161415610b37576040517f08c379a0000000000000000000000000000000000000000000000000000000008152600401610b2e90613ad6565b60405180910390fd5b7f5d108ca248943e98e1886bbc2c38beda701271994a14354258a11692b81b73cf82604051610b669190613745565b60405180910390a1816001806101000a81548173ffffffffffffffffffffffffffffffffffffffff021916908373ffffffffffffffffffffffffffffffffffffffff16021790555060019050919050565b6000806000838152602001908152602001600020600101549050919050565b610bdf82610bb7565b610bf081610beb612094565b61209c565b610bfa8383612139565b505050565b6000600254905090565b610c11612094565b73ffffffffffffffffffffffffffffffffffffffff168173ffffffffffffffffffffffffffffffffffffffff1614610c7e576040517f08c379a0000000000000000000000000000000000000000000000000000000008152600401610c7590613b56565b60405180910390fd5b610c888282612219565b5050565b610ca06000801b610c9b612094565b6115e2565b610cdf576040517f08c379a0000000000000000000000000000000000000000000000000000000008152600401610cd690613a96565b60405180910390fd5b610ce76122fa565b565b6000610d1c7f8227712ef8ad39d0f26f06731ef0df8665eb7ada7f41b1ee089adf3c238862a2610d17612094565b6115e2565b610d5b576040517f08c379a0000000000000000000000000000000000000000000000000000000008152600401610d52906139b6565b60405180910390fd5b610d636113ee565b15610da3576040517f08c379a0000000000000000000000000000000000000000000000000000000008152600401610d9a90613a16565b60405180910390fd5b600073ffffffffffffffffffffffffffffffffffffffff168973ffffffffffffffffffffffffffffffffffffffff161415610e13576040517f08c379a0000000000000000000000000000000000000000000000000000000008152600401610e0a90613996565b60405180910390fd5b60008811610e56576040517f08c379a0000000000000000000000000000000000000000000000000000000008152600401610e4d906138d6565b60405180910390fd5b60008787905011610e9c576040517f08c379a0000000000000000000000000000000000000000000000000000000008152600401610e9390613a36565b60405180910390fd5b610ee985858080601f016020809104026020016040519081016040528093929190818152602001838380828437600081840152601f19601f82011690508083019250505050505050611d35565b610f28576040517f08c379a0000000000000000000000000000000000000000000000000000000008152600401610f1f90613a76565b60405180910390fd5b6000801b83600060028110610f66577f4e487b7100000000000000000000000000000000000000000000000000000000600052603260045260246000fd5b60200201351415610fac576040517f08c379a0000000000000000000000000000000000000000000000000000000008152600401610fa390613a56565b60405180910390fd5b6000801b83600160028110610fea577f4e487b7100000000000000000000000000000000000000000000000000000000600052603260045260246000fd5b60200201351415611030576040517f08c379a000000000000000000000000000000000000000000000000000000000815260040161102790613956565b60405180910390fd5b61103c838a8a8561239c565b61104689896124f8565b506001905098975050505050505050565b7f8227712ef8ad39d0f26f06731ef0df8665eb7ada7f41b1ee089adf3c238862a281565b60006110916000801b61108c612094565b6115e2565b6110d0576040517f08c379a00000000000000000000000000000000000000000000000000000000081526004016110c790613a96565b60405180910390fd5b60018054906101000a900473ffffffffffffffffffffffffffffffffffffffff1673ffffffffffffffffffffffffffffffffffffffff166370a08231306040518263ffffffff1660e01b81526004016111299190613745565b60206040518083038186803b15801561114157600080fd5b505afa158015611155573d6000803e3d6000fd5b505050506040513d601f19601f8201168201806040525081019061117991906130be565b8211156111bb576040517f08c379a00000000000000000000000000000000000000000000000000000000081526004016111b290613916565b60405180910390fd5b60018054906101000a900473ffffffffffffffffffffffffffffffffffffffff1673ffffffffffffffffffffffffffffffffffffffff1663a9059cbb6111ff612094565b846040518363ffffffff1660e01b815260040161121d929190613797565b602060405180830381600087803b15801561123757600080fd5b505af115801561124b573d6000803e3d6000fd5b505050506040513d601f19601f8201168201806040525081019061126f9190612f9d565b5060019050919050565b600061128f6000801b61128a612094565b6115e2565b6112ce576040517f08c379a00000000000000000000000000000000000000000000000000000000081526004016112c590613a96565b60405180910390fd5b6112d66113ee565b15611316576040517f08c379a000000000000000000000000000000000000000000000000000000000815260040161130d90613a16565b60405180910390fd5b600a6127106113259190613cfd565b8210611366576040517f08c379a000000000000000000000000000000000000000000000000000000000815260040161135d90613b36565b60405180910390fd5b7f423d9a8a1d4011c45245817ab10cc09937b0786496dad82dba18141ca4fb7c8e60035483604051611399929190613b91565b60405180910390a18160038190555060019050919050565b60606040518060400160405280600281526020017f7630000000000000000000000000000000000000000000000000000000000000815250905090565b6000600160009054906101000a900460ff16905090565b600061141b6000801b611416612094565b6115e2565b61145a576040517f08c379a000000000000000000000000000000000000000000000000000000000815260040161145190613a96565b60405180910390fd5b6114626113ee565b156114a2576040517f08c379a000000000000000000000000000000000000000000000000000000000815260040161149990613a16565b60405180910390fd5b6114cc7f8227712ef8ad39d0f26f06731ef0df8665eb7ada7f41b1ee089adf3c238862a283611e53565b60019050919050565b600060018054906101000a900473ffffffffffffffffffffffffffffffffffffffff1673ffffffffffffffffffffffffffffffffffffffff166370a08231306040518263ffffffff1660e01b81526004016115309190613745565b60206040518083038186803b15801561154857600080fd5b505afa15801561155c573d6000803e3d6000fd5b505050506040513d601f19601f8201168201806040525081019061158091906130be565b905090565b6115996000801b611594612094565b6115e2565b6115d8576040517f08c379a00000000000000000000000000000000000000000000000000000000081526004016115cf90613a96565b60405180910390fd5b6115e0612755565b565b600080600084815260200190815260200160002060000160008373ffffffffffffffffffffffffffffffffffffffff1673ffffffffffffffffffffffffffffffffffffffff16815260200190815260200160002060009054906101000a900460ff16905092915050565b6000600354905090565b600061166c6000801b611667612094565b6115e2565b6116ab576040517f08c379a00000000000000000000000000000000000000000000000000000000081526004016116a290613a96565b60405180910390fd5b6116b36113ee565b156116f3576040517f08c379a00000000000000000000000000000000000000000000000000000000081526004016116ea90613a16565b60405180910390fd5b6116fc82611d35565b1561173c576040517f08c379a000000000000000000000000000000000000000000000000000000000815260040161173390613ab6565b60405180910390fd5b600482908060018154018082558091505060019003906000526020600020016000909190919091509080519060200190611777929190612af1565b50600160048054905061178a9190613d88565b9050919050565b6000801b81565b6000846000600281106117d4577f4e487b7100000000000000000000000000000000000000000000000000000000600052603260045260246000fd5b602002013585600160028110611813577f4e487b7100000000000000000000000000000000000000000000000000000000600052603260045260246000fd5b602002013585858560405160200161182f959493929190613695565b604051602081830303815290604052805190602001209050949350505050565b60006118656000801b611860612094565b6115e2565b6118a4576040517f08c379a000000000000000000000000000000000000000000000000000000000815260040161189b90613a96565b60405180910390fd5b6118ac6113ee565b156118ec576040517f08c379a00000000000000000000000000000000000000000000000000000000081526004016118e390613a16565b60405180910390fd5b6119167f8227712ef8ad39d0f26f06731ef0df8665eb7ada7f41b1ee089adf3c238862a283610bd6565b60019050919050565b60006119356000801b611930612094565b6115e2565b611974576040517f08c379a000000000000000000000000000000000000000000000000000000000815260040161196b90613a96565b60405180910390fd5b61197c6113ee565b156119bc576040517f08c379a00000000000000000000000000000000000000000000000000000000081526004016119b390613a16565b60405180910390fd5b6119c582611d35565b611a04576040517f08c379a00000000000000000000000000000000000000000000000000000000081526004016119fb906139f6565b60405180910390fd5b600160048054905011611a4c576040517f08c379a0000000000000000000000000000000000000000000000000000000008152600401611a4390613af6565b60405180910390fd5b600080600090505b600480549050811015611b5757611b378460048381548110611a9f577f4e487b7100000000000000000000000000000000000000000000000000000000600052603260045260246000fd5b906000526020600020018054611ab490613ee7565b80601f0160208091040260200160405190810160405280929190818152602001828054611ae090613ee7565b8015611b2d5780601f10611b0257610100808354040283529160200191611b2d565b820191906000526020600020905b815481529060010190602001808311611b1057829003601f168201915b5050505050611fe3565b15611b4457809150611b57565b8080611b4f90613f4a565b915050611a54565b5060046001600480549050611b6c9190613d88565b81548110611ba3577f4e487b7100000000000000000000000000000000000000000000000000000000600052603260045260246000fd5b9060005260206000200160048281548110611be7577f4e487b7100000000000000000000000000000000000000000000000000000000600052603260045260246000fd5b90600052602060002001908054611bfd90613ee7565b611c08929190612b77565b506004805480611c41577f4e487b7100000000000000000000000000000000000000000000000000000000600052603160045260246000fd5b600190038181906000526020600020016000611c5d9190612c04565b90556001915050919050565b60056020528060005260406000206000915054906101000a900460ff1681565b60048181548110611c9957600080fd5b906000526020600020016000915090508054611cb490613ee7565b80601f0160208091040260200160405190810160405280929190818152602001828054611ce090613ee7565b8015611d2d5780601f10611d0257610100808354040283529160200191611d2d565b820191906000526020600020905b815481529060010190602001808311611d1057829003601f168201915b505050505081565b600080600090505b6004805490508160ff161015611e4857611e268360048360ff1681548110611d8e577f4e487b7100000000000000000000000000000000000000000000000000000000600052603260045260246000fd5b906000526020600020018054611da390613ee7565b80601f0160208091040260200160405190810160405280929190818152602001828054611dcf90613ee7565b8015611e1c5780601f10611df157610100808354040283529160200191611e1c565b820191906000526020600020905b815481529060010190602001808311611dff57829003601f168201915b5050505050611fe3565b15611e35576001915050611e4e565b8080611e4090613f93565b915050611d3d565b50600090505b919050565b611e5c82610bb7565b611e6d81611e68612094565b61209c565b611e778383612219565b505050565b60606004805480602002602001604051908101604052809291908181526020016000905b82821015611f4c578382906000526020600020018054611ebf90613ee7565b80601f0160208091040260200160405190810160405280929190818152602001828054611eeb90613ee7565b8015611f385780601f10611f0d57610100808354040283529160200191611f38565b820191906000526020600020905b815481529060010190602001808311611f1b57829003601f168201915b505050505081526020019060010190611ea0565b50505050905090565b60018054906101000a900473ffffffffffffffffffffffffffffffffffffffff1681565b60007f01ffc9a7000000000000000000000000000000000000000000000000000000007bffffffffffffffffffffffffffffffffffffffffffffffffffffffff1916827bffffffffffffffffffffffffffffffffffffffffffffffffffffffff1916149050919050565b600081604051602001611ff691906136f4565b604051602081830303815290604052805190602001208360405160200161201d91906136f4565b6040516020818303038152906040528051906020012014905092915050565b6000818361204a9190613ca7565b905092915050565b600081836120609190613d2e565b905092915050565b600081836120769190613cfd565b905092915050565b6000818361208c9190613d88565b905092915050565b600033905090565b6120a682826115e2565b612135576120cb8173ffffffffffffffffffffffffffffffffffffffff1660146127f7565b6120d98360001c60206127f7565b6040516020016120ea92919061370b565b6040516020818303038152906040526040517f08c379a000000000000000000000000000000000000000000000000000000000815260040161212c9190613894565b60405180910390fd5b5050565b61214382826115e2565b61221557600160008084815260200190815260200160002060000160008373ffffffffffffffffffffffffffffffffffffffff1673ffffffffffffffffffffffffffffffffffffffff16815260200190815260200160002060006101000a81548160ff0219169083151502179055506121ba612094565b73ffffffffffffffffffffffffffffffffffffffff168173ffffffffffffffffffffffffffffffffffffffff16837f2f8788117e7eff1d82e926ec794901d17c78024a50270940304540a733656f0d60405160405180910390a45b5050565b61222382826115e2565b156122f657600080600084815260200190815260200160002060000160008373ffffffffffffffffffffffffffffffffffffffff1673ffffffffffffffffffffffffffffffffffffffff16815260200190815260200160002060006101000a81548160ff02191690831515021790555061229b612094565b73ffffffffffffffffffffffffffffffffffffffff168173ffffffffffffffffffffffffffffffffffffffff16837ff6391f5c32d9c69d2a47ea670b442974b53935d1edc7fd64eb21e047a839171b60405160405180910390a45b5050565b6123026113ee565b612341576040517f08c379a0000000000000000000000000000000000000000000000000000000008152600401612338906138f6565b60405180910390fd5b6000600160006101000a81548160ff0219169083151502179055507f5db9ee0a495bf2e6ff9c91a7834c1ba4fdd244a5e8aa4e537bd38aeae4b073aa612385612094565b6040516123929190613745565b60405180910390a1565b6123cd7f8227712ef8ad39d0f26f06731ef0df8665eb7ada7f41b1ee089adf3c238862a26123c8612094565b6115e2565b61240c576040517f08c379a0000000000000000000000000000000000000000000000000000000008152600401612403906139b6565b60405180910390fd5b6124146113ee565b15612454576040517f08c379a000000000000000000000000000000000000000000000000000000000815260040161244b90613a16565b60405180910390fd5b600061246285858585611798565b90506005600082815260200190815260200160002060009054906101000a900460ff16156124c5576040517f08c379a00000000000000000000000000000000000000000000000000000000081526004016124bc90613936565b60405180910390fd5b60016005600083815260200190815260200160002060006101000a81548160ff0219169083151502179055505050505050565b600061252b7f8227712ef8ad39d0f26f06731ef0df8665eb7ada7f41b1ee089adf3c238862a2612526612094565b6115e2565b61256a576040517f08c379a0000000000000000000000000000000000000000000000000000000008152600401612561906139b6565b60405180910390fd5b6125726113ee565b156125b2576040517f08c379a00000000000000000000000000000000000000000000000000000000081526004016125a990613a16565b60405180910390fd5b8160018054906101000a900473ffffffffffffffffffffffffffffffffffffffff1673ffffffffffffffffffffffffffffffffffffffff166370a08231306040518263ffffffff1660e01b815260040161260c9190613745565b60206040518083038186803b15801561262457600080fd5b505afa158015612638573d6000803e3d6000fd5b505050506040513d601f19601f8201168201806040525081019061265c91906130be565b101561269d576040517f08c379a0000000000000000000000000000000000000000000000000000000008152600401612694906139d6565b60405180910390fd5b60018054906101000a900473ffffffffffffffffffffffffffffffffffffffff1673ffffffffffffffffffffffffffffffffffffffff1663a9059cbb84846040518363ffffffff1660e01b81526004016126f8929190613797565b602060405180830381600087803b15801561271257600080fd5b505af1158015612726573d6000803e3d6000fd5b505050506040513d601f19601f8201168201806040525081019061274a9190612f9d565b506001905092915050565b61275d6113ee565b1561279d576040517f08c379a000000000000000000000000000000000000000000000000000000000815260040161279490613a16565b60405180910390fd5b60018060006101000a81548160ff0219169083151502179055507f62e78cea01bee320cd4e420270b5ea74000d11b0c9f74754ebdbfc544b05a2586127e0612094565b6040516127ed9190613745565b60405180910390a1565b60606000600283600261280a9190613d2e565b6128149190613ca7565b67ffffffffffffffff811115612853577f4e487b7100000000000000000000000000000000000000000000000000000000600052604160045260246000fd5b6040519080825280601f01601f1916602001820160405280156128855781602001600182028036833780820191505090505b5090507f3000000000000000000000000000000000000000000000000000000000000000816000815181106128e3577f4e487b7100000000000000000000000000000000000000000000000000000000600052603260045260246000fd5b60200101907effffffffffffffffffffffffffffffffffffffffffffffffffffffffffffff1916908160001a9053507f78000000000000000000000000000000000000000000000000000000000000008160018151811061296d577f4e487b7100000000000000000000000000000000000000000000000000000000600052603260045260246000fd5b60200101907effffffffffffffffffffffffffffffffffffffffffffffffffffffffffffff1916908160001a905350600060018460026129ad9190613d2e565b6129b79190613ca7565b90505b6001811115612aa3577f3031323334353637383961626364656600000000000000000000000000000000600f861660108110612a1f577f4e487b7100000000000000000000000000000000000000000000000000000000600052603260045260246000fd5b1a60f81b828281518110612a5c577f4e487b7100000000000000000000000000000000000000000000000000000000600052603260045260246000fd5b60200101907effffffffffffffffffffffffffffffffffffffffffffffffffffffffffffff1916908160001a905350600485901c945080612a9c90613ebd565b90506129ba565b5060008414612ae7576040517f08c379a0000000000000000000000000000000000000000000000000000000008152600401612ade906138b6565b60405180910390fd5b8091505092915050565b828054612afd90613ee7565b90600052602060002090601f016020900481019282612b1f5760008555612b66565b82601f10612b3857805160ff1916838001178555612b66565b82800160010185558215612b66579182015b82811115612b65578251825591602001919060010190612b4a565b5b509050612b739190612c44565b5090565b828054612b8390613ee7565b90600052602060002090601f016020900481019282612ba55760008555612bf3565b82601f10612bb65780548555612bf3565b82800160010185558215612bf357600052602060002091601f016020900482015b82811115612bf2578254825591600101919060010190612bd7565b5b509050612c009190612c44565b5090565b508054612c1090613ee7565b6000825580601f10612c225750612c41565b601f016020900490600052602060002090810190612c409190612c44565b5b50565b5b80821115612c5d576000816000905550600101612c45565b5090565b6000612c74612c6f84613bdf565b613bba565b90508082856020860282011115612c8a57600080fd5b60005b85811015612cba5781612ca08882612e0f565b845260208401935060208301925050600181019050612c8d565b5050509392505050565b6000612cd7612cd284613c05565b613bba565b905082815260208101848484011115612cef57600080fd5b612cfa848285613e7b565b509392505050565b600081359050612d118161455e565b92915050565b600081905082602060020282011115612d2f57600080fd5b92915050565b600082601f830112612d4657600080fd5b6002612d53848285612c61565b91505092915050565b600081519050612d6b81614575565b92915050565b600081359050612d808161458c565b92915050565b600081359050612d95816145a3565b92915050565b60008083601f840112612dad57600080fd5b8235905067ffffffffffffffff811115612dc657600080fd5b602083019150836001820283011115612dde57600080fd5b9250929050565b600082601f830112612df657600080fd5b8135612e06848260208601612cc4565b91505092915050565b600081359050612e1e816145ba565b92915050565b600081519050612e33816145ba565b92915050565b600081359050612e48816145d1565b92915050565b600060208284031215612e6057600080fd5b6000612e6e84828501612d02565b91505092915050565b60008060008060008060008060e0898b031215612e9357600080fd5b6000612ea18b828c01612d02565b9850506020612eb28b828c01612e0f565b975050604089013567ffffffffffffffff811115612ecf57600080fd5b612edb8b828c01612d9b565b9650965050606089013567ffffffffffffffff811115612efa57600080fd5b612f068b828c01612d9b565b94509450506080612f198b828c01612d17565b92505060c0612f2a8b828c01612e39565b9150509295985092959890939650565b60008060008060a08587031215612f5057600080fd5b6000612f5e87828801612d17565b9450506040612f6f87828801612d02565b9350506060612f8087828801612e0f565b9250506080612f9187828801612e39565b91505092959194509250565b600060208284031215612faf57600080fd5b6000612fbd84828501612d5c565b91505092915050565b600060208284031215612fd857600080fd5b6000612fe684828501612d71565b91505092915050565b6000806040838503121561300257600080fd5b600061301085828601612d71565b925050602061302185828601612d02565b9150509250929050565b60006020828403121561303d57600080fd5b600061304b84828501612d86565b91505092915050565b60006020828403121561306657600080fd5b600082013567ffffffffffffffff81111561308057600080fd5b61308c84828501612de5565b91505092915050565b6000602082840312156130a757600080fd5b60006130b584828501612e0f565b91505092915050565b6000602082840312156130d057600080fd5b60006130de84828501612e24565b91505092915050565b60008060008060a085870312156130fd57600080fd5b600061310b87828801612e0f565b945050602061311c87828801612d35565b935050606085013567ffffffffffffffff81111561313957600080fd5b61314587828801612de5565b925050608085013567ffffffffffffffff81111561316257600080fd5b61316e87828801612de5565b91505092959194509250565b6000613186838361326d565b905092915050565b61319781613dbc565b82525050565b6131ae6131a982613dbc565b613fbd565b82525050565b60006131bf82613c46565b6131c98185613c69565b9350836020820285016131db85613c36565b8060005b8581101561321757848403895281516131f8858261317a565b945061320383613c5c565b925060208a019950506001810190506131df565b50829750879550505050505092915050565b61323281613dce565b82525050565b61324181613dda565b82525050565b61325861325382613dda565b613fcf565b82525050565b61326781613e57565b82525050565b600061327882613c51565b6132828185613c7a565b9350613292818560208601613e8a565b61329b816140c3565b840191505092915050565b60006132b182613c51565b6132bb8185613c8b565b93506132cb818560208601613e8a565b6132d4816140c3565b840191505092915050565b60006132ea82613c51565b6132f48185613c9c565b9350613304818560208601613e8a565b80840191505092915050565b600061331d602083613c8b565b9150613328826140ee565b602082019050919050565b6000613340601383613c8b565b915061334b82614117565b602082019050919050565b6000613363601483613c8b565b915061336e82614140565b602082019050919050565b6000613386601b83613c8b565b915061339182614169565b602082019050919050565b60006133a9601983613c8b565b91506133b482614192565b602082019050919050565b60006133cc601f83613c8b565b91506133d7826141bb565b602082019050919050565b60006133ef601f83613c8b565b91506133fa826141e4565b602082019050919050565b6000613412601883613c8b565b915061341d8261420d565b602082019050919050565b6000613435601383613c8b565b915061344082614236565b602082019050919050565b6000613458601c83613c8b565b91506134638261425f565b602082019050919050565b600061347b601d83613c8b565b915061348682614288565b602082019050919050565b600061349e601083613c8b565b91506134a9826142b1565b602082019050919050565b60006134c1601183613c8b565b91506134cc826142da565b602082019050919050565b60006134e4601983613c8b565b91506134ef82614303565b602082019050919050565b6000613507602183613c8b565b91506135128261432c565b604082019050919050565b600061352a601183613c8b565b91506135358261437b565b602082019050919050565b600061354d602183613c8b565b9150613558826143a4565b604082019050919050565b6000613570601483613c8b565b915061357b826143f3565b602082019050919050565b6000613593601783613c9c565b915061359e8261441c565b601782019050919050565b60006135b6602683613c8b565b91506135c182614445565b604082019050919050565b60006135d9601983613c8b565b91506135e482614494565b602082019050919050565b60006135fc601783613c8b565b9150613607826144bd565b602082019050919050565b600061361f601183613c9c565b915061362a826144e6565b601182019050919050565b6000613642602f83613c8b565b915061364d8261450f565b604082019050919050565b61366181613e30565b82525050565b61367861367382613e30565b613feb565b82525050565b61368f61368a82613e3a565b613ff5565b82525050565b60006136a18288613247565b6020820191506136b18287613247565b6020820191506136c1828661319d565b6014820191506136d18285613667565b6020820191506136e1828461367e565b6004820191508190509695505050505050565b600061370082846132df565b915081905092915050565b600061371682613586565b915061372282856132df565b915061372d82613612565b915061373982846132df565b91508190509392505050565b600060208201905061375a600083018461318e565b92915050565b6000606082019050613775600083018661318e565b613782602083018561318e565b61378f6040830184613658565b949350505050565b60006040820190506137ac600083018561318e565b6137b96020830184613658565b9392505050565b600060a0820190506137d5600083018861318e565b6137e26020830187613658565b6137ef6040830186613658565b818103606083015261380181856132a6565b9050818103608083015261381581846132a6565b90509695505050505050565b6000602082019050818103600083015261383b81846131b4565b905092915050565b60006020820190506138586000830184613229565b92915050565b60006020820190506138736000830184613238565b92915050565b600060208201905061388e600083018461325e565b92915050565b600060208201905081810360008301526138ae81846132a6565b905092915050565b600060208201905081810360008301526138cf81613310565b9050919050565b600060208201905081810360008301526138ef81613333565b9050919050565b6000602082019050818103600083015261390f81613356565b9050919050565b6000602082019050818103600083015261392f81613379565b9050919050565b6000602082019050818103600083015261394f8161339c565b9050919050565b6000602082019050818103600083015261396f816133bf565b9050919050565b6000602082019050818103600083015261398f816133e2565b9050919050565b600060208201905081810360008301526139af81613405565b9050919050565b600060208201905081810360008301526139cf81613428565b9050919050565b600060208201905081810360008301526139ef8161344b565b9050919050565b60006020820190508181036000830152613a0f8161346e565b9050919050565b60006020820190508181036000830152613a2f81613491565b9050919050565b60006020820190508181036000830152613a4f816134b4565b9050919050565b60006020820190508181036000830152613a6f816134d7565b9050919050565b60006020820190508181036000830152613a8f816134fa565b9050919050565b60006020820190508181036000830152613aaf8161351d565b9050919050565b60006020820190508181036000830152613acf81613540565b9050919050565b60006020820190508181036000830152613aef81613563565b9050919050565b60006020820190508181036000830152613b0f816135a9565b9050919050565b60006020820190508181036000830152613b2f816135cc565b9050919050565b60006020820190508181036000830152613b4f816135ef565b9050919050565b60006020820190508181036000830152613b6f81613635565b9050919050565b6000602082019050613b8b6000830184613658565b92915050565b6000604082019050613ba66000830185613658565b613bb36020830184613658565b9392505050565b6000613bc4613bd5565b9050613bd08282613f19565b919050565b6000604051905090565b600067ffffffffffffffff821115613bfa57613bf9614094565b5b602082029050919050565b600067ffffffffffffffff821115613c2057613c1f614094565b5b613c29826140c3565b9050602081019050919050565b6000819050602082019050919050565b600081519050919050565b600081519050919050565b6000602082019050919050565b600082825260208201905092915050565b600082825260208201905092915050565b600082825260208201905092915050565b600081905092915050565b6000613cb282613e30565b9150613cbd83613e30565b9250827fffffffffffffffffffffffffffffffffffffffffffffffffffffffffffffffff03821115613cf257613cf1614007565b5b828201905092915050565b6000613d0882613e30565b9150613d1383613e30565b925082613d2357613d22614036565b5b828204905092915050565b6000613d3982613e30565b9150613d4483613e30565b9250817fffffffffffffffffffffffffffffffffffffffffffffffffffffffffffffffff0483118215151615613d7d57613d7c614007565b5b828202905092915050565b6000613d9382613e30565b9150613d9e83613e30565b925082821015613db157613db0614007565b5b828203905092915050565b6000613dc782613e10565b9050919050565b60008115159050919050565b6000819050919050565b60007fffffffff0000000000000000000000000000000000000000000000000000000082169050919050565b600073ffffffffffffffffffffffffffffffffffffffff82169050919050565b6000819050919050565b600063ffffffff82169050919050565b600060ff82169050919050565b6000613e6282613e69565b9050919050565b6000613e7482613e10565b9050919050565b82818337600083830152505050565b60005b83811015613ea8578082015181840152602081019050613e8d565b83811115613eb7576000848401525b50505050565b6000613ec882613e30565b91506000821415613edc57613edb614007565b5b600182039050919050565b60006002820490506001821680613eff57607f821691505b60208210811415613f1357613f12614065565b5b50919050565b613f22826140c3565b810181811067ffffffffffffffff82111715613f4157613f40614094565b5b80604052505050565b6000613f5582613e30565b91507fffffffffffffffffffffffffffffffffffffffffffffffffffffffffffffffff821415613f8857613f87614007565b5b600182019050919050565b6000613f9e82613e4a565b915060ff821415613fb257613fb1614007565b5b600182019050919050565b6000613fc882613fd9565b9050919050565b6000819050919050565b6000613fe4826140e1565b9050919050565b6000819050919050565b6000614000826140d4565b9050919050565b7f4e487b7100000000000000000000000000000000000000000000000000000000600052601160045260246000fd5b7f4e487b7100000000000000000000000000000000000000000000000000000000600052601260045260246000fd5b7f4e487b7100000000000000000000000000000000000000000000000000000000600052602260045260246000fd5b7f4e487b7100000000000000000000000000000000000000000000000000000000600052604160045260246000fd5b6000601f19601f8301169050919050565b60008160e01b9050919050565b60008160601b9050919050565b7f537472696e67733a20686578206c656e67746820696e73756666696369656e74600082015250565b7f4272696467653a20616d6f756e74206973203000000000000000000000000000600082015250565b7f5061757361626c653a206e6f7420706175736564000000000000000000000000600082015250565b7f4272696467653a20696e737566696369656e742062616c616e63650000000000600082015250565b7f4272696467653a20616c72656164792070726f63657373656400000000000000600082015250565b7f4272696467653a207472616e73616374696f6e48617368206973206e756c6c00600082015250565b7f4272696467653a20746f426c6f636b636861696e206e6f742065786973747300600082015250565b7f4272696467653a207265636569766572206973207a65726f0000000000000000600082015250565b7f4272696467653a206e6f74206d6f6e69746f7200000000000000000000000000600082015250565b7f4272696467653a20696e73756666696369656e742062616c616e636500000000600082015250565b7f4272696467653a20626c6f636b636861696e206e6f7420657869737473000000600082015250565b7f5061757361626c653a2070617573656400000000000000000000000000000000600082015250565b7f4272696467653a206e6f2073656e646572000000000000000000000000000000600082015250565b7f4272696467653a20626c6f636b48617368206973206e756c6c00000000000000600082015250565b7f4272696467653a2066726f6d426c6f636b636861696e206e6f7420657869737460008201527f7300000000000000000000000000000000000000000000000000000000000000602082015250565b7f4272696467653a206e6f74206f776e6572000000000000000000000000000000600082015250565b7f4272696467653a20626c6f636b636861696e20616c726561647920657869737460008201527f7300000000000000000000000000000000000000000000000000000000000000602082015250565b7f4272696467653a207a65726f2061646472657373000000000000000000000000600082015250565b7f416363657373436f6e74726f6c3a206163636f756e7420000000000000000000600082015250565b7f4272696467653a207265717569726573206174206c65617374203120626c6f6360008201527f6b636861696e0000000000000000000000000000000000000000000000000000602082015250565b7f4272696467653a20746f41646472657373206973206e756c6c00000000000000600082015250565b7f4272696467653a20626967676572207468616e20313025000000000000000000600082015250565b7f206973206d697373696e6720726f6c6520000000000000000000000000000000600082015250565b7f416363657373436f6e74726f6c3a2063616e206f6e6c792072656e6f756e636560008201527f20726f6c657320666f722073656c660000000000000000000000000000000000602082015250565b61456781613dbc565b811461457257600080fd5b50565b61457e81613dce565b811461458957600080fd5b50565b61459581613dda565b81146145a057600080fd5b50565b6145ac81613de4565b81146145b757600080fd5b50565b6145c381613e30565b81146145ce57600080fd5b50565b6145da81613e3a565b81146145e557600080fd5b5056fea2646970667358221220f1b03fa53298ab908d3b97c3c634633cd9cc2b58972bbe006e12637adab9e00864736f6c63430008040033",
  "immutableReferences": {},
  "source": "// SPDX-License-Identifier: MIT\npragma solidity 0.8.4;\n\n/// @title BRZ token Bridge\n/// @author Solange Gueiros\n\n// Inpired on https://github.com/rsksmart/tokenbridge/blob/master/bridge/contracts/Bridge.sol\n\n// AccessControl.sol :  https://github.com/OpenZeppelin/openzeppelin-contracts/blob/v4.1.0/contracts/access/AccessControl.sol\n// Pausable.sol :       https://github.com/OpenZeppelin/openzeppelin-contracts/blob/v4.1.0/contracts/security/Pausable.sol\n// SafeMath.sol :       https://github.com/OpenZeppelin/openzeppelin-contracts/blob/v4.1.0/contracts/utils/math/SafeMath.sol\nimport \"./ozeppelin/access/AccessControl.sol\";\nimport \"./ozeppelin/security/Pausable.sol\";\nimport \"./ozeppelin/utils/math/SafeMath.sol\";\nimport \"./IBridge.sol\";\n\n/**\n * @dev BRZ token Bridge\n *\n * Author: Solange Gueiros\n *\n * Smart contract to cross the BRZ token between EVM compatible blockchains.\n *\n * The tokens are crossed by TransferoSwiss, the company that controls the issuance of BRZs.\n *\n * It uses [Open Zeppelin Contracts]\n * (https://github.com/OpenZeppelin/openzeppelin-contracts/blob/v4.1.0/)\n *\n */\ncontract Bridge is AccessControl, IBridge, Pausable {\n  using SafeMath for uint256;\n\n  address private constant ZERO_ADDRESS = address(0);\n  bytes32 private constant NULL_HASH = bytes32(0);\n  bytes32 public constant MONITOR_ROLE = keccak256(\"MONITOR_ROLE\");\n\n  /**\n   * @dev DECIMALPERCENT is the representation of 100% using (2) decimal places\n   * 100.00 = percentage accuracy (2) to 100%\n   */\n  uint256 public constant DECIMALPERCENT = 10000;\n\n  IERC20 public token;\n  uint256 private totalFeeReceivedBridge; //fee received per Bridge, not for transaction in other blockchain\n  uint256 private feePercentageBridge; //Include 2 decimal places\n  string[] public blockchain;\n  mapping(bytes32 => bool) public processed;\n\n  /**\n   * @dev Function called only when the smart contract is deployed.\n   *\n   * Parameters:\n   * - address tokenAddress - address of BRZ token used in this blockchain network\n   *\n   * Actions:\n   * - the transaction's sender will be added in the DEFAULT_ADMIN_ROLE.\n   * - the token will be defined by the parameter tokenAddress\n   * - the feePercentageBridge default value is be setted in 10, which means 0.1%\n   */\n  constructor(address tokenAddress) {\n    _setupRole(DEFAULT_ADMIN_ROLE, _msgSender());\n    token = IERC20(tokenAddress);\n    feePercentageBridge = 10; //0.1%\n  }\n\n  /**\n   * @dev Modifier which verifies if the caller is an owner,\n   * it means he has the role `DEFAULT_ADMIN_ROLE`.\n   *\n   * The role `DEFAULT_ADMIN_ROLE` is defined by Open Zeppelin's AccessControl smart contract.\n   *\n   * By default (setted in the constructor) the account which deployed this smart contract is in this role.\n   *\n   * This owner can add / remove other owners.\n   */\n  modifier onlyOwner() {\n    require(hasRole(DEFAULT_ADMIN_ROLE, _msgSender()), \"Bridge: not owner\");\n    _;\n  }\n\n  /**\n   * @dev Modifier which verifies if the caller is a monitor,\n   * it means he has the role `MONITOR_ROLE`.\n   *\n   * Role MONITOR are referred to its `bytes32` identifier,\n   * defined in the `public constant` called MONITOR_ROLE.\n   * It should be exposed in the external API and be unique.\n   *\n   * Role MONITOR is used to manage the permissions of monitor's addresses.\n   */\n  modifier onlyMonitor() {\n    require(hasRole(MONITOR_ROLE, _msgSender()), \"Bridge: not monitor\");\n    _;\n  }\n\n  /**\n   * @dev Function which returns the bridge's version.\n   *\n   * This is a fixed value define in source code.\n   *\n   * Parameters: none\n   *\n   * Returns: string\n   */\n  function version() external pure override returns (string memory) {\n    return \"v0\";\n  }\n\n  /**\n   * @dev Private function to compare two strings\n   * and returns `true` if the strings are equal,\n   * otherwise it returns false.\n   *\n   * Parameters: stringA, stringB\n   *\n   * Returns: bool\n   */\n  function compareStrings(string memory a, string memory b)\n    private\n    pure\n    returns (bool)\n  {\n    return (keccak256(abi.encodePacked((a))) ==\n      keccak256(abi.encodePacked((b))));\n  }\n\n  /**\n   * @dev This function starts the process of crossing tokens in the Bridge.\n   *\n   * > Any account / person can call it!\n   *\n   * Can not be called if the Bridge is paused.\n   *\n   * Parameters:\n   * - amount - gross amount of tokens to be crossed.\n   * - The Bridge fee will be deducted from this amount.\n   * - transactionFee - array with the fees:\n   *   - transactionFee[0] - fee in BRL - this fee will be added to amount transfered from caller's account.\n   *   - transactionFee[1] - fee in destiny currency(minor unit) - this information will be\n   * used in the destination Blockchain,\n   * by the monitor who will create the transaction and send using this fee defined here.\n   * - toBlockchain - the amount will be sent to this blockchain.\n   * - toAddress - the amount will be sent to this address. It can be diferent from caller's address.\n   * This is a string because some blockchain could not have the same pattern from Etherem / RSK / BSC.\n   *\n   * Returns: bool - true if it is sucessful.\n   *\n   * #### More info about fees\n   *\n   * - Blockchain / transaction fee in BRL - it will be transfered from user's account,\n   * along with the amount he would like to receive in the account.\n   * This will be spent in `toBlockchain`.\n   * Does not depend of amount, but of destination blockchain.\n   *\n   * - Bridge Fee - it is deducted from the requested amount.\n   * It is a percentage of the requested amount.\n   * Cannot include the transaction fee in order to be calculated.\n   *\n   * > Before call this function, the caller MUST have called function `approve` in BRZ token,\n   * > allowing the bridge's smart contract address to use the BRZ tokens,\n   * > calling the function `transferFrom`.\n   *\n   * References:\n   *\n   * ERC-20 tokens approve and transferFrom pattern:\n   * [eip-20#transferfrom](https://eips.ethereum.org/EIPS/eip-20#transferfrom)\n   *\n   * Requirements:\n   * - toBlockchain exists.\n   * - toAddress is not an empty string.\n   * - amount greater than zero.\n   *\n   * Actions:\n   * - add the blockchain fee in BRZ to amount in BRZ, in totalAmount.\n   * - calculate bridge's fee using the original amount to be sent.\n   * - discount bridge's fee from the original amount, in amountMinusFees.\n   * - add bridge's fee to `totalFeeReceivedBridge`, a variable to store all the fees received by the bridge.\n   * - BRZ transfer totalAmount from the caller's address to bridge address.\n   * - emit `CrossRequest` event, with the parameters:\n   *   - from - address of the caller's function.\n   *   - amount - the net amount to be transfered in the destination blockchain.\n   *   - toFee - the fee which must be used to send the transfer transaction in the destination blockchain.\n   *   - toAddress - string representing the address which will receive the tokens.\n   *   - toBlockchain - the destination blockchain.\n   *\n   * > The `CrossRequest` event is very important because it must be listened by the monitor,\n   * an external program which will\n   * send the transaction on the destination blockchain.\n   *\n   */\n  function receiveTokens(\n    uint256 amount,\n    uint256[2] memory transactionFee,\n    string memory toBlockchain,\n    string memory toAddress\n  ) external override whenNotPaused returns (bool) {\n    require(existsBlockchain(toBlockchain), \"Bridge: toBlockchain not exists\");\n    require(!compareStrings(toAddress, \"\"), \"Bridge: toAddress is null\");\n    require(amount > 0, \"Bridge: amount is 0\");\n\n    //The total amount is the amount desired plus the blockchain fee to destination, in the token unit\n    uint256 totalAmount = amount.add(transactionFee[0]);\n\n    //Bridge Fee\n    uint256 bridgeFee = amount.mul(feePercentageBridge).div(DECIMALPERCENT);\n    uint256 amountMinusFees = amount.sub(bridgeFee);\n    totalFeeReceivedBridge = totalFeeReceivedBridge.add(bridgeFee);\n\n    //This is the message for Monitor off-chain manage the transaction and send the tokens on the other Blockchain\n    emit CrossRequest(\n      _msgSender(),\n      amountMinusFees,\n      transactionFee[1],\n      toAddress,\n      toBlockchain\n    );\n\n    //Transfer the tokens on IERC20, they should be already approved for the bridge Address to use them\n    token.transferFrom(_msgSender(), address(this), totalAmount);\n    return true;\n  }\n\n  /**\n   * @dev This function calculate a transaction id hash.\n   *\n   * Any person can call it.\n   *\n   * Parameters:\n   * - hashes - from transaction in the origin blockchain:\n   *   - blockHash - hash of the block where was the transaction `receiveTokens`\n   *   - transactionHash - hash of the transaction `receiveTokens` with the event `CrossRequest`.\n   * - receiver - the address which will receive the tokens.\n   * - amount - the net amount to be transfered.\n   * - logIndex - the index of the event `CrossRequest` in the logs of transaction.\n   *\n   * Returns: a bytes32 hash of all the information sent.\n   *\n   * Notes:\n   * It did not use origin blockchain and sender address\n   * because the possibility of having the same origin transaction from different blockchain source is minimal.\n   *\n   * It is a point to be evaluated in an audit.\n   *\n   */\n  function getTransactionId(\n    bytes32[2] calldata hashes, //blockHash, transactionHash\n    address receiver,\n    uint256 amount,\n    uint32 logIndex\n  ) public pure override returns (bytes32) {\n    return\n      keccak256(\n        abi.encodePacked(hashes[0], hashes[1], receiver, amount, logIndex)\n      );\n  }\n\n  /**\n   * @dev This function update the variable processed for a transaction\n   *\n   * > Only monitor can call it!\n   *\n   * This variable is a public mapping.\n   *\n   * Each bytes32 which represents a Transaction Id has his boolen value stored.\n   *\n   */\n  function _processTransaction(\n    bytes32[2] calldata hashes, //blockHash, transactionHash\n    address receiver,\n    uint256 amount,\n    uint32 logIndex\n  ) private onlyMonitor whenNotPaused {\n    bytes32 transactionId = getTransactionId(\n      hashes,\n      receiver,\n      amount,\n      logIndex\n    );\n    require(!processed[transactionId], \"Bridge: already processed\");\n    processed[transactionId] = true;\n  }\n\n  /**\n   * @dev This function transfer token from bridge to destionation address\n   *\n   * > Only monitor can call it!\n   *\n   */\n  function _sendToken(address to, uint256 amount)\n    private\n    onlyMonitor\n    whenNotPaused\n    returns (bool)\n  {\n    require(\n      token.balanceOf(address(this)) >= amount,\n      \"Bridge: insufficient balance\"\n    );\n    token.transfer(to, amount);\n    return true;\n  }\n\n  /**\n   * @dev This function accept the cross of token,\n   * which means it is called in the destination blockchain, who will send the tokens accepted to be crossed.\n   *\n   * > Only monitor can call it!\n   *\n   * Can not be called if the Bridge is paused.\n   *\n   * Parameters:\n   * - receiver - the address which will receive the tokens.\n   * - amount - the net amount to be transfered.\n   * - sender - string representing the address of the token's sender.\n   * - fromBlockchain - the origin blockchain.\n   * - hashes - from transaction in the origin blockchain:\n   *   - blockHash - hash of the block where was the transaction `receiveTokens`.\n   *   - transactionHash - hash of the transaction `receiveTokens` with the event `CrossRequest`.\n   * - logIndex - the index of the event `CrossRequest` in the transaction logs.\n   *\n   * Returns: bool - true if it is sucessful\n   *\n   * Requirements:\n   * - receiver is not a zero address.\n   * - amount greater than zero.\n   * - sender is not an empty string.\n   * - fromBlockchain exists.\n   * - blockHash is not null hash.\n   * - transactionHash is not hash.\n   *\n   * Actions:\n   * - processTransaction:\n   *   - getTransactionId\n   *   - verify if the transactionId was already processed\n   *   - update the status processed for transactionId\n   * - sendToken:\n   *   - check if the bridge has in his balance at least the amount required to do the transfer\n   *   - transfer the amount tokens to destination address\n   *\n   */\n  function acceptTransfer(\n    address receiver,\n    uint256 amount,\n    string calldata sender,\n    string calldata fromBlockchain,\n    bytes32[2] calldata hashes, //blockHash, transactionHash\n    uint32 logIndex\n  ) external override onlyMonitor whenNotPaused returns (bool) {\n    require(receiver != ZERO_ADDRESS, \"Bridge: receiver is zero\");\n    require(amount > 0, \"Bridge: amount is 0\");\n    require(bytes(sender).length > 0, \"Bridge: no sender\");\n    require(\n      existsBlockchain(fromBlockchain),\n      \"Bridge: fromBlockchain not exists\"\n    );\n    require(hashes[0] != NULL_HASH, \"Bridge: blockHash is null\");\n    require(hashes[1] != NULL_HASH, \"Bridge: transactionHash is null\");\n\n    _processTransaction(hashes, receiver, amount, logIndex);\n    _sendToken(receiver, amount);\n    return true;\n  }\n\n  /**\n   * @dev This function add an address in the `MONITOR_ROLE`.\n   *\n   * Only owner can call it.\n   *\n   * Can not be called if the Bridge is paused.\n   *\n   * Parameters: address of monitor to be added\n   *\n   * Returns: bool - true if it is sucessful\n   *\n   */\n  function addMonitor(address monitorAddress)\n    external\n    onlyOwner\n    whenNotPaused\n    returns (bool)\n  {\n    grantRole(MONITOR_ROLE, monitorAddress);\n    return true;\n  }\n\n  /**\n   * @dev This function excludes an address in the `MONITOR_ROLE`.\n   *\n   * Only owner can call it.\n   *\n   * Can not be called if the Bridge is paused.\n   *\n   * Parameters: address of monitor to be excluded\n   *\n   * Returns: bool - true if it is sucessful\n   *\n   */\n  function delMonitor(address monitorAddress)\n    external\n    onlyOwner\n    whenNotPaused\n    returns (bool)\n  {\n    //Can be called only by the account defined in constructor: DEFAULT_ADMIN_ROLE\n    revokeRole(MONITOR_ROLE, monitorAddress);\n    return true;\n  }\n\n  /**\n   * @dev This function update the fee percentage bridge.\n   *\n   * Only owner can call it.\n   *\n   * Can not be called if the Bridge is paused.\n   *\n   * Parameters: integer, the new fee\n   *\n   * Returns: bool - true if it is sucessful\n   *\n   * Requirements:\n   * - The new fee must be lower than 10% .\n   *\n   * Emit the event `FeePercentageBridgeChanged(oldFee, newFee)`.\n   *\n   */\n  function setFeePercentageBridge(uint256 newFee)\n    external\n    onlyOwner\n    whenNotPaused\n    returns (bool)\n  {\n    require(newFee < (DECIMALPERCENT / 10), \"Bridge: bigger than 10%\");\n    emit FeePercentageBridgeChanged(feePercentageBridge, newFee);\n    feePercentageBridge = newFee;\n    return true;\n  }\n\n  /**\n   * @dev Returns the fee percentage bridge.\n   *\n   * For each amount received in the bridge, a fee percentage is discounted.\n   * This function returns this fee percentage bridge.\n   *\n   * Parameters: none\n   *\n   * Returns: integer\n   *\n   */\n  function getFeePercentageBridge() external view override returns (uint256) {\n    return feePercentageBridge;\n  }\n\n  /**\n   * @dev This function update the BRZ token.\n   *\n   * Only owner can call it.\n   *\n   * Can not be called if the Bridge is paused.\n   *\n   * Parameters: address of new BRZ token\n   *\n   * Returns: bool - true if it is sucessful\n   *\n   * Requirements:\n   * - The token address must not be a zero address.\n   *\n   * Emit the event `TokenChanged(tokenAddress)`.\n   *\n   */\n  function setToken(address tokenAddress)\n    external\n    onlyOwner\n    whenNotPaused\n    returns (bool)\n  {\n    require(tokenAddress != ZERO_ADDRESS, \"Bridge: zero address\");\n    emit TokenChanged(tokenAddress);\n    token = IERC20(tokenAddress);\n    return true;\n  }\n\n  /**\n   * @dev Returns total of fees received by bridge.\n   *\n   * Parameters: none\n   *\n   * Returns: integer\n   *\n   */\n  function getTotalFeeReceivedBridge()\n    external\n    view\n    override\n    returns (uint256)\n  {\n    return totalFeeReceivedBridge;\n  }\n\n  /**\n   * @dev Returns token balance in bridge.\n   *\n   * Parameters: none\n   *\n   * Returns: integer amount of tokens in bridge\n   *\n   */\n  function getTokenBalance() external view override returns (uint256) {\n    return token.balanceOf(address(this));\n  }\n\n  /**\n   * @dev Withdraw tokens from bridge\n   *\n   * Only owner can call it.\n   *\n   * Can be called even if the Bridge is paused,\n   * because can happens a problem and it is necessary to withdraw tokens,\n   * maybe to create a new version of bridge, for example.\n   *\n   * The tokens only can be sent to the caller's function.\n   *\n   * Parameters: integer amount of tokens\n   *\n   * Returns: true if it is successful\n   *\n   * Requirements:\n   * - amount less or equal balance of tokens in bridge.\n   *\n   */\n  function withdrawToken(uint256 amount) external onlyOwner returns (bool) {\n    require(\n      amount <= token.balanceOf(address(this)),\n      \"Bridge: insuficient balance\"\n    );\n    token.transfer(_msgSender(), amount);\n    return true;\n  }\n\n  /**\n   * @dev Returns if a blockchain is in the list of allowed blockchains to cross tokens using the bridge.\n   *\n   * Parameters: string name of blockchain\n   *\n   * Returns: boolean true if it is in the list\n   *\n   */\n  function existsBlockchain(string memory name)\n    public\n    view\n    override\n    returns (bool)\n  {\n    for (uint8 i = 0; i < blockchain.length; i++) {\n      if (compareStrings(name, blockchain[i])) {\n        return true;\n      }\n    }\n    return false;\n  }\n\n  /**\n   * @dev List of blockchains allowed to cross tokens using the bridge.\n   *\n   * Parameters: none\n   *\n   * Returns: an array of strings containing the blockchain list\n   *\n   */\n  function listBlockchain() external view override returns (string[] memory) {\n    return blockchain;\n  }\n\n  /**\n   * @dev This function include a new blockchain in the list of allowed blockchains used in the bridge.\n   *\n   * Only owner can call it.\n   *\n   * Can not be called if the Bridge is paused.\n   *\n   * Parameters: string name of blockchain to be added\n   *\n   * Returns: index of blockchain in the array\n   *\n   * Requirements:\n   * - blockchain not exists.\n   *\n   */\n  function addBlockchain(string memory name)\n    external\n    onlyOwner\n    whenNotPaused\n    returns (uint256)\n  {\n    require(!existsBlockchain(name), \"Bridge: blockchain already exists\");\n    blockchain.push(name);\n    return (blockchain.length - 1);\n  }\n\n  /**\n   * @dev This function exclude a blockchain in the list of allowed blockchains used in the bridge.\n   *\n   * Only owner can call it.\n   *\n   * Can not be called if the Bridge is paused.\n   *\n   * Parameters: string name of blockchain to be excluded\n   *\n   * Returns: bool - true if it is sucessful\n   *\n   * Requirements:\n   * - blockchain exists.\n   * - there must be at least one blockchain left.\n   *\n   */\n  function delBlockchain(string memory name)\n    external\n    onlyOwner\n    whenNotPaused\n    returns (bool)\n  {\n    require(existsBlockchain(name), \"Bridge: blockchain not exists\");\n    require(blockchain.length > 1, \"Bridge: requires at least 1 blockchain\");\n\n    uint256 index;\n    for (uint256 i = 0; i < blockchain.length; i++) {\n      if (compareStrings(name, blockchain[i])) {\n        index = i;\n        break;\n      }\n    }\n    blockchain[index] = blockchain[blockchain.length - 1];\n    blockchain.pop();\n    return true;\n  }\n\n  /**\n   * @dev This function pauses the bridge.\n   *\n   * Only owner can call it.\n   *\n   * Parameters: none\n   *\n   * Returns: none\n   *\n   * Requirements:\n   *\n   * - The contract must not be paused.\n   *\n   */\n  function pause() external onlyOwner {\n    /**\n     * @dev See {Pausable-_pause}.\n     *\n     * Requirements:\n     *\n     * - The contract must not be paused.\n     */\n    _pause();\n  }\n\n  /**\n  * @dev This function unpauses the bridge.\n  *\n  * Only owner can call it.\n  * \n  * Parameters: none\n  *\n  * Returns: none\n  *\n  * Requirements:\n  *\n  * - The contract must be paused.\n  &  \n  */\n  function unpause() external onlyOwner {\n    /**\n     * @dev See {Pausable-_unpause}.\n     *\n     * Requirements:\n     *\n     * - The contract must be paused.\n     */\n    _unpause();\n  }\n}\n",
  "sourcePath": "C:\\BLOCKCHAIN\\TRANSFERO\\GITHUB\\brz-token-bridge-SOL\\contracts\\Bridge.sol",
  "compiler": {
    "name": "solc",
    "version": "0.8.4+commit.c7e474f2.Emscripten.clang"
  },
  "schemaVersion": "3.4.3",
  "updatedAt": "2021-09-02T15:07:50.955Z",
  "devdoc": {
    "details": "BRZ token Bridge Author: Solange Gueiros Smart contract to cross the BRZ token between EVM compatible blockchains. The tokens are crossed by TransferoSwiss, the company that controls the issuance of BRZs. It uses [Open Zeppelin Contracts] (https://github.com/OpenZeppelin/openzeppelin-contracts/blob/v4.1.0/)",
    "kind": "dev",
    "methods": {
      "acceptTransfer(address,uint256,string,string,bytes32[2],uint32)": {
        "details": "This function accept the cross of token, which means it is called in the destination blockchain, who will send the tokens accepted to be crossed. > Only monitor can call it! Can not be called if the Bridge is paused. Parameters: - receiver - the address which will receive the tokens. - amount - the net amount to be transfered. - sender - string representing the address of the token's sender. - fromBlockchain - the origin blockchain. - hashes - from transaction in the origin blockchain:   - blockHash - hash of the block where was the transaction `receiveTokens`.   - transactionHash - hash of the transaction `receiveTokens` with the event `CrossRequest`. - logIndex - the index of the event `CrossRequest` in the transaction logs. Returns: bool - true if it is sucessful Requirements: - receiver is not a zero address. - amount greater than zero. - sender is not an empty string. - fromBlockchain exists. - blockHash is not null hash. - transactionHash is not hash. Actions: - processTransaction:   - getTransactionId   - verify if the transactionId was already processed   - update the status processed for transactionId - sendToken:   - check if the bridge has in his balance at least the amount required to do the transfer   - transfer the amount tokens to destination address"
      },
      "addBlockchain(string)": {
        "details": "This function include a new blockchain in the list of allowed blockchains used in the bridge. Only owner can call it. Can not be called if the Bridge is paused. Parameters: string name of blockchain to be added Returns: index of blockchain in the array Requirements: - blockchain not exists."
      },
      "addMonitor(address)": {
        "details": "This function add an address in the `MONITOR_ROLE`. Only owner can call it. Can not be called if the Bridge is paused. Parameters: address of monitor to be added Returns: bool - true if it is sucessful"
      },
      "constructor": {
        "details": "Function called only when the smart contract is deployed. Parameters: - address tokenAddress - address of BRZ token used in this blockchain network Actions: - the transaction's sender will be added in the DEFAULT_ADMIN_ROLE. - the token will be defined by the parameter tokenAddress - the feePercentageBridge default value is be setted in 10, which means 0.1%"
      },
      "delBlockchain(string)": {
        "details": "This function exclude a blockchain in the list of allowed blockchains used in the bridge. Only owner can call it. Can not be called if the Bridge is paused. Parameters: string name of blockchain to be excluded Returns: bool - true if it is sucessful Requirements: - blockchain exists. - there must be at least one blockchain left."
      },
      "delMonitor(address)": {
        "details": "This function excludes an address in the `MONITOR_ROLE`. Only owner can call it. Can not be called if the Bridge is paused. Parameters: address of monitor to be excluded Returns: bool - true if it is sucessful"
      },
      "existsBlockchain(string)": {
        "details": "Returns if a blockchain is in the list of allowed blockchains to cross tokens using the bridge. Parameters: string name of blockchain Returns: boolean true if it is in the list"
      },
      "getFeePercentageBridge()": {
        "details": "Returns the fee percentage bridge. For each amount received in the bridge, a fee percentage is discounted. This function returns this fee percentage bridge. Parameters: none Returns: integer"
      },
      "getRoleAdmin(bytes32)": {
        "details": "Returns the admin role that controls `role`. See {grantRole} and {revokeRole}. To change a role's admin, use {_setRoleAdmin}."
      },
      "getTokenBalance()": {
        "details": "Returns token balance in bridge. Parameters: none Returns: integer amount of tokens in bridge"
      },
      "getTotalFeeReceivedBridge()": {
        "details": "Returns total of fees received by bridge. Parameters: none Returns: integer"
      },
      "getTransactionId(bytes32[2],address,uint256,uint32)": {
        "details": "This function calculate a transaction id hash. Any person can call it. Parameters: - hashes - from transaction in the origin blockchain:   - blockHash - hash of the block where was the transaction `receiveTokens`   - transactionHash - hash of the transaction `receiveTokens` with the event `CrossRequest`. - receiver - the address which will receive the tokens. - amount - the net amount to be transfered. - logIndex - the index of the event `CrossRequest` in the logs of transaction. Returns: a bytes32 hash of all the information sent. Notes: It did not use origin blockchain and sender address because the possibility of having the same origin transaction from different blockchain source is minimal. It is a point to be evaluated in an audit."
      },
      "grantRole(bytes32,address)": {
        "details": "Grants `role` to `account`. If `account` had not been already granted `role`, emits a {RoleGranted} event. Requirements: - the caller must have ``role``'s admin role."
      },
      "hasRole(bytes32,address)": {
        "details": "Returns `true` if `account` has been granted `role`."
      },
      "listBlockchain()": {
        "details": "List of blockchains allowed to cross tokens using the bridge. Parameters: none Returns: an array of strings containing the blockchain list"
      },
      "pause()": {
        "details": "This function pauses the bridge. Only owner can call it. Parameters: none Returns: none Requirements: - The contract must not be paused."
      },
      "paused()": {
        "details": "Returns true if the contract is paused, and false otherwise."
      },
      "receiveTokens(uint256,uint256[2],string,string)": {
        "details": "This function starts the process of crossing tokens in the Bridge. > Any account / person can call it! Can not be called if the Bridge is paused. Parameters: - amount - gross amount of tokens to be crossed. - The Bridge fee will be deducted from this amount. - transactionFee - array with the fees:   - transactionFee[0] - fee in BRL - this fee will be added to amount transfered from caller's account.   - transactionFee[1] - fee in destiny currency(minor unit) - this information will be used in the destination Blockchain, by the monitor who will create the transaction and send using this fee defined here. - toBlockchain - the amount will be sent to this blockchain. - toAddress - the amount will be sent to this address. It can be diferent from caller's address. This is a string because some blockchain could not have the same pattern from Etherem / RSK / BSC. Returns: bool - true if it is sucessful. #### More info about fees - Blockchain / transaction fee in BRL - it will be transfered from user's account, along with the amount he would like to receive in the account. This will be spent in `toBlockchain`. Does not depend of amount, but of destination blockchain. - Bridge Fee - it is deducted from the requested amount. It is a percentage of the requested amount. Cannot include the transaction fee in order to be calculated. > Before call this function, the caller MUST have called function `approve` in BRZ token, > allowing the bridge's smart contract address to use the BRZ tokens, > calling the function `transferFrom`. References: ERC-20 tokens approve and transferFrom pattern: [eip-20#transferfrom](https://eips.ethereum.org/EIPS/eip-20#transferfrom) Requirements: - toBlockchain exists. - toAddress is not an empty string. - amount greater than zero. Actions: - add the blockchain fee in BRZ to amount in BRZ, in totalAmount. - calculate bridge's fee using the original amount to be sent. - discount bridge's fee from the original amount, in amountMinusFees. - add bridge's fee to `totalFeeReceivedBridge`, a variable to store all the fees received by the bridge. - BRZ transfer totalAmount from the caller's address to bridge address. - emit `CrossRequest` event, with the parameters:   - from - address of the caller's function.   - amount - the net amount to be transfered in the destination blockchain.   - toFee - the fee which must be used to send the transfer transaction in the destination blockchain.   - toAddress - string representing the address which will receive the tokens.   - toBlockchain - the destination blockchain. > The `CrossRequest` event is very important because it must be listened by the monitor, an external program which will send the transaction on the destination blockchain."
      },
      "renounceRole(bytes32,address)": {
        "details": "Revokes `role` from the calling account. Roles are often managed via {grantRole} and {revokeRole}: this function's purpose is to provide a mechanism for accounts to lose their privileges if they are compromised (such as when a trusted device is misplaced). If the calling account had been granted `role`, emits a {RoleRevoked} event. Requirements: - the caller must be `account`."
      },
      "revokeRole(bytes32,address)": {
        "details": "Revokes `role` from `account`. If `account` had been granted `role`, emits a {RoleRevoked} event. Requirements: - the caller must have ``role``'s admin role."
      },
      "setFeePercentageBridge(uint256)": {
        "details": "This function update the fee percentage bridge. Only owner can call it. Can not be called if the Bridge is paused. Parameters: integer, the new fee Returns: bool - true if it is sucessful Requirements: - The new fee must be lower than 10% . Emit the event `FeePercentageBridgeChanged(oldFee, newFee)`."
      },
      "setToken(address)": {
        "details": "This function update the BRZ token. Only owner can call it. Can not be called if the Bridge is paused. Parameters: address of new BRZ token Returns: bool - true if it is sucessful Requirements: - The token address must not be a zero address. Emit the event `TokenChanged(tokenAddress)`."
      },
      "supportsInterface(bytes4)": {
        "details": "See {IERC165-supportsInterface}."
      },
      "unpause()": {
        "details": "This function unpauses the bridge. Only owner can call it.  Parameters: none Returns: none Requirements: - The contract must be paused. &  "
      },
      "version()": {
        "details": "Function which returns the bridge's version. This is a fixed value define in source code. Parameters: none Returns: string"
      },
      "withdrawToken(uint256)": {
        "details": "Withdraw tokens from bridge Only owner can call it. Can be called even if the Bridge is paused, because can happens a problem and it is necessary to withdraw tokens, maybe to create a new version of bridge, for example. The tokens only can be sent to the caller's function. Parameters: integer amount of tokens Returns: true if it is successful Requirements: - amount less or equal balance of tokens in bridge."
      }
    },
    "stateVariables": {
      "DECIMALPERCENT": {
        "details": "DECIMALPERCENT is the representation of 100% using (2) decimal places 100.00 = percentage accuracy (2) to 100%"
      }
    },
    "version": 1
  },
  "userdoc": {
    "kind": "user",
    "methods": {},
    "version": 1
  }
}