{
  "contractName": "Bridge",
  "abi": [
    {
      "inputs": [
        {
          "internalType": "address",
          "name": "tokenAddress",
          "type": "address"
        }
      ],
      "stateMutability": "nonpayable",
      "type": "constructor"
    },
    {
      "anonymous": false,
      "inputs": [
        {
          "indexed": false,
          "internalType": "address",
          "name": "from",
          "type": "address"
        },
        {
          "indexed": false,
          "internalType": "uint256",
          "name": "amount",
          "type": "uint256"
        },
        {
          "indexed": false,
          "internalType": "uint256",
          "name": "toFee",
          "type": "uint256"
        },
        {
          "indexed": false,
          "internalType": "string",
          "name": "toAddress",
          "type": "string"
        },
        {
          "indexed": false,
          "internalType": "string",
          "name": "toBlockchain",
          "type": "string"
        }
      ],
      "name": "CrossRequest",
      "type": "event"
    },
    {
      "anonymous": false,
      "inputs": [
        {
          "indexed": false,
          "internalType": "uint256",
          "name": "oldFee",
          "type": "uint256"
        },
        {
          "indexed": false,
          "internalType": "uint256",
          "name": "newFee",
          "type": "uint256"
        }
      ],
      "name": "FeePercentageBridgeChanged",
      "type": "event"
    },
    {
      "anonymous": false,
      "inputs": [
        {
          "indexed": false,
          "internalType": "string",
          "name": "blockchainName",
          "type": "string"
        },
        {
          "indexed": false,
          "internalType": "uint256",
          "name": "oldFee",
          "type": "uint256"
        },
        {
          "indexed": false,
          "internalType": "uint256",
          "name": "newFee",
          "type": "uint256"
        }
      ],
      "name": "MinGasPriceChanged",
      "type": "event"
    },
    {
      "anonymous": false,
      "inputs": [
        {
          "indexed": false,
          "internalType": "string",
          "name": "blockchainName",
          "type": "string"
        },
        {
          "indexed": false,
          "internalType": "uint256",
          "name": "oldAmount",
          "type": "uint256"
        },
        {
          "indexed": false,
          "internalType": "uint256",
          "name": "newAmount",
          "type": "uint256"
        }
      ],
      "name": "MinTokenAmountChanged",
      "type": "event"
    },
    {
      "anonymous": false,
      "inputs": [
        {
          "indexed": false,
          "internalType": "address",
          "name": "account",
          "type": "address"
        }
      ],
      "name": "Paused",
      "type": "event"
    },
    {
      "anonymous": false,
      "inputs": [
        {
          "indexed": true,
          "internalType": "bytes32",
          "name": "role",
          "type": "bytes32"
        },
        {
          "indexed": true,
          "internalType": "bytes32",
          "name": "previousAdminRole",
          "type": "bytes32"
        },
        {
          "indexed": true,
          "internalType": "bytes32",
          "name": "newAdminRole",
          "type": "bytes32"
        }
      ],
      "name": "RoleAdminChanged",
      "type": "event"
    },
    {
      "anonymous": false,
      "inputs": [
        {
          "indexed": true,
          "internalType": "bytes32",
          "name": "role",
          "type": "bytes32"
        },
        {
          "indexed": true,
          "internalType": "address",
          "name": "account",
          "type": "address"
        },
        {
          "indexed": true,
          "internalType": "address",
          "name": "sender",
          "type": "address"
        }
      ],
      "name": "RoleGranted",
      "type": "event"
    },
    {
      "anonymous": false,
      "inputs": [
        {
          "indexed": true,
          "internalType": "bytes32",
          "name": "role",
          "type": "bytes32"
        },
        {
          "indexed": true,
          "internalType": "address",
          "name": "account",
          "type": "address"
        },
        {
          "indexed": true,
          "internalType": "address",
          "name": "sender",
          "type": "address"
        }
      ],
      "name": "RoleRevoked",
      "type": "event"
    },
    {
      "anonymous": false,
      "inputs": [
        {
          "indexed": false,
          "internalType": "address",
          "name": "tokenAddress",
          "type": "address"
        }
      ],
      "name": "TokenChanged",
      "type": "event"
    },
    {
      "anonymous": false,
      "inputs": [
        {
          "indexed": false,
          "internalType": "address",
          "name": "account",
          "type": "address"
        }
      ],
      "name": "Unpaused",
      "type": "event"
    },
    {
      "inputs": [],
      "name": "ADMIN_ROLE",
      "outputs": [
        {
          "internalType": "bytes32",
          "name": "",
          "type": "bytes32"
        }
      ],
      "stateMutability": "view",
      "type": "function"
    },
    {
      "inputs": [],
      "name": "DECIMALPERCENT",
      "outputs": [
        {
          "internalType": "uint256",
          "name": "",
          "type": "uint256"
        }
      ],
      "stateMutability": "view",
      "type": "function"
    },
    {
      "inputs": [],
      "name": "DEFAULT_ADMIN_ROLE",
      "outputs": [
        {
          "internalType": "bytes32",
          "name": "",
          "type": "bytes32"
        }
      ],
      "stateMutability": "view",
      "type": "function"
    },
    {
      "inputs": [],
      "name": "MONITOR_ROLE",
      "outputs": [
        {
          "internalType": "bytes32",
          "name": "",
          "type": "bytes32"
        }
      ],
      "stateMutability": "view",
      "type": "function"
    },
    {
      "inputs": [
        {
          "internalType": "uint256",
          "name": "",
          "type": "uint256"
        }
      ],
      "name": "blockchain",
      "outputs": [
        {
          "internalType": "string",
          "name": "",
          "type": "string"
        }
      ],
      "stateMutability": "view",
      "type": "function"
    },
    {
      "inputs": [
        {
          "internalType": "bytes32",
          "name": "role",
          "type": "bytes32"
        }
      ],
      "name": "getRoleAdmin",
      "outputs": [
        {
          "internalType": "bytes32",
          "name": "",
          "type": "bytes32"
        }
      ],
      "stateMutability": "view",
      "type": "function"
    },
    {
      "inputs": [
        {
          "internalType": "bytes32",
          "name": "role",
          "type": "bytes32"
        },
        {
          "internalType": "address",
          "name": "account",
          "type": "address"
        }
      ],
      "name": "grantRole",
      "outputs": [],
      "stateMutability": "nonpayable",
      "type": "function"
    },
    {
      "inputs": [
        {
          "internalType": "bytes32",
          "name": "role",
          "type": "bytes32"
        },
        {
          "internalType": "address",
          "name": "account",
          "type": "address"
        }
      ],
      "name": "hasRole",
      "outputs": [
        {
          "internalType": "bool",
          "name": "",
          "type": "bool"
        }
      ],
      "stateMutability": "view",
      "type": "function"
    },
    {
      "inputs": [],
      "name": "paused",
      "outputs": [
        {
          "internalType": "bool",
          "name": "",
          "type": "bool"
        }
      ],
      "stateMutability": "view",
      "type": "function"
    },
    {
      "inputs": [
        {
          "internalType": "bytes32",
          "name": "",
          "type": "bytes32"
        }
      ],
      "name": "processed",
      "outputs": [
        {
          "internalType": "bool",
          "name": "",
          "type": "bool"
        }
      ],
      "stateMutability": "view",
      "type": "function"
    },
    {
      "inputs": [
        {
          "internalType": "bytes32",
          "name": "role",
          "type": "bytes32"
        },
        {
          "internalType": "address",
          "name": "account",
          "type": "address"
        }
      ],
      "name": "renounceRole",
      "outputs": [],
      "stateMutability": "nonpayable",
      "type": "function"
    },
    {
      "inputs": [
        {
          "internalType": "bytes32",
          "name": "role",
          "type": "bytes32"
        },
        {
          "internalType": "address",
          "name": "account",
          "type": "address"
        }
      ],
      "name": "revokeRole",
      "outputs": [],
      "stateMutability": "nonpayable",
      "type": "function"
    },
    {
      "inputs": [
        {
          "internalType": "bytes4",
          "name": "interfaceId",
          "type": "bytes4"
        }
      ],
      "name": "supportsInterface",
      "outputs": [
        {
          "internalType": "bool",
          "name": "",
          "type": "bool"
        }
      ],
      "stateMutability": "view",
      "type": "function"
    },
    {
      "inputs": [],
      "name": "token",
      "outputs": [
        {
          "internalType": "contract IERC20",
          "name": "",
          "type": "address"
        }
      ],
      "stateMutability": "view",
      "type": "function"
    },
    {
      "inputs": [],
      "name": "version",
      "outputs": [
        {
          "internalType": "string",
          "name": "",
          "type": "string"
        }
      ],
      "stateMutability": "pure",
      "type": "function"
    },
    {
      "inputs": [
        {
          "internalType": "uint256",
          "name": "amount",
          "type": "uint256"
        },
        {
          "internalType": "uint256[2]",
          "name": "transactionFee",
          "type": "uint256[2]"
        },
        {
          "internalType": "string",
          "name": "toBlockchain",
          "type": "string"
        },
        {
          "internalType": "string",
          "name": "toAddress",
          "type": "string"
        }
      ],
      "name": "receiveTokens",
      "outputs": [
        {
          "internalType": "bool",
          "name": "",
          "type": "bool"
        }
      ],
      "stateMutability": "nonpayable",
      "type": "function"
    },
    {
      "inputs": [
        {
          "internalType": "bytes32[2]",
          "name": "hashes",
          "type": "bytes32[2]"
        },
        {
          "internalType": "address",
          "name": "receiver",
          "type": "address"
        },
        {
          "internalType": "uint256",
          "name": "amount",
          "type": "uint256"
        },
        {
          "internalType": "uint32",
          "name": "logIndex",
          "type": "uint32"
        }
      ],
      "name": "getTransactionId",
      "outputs": [
        {
          "internalType": "bytes32",
          "name": "",
          "type": "bytes32"
        }
      ],
      "stateMutability": "pure",
      "type": "function"
    },
    {
      "inputs": [
        {
          "internalType": "address",
          "name": "receiver",
          "type": "address"
        },
        {
          "internalType": "uint256",
          "name": "amount",
          "type": "uint256"
        },
        {
          "internalType": "string",
          "name": "sender",
          "type": "string"
        },
        {
          "internalType": "string",
          "name": "fromBlockchain",
          "type": "string"
        },
        {
          "internalType": "bytes32[2]",
          "name": "hashes",
          "type": "bytes32[2]"
        },
        {
          "internalType": "uint32",
          "name": "logIndex",
          "type": "uint32"
        }
      ],
      "name": "acceptTransfer",
      "outputs": [
        {
          "internalType": "bool",
          "name": "",
          "type": "bool"
        }
      ],
      "stateMutability": "nonpayable",
      "type": "function"
    },
    {
      "inputs": [],
      "name": "getTotalFeeReceivedBridge",
      "outputs": [
        {
          "internalType": "uint256",
          "name": "",
          "type": "uint256"
        }
      ],
      "stateMutability": "view",
      "type": "function"
    },
    {
      "inputs": [],
      "name": "getTokenBalance",
      "outputs": [
        {
          "internalType": "uint256",
          "name": "",
          "type": "uint256"
        }
      ],
      "stateMutability": "view",
      "type": "function"
    },
    {
      "inputs": [
        {
          "internalType": "uint256",
          "name": "amount",
          "type": "uint256"
        }
      ],
      "name": "withdrawToken",
      "outputs": [
        {
          "internalType": "bool",
          "name": "",
          "type": "bool"
        }
      ],
      "stateMutability": "nonpayable",
      "type": "function"
    },
    {
      "inputs": [
        {
          "internalType": "address",
          "name": "account",
          "type": "address"
        }
      ],
      "name": "addMonitor",
      "outputs": [
        {
          "internalType": "bool",
          "name": "",
          "type": "bool"
        }
      ],
      "stateMutability": "nonpayable",
      "type": "function"
    },
    {
      "inputs": [
        {
          "internalType": "address",
          "name": "account",
          "type": "address"
        }
      ],
      "name": "delMonitor",
      "outputs": [
        {
          "internalType": "bool",
          "name": "",
          "type": "bool"
        }
      ],
      "stateMutability": "nonpayable",
      "type": "function"
    },
    {
      "inputs": [
        {
          "internalType": "address",
          "name": "account",
          "type": "address"
        }
      ],
      "name": "addAdmin",
      "outputs": [
        {
          "internalType": "bool",
          "name": "",
          "type": "bool"
        }
      ],
      "stateMutability": "nonpayable",
      "type": "function"
    },
    {
      "inputs": [
        {
          "internalType": "address",
          "name": "account",
          "type": "address"
        }
      ],
      "name": "delAdmin",
      "outputs": [
        {
          "internalType": "bool",
          "name": "",
          "type": "bool"
        }
      ],
      "stateMutability": "nonpayable",
      "type": "function"
    },
    {
      "inputs": [
        {
          "internalType": "string",
          "name": "blockchainName",
          "type": "string"
        },
        {
          "internalType": "uint256",
          "name": "newFee",
          "type": "uint256"
        }
      ],
      "name": "setMinGasPrice",
      "outputs": [
        {
          "internalType": "bool",
          "name": "",
          "type": "bool"
        }
      ],
      "stateMutability": "nonpayable",
      "type": "function"
    },
    {
      "inputs": [
        {
          "internalType": "string",
          "name": "blockchainName",
          "type": "string"
        }
      ],
      "name": "getMinGasPrice",
      "outputs": [
        {
          "internalType": "uint256",
          "name": "",
          "type": "uint256"
        }
      ],
      "stateMutability": "view",
      "type": "function"
    },
    {
      "inputs": [
        {
          "internalType": "string",
          "name": "blockchainName",
          "type": "string"
        },
        {
          "internalType": "uint256",
          "name": "newAmount",
          "type": "uint256"
        }
      ],
      "name": "setMinTokenAmount",
      "outputs": [
        {
          "internalType": "bool",
          "name": "",
          "type": "bool"
        }
      ],
      "stateMutability": "nonpayable",
      "type": "function"
    },
    {
      "inputs": [
        {
          "internalType": "string",
          "name": "blockchainName",
          "type": "string"
        }
      ],
      "name": "getMinTokenAmount",
      "outputs": [
        {
          "internalType": "uint256",
          "name": "",
          "type": "uint256"
        }
      ],
      "stateMutability": "view",
      "type": "function"
    },
    {
      "inputs": [
        {
          "internalType": "uint256",
          "name": "newFee",
          "type": "uint256"
        }
      ],
      "name": "setFeePercentageBridge",
      "outputs": [
        {
          "internalType": "bool",
          "name": "",
          "type": "bool"
        }
      ],
      "stateMutability": "nonpayable",
      "type": "function"
    },
    {
      "inputs": [],
      "name": "getFeePercentageBridge",
      "outputs": [
        {
          "internalType": "uint256",
          "name": "",
          "type": "uint256"
        }
      ],
      "stateMutability": "view",
      "type": "function"
    },
    {
      "inputs": [
        {
          "internalType": "address",
          "name": "tokenAddress",
          "type": "address"
        }
      ],
      "name": "setToken",
      "outputs": [
        {
          "internalType": "bool",
          "name": "",
          "type": "bool"
        }
      ],
      "stateMutability": "nonpayable",
      "type": "function"
    },
    {
      "inputs": [
        {
          "internalType": "string",
          "name": "name",
          "type": "string"
        }
      ],
      "name": "existsBlockchain",
      "outputs": [
        {
          "internalType": "bool",
          "name": "",
          "type": "bool"
        }
      ],
      "stateMutability": "view",
      "type": "function"
    },
    {
      "inputs": [],
      "name": "listBlockchain",
      "outputs": [
        {
          "internalType": "string[]",
          "name": "",
          "type": "string[]"
        }
      ],
      "stateMutability": "view",
      "type": "function"
    },
    {
      "inputs": [
        {
          "internalType": "string",
          "name": "name",
          "type": "string"
        }
      ],
      "name": "addBlockchain",
      "outputs": [
        {
          "internalType": "uint256",
          "name": "",
          "type": "uint256"
        }
      ],
      "stateMutability": "nonpayable",
      "type": "function"
    },
    {
      "inputs": [
        {
          "internalType": "string",
          "name": "name",
          "type": "string"
        }
      ],
      "name": "delBlockchain",
      "outputs": [
        {
          "internalType": "bool",
          "name": "",
          "type": "bool"
        }
      ],
      "stateMutability": "nonpayable",
      "type": "function"
    },
    {
      "inputs": [],
      "name": "pause",
      "outputs": [],
      "stateMutability": "nonpayable",
      "type": "function"
    },
    {
      "inputs": [],
      "name": "unpause",
      "outputs": [],
      "stateMutability": "nonpayable",
      "type": "function"
    }
  ],
  "bytecode": "0x60806040523480156200001157600080fd5b506040516200525838038062005258833981810160405281019062000037919062000255565b6000600160006101000a81548160ff021916908315150217905550620000766000801b6200006a620000c560201b60201c565b620000cd60201b60201c565b806001806101000a81548173ffffffffffffffffffffffffffffffffffffffff021916908373ffffffffffffffffffffffffffffffffffffffff160217905550600a60038190555050620002cf565b600033905090565b620000df8282620000e360201b60201c565b5050565b620000f58282620001d460201b60201c565b620001d057600160008084815260200190815260200160002060000160008373ffffffffffffffffffffffffffffffffffffffff1673ffffffffffffffffffffffffffffffffffffffff16815260200190815260200160002060006101000a81548160ff02191690831515021790555062000175620000c560201b60201c565b73ffffffffffffffffffffffffffffffffffffffff168173ffffffffffffffffffffffffffffffffffffffff16837f2f8788117e7eff1d82e926ec794901d17c78024a50270940304540a733656f0d60405160405180910390a45b5050565b600080600084815260200190815260200160002060000160008373ffffffffffffffffffffffffffffffffffffffff1673ffffffffffffffffffffffffffffffffffffffff16815260200190815260200160002060009054906101000a900460ff16905092915050565b6000815190506200024f81620002b5565b92915050565b6000602082840312156200026857600080fd5b600062000278848285016200023e565b91505092915050565b60006200028e8262000295565b9050919050565b600073ffffffffffffffffffffffffffffffffffffffff82169050919050565b620002c08162000281565b8114620002cc57600080fd5b50565b614f7980620002df6000396000f3fe608060405234801561001057600080fd5b50600436106102325760003560e01c80637048027511610130578063aeb670e3116100b8578063cd09fc281161007c578063cd09fc2814610751578063d547741f14610781578063e0ddf3b61461079d578063e1343dae146107cd578063fc0c546a146107eb57610232565b8063aeb670e314610661578063b8c48a2814610691578063bb52228b146106c1578063c1f0808a146106f1578063c25b1eaf1461072157610232565b8063886f3451116100ff578063886f34511461059557806391d14854146105c557806392830770146105f557806399cd19d314610613578063a217fddf1461064357610232565b8063704802751461051f57806375b238fc1461054f57806382b2e2571461056d5780638456cb591461058b57610232565b806336568abe116101be578063525a34e311610182578063525a34e31461045357806354fd4d50146104835780635c975abb146104a15780635d27fc70146104bf57806362d91855146104ef57610232565b806336568abe146103af5780633f4ba83a146103cb578063420c04f0146103d55780634d9b47e21461040557806350baa6221461042357610232565b8063212258a811610205578063212258a8146102e5578063248a9ca31461031557806329c9a4da146103455780632f2ff15d146103755780633222a6aa1461039157610232565b806301ffc9a7146102375780630e7fef1e1461026757806310c22fa614610297578063144fa6d7146102b5575b600080fd5b610251600480360381019061024c9190613764565b610809565b60405161025e9190614039565b60405180910390f35b610281600480360381019061027c9190613874565b610883565b60405161028e9190614039565b60405180910390f35b61029f610c91565b6040516102ac919061440a565b60405180910390f35b6102cf60048036038101906102ca9190613587565b610c97565b6040516102dc9190614039565b60405180910390f35b6102ff60048036038101906102fa919061378d565b610e24565b60405161030c919061440a565b60405180910390f35b61032f600480360381019061032a91906136ff565b610e4c565b60405161033c9190614054565b60405180910390f35b61035f600480360381019061035a91906137ce565b610e6b565b60405161036c9190614039565b60405180910390f35b61038f600480360381019061038a9190613728565b610ff3565b005b61039961101c565b6040516103a6919061440a565b60405180910390f35b6103c960048036038101906103c49190613728565b611026565b005b6103d36110a9565b005b6103ef60048036038101906103ea91906135b0565b611106565b6040516103fc9190614039565b60405180910390f35b61040d611474565b60405161041a9190614054565b60405180910390f35b61043d60048036038101906104389190613822565b611498565b60405161044a9190614039565b60405180910390f35b61046d60048036038101906104689190613822565b611696565b60405161047a9190614039565b60405180910390f35b61048b6117ce565b604051610498919061408a565b60405180910390f35b6104a961180b565b6040516104b69190614039565b60405180910390f35b6104d960048036038101906104d49190613587565b611822565b6040516104e69190614039565b60405180910390f35b61050960048036038101906105049190613587565b6118f2565b6040516105169190614039565b60405180910390f35b61053960048036038101906105349190613587565b6119c2565b6040516105469190614039565b60405180910390f35b610557611a92565b6040516105649190614054565b60405180910390f35b610575611ab6565b604051610582919061440a565b60405180910390f35b610593611b66565b005b6105af60048036038101906105aa91906137ce565b611bc3565b6040516105bc9190614039565b60405180910390f35b6105df60048036038101906105da9190613728565b611d4b565b6040516105ec9190614039565b60405180910390f35b6105fd611db5565b60405161060a919061440a565b60405180910390f35b61062d6004803603810190610628919061378d565b611dbf565b60405161063a919061440a565b60405180910390f35b61064b611efa565b6040516106589190614054565b60405180910390f35b61067b60048036038101906106769190613673565b611f01565b6040516106889190614054565b60405180910390f35b6106ab60048036038101906106a69190613587565b611fb8565b6040516106b89190614039565b60405180910390f35b6106db60048036038101906106d6919061378d565b612088565b6040516106e89190614039565b60405180910390f35b61070b600480360381019061070691906136ff565b6123d2565b6040516107189190614039565b60405180910390f35b61073b60048036038101906107369190613822565b6123f2565b604051610748919061408a565b60405180910390f35b61076b6004803603810190610766919061378d565b61249e565b6040516107789190614039565b60405180910390f35b61079b60048036038101906107969190613728565b6125bc565b005b6107b760048036038101906107b2919061378d565b6125e5565b6040516107c4919061440a565b60405180910390f35b6107d561260d565b6040516107e29190614017565b60405180910390f35b6107f36126e6565b604051610800919061406f565b60405180910390f35b60007f7965db0b000000000000000000000000000000000000000000000000000000007bffffffffffffffffffffffffffffffffffffffffffffffffffffffff1916827bffffffffffffffffffffffffffffffffffffffffffffffffffffffff1916148061087c575061087b8261270a565b5b9050919050565b600061088d61180b565b156108cd576040517f08c379a00000000000000000000000000000000000000000000000000000000081526004016108c49061426a565b60405180910390fd5b6108d68361249e565b610915576040517f08c379a000000000000000000000000000000000000000000000000000000000815260040161090c906141ca565b60405180910390fd5b61092e8260405180602001604052806000815250612774565b1561096e576040517f08c379a00000000000000000000000000000000000000000000000000000000081526004016109659061438a565b60405180910390fd5b60058360405161097e9190613eea565b908152602001604051809103902054846001600281106109c7577f4e487b7100000000000000000000000000000000000000000000000000000000600052603260045260246000fd5b60200201511015610a0d576040517f08c379a0000000000000000000000000000000000000000000000000000000008152600401610a04906143aa565b60405180910390fd5b60008511610a50576040517f08c379a0000000000000000000000000000000000000000000000000000000008152600401610a479061410a565b60405180910390fd5b600683604051610a609190613eea565b908152602001604051809103902054851015610ab1576040517f08c379a0000000000000000000000000000000000000000000000000000000008152600401610aa8906141aa565b60405180910390fd5b600084600060028110610aed577f4e487b7100000000000000000000000000000000000000000000000000000000600052603260045260246000fd5b602002015186610afd919061453b565b9050600061271060035488610b1291906145c2565b610b1c9190614591565b905060008188610b2c919061461c565b90508160026000828254610b40919061453b565b925050819055507f0424dad9840ff9e43e3db8fbda830b4db1af324cf59b056dd728876c88ea8807610b706127cd565b8289600160028110610bab577f4e487b7100000000000000000000000000000000000000000000000000000000600052603260045260246000fd5b6020020151888a604051610bc3959493929190613fb6565b60405180910390a160018054906101000a900473ffffffffffffffffffffffffffffffffffffffff1673ffffffffffffffffffffffffffffffffffffffff166323b872dd610c0f6127cd565b30866040518463ffffffff1660e01b8152600401610c2f93929190613f56565b602060405180830381600087803b158015610c4957600080fd5b505af1158015610c5d573d6000803e3d6000fd5b505050506040513d601f19601f82011682018060405250810190610c8191906136d6565b5060019350505050949350505050565b61271081565b6000610cad6000801b610ca86127cd565b611d4b565b610cec576040517f08c379a0000000000000000000000000000000000000000000000000000000008152600401610ce3906142ea565b60405180910390fd5b610cf461180b565b15610d34576040517f08c379a0000000000000000000000000000000000000000000000000000000008152600401610d2b9061426a565b60405180910390fd5b600073ffffffffffffffffffffffffffffffffffffffff168273ffffffffffffffffffffffffffffffffffffffff161415610da4576040517f08c379a0000000000000000000000000000000000000000000000000000000008152600401610d9b9061434a565b60405180910390fd5b7f5d108ca248943e98e1886bbc2c38beda701271994a14354258a11692b81b73cf82604051610dd39190613f3b565b60405180910390a1816001806101000a81548173ffffffffffffffffffffffffffffffffffffffff021916908373ffffffffffffffffffffffffffffffffffffffff16021790555060019050919050565b6000600682604051610e369190613eea565b9081526020016040518091039020549050919050565b6000806000838152602001908152602001600020600101549050919050565b6000610e9e7fa49807205ce4d355092ef5a8a18f56e8913cf4a201fbe287825b095693c21775610e996127cd565b611d4b565b610edd576040517f08c379a0000000000000000000000000000000000000000000000000000000008152600401610ed49061432a565b60405180910390fd5b610ee561180b565b15610f25576040517f08c379a0000000000000000000000000000000000000000000000000000000008152600401610f1c9061426a565b60405180910390fd5b610f2e8361249e565b610f6d576040517f08c379a0000000000000000000000000000000000000000000000000000000008152600401610f649061424a565b60405180910390fd5b7f4b44a0f1f9ad83f48ce1c55d8b93720658c4dbdd91f7c1d3f22612cd6474ab7b83600685604051610f9f9190613eea565b90815260200160405180910390205484604051610fbe939291906140ac565b60405180910390a181600684604051610fd79190613eea565b9081526020016040518091039020819055506001905092915050565b610ffc82610e4c565b61100d816110086127cd565b6127d5565b6110178383612872565b505050565b6000600254905090565b61102e6127cd565b73ffffffffffffffffffffffffffffffffffffffff168173ffffffffffffffffffffffffffffffffffffffff161461109b576040517f08c379a0000000000000000000000000000000000000000000000000000000008152600401611092906143ea565b60405180910390fd5b6110a58282612952565b5050565b6110bd6000801b6110b86127cd565b611d4b565b6110fc576040517f08c379a00000000000000000000000000000000000000000000000000000000081526004016110f3906142ea565b60405180910390fd5b611104612a33565b565b60006111397f8227712ef8ad39d0f26f06731ef0df8665eb7ada7f41b1ee089adf3c238862a26111346127cd565b611d4b565b611178576040517f08c379a000000000000000000000000000000000000000000000000000000000815260040161116f9061420a565b60405180910390fd5b61118061180b565b156111c0576040517f08c379a00000000000000000000000000000000000000000000000000000000081526004016111b79061426a565b60405180910390fd5b600073ffffffffffffffffffffffffffffffffffffffff168973ffffffffffffffffffffffffffffffffffffffff161415611230576040517f08c379a0000000000000000000000000000000000000000000000000000000008152600401611227906141ea565b60405180910390fd5b60008811611273576040517f08c379a000000000000000000000000000000000000000000000000000000000815260040161126a9061410a565b60405180910390fd5b600087879050116112b9576040517f08c379a00000000000000000000000000000000000000000000000000000000081526004016112b09061428a565b60405180910390fd5b61130685858080601f016020809104026020016040519081016040528093929190818152602001838380828437600081840152601f19601f8201169050808301925050505050505061249e565b611345576040517f08c379a000000000000000000000000000000000000000000000000000000000815260040161133c906142ca565b60405180910390fd5b6000801b83600060028110611383577f4e487b7100000000000000000000000000000000000000000000000000000000600052603260045260246000fd5b602002013514156113c9576040517f08c379a00000000000000000000000000000000000000000000000000000000081526004016113c0906142aa565b60405180910390fd5b6000801b83600160028110611407577f4e487b7100000000000000000000000000000000000000000000000000000000600052603260045260246000fd5b6020020135141561144d576040517f08c379a00000000000000000000000000000000000000000000000000000000081526004016114449061418a565b60405180910390fd5b611459838a8a85612ad5565b6114638989612c31565b506001905098975050505050505050565b7f8227712ef8ad39d0f26f06731ef0df8665eb7ada7f41b1ee089adf3c238862a281565b60006114ae6000801b6114a96127cd565b611d4b565b6114ed576040517f08c379a00000000000000000000000000000000000000000000000000000000081526004016114e4906142ea565b60405180910390fd5b60018054906101000a900473ffffffffffffffffffffffffffffffffffffffff1673ffffffffffffffffffffffffffffffffffffffff166370a08231306040518263ffffffff1660e01b81526004016115469190613f3b565b60206040518083038186803b15801561155e57600080fd5b505afa158015611572573d6000803e3d6000fd5b505050506040513d601f19601f82011682018060405250810190611596919061384b565b8211156115d8576040517f08c379a00000000000000000000000000000000000000000000000000000000081526004016115cf9061414a565b60405180910390fd5b60018054906101000a900473ffffffffffffffffffffffffffffffffffffffff1673ffffffffffffffffffffffffffffffffffffffff1663a9059cbb61161c6127cd565b846040518363ffffffff1660e01b815260040161163a929190613f8d565b602060405180830381600087803b15801561165457600080fd5b505af1158015611668573d6000803e3d6000fd5b505050506040513d601f19601f8201168201806040525081019061168c91906136d6565b5060019050919050565b60006116ac6000801b6116a76127cd565b611d4b565b6116eb576040517f08c379a00000000000000000000000000000000000000000000000000000000081526004016116e2906142ea565b60405180910390fd5b6116f361180b565b15611733576040517f08c379a000000000000000000000000000000000000000000000000000000000815260040161172a9061426a565b60405180910390fd5b600a6127106117429190614591565b8210611783576040517f08c379a000000000000000000000000000000000000000000000000000000000815260040161177a906143ca565b60405180910390fd5b7f423d9a8a1d4011c45245817ab10cc09937b0786496dad82dba18141ca4fb7c8e600354836040516117b6929190614425565b60405180910390a18160038190555060019050919050565b60606040518060400160405280600281526020017f7630000000000000000000000000000000000000000000000000000000000000815250905090565b6000600160009054906101000a900460ff16905090565b60006118386000801b6118336127cd565b611d4b565b611877576040517f08c379a000000000000000000000000000000000000000000000000000000000815260040161186e906142ea565b60405180910390fd5b61187f61180b565b156118bf576040517f08c379a00000000000000000000000000000000000000000000000000000000081526004016118b69061426a565b60405180910390fd5b6118e97f8227712ef8ad39d0f26f06731ef0df8665eb7ada7f41b1ee089adf3c238862a2836125bc565b60019050919050565b60006119086000801b6119036127cd565b611d4b565b611947576040517f08c379a000000000000000000000000000000000000000000000000000000000815260040161193e906142ea565b60405180910390fd5b61194f61180b565b1561198f576040517f08c379a00000000000000000000000000000000000000000000000000000000081526004016119869061426a565b60405180910390fd5b6119b97fa49807205ce4d355092ef5a8a18f56e8913cf4a201fbe287825b095693c21775836125bc565b60019050919050565b60006119d86000801b6119d36127cd565b611d4b565b611a17576040517f08c379a0000000000000000000000000000000000000000000000000000000008152600401611a0e906142ea565b60405180910390fd5b611a1f61180b565b15611a5f576040517f08c379a0000000000000000000000000000000000000000000000000000000008152600401611a569061426a565b60405180910390fd5b611a897fa49807205ce4d355092ef5a8a18f56e8913cf4a201fbe287825b095693c2177583610ff3565b60019050919050565b7fa49807205ce4d355092ef5a8a18f56e8913cf4a201fbe287825b095693c2177581565b600060018054906101000a900473ffffffffffffffffffffffffffffffffffffffff1673ffffffffffffffffffffffffffffffffffffffff166370a08231306040518263ffffffff1660e01b8152600401611b119190613f3b565b60206040518083038186803b158015611b2957600080fd5b505afa158015611b3d573d6000803e3d6000fd5b505050506040513d601f19601f82011682018060405250810190611b61919061384b565b905090565b611b7a6000801b611b756127cd565b611d4b565b611bb9576040517f08c379a0000000000000000000000000000000000000000000000000000000008152600401611bb0906142ea565b60405180910390fd5b611bc1612e8e565b565b6000611bf67fa49807205ce4d355092ef5a8a18f56e8913cf4a201fbe287825b095693c21775611bf16127cd565b611d4b565b611c35576040517f08c379a0000000000000000000000000000000000000000000000000000000008152600401611c2c9061432a565b60405180910390fd5b611c3d61180b565b15611c7d576040517f08c379a0000000000000000000000000000000000000000000000000000000008152600401611c749061426a565b60405180910390fd5b611c868361249e565b611cc5576040517f08c379a0000000000000000000000000000000000000000000000000000000008152600401611cbc9061424a565b60405180910390fd5b7f7c2e63122e83f3475fafd4ed3573fe53ba5c4b416df3e184d2a74547cc5ba99883600585604051611cf79190613eea565b90815260200160405180910390205484604051611d16939291906140ac565b60405180910390a181600584604051611d2f9190613eea565b9081526020016040518091039020819055506001905092915050565b600080600084815260200190815260200160002060000160008373ffffffffffffffffffffffffffffffffffffffff1673ffffffffffffffffffffffffffffffffffffffff16815260200190815260200160002060009054906101000a900460ff16905092915050565b6000600354905090565b6000611dd56000801b611dd06127cd565b611d4b565b611e14576040517f08c379a0000000000000000000000000000000000000000000000000000000008152600401611e0b906142ea565b60405180910390fd5b611e1c61180b565b15611e5c576040517f08c379a0000000000000000000000000000000000000000000000000000000008152600401611e539061426a565b60405180910390fd5b611e658261249e565b15611ea5576040517f08c379a0000000000000000000000000000000000000000000000000000000008152600401611e9c9061430a565b60405180910390fd5b600482908060018154018082558091505060019003906000526020600020016000909190919091509080519060200190611ee092919061322a565b506001600480549050611ef3919061461c565b9050919050565b6000801b81565b600084600060028110611f3d577f4e487b7100000000000000000000000000000000000000000000000000000000600052603260045260246000fd5b602002013585600160028110611f7c577f4e487b7100000000000000000000000000000000000000000000000000000000600052603260045260246000fd5b6020020135858585604051602001611f98959493929190613e8b565b604051602081830303815290604052805190602001209050949350505050565b6000611fce6000801b611fc96127cd565b611d4b565b61200d576040517f08c379a0000000000000000000000000000000000000000000000000000000008152600401612004906142ea565b60405180910390fd5b61201561180b565b15612055576040517f08c379a000000000000000000000000000000000000000000000000000000000815260040161204c9061426a565b60405180910390fd5b61207f7f8227712ef8ad39d0f26f06731ef0df8665eb7ada7f41b1ee089adf3c238862a283610ff3565b60019050919050565b600061209e6000801b6120996127cd565b611d4b565b6120dd576040517f08c379a00000000000000000000000000000000000000000000000000000000081526004016120d4906142ea565b60405180910390fd5b6120e561180b565b15612125576040517f08c379a000000000000000000000000000000000000000000000000000000000815260040161211c9061426a565b60405180910390fd5b61212e8261249e565b61216d576040517f08c379a00000000000000000000000000000000000000000000000000000000081526004016121649061424a565b60405180910390fd5b6001600480549050116121b5576040517f08c379a00000000000000000000000000000000000000000000000000000000081526004016121ac9061436a565b60405180910390fd5b600080600090505b6004805490508110156122c0576122a08460048381548110612208577f4e487b7100000000000000000000000000000000000000000000000000000000600052603260045260246000fd5b90600052602060002001805461221d9061477b565b80601f01602080910402602001604051908101604052809291908181526020018280546122499061477b565b80156122965780601f1061226b57610100808354040283529160200191612296565b820191906000526020600020905b81548152906001019060200180831161227957829003601f168201915b5050505050612774565b156122ad578091506122c0565b80806122b8906147de565b9150506121bd565b50600460016004805490506122d5919061461c565b8154811061230c577f4e487b7100000000000000000000000000000000000000000000000000000000600052603260045260246000fd5b9060005260206000200160048281548110612350577f4e487b7100000000000000000000000000000000000000000000000000000000600052603260045260246000fd5b906000526020600020019080546123669061477b565b6123719291906132b0565b5060048054806123aa577f4e487b7100000000000000000000000000000000000000000000000000000000600052603160045260246000fd5b6001900381819060005260206000200160006123c6919061333d565b90556001915050919050565b60076020528060005260406000206000915054906101000a900460ff1681565b6004818154811061240257600080fd5b90600052602060002001600091509050805461241d9061477b565b80601f01602080910402602001604051908101604052809291908181526020018280546124499061477b565b80156124965780601f1061246b57610100808354040283529160200191612496565b820191906000526020600020905b81548152906001019060200180831161247957829003601f168201915b505050505081565b600080600090505b6004805490508160ff1610156125b15761258f8360048360ff16815481106124f7577f4e487b7100000000000000000000000000000000000000000000000000000000600052603260045260246000fd5b90600052602060002001805461250c9061477b565b80601f01602080910402602001604051908101604052809291908181526020018280546125389061477b565b80156125855780601f1061255a57610100808354040283529160200191612585565b820191906000526020600020905b81548152906001019060200180831161256857829003601f168201915b5050505050612774565b1561259e5760019150506125b7565b80806125a990614827565b9150506124a6565b50600090505b919050565b6125c582610e4c565b6125d6816125d16127cd565b6127d5565b6125e08383612952565b505050565b60006005826040516125f79190613eea565b9081526020016040518091039020549050919050565b60606004805480602002602001604051908101604052809291908181526020016000905b828210156126dd5783829060005260206000200180546126509061477b565b80601f016020809104026020016040519081016040528092919081815260200182805461267c9061477b565b80156126c95780601f1061269e576101008083540402835291602001916126c9565b820191906000526020600020905b8154815290600101906020018083116126ac57829003601f168201915b505050505081526020019060010190612631565b50505050905090565b60018054906101000a900473ffffffffffffffffffffffffffffffffffffffff1681565b60007f01ffc9a7000000000000000000000000000000000000000000000000000000007bffffffffffffffffffffffffffffffffffffffffffffffffffffffff1916827bffffffffffffffffffffffffffffffffffffffffffffffffffffffff1916149050919050565b6000816040516020016127879190613eea565b60405160208183030381529060405280519060200120836040516020016127ae9190613eea565b6040516020818303038152906040528051906020012014905092915050565b600033905090565b6127df8282611d4b565b61286e576128048173ffffffffffffffffffffffffffffffffffffffff166014612f30565b6128128360001c6020612f30565b604051602001612823929190613f01565b6040516020818303038152906040526040517f08c379a0000000000000000000000000000000000000000000000000000000008152600401612865919061408a565b60405180910390fd5b5050565b61287c8282611d4b565b61294e57600160008084815260200190815260200160002060000160008373ffffffffffffffffffffffffffffffffffffffff1673ffffffffffffffffffffffffffffffffffffffff16815260200190815260200160002060006101000a81548160ff0219169083151502179055506128f36127cd565b73ffffffffffffffffffffffffffffffffffffffff168173ffffffffffffffffffffffffffffffffffffffff16837f2f8788117e7eff1d82e926ec794901d17c78024a50270940304540a733656f0d60405160405180910390a45b5050565b61295c8282611d4b565b15612a2f57600080600084815260200190815260200160002060000160008373ffffffffffffffffffffffffffffffffffffffff1673ffffffffffffffffffffffffffffffffffffffff16815260200190815260200160002060006101000a81548160ff0219169083151502179055506129d46127cd565b73ffffffffffffffffffffffffffffffffffffffff168173ffffffffffffffffffffffffffffffffffffffff16837ff6391f5c32d9c69d2a47ea670b442974b53935d1edc7fd64eb21e047a839171b60405160405180910390a45b5050565b612a3b61180b565b612a7a576040517f08c379a0000000000000000000000000000000000000000000000000000000008152600401612a719061412a565b60405180910390fd5b6000600160006101000a81548160ff0219169083151502179055507f5db9ee0a495bf2e6ff9c91a7834c1ba4fdd244a5e8aa4e537bd38aeae4b073aa612abe6127cd565b604051612acb9190613f3b565b60405180910390a1565b612b067f8227712ef8ad39d0f26f06731ef0df8665eb7ada7f41b1ee089adf3c238862a2612b016127cd565b611d4b565b612b45576040517f08c379a0000000000000000000000000000000000000000000000000000000008152600401612b3c9061420a565b60405180910390fd5b612b4d61180b565b15612b8d576040517f08c379a0000000000000000000000000000000000000000000000000000000008152600401612b849061426a565b60405180910390fd5b6000612b9b85858585611f01565b90506007600082815260200190815260200160002060009054906101000a900460ff1615612bfe576040517f08c379a0000000000000000000000000000000000000000000000000000000008152600401612bf59061416a565b60405180910390fd5b60016007600083815260200190815260200160002060006101000a81548160ff0219169083151502179055505050505050565b6000612c647f8227712ef8ad39d0f26f06731ef0df8665eb7ada7f41b1ee089adf3c238862a2612c5f6127cd565b611d4b565b612ca3576040517f08c379a0000000000000000000000000000000000000000000000000000000008152600401612c9a9061420a565b60405180910390fd5b612cab61180b565b15612ceb576040517f08c379a0000000000000000000000000000000000000000000000000000000008152600401612ce29061426a565b60405180910390fd5b8160018054906101000a900473ffffffffffffffffffffffffffffffffffffffff1673ffffffffffffffffffffffffffffffffffffffff166370a08231306040518263ffffffff1660e01b8152600401612d459190613f3b565b60206040518083038186803b158015612d5d57600080fd5b505afa158015612d71573d6000803e3d6000fd5b505050506040513d601f19601f82011682018060405250810190612d95919061384b565b1015612dd6576040517f08c379a0000000000000000000000000000000000000000000000000000000008152600401612dcd9061422a565b60405180910390fd5b60018054906101000a900473ffffffffffffffffffffffffffffffffffffffff1673ffffffffffffffffffffffffffffffffffffffff1663a9059cbb84846040518363ffffffff1660e01b8152600401612e31929190613f8d565b602060405180830381600087803b158015612e4b57600080fd5b505af1158015612e5f573d6000803e3d6000fd5b505050506040513d601f19601f82011682018060405250810190612e8391906136d6565b506001905092915050565b612e9661180b565b15612ed6576040517f08c379a0000000000000000000000000000000000000000000000000000000008152600401612ecd9061426a565b60405180910390fd5b60018060006101000a81548160ff0219169083151502179055507f62e78cea01bee320cd4e420270b5ea74000d11b0c9f74754ebdbfc544b05a258612f196127cd565b604051612f269190613f3b565b60405180910390a1565b606060006002836002612f4391906145c2565b612f4d919061453b565b67ffffffffffffffff811115612f8c577f4e487b7100000000000000000000000000000000000000000000000000000000600052604160045260246000fd5b6040519080825280601f01601f191660200182016040528015612fbe5781602001600182028036833780820191505090505b5090507f30000000000000000000000000000000000000000000000000000000000000008160008151811061301c577f4e487b7100000000000000000000000000000000000000000000000000000000600052603260045260246000fd5b60200101907effffffffffffffffffffffffffffffffffffffffffffffffffffffffffffff1916908160001a9053507f7800000000000000000000000000000000000000000000000000000000000000816001815181106130a6577f4e487b7100000000000000000000000000000000000000000000000000000000600052603260045260246000fd5b60200101907effffffffffffffffffffffffffffffffffffffffffffffffffffffffffffff1916908160001a905350600060018460026130e691906145c2565b6130f0919061453b565b90505b60018111156131dc577f3031323334353637383961626364656600000000000000000000000000000000600f861660108110613158577f4e487b7100000000000000000000000000000000000000000000000000000000600052603260045260246000fd5b1a60f81b828281518110613195577f4e487b7100000000000000000000000000000000000000000000000000000000600052603260045260246000fd5b60200101907effffffffffffffffffffffffffffffffffffffffffffffffffffffffffffff1916908160001a905350600485901c9450806131d590614751565b90506130f3565b5060008414613220576040517f08c379a0000000000000000000000000000000000000000000000000000000008152600401613217906140ea565b60405180910390fd5b8091505092915050565b8280546132369061477b565b90600052602060002090601f016020900481019282613258576000855561329f565b82601f1061327157805160ff191683800117855561329f565b8280016001018555821561329f579182015b8281111561329e578251825591602001919060010190613283565b5b5090506132ac919061337d565b5090565b8280546132bc9061477b565b90600052602060002090601f0160209004810192826132de576000855561332c565b82601f106132ef578054855561332c565b8280016001018555821561332c57600052602060002091601f016020900482015b8281111561332b578254825591600101919060010190613310565b5b509050613339919061337d565b5090565b5080546133499061477b565b6000825580601f1061335b575061337a565b601f016020900490600052602060002090810190613379919061337d565b5b50565b5b8082111561339657600081600090555060010161337e565b5090565b60006133ad6133a884614473565b61444e565b905080828560208602820111156133c357600080fd5b60005b858110156133f357816133d98882613548565b8452602084019350602083019250506001810190506133c6565b5050509392505050565b600061341061340b84614499565b61444e565b90508281526020810184848401111561342857600080fd5b61343384828561470f565b509392505050565b60008135905061344a81614eb9565b92915050565b60008190508260206002028201111561346857600080fd5b92915050565b600082601f83011261347f57600080fd5b600261348c84828561339a565b91505092915050565b6000815190506134a481614ed0565b92915050565b6000813590506134b981614ee7565b92915050565b6000813590506134ce81614efe565b92915050565b60008083601f8401126134e657600080fd5b8235905067ffffffffffffffff8111156134ff57600080fd5b60208301915083600182028301111561351757600080fd5b9250929050565b600082601f83011261352f57600080fd5b813561353f8482602086016133fd565b91505092915050565b60008135905061355781614f15565b92915050565b60008151905061356c81614f15565b92915050565b60008135905061358181614f2c565b92915050565b60006020828403121561359957600080fd5b60006135a78482850161343b565b91505092915050565b60008060008060008060008060e0898b0312156135cc57600080fd5b60006135da8b828c0161343b565b98505060206135eb8b828c01613548565b975050604089013567ffffffffffffffff81111561360857600080fd5b6136148b828c016134d4565b9650965050606089013567ffffffffffffffff81111561363357600080fd5b61363f8b828c016134d4565b945094505060806136528b828c01613450565b92505060c06136638b828c01613572565b9150509295985092959890939650565b60008060008060a0858703121561368957600080fd5b600061369787828801613450565b94505060406136a88782880161343b565b93505060606136b987828801613548565b92505060806136ca87828801613572565b91505092959194509250565b6000602082840312156136e857600080fd5b60006136f684828501613495565b91505092915050565b60006020828403121561371157600080fd5b600061371f848285016134aa565b91505092915050565b6000806040838503121561373b57600080fd5b6000613749858286016134aa565b925050602061375a8582860161343b565b9150509250929050565b60006020828403121561377657600080fd5b6000613784848285016134bf565b91505092915050565b60006020828403121561379f57600080fd5b600082013567ffffffffffffffff8111156137b957600080fd5b6137c58482850161351e565b91505092915050565b600080604083850312156137e157600080fd5b600083013567ffffffffffffffff8111156137fb57600080fd5b6138078582860161351e565b925050602061381885828601613548565b9150509250929050565b60006020828403121561383457600080fd5b600061384284828501613548565b91505092915050565b60006020828403121561385d57600080fd5b600061386b8482850161355d565b91505092915050565b60008060008060a0858703121561388a57600080fd5b600061389887828801613548565b94505060206138a98782880161346e565b935050606085013567ffffffffffffffff8111156138c657600080fd5b6138d28782880161351e565b925050608085013567ffffffffffffffff8111156138ef57600080fd5b6138fb8782880161351e565b91505092959194509250565b600061391383836139fa565b905092915050565b61392481614650565b82525050565b61393b61393682614650565b614851565b82525050565b600061394c826144da565b61395681856144fd565b935083602082028501613968856144ca565b8060005b858110156139a457848403895281516139858582613907565b9450613990836144f0565b925060208a0199505060018101905061396c565b50829750879550505050505092915050565b6139bf81614662565b82525050565b6139ce8161466e565b82525050565b6139e56139e08261466e565b614863565b82525050565b6139f4816146eb565b82525050565b6000613a05826144e5565b613a0f818561450e565b9350613a1f81856020860161471e565b613a2881614957565b840191505092915050565b6000613a3e826144e5565b613a48818561451f565b9350613a5881856020860161471e565b613a6181614957565b840191505092915050565b6000613a77826144e5565b613a818185614530565b9350613a9181856020860161471e565b80840191505092915050565b6000613aaa60208361451f565b9150613ab582614982565b602082019050919050565b6000613acd60138361451f565b9150613ad8826149ab565b602082019050919050565b6000613af060148361451f565b9150613afb826149d4565b602082019050919050565b6000613b13601b8361451f565b9150613b1e826149fd565b602082019050919050565b6000613b3660198361451f565b9150613b4182614a26565b602082019050919050565b6000613b59601f8361451f565b9150613b6482614a4f565b602082019050919050565b6000613b7c60238361451f565b9150613b8782614a78565b604082019050919050565b6000613b9f601f8361451f565b9150613baa82614ac7565b602082019050919050565b6000613bc260188361451f565b9150613bcd82614af0565b602082019050919050565b6000613be560138361451f565b9150613bf082614b19565b602082019050919050565b6000613c08601c8361451f565b9150613c1382614b42565b602082019050919050565b6000613c2b601d8361451f565b9150613c3682614b6b565b602082019050919050565b6000613c4e60108361451f565b9150613c5982614b94565b602082019050919050565b6000613c7160118361451f565b9150613c7c82614bbd565b602082019050919050565b6000613c9460198361451f565b9150613c9f82614be6565b602082019050919050565b6000613cb760218361451f565b9150613cc282614c0f565b604082019050919050565b6000613cda60118361451f565b9150613ce582614c5e565b602082019050919050565b6000613cfd60218361451f565b9150613d0882614c87565b604082019050919050565b6000613d2060118361451f565b9150613d2b82614cd6565b602082019050919050565b6000613d4360148361451f565b9150613d4e82614cff565b602082019050919050565b6000613d66601783614530565b9150613d7182614d28565b601782019050919050565b6000613d8960268361451f565b9150613d9482614d51565b604082019050919050565b6000613dac60198361451f565b9150613db782614da0565b602082019050919050565b6000613dcf60258361451f565b9150613dda82614dc9565b604082019050919050565b6000613df260178361451f565b9150613dfd82614e18565b602082019050919050565b6000613e15601183614530565b9150613e2082614e41565b601182019050919050565b6000613e38602f8361451f565b9150613e4382614e6a565b604082019050919050565b613e57816146c4565b82525050565b613e6e613e69826146c4565b61487f565b82525050565b613e85613e80826146ce565b614889565b82525050565b6000613e9782886139d4565b602082019150613ea782876139d4565b602082019150613eb7828661392a565b601482019150613ec78285613e5d565b602082019150613ed78284613e74565b6004820191508190509695505050505050565b6000613ef68284613a6c565b915081905092915050565b6000613f0c82613d59565b9150613f188285613a6c565b9150613f2382613e08565b9150613f2f8284613a6c565b91508190509392505050565b6000602082019050613f50600083018461391b565b92915050565b6000606082019050613f6b600083018661391b565b613f78602083018561391b565b613f856040830184613e4e565b949350505050565b6000604082019050613fa2600083018561391b565b613faf6020830184613e4e565b9392505050565b600060a082019050613fcb600083018861391b565b613fd86020830187613e4e565b613fe56040830186613e4e565b8181036060830152613ff78185613a33565b9050818103608083015261400b8184613a33565b90509695505050505050565b600060208201905081810360008301526140318184613941565b905092915050565b600060208201905061404e60008301846139b6565b92915050565b600060208201905061406960008301846139c5565b92915050565b600060208201905061408460008301846139eb565b92915050565b600060208201905081810360008301526140a48184613a33565b905092915050565b600060608201905081810360008301526140c68186613a33565b90506140d56020830185613e4e565b6140e26040830184613e4e565b949350505050565b6000602082019050818103600083015261410381613a9d565b9050919050565b6000602082019050818103600083015261412381613ac0565b9050919050565b6000602082019050818103600083015261414381613ae3565b9050919050565b6000602082019050818103600083015261416381613b06565b9050919050565b6000602082019050818103600083015261418381613b29565b9050919050565b600060208201905081810360008301526141a381613b4c565b9050919050565b600060208201905081810360008301526141c381613b6f565b9050919050565b600060208201905081810360008301526141e381613b92565b9050919050565b6000602082019050818103600083015261420381613bb5565b9050919050565b6000602082019050818103600083015261422381613bd8565b9050919050565b6000602082019050818103600083015261424381613bfb565b9050919050565b6000602082019050818103600083015261426381613c1e565b9050919050565b6000602082019050818103600083015261428381613c41565b9050919050565b600060208201905081810360008301526142a381613c64565b9050919050565b600060208201905081810360008301526142c381613c87565b9050919050565b600060208201905081810360008301526142e381613caa565b9050919050565b6000602082019050818103600083015261430381613ccd565b9050919050565b6000602082019050818103600083015261432381613cf0565b9050919050565b6000602082019050818103600083015261434381613d13565b9050919050565b6000602082019050818103600083015261436381613d36565b9050919050565b6000602082019050818103600083015261438381613d7c565b9050919050565b600060208201905081810360008301526143a381613d9f565b9050919050565b600060208201905081810360008301526143c381613dc2565b9050919050565b600060208201905081810360008301526143e381613de5565b9050919050565b6000602082019050818103600083015261440381613e2b565b9050919050565b600060208201905061441f6000830184613e4e565b92915050565b600060408201905061443a6000830185613e4e565b6144476020830184613e4e565b9392505050565b6000614458614469565b905061446482826147ad565b919050565b6000604051905090565b600067ffffffffffffffff82111561448e5761448d614928565b5b602082029050919050565b600067ffffffffffffffff8211156144b4576144b3614928565b5b6144bd82614957565b9050602081019050919050565b6000819050602082019050919050565b600081519050919050565b600081519050919050565b6000602082019050919050565b600082825260208201905092915050565b600082825260208201905092915050565b600082825260208201905092915050565b600081905092915050565b6000614546826146c4565b9150614551836146c4565b9250827fffffffffffffffffffffffffffffffffffffffffffffffffffffffffffffffff038211156145865761458561489b565b5b828201905092915050565b600061459c826146c4565b91506145a7836146c4565b9250826145b7576145b66148ca565b5b828204905092915050565b60006145cd826146c4565b91506145d8836146c4565b9250817fffffffffffffffffffffffffffffffffffffffffffffffffffffffffffffffff04831182151516156146115761461061489b565b5b828202905092915050565b6000614627826146c4565b9150614632836146c4565b9250828210156146455761464461489b565b5b828203905092915050565b600061465b826146a4565b9050919050565b60008115159050919050565b6000819050919050565b60007fffffffff0000000000000000000000000000000000000000000000000000000082169050919050565b600073ffffffffffffffffffffffffffffffffffffffff82169050919050565b6000819050919050565b600063ffffffff82169050919050565b600060ff82169050919050565b60006146f6826146fd565b9050919050565b6000614708826146a4565b9050919050565b82818337600083830152505050565b60005b8381101561473c578082015181840152602081019050614721565b8381111561474b576000848401525b50505050565b600061475c826146c4565b915060008214156147705761476f61489b565b5b600182039050919050565b6000600282049050600182168061479357607f821691505b602082108114156147a7576147a66148f9565b5b50919050565b6147b682614957565b810181811067ffffffffffffffff821117156147d5576147d4614928565b5b80604052505050565b60006147e9826146c4565b91507fffffffffffffffffffffffffffffffffffffffffffffffffffffffffffffffff82141561481c5761481b61489b565b5b600182019050919050565b6000614832826146de565b915060ff8214156148465761484561489b565b5b600182019050919050565b600061485c8261486d565b9050919050565b6000819050919050565b600061487882614975565b9050919050565b6000819050919050565b600061489482614968565b9050919050565b7f4e487b7100000000000000000000000000000000000000000000000000000000600052601160045260246000fd5b7f4e487b7100000000000000000000000000000000000000000000000000000000600052601260045260246000fd5b7f4e487b7100000000000000000000000000000000000000000000000000000000600052602260045260246000fd5b7f4e487b7100000000000000000000000000000000000000000000000000000000600052604160045260246000fd5b6000601f19601f8301169050919050565b60008160e01b9050919050565b60008160601b9050919050565b7f537472696e67733a20686578206c656e67746820696e73756666696369656e74600082015250565b7f4272696467653a20616d6f756e74206973203000000000000000000000000000600082015250565b7f5061757361626c653a206e6f7420706175736564000000000000000000000000600082015250565b7f4272696467653a20696e737566696369656e742062616c616e63650000000000600082015250565b7f4272696467653a20616c72656164792070726f63657373656400000000000000600082015250565b7f4272696467653a207472616e73616374696f6e48617368206973206e756c6c00600082015250565b7f4272696467653a20616d6f756e74206973206c657373207468616e206d696e6960008201527f6d756d0000000000000000000000000000000000000000000000000000000000602082015250565b7f4272696467653a20746f426c6f636b636861696e206e6f742065786973747300600082015250565b7f4272696467653a207265636569766572206973207a65726f0000000000000000600082015250565b7f4272696467653a206e6f74206d6f6e69746f7200000000000000000000000000600082015250565b7f4272696467653a20696e73756666696369656e742062616c616e636500000000600082015250565b7f4272696467653a20626c6f636b636861696e206e6f7420657869737473000000600082015250565b7f5061757361626c653a2070617573656400000000000000000000000000000000600082015250565b7f4272696467653a206e6f2073656e646572000000000000000000000000000000600082015250565b7f4272696467653a20626c6f636b48617368206973206e756c6c00000000000000600082015250565b7f4272696467653a2066726f6d426c6f636b636861696e206e6f7420657869737460008201527f7300000000000000000000000000000000000000000000000000000000000000602082015250565b7f4272696467653a206e6f74206f776e6572000000000000000000000000000000600082015250565b7f4272696467653a20626c6f636b636861696e20616c726561647920657869737460008201527f7300000000000000000000000000000000000000000000000000000000000000602082015250565b7f4272696467653a206e6f742061646d696e000000000000000000000000000000600082015250565b7f4272696467653a207a65726f2061646472657373000000000000000000000000600082015250565b7f416363657373436f6e74726f6c3a206163636f756e7420000000000000000000600082015250565b7f4272696467653a207265717569726573206174206c65617374203120626c6f6360008201527f6b636861696e0000000000000000000000000000000000000000000000000000602082015250565b7f4272696467653a20746f41646472657373206973206e756c6c00000000000000600082015250565b7f4272696467653a206761735072696365206973206c657373207468616e206d6960008201527f6e696d756d000000000000000000000000000000000000000000000000000000602082015250565b7f4272696467653a20626967676572207468616e20313025000000000000000000600082015250565b7f206973206d697373696e6720726f6c6520000000000000000000000000000000600082015250565b7f416363657373436f6e74726f6c3a2063616e206f6e6c792072656e6f756e636560008201527f20726f6c657320666f722073656c660000000000000000000000000000000000602082015250565b614ec281614650565b8114614ecd57600080fd5b50565b614ed981614662565b8114614ee457600080fd5b50565b614ef08161466e565b8114614efb57600080fd5b50565b614f0781614678565b8114614f1257600080fd5b50565b614f1e816146c4565b8114614f2957600080fd5b50565b614f35816146ce565b8114614f4057600080fd5b5056fea26469706673582212202c53c719f18942d95c41d900aa2e249198c37660b16f79e648acf407063d2c5b64736f6c63430008040033",
  "immutableReferences": {},
  "source": "// SPDX-License-Identifier: MIT\r\npragma solidity 0.8.4;\r\n\r\n/// @title BRZ token Bridge\r\n/// @author Solange Gueiros\r\n\r\n// Inpired on \r\n// https://github.com/rsksmart/tokenbridge/blob/master/bridge/contracts/Bridge.sol\r\n// https://github.com/DistributedCollective/Bridge-SC/blob/master/sovryn-token-bridge/bridge/contracts/Bridge_v3.sol\r\n\r\n// AccessControl.sol :  https://github.com/OpenZeppelin/openzeppelin-contracts/blob/v4.1.0/contracts/access/AccessControl.sol\r\n// Pausable.sol :       https://github.com/OpenZeppelin/openzeppelin-contracts/blob/v4.1.0/contracts/security/Pausable.sol\r\nimport \"./ozeppelin/access/AccessControl.sol\";\r\nimport \"./ozeppelin/security/Pausable.sol\";\r\nimport \"./IBridge.sol\";\r\n\r\n\r\n/**\r\n * @dev BRZ token Bridge\r\n *\r\n * Author: Solange Gueiros\r\n *\r\n * Smart contract to cross the BRZ token between EVM compatible blockchains.\r\n *\r\n * The tokens are crossed by TransferoSwiss, the company that controls the issuance of BRZs.\r\n *\r\n * It uses [Open Zeppelin Contracts]\r\n * (https://github.com/OpenZeppelin/openzeppelin-contracts/blob/v4.1.0/)\r\n *\r\n */\r\ncontract Bridge is AccessControl, IBridge, Pausable {\r\n  address private constant ZERO_ADDRESS = address(0);\r\n  bytes32 private constant NULL_HASH = bytes32(0);\r\n  bytes32 public constant MONITOR_ROLE = keccak256(\"MONITOR_ROLE\");\r\n  bytes32 public constant ADMIN_ROLE = keccak256(\"ADMIN_ROLE\");\r\n\r\n  /**\r\n   * @dev DECIMALPERCENT is the representation of 100% using (2) decimal places\r\n   * 100.00 = percentage accuracy (2) to 100%\r\n   */\r\n  uint256 public constant DECIMALPERCENT = 10000;\r\n\r\n  IERC20 public token;\r\n  uint256 private totalFeeReceivedBridge; //fee received per Bridge, not for transaction in other blockchain\r\n  uint256 private feePercentageBridge;    //Include 2 decimal places\r\n  string[] public blockchain;\r\n  mapping(string => uint256) private minGasPrice;\r\n  mapping(string => uint256) private minTokenAmount;\r\n  mapping(bytes32 => bool) public processed;\r\n\r\n  /**\r\n   * @dev Function called only when the smart contract is deployed.\r\n   *\r\n   * Parameters:\r\n   * - address tokenAddress - address of BRZ token used in this blockchain network\r\n   *\r\n   * Actions:\r\n   * - the transaction's sender will be added in the DEFAULT_ADMIN_ROLE.\r\n   * - the token will be defined by the parameter tokenAddress\r\n   * - the feePercentageBridge default value is be setted in 10, which means 0.1%\r\n   */\r\n  constructor(address tokenAddress) {\r\n    _setupRole(DEFAULT_ADMIN_ROLE, _msgSender());\r\n    token = IERC20(tokenAddress);\r\n    feePercentageBridge = 10; //0.1%\r\n  }\r\n\r\n  /**\r\n   * @dev Modifier which verifies if the caller is an owner,\r\n   * it means he has the role `DEFAULT_ADMIN_ROLE`.\r\n   *\r\n   * The role `DEFAULT_ADMIN_ROLE` is defined by Open Zeppelin's AccessControl smart contract.\r\n   *\r\n   * By default (setted in the constructor) the account which deployed this smart contract is in this role.\r\n   *\r\n   * This owner can add / remove other owners.\r\n   */\r\n  modifier onlyOwner() {\r\n    require(hasRole(DEFAULT_ADMIN_ROLE, _msgSender()), \"Bridge: not owner\");\r\n    _;\r\n  }\r\n\r\n  /**\r\n   * @dev Modifier which verifies if the caller is a monitor,\r\n   * it means he has the role `MONITOR_ROLE`.\r\n   *\r\n   * Role MONITOR are referred to its `bytes32` identifier,\r\n   * defined in the `public constant` called MONITOR_ROLE.\r\n   * It should be exposed in the external API and be unique.\r\n   *\r\n   * Role MONITOR is used to manage the permissions of monitor's addresses.\r\n   */\r\n  modifier onlyMonitor() {\r\n    require(hasRole(MONITOR_ROLE, _msgSender()), \"Bridge: not monitor\");\r\n    _;\r\n  }\r\n\r\n  /**\r\n   * @dev Modifier which verifies if the caller is a monitor,\r\n   * it means he has the role `ADMIN_ROLE`.\r\n   *\r\n   * Role ADMIN are referred to its `bytes32` identifier,\r\n   * defined in the `public constant` called ADMIN_ROLE.\r\n   * It should be exposed in the external API and be unique.\r\n   *\r\n   * Role ADMIN is used to manage the permissions for update minimum fee per blockchain.\r\n   */\r\n  modifier onlyAdmin() {\r\n    require(hasRole(ADMIN_ROLE, _msgSender()), \"Bridge: not admin\");\r\n    _;\r\n  }\r\n\r\n  /**\r\n   * @dev Function which returns the bridge's version.\r\n   *\r\n   * This is a fixed value define in source code.\r\n   *\r\n   * Parameters: none\r\n   *\r\n   * Returns: string\r\n   */\r\n  function version() external pure override returns (string memory) {\r\n    return \"v0\";\r\n  }\r\n\r\n  /**\r\n   * @dev Private function to compare two strings\r\n   * and returns `true` if the strings are equal,\r\n   * otherwise it returns false.\r\n   *\r\n   * Parameters: stringA, stringB\r\n   *\r\n   * Returns: bool\r\n   */\r\n  function compareStrings(string memory a, string memory b)\r\n    private\r\n    pure\r\n    returns (bool)\r\n  {\r\n    return (keccak256(abi.encodePacked((a))) ==\r\n      keccak256(abi.encodePacked((b))));\r\n  }\r\n\r\n  /**\r\n   * @dev This function starts the process of crossing tokens in the Bridge.\r\n   *\r\n   * > Any account / person can call it!\r\n   *\r\n   * Can not be called if the Bridge is paused.\r\n   *\r\n   * Parameters:\r\n   * - amount - gross amount of tokens to be crossed.\r\n   *   - The Bridge fee will be deducted from this amount.\r\n   * - transactionFee - array with the fees:\r\n   *   - transactionFee[0] - fee in BRL - this fee will be added to amount transfered from caller's account.\r\n   *   - transactionFee[1] - gas price for fee in destiny currency(minor unit) - this information will be\r\n   *      used in the destination Blockchain,\r\n   *      by the monitor who will create the transaction and send using this fee defined here.\r\n   * - toBlockchain - the amount will be sent to this blockchain.\r\n   * - toAddress - the amount will be sent to this address. It can be diferent from caller's address.\r\n   * This is a string because some blockchain could not have the same pattern from Ethereum / RSK / BSC.\r\n   *\r\n   * Returns: bool - true if it is sucessful.\r\n   *\r\n   * #### More info about fees\r\n   *\r\n   * - Blockchain / transaction fee in BRL - it will be transfered from user's account,\r\n   * along with the amount he would like to receive in the account.\r\n   * This will be spent in `toBlockchain`.\r\n   * Does not depend of amount, but of destination blockchain.\r\n   *\r\n   * - Bridge Fee - it is deducted from the requested amount.\r\n   * It is a percentage of the requested amount.\r\n   * Cannot include the transaction fee in order to be calculated.\r\n   *\r\n   * > Before call this function, the caller MUST have called function `approve` in BRZ token,\r\n   * > allowing the bridge's smart contract address to use the BRZ tokens,\r\n   * > calling the function `transferFrom`.\r\n   *\r\n   * References:\r\n   *\r\n   * ERC-20 tokens approve and transferFrom pattern:\r\n   * [eip-20#transferfrom](https://eips.ethereum.org/EIPS/eip-20#transferfrom)\r\n   *\r\n   * Requirements:\r\n   * - toBlockchain exists.\r\n   * - toAddress is not an empty string.\r\n   * - gasPrice in destiny blockchain (minor unit) greater than minGasPrice in toBlockchain\r\n   * - amount must be greater than minTokenAmount in toBlockchain\r\n   * - amount greater than zero.\r\n   *\r\n   * Actions:\r\n   * - add the blockchain fee in BRZ to amount in BRZ, in totalAmount.\r\n   * - calculate bridge's fee using the original amount to be sent.\r\n   * - discount bridge's fee from the original amount, in amountMinusFees.\r\n   * - add bridge's fee to `totalFeeReceivedBridge`, a variable to store all the fees received by the bridge.\r\n   * - BRZ transfer totalAmount from the caller's address to bridge address.\r\n   * - emit `CrossRequest` event, with the parameters:\r\n   *   - from - address of the caller's function.\r\n   *   - amount - the net amount to be transfered in the destination blockchain.\r\n   *   - toFee - the gas price fee, which must be used to send the transfer transaction in the destination blockchain.\r\n   *   - toAddress - string representing the address which will receive the tokens.\r\n   *   - toBlockchain - the destination blockchain.\r\n   *\r\n   * > The `CrossRequest` event is very important because it must be listened by the monitor,\r\n   * an external program which will\r\n   * send the transaction on the destination blockchain.\r\n   *\r\n   */\r\n  function receiveTokens(\r\n    uint256 amount,\r\n    uint256[2] memory transactionFee,\r\n    string memory toBlockchain,\r\n    string memory toAddress\r\n  ) external override whenNotPaused returns (bool) {\r\n    require(existsBlockchain(toBlockchain), \"Bridge: toBlockchain not exists\");\r\n    require(!compareStrings(toAddress, \"\"), \"Bridge: toAddress is null\");\r\n    require(transactionFee[1] >= minGasPrice[toBlockchain], \"Bridge: gasPrice is less than minimum\");\r\n    require(amount > 0, \"Bridge: amount is 0\");\r\n    require(amount >= minTokenAmount[toBlockchain], \"Bridge: amount is less than minimum\");\r\n\r\n    //The total amount is the amount desired plus the blockchain fee to destination, in the token unit\r\n    uint256 totalAmount = amount + transactionFee[0];\r\n\r\n    //Bridge fee or service fee\r\n    uint256 bridgeFee = (amount * feePercentageBridge) / DECIMALPERCENT;\r\n    uint256 amountMinusFees = amount - bridgeFee;\r\n    totalFeeReceivedBridge += bridgeFee;\r\n\r\n    //This is the message for Monitor off-chain manage the transaction and send the tokens on the other Blockchain\r\n    emit CrossRequest(_msgSender(), amountMinusFees, transactionFee[1], toAddress, toBlockchain);\r\n\r\n    //Transfer the tokens on IERC20, they should be already approved for the bridge Address to use them\r\n    token.transferFrom(_msgSender(), address(this), totalAmount);\r\n    return true;\r\n  }\r\n\r\n  /**\r\n   * @dev This function calculate a transaction id hash.\r\n   *\r\n   * Any person can call it.\r\n   *\r\n   * Parameters:\r\n   * - hashes - from transaction in the origin blockchain:\r\n   *   - blockHash - hash of the block where was the transaction `receiveTokens`\r\n   *   - transactionHash - hash of the transaction `receiveTokens` with the event `CrossRequest`.\r\n   * - receiver - the address which will receive the tokens.\r\n   * - amount - the net amount to be transfered.\r\n   * - logIndex - the index of the event `CrossRequest` in the logs of transaction.\r\n   *\r\n   * Returns: a bytes32 hash of all the information sent.\r\n   *\r\n   * Notes:\r\n   * It did not use origin blockchain and sender address\r\n   * because the possibility of having the same origin transaction from different blockchain source is minimal.\r\n   *\r\n   * It is a point to be evaluated in an audit.\r\n   *\r\n   */\r\n  function getTransactionId(\r\n    bytes32[2] calldata hashes, //blockHash, transactionHash\r\n    address receiver,\r\n    uint256 amount,\r\n    uint32 logIndex\r\n  ) public pure override returns (bytes32) {\r\n    return\r\n      keccak256(\r\n        abi.encodePacked(hashes[0], hashes[1], receiver, amount, logIndex)\r\n      );\r\n  }\r\n\r\n  /**\r\n   * @dev This function update the variable processed for a transaction\r\n   *\r\n   * > Only monitor can call it!\r\n   *\r\n   * This variable is a public mapping.\r\n   *\r\n   * Each bytes32 which represents a Transaction Id has his boolen value stored.\r\n   *\r\n   */\r\n  function _processTransaction(\r\n    bytes32[2] calldata hashes, //blockHash, transactionHash\r\n    address receiver,\r\n    uint256 amount,\r\n    uint32 logIndex\r\n  ) private onlyMonitor whenNotPaused {\r\n    bytes32 transactionId = getTransactionId(\r\n      hashes,\r\n      receiver,\r\n      amount,\r\n      logIndex\r\n    );\r\n    require(!processed[transactionId], \"Bridge: already processed\");\r\n    processed[transactionId] = true;\r\n  }\r\n\r\n  /**\r\n   * @dev This function transfer tokens from the the internal balance of bridge smart contract\r\n   * to the internal balance of the destination address.\r\n   *\r\n   * The token.balanceOf(bridgeAddress) must always be greather than or equal the total amount to be claimed by users,\r\n   * as there may be tokens not yet claimed.\r\n   *\r\n   * Can not be called if the Bridge is paused.\r\n   *\r\n   * > Only monitor can call it!\r\n   *\r\n   */\r\n  function _sendToken(address to, uint256 amount)\r\n    private\r\n    onlyMonitor\r\n    whenNotPaused\r\n    returns (bool)\r\n  {\r\n    require(\r\n      token.balanceOf(address(this)) >= amount,\r\n      \"Bridge: insufficient balance\"\r\n    );\r\n    token.transfer(to, amount);\r\n    return true;\r\n  }\r\n\r\n  /**\r\n   * @dev This function accept the cross of token,\r\n   * which means it is called in the destination blockchain,\r\n   * who will send the tokens accepted to be crossed.\r\n   *\r\n   * > Only monitor can call it!\r\n   *\r\n   * Can not be called if the Bridge is paused.\r\n   *\r\n   * Parameters:\r\n   * - receiver - the address which will receive the tokens.\r\n   * - amount - the net amount to be transfered.\r\n   * - sender - string representing the address of the token's sender.\r\n   * - fromBlockchain - the origin blockchain.\r\n   * - hashes - from transaction in the origin blockchain:\r\n   *   - blockHash - hash of the block where was the transaction `receiveTokens`.\r\n   *   - transactionHash - hash of the transaction `receiveTokens` with the event `CrossRequest`.\r\n   * - logIndex - the index of the event `CrossRequest` in the transaction logs.\r\n   *\r\n   * Returns: bool - true if it is sucessful\r\n   *\r\n   * Requirements:\r\n   * - receiver is not a zero address.\r\n   * - amount greater than zero.\r\n   * - sender is not an empty string.\r\n   * - fromBlockchain exists.\r\n   * - blockHash is not null hash.\r\n   * - transactionHash is not hash.\r\n   *\r\n   * Actions:\r\n   * - processTransaction:\r\n   *   - getTransactionId\r\n   *   - verify if the transactionId was already processed\r\n   *   - update the status processed for transactionId\r\n   * - sendToken:\r\n   *   - check if the bridge has in his balance at least the amount required to do the transfer\r\n   *   - transfer the amount tokens to destination address\r\n   *\r\n   */\r\n  function acceptTransfer(\r\n    address receiver,\r\n    uint256 amount,\r\n    string calldata sender,\r\n    string calldata fromBlockchain,\r\n    bytes32[2] calldata hashes, //blockHash, transactionHash\r\n    uint32 logIndex\r\n  ) external override onlyMonitor whenNotPaused returns (bool) {\r\n    require(receiver != ZERO_ADDRESS, \"Bridge: receiver is zero\");\r\n    require(amount > 0, \"Bridge: amount is 0\");\r\n    require(bytes(sender).length > 0, \"Bridge: no sender\");\r\n    require(\r\n      existsBlockchain(fromBlockchain),\r\n      \"Bridge: fromBlockchain not exists\"\r\n    );\r\n    require(hashes[0] != NULL_HASH, \"Bridge: blockHash is null\");\r\n    require(hashes[1] != NULL_HASH, \"Bridge: transactionHash is null\");\r\n\r\n    _processTransaction(hashes, receiver, amount, logIndex);\r\n    _sendToken(receiver, amount);\r\n    return true;\r\n  }\r\n\r\n  /**\r\n   * @dev Returns total of fees received by bridge.\r\n   *\r\n   * Parameters: none\r\n   *\r\n   * Returns: integer\r\n   *\r\n   */\r\n  function getTotalFeeReceivedBridge()\r\n    external\r\n    view\r\n    override\r\n    returns (uint256)\r\n  {\r\n    return totalFeeReceivedBridge;\r\n  }\r\n\r\n  /**\r\n   * @dev Returns token balance in bridge.\r\n   *\r\n   * Parameters: none\r\n   *\r\n   * Returns: integer amount of tokens in bridge\r\n   *\r\n   */\r\n  function getTokenBalance() external view override returns (uint256) {\r\n    return token.balanceOf(address(this));\r\n  }\r\n\r\n  /**\r\n   * @dev Withdraw tokens from bridge\r\n   *\r\n   * Only owner can call it.\r\n   *\r\n   * Can be called even if the Bridge is paused,\r\n   * because can happens a problem and it is necessary to withdraw tokens,\r\n   * maybe to create a new version of bridge, for example.\r\n   *\r\n   * The tokens only can be sent to the caller's function.\r\n   *\r\n   * Parameters: integer amount of tokens\r\n   *\r\n   * Returns: true if it is successful\r\n   *\r\n   * Requirements:\r\n   * - amount less or equal balance of tokens in bridge.\r\n   *\r\n   */\r\n  function withdrawToken(uint256 amount) external onlyOwner returns (bool) {\r\n    require(\r\n      amount <= token.balanceOf(address(this)),\r\n      \"Bridge: insuficient balance\"\r\n    );\r\n    token.transfer(_msgSender(), amount);\r\n    return true;\r\n  }\r\n\r\n  /**\r\n   * @dev This function add an address in the `MONITOR_ROLE`.\r\n   *\r\n   * Only owner can call it.\r\n   *\r\n   * Can not be called if the Bridge is paused.\r\n   *\r\n   * Parameters: address of monitor to be added\r\n   *\r\n   * Returns: bool - true if it is sucessful\r\n   *\r\n   */\r\n  function addMonitor(address account)\r\n    external\r\n    onlyOwner\r\n    whenNotPaused\r\n    returns (bool)\r\n  {\r\n    grantRole(MONITOR_ROLE, account);\r\n    return true;\r\n  }\r\n\r\n  /**\r\n   * @dev This function excludes an address in the `MONITOR_ROLE`.\r\n   *\r\n   * Only owner can call it.\r\n   *\r\n   * Can not be called if the Bridge is paused.\r\n   *\r\n   * Parameters: address of monitor to be excluded\r\n   *\r\n   * Returns: bool - true if it is sucessful\r\n   *\r\n   */\r\n  function delMonitor(address account)\r\n    external\r\n    onlyOwner\r\n    whenNotPaused\r\n    returns (bool)\r\n  {\r\n    //Can be called only by the account defined in constructor: DEFAULT_ADMIN_ROLE\r\n    revokeRole(MONITOR_ROLE, account);\r\n    return true;\r\n  }\r\n\r\n  /**\r\n   * @dev This function add an address in the `ADMIN_ROLE`.\r\n   *\r\n   * Only owner can call it.\r\n   *\r\n   * Can not be called if the Bridge is paused.\r\n   *\r\n   * Parameters: address of admin to be added\r\n   *\r\n   * Returns: bool - true if it is sucessful\r\n   *\r\n   */\r\n  function addAdmin(address account)\r\n    external\r\n    onlyOwner\r\n    whenNotPaused\r\n    returns (bool)\r\n  {\r\n    grantRole(ADMIN_ROLE, account);\r\n    return true;\r\n  }\r\n\r\n  /**\r\n   * @dev This function excludes an address in the `ADMIN_ROLE`.\r\n   *\r\n   * Only owner can call it.\r\n   *\r\n   * Can not be called if the Bridge is paused.\r\n   *\r\n   * Parameters: address of admin to be excluded\r\n   *\r\n   * Returns: bool - true if it is sucessful\r\n   *\r\n   */\r\n  function delAdmin(address account)\r\n    external\r\n    onlyOwner\r\n    whenNotPaused\r\n    returns (bool)\r\n  {\r\n    //Can be called only by the account defined in constructor: DEFAULT_ADMIN_ROLE\r\n    revokeRole(ADMIN_ROLE, account);\r\n    return true;\r\n  }\r\n\r\n  /**\r\n   * @dev This function update the minimum blockchain fee - gas price - in the minor unit.\r\n   *\r\n   * Only admin can call it.\r\n   *\r\n   * Can not be called if the Bridge is paused.\r\n   *\r\n   * Parameters: integer, the new fee\r\n   *\r\n   * Returns: bool - true if it is sucessful\r\n   *\r\n   * Requirements:\r\n   * - blockchain must exists.\r\n   *\r\n   * Emit the event `MinGasPriceChanged(blockchain, oldFee, newFee)`.\r\n   *\r\n   */\r\n  function setMinGasPrice(string memory blockchainName, uint256 newFee)\r\n    public\r\n    onlyAdmin\r\n    whenNotPaused\r\n    returns (bool)\r\n  {\r\n    require(existsBlockchain(blockchainName), \"Bridge: blockchain not exists\");\r\n    emit MinGasPriceChanged(blockchainName, minGasPrice[blockchainName], newFee);\r\n    minGasPrice[blockchainName] = newFee;\r\n    return true;\r\n  }\r\n\r\n  /**\r\n   * @dev Returns the minimum gas price to cross tokens.\r\n   *\r\n   * The function acceptTransfer can not accpept less than the minimum gas price per blockchain.\r\n   *\r\n   * Parameters: string, blockchain name\r\n   *\r\n   * Returns: integer\r\n   *\r\n   */\r\n  function getMinGasPrice(string memory blockchainName) external view override returns (uint256) {\r\n    return minGasPrice[blockchainName];\r\n  }\r\n\r\n  /**\r\n   * @dev This function update the minimum token's amount to be crossed.\r\n   *\r\n   * Only admin can call it.\r\n   *\r\n   * Can not be called if the Bridge is paused.\r\n   *\r\n   * Parameters: integer, the new amount\r\n   *\r\n   * Returns: bool - true if it is sucessful\r\n   *\r\n   * Requirements:\r\n   * - blockchain must exists.\r\n   *\r\n   * Emit the event `MinTokenAmountChanged(blockchain, oldMinimumAmount, newMinimumAmount)`.\r\n   *\r\n   */\r\n  function setMinTokenAmount(string memory blockchainName, uint256 newAmount)\r\n    public\r\n    onlyAdmin\r\n    whenNotPaused\r\n    returns (bool)\r\n  {\r\n    require(existsBlockchain(blockchainName), \"Bridge: blockchain not exists\");\r\n    emit MinTokenAmountChanged(blockchainName, minTokenAmount[blockchainName], newAmount);\r\n    minTokenAmount[blockchainName] = newAmount;\r\n    return true;\r\n  }\r\n\r\n  /**\r\n   * @dev Returns the minimum token amount to cross.\r\n   *\r\n   * The function acceptTransfer can not accpept less than the minimum per blockchain.\r\n   *\r\n   * Parameters: string, blockchain name\r\n   *\r\n   * Returns: integer\r\n   *\r\n   */\r\n  function getMinTokenAmount(string memory blockchainName) external view override returns (uint256) {\r\n    return minTokenAmount[blockchainName];\r\n  }\r\n\r\n  /**\r\n   * @dev This function update the fee percentage bridge.\r\n   *\r\n   * Only owner can call it.\r\n   *\r\n   * Can not be called if the Bridge is paused.\r\n   *\r\n   * Parameters: integer, the new fee\r\n   *\r\n   * Returns: bool - true if it is sucessful\r\n   *\r\n   * Requirements:\r\n   * - The new fee must be lower than 10% .\r\n   *\r\n   * Emit the event `FeePercentageBridgeChanged(oldFee, newFee)`.\r\n   *\r\n   */\r\n  function setFeePercentageBridge(uint256 newFee)\r\n    external\r\n    onlyOwner\r\n    whenNotPaused\r\n    returns (bool)\r\n  {\r\n    require(newFee < (DECIMALPERCENT / 10), \"Bridge: bigger than 10%\");\r\n    emit FeePercentageBridgeChanged(feePercentageBridge, newFee);\r\n    feePercentageBridge = newFee;\r\n    return true;\r\n  }\r\n\r\n  /**\r\n   * @dev Returns the fee percentage bridge.\r\n   *\r\n   * For each amount received in the bridge, a fee percentage is discounted.\r\n   * This function returns this fee percentage bridge.\r\n   *\r\n   * Parameters: none\r\n   *\r\n   * Returns: integer\r\n   *\r\n   */\r\n  function getFeePercentageBridge() external view override returns (uint256) {\r\n    return feePercentageBridge;\r\n  }\r\n\r\n  /**\r\n   * @dev This function update the BRZ token.\r\n   *\r\n   * Only owner can call it.\r\n   *\r\n   * Can not be called if the Bridge is paused.\r\n   *\r\n   * Parameters: address of new BRZ token\r\n   *\r\n   * Returns: bool - true if it is sucessful\r\n   *\r\n   * Requirements:\r\n   * - The token address must not be a zero address.\r\n   *\r\n   * Emit the event `TokenChanged(tokenAddress)`.\r\n   *\r\n   */\r\n  function setToken(address tokenAddress)\r\n    external\r\n    onlyOwner\r\n    whenNotPaused\r\n    returns (bool)\r\n  {\r\n    require(tokenAddress != ZERO_ADDRESS, \"Bridge: zero address\");\r\n    emit TokenChanged(tokenAddress);\r\n    token = IERC20(tokenAddress);\r\n    return true;\r\n  }\r\n\r\n  /**\r\n   * @dev Returns if a blockchain is in the list of allowed blockchains to cross tokens using the bridge.\r\n   *\r\n   * Parameters: string name of blockchain\r\n   *\r\n   * Returns: boolean true if it is in the list\r\n   *\r\n   */\r\n  function existsBlockchain(string memory name)\r\n    public\r\n    view\r\n    override\r\n    returns (bool)\r\n  {\r\n    for (uint8 i = 0; i < blockchain.length; i++) {\r\n      if (compareStrings(name, blockchain[i])) {\r\n        return true;\r\n      }\r\n    }\r\n    return false;\r\n  }\r\n\r\n  /**\r\n   * @dev List of blockchains allowed to cross tokens using the bridge.\r\n   *\r\n   * Parameters: none\r\n   *\r\n   * Returns: an array of strings containing the blockchain list\r\n   *\r\n   */\r\n  function listBlockchain() external view override returns (string[] memory) {\r\n    return blockchain;\r\n  }\r\n\r\n  /**\r\n   * @dev This function include a new blockchain in the list of allowed blockchains used in the bridge.\r\n   *\r\n   * Only owner can call it.\r\n   *\r\n   * Can not be called if the Bridge is paused.\r\n   *\r\n   * Parameters: string name of blockchain to be added\r\n   *\r\n   * Returns: index of blockchain in the array\r\n   *\r\n   * Requirements:\r\n   * - blockchain not exists.\r\n   *\r\n   */\r\n  function addBlockchain(string memory name)\r\n    external\r\n    onlyOwner\r\n    whenNotPaused\r\n    returns (uint256)\r\n  {\r\n    require(!existsBlockchain(name), \"Bridge: blockchain already exists\");\r\n    blockchain.push(name);\r\n    return (blockchain.length - 1);\r\n  }\r\n\r\n  /**\r\n   * @dev This function exclude a blockchain in the list of allowed blockchains used in the bridge.\r\n   *\r\n   * Only owner can call it.\r\n   *\r\n   * Can not be called if the Bridge is paused.\r\n   *\r\n   * Parameters: string name of blockchain to be excluded\r\n   *\r\n   * Returns: bool - true if it is sucessful\r\n   *\r\n   * Requirements:\r\n   * - blockchain exists.\r\n   * - there must be at least one blockchain left.\r\n   *\r\n   */\r\n  function delBlockchain(string memory name)\r\n    external\r\n    onlyOwner\r\n    whenNotPaused\r\n    returns (bool)\r\n  {\r\n    require(existsBlockchain(name), \"Bridge: blockchain not exists\");\r\n    require(blockchain.length > 1, \"Bridge: requires at least 1 blockchain\");\r\n\r\n    uint256 index;\r\n    for (uint256 i = 0; i < blockchain.length; i++) {\r\n      if (compareStrings(name, blockchain[i])) {\r\n        index = i;\r\n        break;\r\n      }\r\n    }\r\n    blockchain[index] = blockchain[blockchain.length - 1];\r\n    blockchain.pop();\r\n    return true;\r\n  }\r\n\r\n  /**\r\n   * @dev This function pauses the bridge.\r\n   *\r\n   * Only owner can call it.\r\n   *\r\n   * Parameters: none\r\n   *\r\n   * Returns: none\r\n   *\r\n   * Requirements:\r\n   *\r\n   * - The contract must not be paused.\r\n   *\r\n   */\r\n  function pause() external onlyOwner {\r\n    /**\r\n     * @dev See {Pausable-_pause}.\r\n     *\r\n     * Requirements:\r\n     *\r\n     * - The contract must not be paused.\r\n     */\r\n    _pause();\r\n  }\r\n\r\n  /**\r\n   * @dev This function unpauses the bridge.\r\n   *\r\n   * Only owner can call it.\r\n   *\r\n   * Parameters: none\r\n   *\r\n   * Returns: none\r\n   *\r\n   * Requirements:\r\n   *\r\n   * - The contract must be paused.\r\n   */\r\n  function unpause() external onlyOwner {\r\n    /**\r\n     * @dev See {Pausable-_unpause}.\r\n     *\r\n     * Requirements:\r\n     *\r\n     * - The contract must be paused.\r\n     */\r\n    _unpause();\r\n  }\r\n}\r\n",
  "sourcePath": "C:\\BLOCKCHAIN\\TRANSFERO\\GITHUB\\brz-token-bridge-SOL\\contracts\\Bridge.sol",
  "compiler": {
    "name": "solc",
    "version": "0.8.4+commit.c7e474f2.Emscripten.clang"
  },
  "schemaVersion": "3.4.3",
  "updatedAt": "2021-09-18T19:15:55.092Z",
  "devdoc": {
    "details": "BRZ token Bridge Author: Solange Gueiros Smart contract to cross the BRZ token between EVM compatible blockchains. The tokens are crossed by TransferoSwiss, the company that controls the issuance of BRZs. It uses [Open Zeppelin Contracts] (https://github.com/OpenZeppelin/openzeppelin-contracts/blob/v4.1.0/)",
    "kind": "dev",
    "methods": {
      "acceptTransfer(address,uint256,string,string,bytes32[2],uint32)": {
        "details": "This function accept the cross of token, which means it is called in the destination blockchain, who will send the tokens accepted to be crossed. > Only monitor can call it! Can not be called if the Bridge is paused. Parameters: - receiver - the address which will receive the tokens. - amount - the net amount to be transfered. - sender - string representing the address of the token's sender. - fromBlockchain - the origin blockchain. - hashes - from transaction in the origin blockchain:   - blockHash - hash of the block where was the transaction `receiveTokens`.   - transactionHash - hash of the transaction `receiveTokens` with the event `CrossRequest`. - logIndex - the index of the event `CrossRequest` in the transaction logs. Returns: bool - true if it is sucessful Requirements: - receiver is not a zero address. - amount greater than zero. - sender is not an empty string. - fromBlockchain exists. - blockHash is not null hash. - transactionHash is not hash. Actions: - processTransaction:   - getTransactionId   - verify if the transactionId was already processed   - update the status processed for transactionId - sendToken:   - check if the bridge has in his balance at least the amount required to do the transfer   - transfer the amount tokens to destination address"
      },
      "addAdmin(address)": {
        "details": "This function add an address in the `ADMIN_ROLE`. Only owner can call it. Can not be called if the Bridge is paused. Parameters: address of admin to be added Returns: bool - true if it is sucessful"
      },
      "addBlockchain(string)": {
        "details": "This function include a new blockchain in the list of allowed blockchains used in the bridge. Only owner can call it. Can not be called if the Bridge is paused. Parameters: string name of blockchain to be added Returns: index of blockchain in the array Requirements: - blockchain not exists."
      },
      "addMonitor(address)": {
        "details": "This function add an address in the `MONITOR_ROLE`. Only owner can call it. Can not be called if the Bridge is paused. Parameters: address of monitor to be added Returns: bool - true if it is sucessful"
      },
      "constructor": {
        "details": "Function called only when the smart contract is deployed. Parameters: - address tokenAddress - address of BRZ token used in this blockchain network Actions: - the transaction's sender will be added in the DEFAULT_ADMIN_ROLE. - the token will be defined by the parameter tokenAddress - the feePercentageBridge default value is be setted in 10, which means 0.1%"
      },
      "delAdmin(address)": {
        "details": "This function excludes an address in the `ADMIN_ROLE`. Only owner can call it. Can not be called if the Bridge is paused. Parameters: address of admin to be excluded Returns: bool - true if it is sucessful"
      },
      "delBlockchain(string)": {
        "details": "This function exclude a blockchain in the list of allowed blockchains used in the bridge. Only owner can call it. Can not be called if the Bridge is paused. Parameters: string name of blockchain to be excluded Returns: bool - true if it is sucessful Requirements: - blockchain exists. - there must be at least one blockchain left."
      },
      "delMonitor(address)": {
        "details": "This function excludes an address in the `MONITOR_ROLE`. Only owner can call it. Can not be called if the Bridge is paused. Parameters: address of monitor to be excluded Returns: bool - true if it is sucessful"
      },
      "existsBlockchain(string)": {
        "details": "Returns if a blockchain is in the list of allowed blockchains to cross tokens using the bridge. Parameters: string name of blockchain Returns: boolean true if it is in the list"
      },
      "getFeePercentageBridge()": {
        "details": "Returns the fee percentage bridge. For each amount received in the bridge, a fee percentage is discounted. This function returns this fee percentage bridge. Parameters: none Returns: integer"
      },
      "getMinGasPrice(string)": {
        "details": "Returns the minimum gas price to cross tokens. The function acceptTransfer can not accpept less than the minimum gas price per blockchain. Parameters: string, blockchain name Returns: integer"
      },
      "getMinTokenAmount(string)": {
        "details": "Returns the minimum token amount to cross. The function acceptTransfer can not accpept less than the minimum per blockchain. Parameters: string, blockchain name Returns: integer"
      },
      "getRoleAdmin(bytes32)": {
        "details": "Returns the admin role that controls `role`. See {grantRole} and {revokeRole}. To change a role's admin, use {_setRoleAdmin}."
      },
      "getTokenBalance()": {
        "details": "Returns token balance in bridge. Parameters: none Returns: integer amount of tokens in bridge"
      },
      "getTotalFeeReceivedBridge()": {
        "details": "Returns total of fees received by bridge. Parameters: none Returns: integer"
      },
      "getTransactionId(bytes32[2],address,uint256,uint32)": {
        "details": "This function calculate a transaction id hash. Any person can call it. Parameters: - hashes - from transaction in the origin blockchain:   - blockHash - hash of the block where was the transaction `receiveTokens`   - transactionHash - hash of the transaction `receiveTokens` with the event `CrossRequest`. - receiver - the address which will receive the tokens. - amount - the net amount to be transfered. - logIndex - the index of the event `CrossRequest` in the logs of transaction. Returns: a bytes32 hash of all the information sent. Notes: It did not use origin blockchain and sender address because the possibility of having the same origin transaction from different blockchain source is minimal. It is a point to be evaluated in an audit."
      },
      "grantRole(bytes32,address)": {
        "details": "Grants `role` to `account`. If `account` had not been already granted `role`, emits a {RoleGranted} event. Requirements: - the caller must have ``role``'s admin role."
      },
      "hasRole(bytes32,address)": {
        "details": "Returns `true` if `account` has been granted `role`."
      },
      "listBlockchain()": {
        "details": "List of blockchains allowed to cross tokens using the bridge. Parameters: none Returns: an array of strings containing the blockchain list"
      },
      "pause()": {
        "details": "This function pauses the bridge. Only owner can call it. Parameters: none Returns: none Requirements: - The contract must not be paused."
      },
      "paused()": {
        "details": "Returns true if the contract is paused, and false otherwise."
      },
      "receiveTokens(uint256,uint256[2],string,string)": {
        "details": "This function starts the process of crossing tokens in the Bridge. > Any account / person can call it! Can not be called if the Bridge is paused. Parameters: - amount - gross amount of tokens to be crossed.   - The Bridge fee will be deducted from this amount. - transactionFee - array with the fees:   - transactionFee[0] - fee in BRL - this fee will be added to amount transfered from caller's account.   - transactionFee[1] - gas price for fee in destiny currency(minor unit) - this information will be      used in the destination Blockchain,      by the monitor who will create the transaction and send using this fee defined here. - toBlockchain - the amount will be sent to this blockchain. - toAddress - the amount will be sent to this address. It can be diferent from caller's address. This is a string because some blockchain could not have the same pattern from Ethereum / RSK / BSC. Returns: bool - true if it is sucessful. #### More info about fees - Blockchain / transaction fee in BRL - it will be transfered from user's account, along with the amount he would like to receive in the account. This will be spent in `toBlockchain`. Does not depend of amount, but of destination blockchain. - Bridge Fee - it is deducted from the requested amount. It is a percentage of the requested amount. Cannot include the transaction fee in order to be calculated. > Before call this function, the caller MUST have called function `approve` in BRZ token, > allowing the bridge's smart contract address to use the BRZ tokens, > calling the function `transferFrom`. References: ERC-20 tokens approve and transferFrom pattern: [eip-20#transferfrom](https://eips.ethereum.org/EIPS/eip-20#transferfrom) Requirements: - toBlockchain exists. - toAddress is not an empty string. - gasPrice in destiny blockchain (minor unit) greater than minGasPrice in toBlockchain - amount must be greater than minTokenAmount in toBlockchain - amount greater than zero. Actions: - add the blockchain fee in BRZ to amount in BRZ, in totalAmount. - calculate bridge's fee using the original amount to be sent. - discount bridge's fee from the original amount, in amountMinusFees. - add bridge's fee to `totalFeeReceivedBridge`, a variable to store all the fees received by the bridge. - BRZ transfer totalAmount from the caller's address to bridge address. - emit `CrossRequest` event, with the parameters:   - from - address of the caller's function.   - amount - the net amount to be transfered in the destination blockchain.   - toFee - the gas price fee, which must be used to send the transfer transaction in the destination blockchain.   - toAddress - string representing the address which will receive the tokens.   - toBlockchain - the destination blockchain. > The `CrossRequest` event is very important because it must be listened by the monitor, an external program which will send the transaction on the destination blockchain."
      },
      "renounceRole(bytes32,address)": {
        "details": "Revokes `role` from the calling account. Roles are often managed via {grantRole} and {revokeRole}: this function's purpose is to provide a mechanism for accounts to lose their privileges if they are compromised (such as when a trusted device is misplaced). If the calling account had been granted `role`, emits a {RoleRevoked} event. Requirements: - the caller must be `account`."
      },
      "revokeRole(bytes32,address)": {
        "details": "Revokes `role` from `account`. If `account` had been granted `role`, emits a {RoleRevoked} event. Requirements: - the caller must have ``role``'s admin role."
      },
      "setFeePercentageBridge(uint256)": {
        "details": "This function update the fee percentage bridge. Only owner can call it. Can not be called if the Bridge is paused. Parameters: integer, the new fee Returns: bool - true if it is sucessful Requirements: - The new fee must be lower than 10% . Emit the event `FeePercentageBridgeChanged(oldFee, newFee)`."
      },
      "setMinGasPrice(string,uint256)": {
        "details": "This function update the minimum blockchain fee - gas price - in the minor unit. Only admin can call it. Can not be called if the Bridge is paused. Parameters: integer, the new fee Returns: bool - true if it is sucessful Requirements: - blockchain must exists. Emit the event `MinGasPriceChanged(blockchain, oldFee, newFee)`."
      },
      "setMinTokenAmount(string,uint256)": {
        "details": "This function update the minimum token's amount to be crossed. Only admin can call it. Can not be called if the Bridge is paused. Parameters: integer, the new amount Returns: bool - true if it is sucessful Requirements: - blockchain must exists. Emit the event `MinTokenAmountChanged(blockchain, oldMinimumAmount, newMinimumAmount)`."
      },
      "setToken(address)": {
        "details": "This function update the BRZ token. Only owner can call it. Can not be called if the Bridge is paused. Parameters: address of new BRZ token Returns: bool - true if it is sucessful Requirements: - The token address must not be a zero address. Emit the event `TokenChanged(tokenAddress)`."
      },
      "supportsInterface(bytes4)": {
        "details": "See {IERC165-supportsInterface}."
      },
      "unpause()": {
        "details": "This function unpauses the bridge. Only owner can call it. Parameters: none Returns: none Requirements: - The contract must be paused."
      },
      "version()": {
        "details": "Function which returns the bridge's version. This is a fixed value define in source code. Parameters: none Returns: string"
      },
      "withdrawToken(uint256)": {
        "details": "Withdraw tokens from bridge Only owner can call it. Can be called even if the Bridge is paused, because can happens a problem and it is necessary to withdraw tokens, maybe to create a new version of bridge, for example. The tokens only can be sent to the caller's function. Parameters: integer amount of tokens Returns: true if it is successful Requirements: - amount less or equal balance of tokens in bridge."
      }
    },
    "stateVariables": {
      "DECIMALPERCENT": {
        "details": "DECIMALPERCENT is the representation of 100% using (2) decimal places 100.00 = percentage accuracy (2) to 100%"
      }
    },
    "version": 1
  },
  "userdoc": {
    "kind": "user",
    "methods": {},
    "version": 1
  }
}