{
  "contractName": "Bridge",
  "abi": [
    {
      "inputs": [
        {
          "internalType": "address",
          "name": "tokenAddress",
          "type": "address"
        }
      ],
      "stateMutability": "nonpayable",
      "type": "constructor"
    },
    {
      "anonymous": false,
      "inputs": [
        {
          "indexed": false,
          "internalType": "address",
          "name": "from",
          "type": "address"
        },
        {
          "indexed": false,
          "internalType": "uint256",
          "name": "amount",
          "type": "uint256"
        },
        {
          "indexed": false,
          "internalType": "uint256",
          "name": "toFee",
          "type": "uint256"
        },
        {
          "indexed": false,
          "internalType": "string",
          "name": "toAddress",
          "type": "string"
        },
        {
          "indexed": false,
          "internalType": "string",
          "name": "toBlockchain",
          "type": "string"
        }
      ],
      "name": "CrossRequest",
      "type": "event"
    },
    {
      "anonymous": false,
      "inputs": [
        {
          "indexed": false,
          "internalType": "uint256",
          "name": "oldFee",
          "type": "uint256"
        },
        {
          "indexed": false,
          "internalType": "uint256",
          "name": "newFee",
          "type": "uint256"
        }
      ],
      "name": "FeePercentageBridgeChanged",
      "type": "event"
    },
    {
      "anonymous": false,
      "inputs": [
        {
          "indexed": false,
          "internalType": "uint256",
          "name": "oldValue",
          "type": "uint256"
        },
        {
          "indexed": false,
          "internalType": "uint256",
          "name": "newValue",
          "type": "uint256"
        }
      ],
      "name": "GasAcceptTransferChanged",
      "type": "event"
    },
    {
      "anonymous": false,
      "inputs": [
        {
          "indexed": false,
          "internalType": "string",
          "name": "blockchainName",
          "type": "string"
        },
        {
          "indexed": false,
          "internalType": "uint256",
          "name": "oldFee",
          "type": "uint256"
        },
        {
          "indexed": false,
          "internalType": "uint256",
          "name": "newFee",
          "type": "uint256"
        }
      ],
      "name": "MinBRZFeeChanged",
      "type": "event"
    },
    {
      "anonymous": false,
      "inputs": [
        {
          "indexed": false,
          "internalType": "string",
          "name": "blockchainName",
          "type": "string"
        },
        {
          "indexed": false,
          "internalType": "uint256",
          "name": "oldFee",
          "type": "uint256"
        },
        {
          "indexed": false,
          "internalType": "uint256",
          "name": "newFee",
          "type": "uint256"
        }
      ],
      "name": "MinGasPriceChanged",
      "type": "event"
    },
    {
      "anonymous": false,
      "inputs": [
        {
          "indexed": false,
          "internalType": "string",
          "name": "blockchainName",
          "type": "string"
        },
        {
          "indexed": false,
          "internalType": "uint256",
          "name": "oldAmount",
          "type": "uint256"
        },
        {
          "indexed": false,
          "internalType": "uint256",
          "name": "newAmount",
          "type": "uint256"
        }
      ],
      "name": "MinTokenAmountChanged",
      "type": "event"
    },
    {
      "anonymous": false,
      "inputs": [
        {
          "indexed": false,
          "internalType": "address",
          "name": "account",
          "type": "address"
        }
      ],
      "name": "Paused",
      "type": "event"
    },
    {
      "anonymous": false,
      "inputs": [
        {
          "indexed": false,
          "internalType": "uint256",
          "name": "oldValue",
          "type": "uint256"
        },
        {
          "indexed": false,
          "internalType": "uint256",
          "name": "newValue",
          "type": "uint256"
        }
      ],
      "name": "QuoteETH_BRZChanged",
      "type": "event"
    },
    {
      "anonymous": false,
      "inputs": [
        {
          "indexed": true,
          "internalType": "bytes32",
          "name": "role",
          "type": "bytes32"
        },
        {
          "indexed": true,
          "internalType": "bytes32",
          "name": "previousAdminRole",
          "type": "bytes32"
        },
        {
          "indexed": true,
          "internalType": "bytes32",
          "name": "newAdminRole",
          "type": "bytes32"
        }
      ],
      "name": "RoleAdminChanged",
      "type": "event"
    },
    {
      "anonymous": false,
      "inputs": [
        {
          "indexed": true,
          "internalType": "bytes32",
          "name": "role",
          "type": "bytes32"
        },
        {
          "indexed": true,
          "internalType": "address",
          "name": "account",
          "type": "address"
        },
        {
          "indexed": true,
          "internalType": "address",
          "name": "sender",
          "type": "address"
        }
      ],
      "name": "RoleGranted",
      "type": "event"
    },
    {
      "anonymous": false,
      "inputs": [
        {
          "indexed": true,
          "internalType": "bytes32",
          "name": "role",
          "type": "bytes32"
        },
        {
          "indexed": true,
          "internalType": "address",
          "name": "account",
          "type": "address"
        },
        {
          "indexed": true,
          "internalType": "address",
          "name": "sender",
          "type": "address"
        }
      ],
      "name": "RoleRevoked",
      "type": "event"
    },
    {
      "anonymous": false,
      "inputs": [
        {
          "indexed": false,
          "internalType": "address",
          "name": "tokenAddress",
          "type": "address"
        }
      ],
      "name": "TokenChanged",
      "type": "event"
    },
    {
      "anonymous": false,
      "inputs": [
        {
          "indexed": false,
          "internalType": "address",
          "name": "account",
          "type": "address"
        }
      ],
      "name": "Unpaused",
      "type": "event"
    },
    {
      "inputs": [],
      "name": "ADMIN_ROLE",
      "outputs": [
        {
          "internalType": "bytes32",
          "name": "",
          "type": "bytes32"
        }
      ],
      "stateMutability": "view",
      "type": "function"
    },
    {
      "inputs": [],
      "name": "DECIMALPERCENT",
      "outputs": [
        {
          "internalType": "uint256",
          "name": "",
          "type": "uint256"
        }
      ],
      "stateMutability": "view",
      "type": "function"
    },
    {
      "inputs": [],
      "name": "DEFAULT_ADMIN_ROLE",
      "outputs": [
        {
          "internalType": "bytes32",
          "name": "",
          "type": "bytes32"
        }
      ],
      "stateMutability": "view",
      "type": "function"
    },
    {
      "inputs": [],
      "name": "ETH_IN_WEI",
      "outputs": [
        {
          "internalType": "uint256",
          "name": "",
          "type": "uint256"
        }
      ],
      "stateMutability": "view",
      "type": "function"
    },
    {
      "inputs": [],
      "name": "MONITOR_ROLE",
      "outputs": [
        {
          "internalType": "bytes32",
          "name": "",
          "type": "bytes32"
        }
      ],
      "stateMutability": "view",
      "type": "function"
    },
    {
      "inputs": [
        {
          "internalType": "uint256",
          "name": "",
          "type": "uint256"
        }
      ],
      "name": "blockchain",
      "outputs": [
        {
          "internalType": "string",
          "name": "",
          "type": "string"
        }
      ],
      "stateMutability": "view",
      "type": "function"
    },
    {
      "inputs": [
        {
          "internalType": "bytes32",
          "name": "role",
          "type": "bytes32"
        }
      ],
      "name": "getRoleAdmin",
      "outputs": [
        {
          "internalType": "bytes32",
          "name": "",
          "type": "bytes32"
        }
      ],
      "stateMutability": "view",
      "type": "function"
    },
    {
      "inputs": [
        {
          "internalType": "bytes32",
          "name": "role",
          "type": "bytes32"
        },
        {
          "internalType": "address",
          "name": "account",
          "type": "address"
        }
      ],
      "name": "grantRole",
      "outputs": [],
      "stateMutability": "nonpayable",
      "type": "function"
    },
    {
      "inputs": [
        {
          "internalType": "bytes32",
          "name": "role",
          "type": "bytes32"
        },
        {
          "internalType": "address",
          "name": "account",
          "type": "address"
        }
      ],
      "name": "hasRole",
      "outputs": [
        {
          "internalType": "bool",
          "name": "",
          "type": "bool"
        }
      ],
      "stateMutability": "view",
      "type": "function"
    },
    {
      "inputs": [],
      "name": "paused",
      "outputs": [
        {
          "internalType": "bool",
          "name": "",
          "type": "bool"
        }
      ],
      "stateMutability": "view",
      "type": "function"
    },
    {
      "inputs": [
        {
          "internalType": "bytes32",
          "name": "",
          "type": "bytes32"
        }
      ],
      "name": "processed",
      "outputs": [
        {
          "internalType": "bool",
          "name": "",
          "type": "bool"
        }
      ],
      "stateMutability": "view",
      "type": "function"
    },
    {
      "inputs": [
        {
          "internalType": "bytes4",
          "name": "interfaceId",
          "type": "bytes4"
        }
      ],
      "name": "supportsInterface",
      "outputs": [
        {
          "internalType": "bool",
          "name": "",
          "type": "bool"
        }
      ],
      "stateMutability": "view",
      "type": "function"
    },
    {
      "inputs": [],
      "name": "token",
      "outputs": [
        {
          "internalType": "contract IERC20",
          "name": "",
          "type": "address"
        }
      ],
      "stateMutability": "view",
      "type": "function"
    },
    {
      "inputs": [],
      "name": "version",
      "outputs": [
        {
          "internalType": "string",
          "name": "",
          "type": "string"
        }
      ],
      "stateMutability": "pure",
      "type": "function"
    },
    {
      "inputs": [
        {
          "internalType": "uint256",
          "name": "amount",
          "type": "uint256"
        },
        {
          "internalType": "uint256[2]",
          "name": "transactionFee",
          "type": "uint256[2]"
        },
        {
          "internalType": "string",
          "name": "toBlockchain",
          "type": "string"
        },
        {
          "internalType": "string",
          "name": "toAddress",
          "type": "string"
        }
      ],
      "name": "receiveTokens",
      "outputs": [
        {
          "internalType": "bool",
          "name": "",
          "type": "bool"
        }
      ],
      "stateMutability": "nonpayable",
      "type": "function"
    },
    {
      "inputs": [
        {
          "internalType": "bytes32[2]",
          "name": "hashes",
          "type": "bytes32[2]"
        },
        {
          "internalType": "address",
          "name": "receiver",
          "type": "address"
        },
        {
          "internalType": "uint256",
          "name": "amount",
          "type": "uint256"
        },
        {
          "internalType": "uint32",
          "name": "logIndex",
          "type": "uint32"
        }
      ],
      "name": "getTransactionId",
      "outputs": [
        {
          "internalType": "bytes32",
          "name": "",
          "type": "bytes32"
        }
      ],
      "stateMutability": "pure",
      "type": "function"
    },
    {
      "inputs": [
        {
          "internalType": "address",
          "name": "receiver",
          "type": "address"
        },
        {
          "internalType": "uint256",
          "name": "amount",
          "type": "uint256"
        },
        {
          "internalType": "string",
          "name": "sender",
          "type": "string"
        },
        {
          "internalType": "string",
          "name": "fromBlockchain",
          "type": "string"
        },
        {
          "internalType": "bytes32[2]",
          "name": "hashes",
          "type": "bytes32[2]"
        },
        {
          "internalType": "uint32",
          "name": "logIndex",
          "type": "uint32"
        }
      ],
      "name": "acceptTransfer",
      "outputs": [
        {
          "internalType": "bool",
          "name": "",
          "type": "bool"
        }
      ],
      "stateMutability": "nonpayable",
      "type": "function"
    },
    {
      "inputs": [],
      "name": "getTokenBalance",
      "outputs": [
        {
          "internalType": "uint256",
          "name": "",
          "type": "uint256"
        }
      ],
      "stateMutability": "view",
      "type": "function"
    },
    {
      "inputs": [],
      "name": "getTotalFeeReceivedBridge",
      "outputs": [
        {
          "internalType": "uint256",
          "name": "",
          "type": "uint256"
        }
      ],
      "stateMutability": "view",
      "type": "function"
    },
    {
      "inputs": [
        {
          "internalType": "uint256",
          "name": "amount",
          "type": "uint256"
        }
      ],
      "name": "withdrawToken",
      "outputs": [
        {
          "internalType": "bool",
          "name": "",
          "type": "bool"
        }
      ],
      "stateMutability": "nonpayable",
      "type": "function"
    },
    {
      "inputs": [
        {
          "internalType": "address",
          "name": "account",
          "type": "address"
        }
      ],
      "name": "addMonitor",
      "outputs": [
        {
          "internalType": "bool",
          "name": "",
          "type": "bool"
        }
      ],
      "stateMutability": "nonpayable",
      "type": "function"
    },
    {
      "inputs": [
        {
          "internalType": "address",
          "name": "account",
          "type": "address"
        }
      ],
      "name": "delMonitor",
      "outputs": [
        {
          "internalType": "bool",
          "name": "",
          "type": "bool"
        }
      ],
      "stateMutability": "nonpayable",
      "type": "function"
    },
    {
      "inputs": [
        {
          "internalType": "address",
          "name": "account",
          "type": "address"
        }
      ],
      "name": "addAdmin",
      "outputs": [
        {
          "internalType": "bool",
          "name": "",
          "type": "bool"
        }
      ],
      "stateMutability": "nonpayable",
      "type": "function"
    },
    {
      "inputs": [
        {
          "internalType": "address",
          "name": "account",
          "type": "address"
        }
      ],
      "name": "delAdmin",
      "outputs": [
        {
          "internalType": "bool",
          "name": "",
          "type": "bool"
        }
      ],
      "stateMutability": "nonpayable",
      "type": "function"
    },
    {
      "inputs": [
        {
          "internalType": "bytes32",
          "name": "role",
          "type": "bytes32"
        },
        {
          "internalType": "address",
          "name": "account",
          "type": "address"
        }
      ],
      "name": "renounceRole",
      "outputs": [],
      "stateMutability": "nonpayable",
      "type": "function"
    },
    {
      "inputs": [
        {
          "internalType": "bytes32",
          "name": "role",
          "type": "bytes32"
        },
        {
          "internalType": "address",
          "name": "account",
          "type": "address"
        }
      ],
      "name": "revokeRole",
      "outputs": [],
      "stateMutability": "nonpayable",
      "type": "function"
    },
    {
      "inputs": [],
      "name": "getQuoteETH_BRZ",
      "outputs": [
        {
          "internalType": "uint256",
          "name": "",
          "type": "uint256"
        }
      ],
      "stateMutability": "view",
      "type": "function"
    },
    {
      "inputs": [
        {
          "internalType": "uint256",
          "name": "newValue",
          "type": "uint256"
        }
      ],
      "name": "setQuoteETH_BRZ",
      "outputs": [
        {
          "internalType": "bool",
          "name": "",
          "type": "bool"
        }
      ],
      "stateMutability": "nonpayable",
      "type": "function"
    },
    {
      "inputs": [
        {
          "internalType": "string",
          "name": "blockchainName",
          "type": "string"
        }
      ],
      "name": "getMinGasPrice",
      "outputs": [
        {
          "internalType": "uint256",
          "name": "",
          "type": "uint256"
        }
      ],
      "stateMutability": "view",
      "type": "function"
    },
    {
      "inputs": [
        {
          "internalType": "string",
          "name": "blockchainName",
          "type": "string"
        },
        {
          "internalType": "uint256",
          "name": "newFee",
          "type": "uint256"
        }
      ],
      "name": "setMinGasPrice",
      "outputs": [
        {
          "internalType": "bool",
          "name": "",
          "type": "bool"
        }
      ],
      "stateMutability": "nonpayable",
      "type": "function"
    },
    {
      "inputs": [
        {
          "internalType": "string",
          "name": "blockchainName",
          "type": "string"
        }
      ],
      "name": "getMinBRZFee",
      "outputs": [
        {
          "internalType": "uint256",
          "name": "",
          "type": "uint256"
        }
      ],
      "stateMutability": "view",
      "type": "function"
    },
    {
      "inputs": [],
      "name": "getGasAcceptTransfer",
      "outputs": [
        {
          "internalType": "uint256",
          "name": "",
          "type": "uint256"
        }
      ],
      "stateMutability": "view",
      "type": "function"
    },
    {
      "inputs": [
        {
          "internalType": "uint256",
          "name": "newValue",
          "type": "uint256"
        }
      ],
      "name": "setGasAcceptTransfer",
      "outputs": [
        {
          "internalType": "bool",
          "name": "",
          "type": "bool"
        }
      ],
      "stateMutability": "nonpayable",
      "type": "function"
    },
    {
      "inputs": [
        {
          "internalType": "string",
          "name": "blockchainName",
          "type": "string"
        }
      ],
      "name": "getMinTokenAmount",
      "outputs": [
        {
          "internalType": "uint256",
          "name": "",
          "type": "uint256"
        }
      ],
      "stateMutability": "view",
      "type": "function"
    },
    {
      "inputs": [
        {
          "internalType": "string",
          "name": "blockchainName",
          "type": "string"
        },
        {
          "internalType": "uint256",
          "name": "newAmount",
          "type": "uint256"
        }
      ],
      "name": "setMinTokenAmount",
      "outputs": [
        {
          "internalType": "bool",
          "name": "",
          "type": "bool"
        }
      ],
      "stateMutability": "nonpayable",
      "type": "function"
    },
    {
      "inputs": [],
      "name": "getFeePercentageBridge",
      "outputs": [
        {
          "internalType": "uint256",
          "name": "",
          "type": "uint256"
        }
      ],
      "stateMutability": "view",
      "type": "function"
    },
    {
      "inputs": [
        {
          "internalType": "uint256",
          "name": "newFee",
          "type": "uint256"
        }
      ],
      "name": "setFeePercentageBridge",
      "outputs": [
        {
          "internalType": "bool",
          "name": "",
          "type": "bool"
        }
      ],
      "stateMutability": "nonpayable",
      "type": "function"
    },
    {
      "inputs": [
        {
          "internalType": "address",
          "name": "tokenAddress",
          "type": "address"
        }
      ],
      "name": "setToken",
      "outputs": [
        {
          "internalType": "bool",
          "name": "",
          "type": "bool"
        }
      ],
      "stateMutability": "nonpayable",
      "type": "function"
    },
    {
      "inputs": [
        {
          "internalType": "string",
          "name": "name",
          "type": "string"
        }
      ],
      "name": "existsBlockchain",
      "outputs": [
        {
          "internalType": "bool",
          "name": "",
          "type": "bool"
        }
      ],
      "stateMutability": "view",
      "type": "function"
    },
    {
      "inputs": [],
      "name": "listBlockchain",
      "outputs": [
        {
          "internalType": "string[]",
          "name": "",
          "type": "string[]"
        }
      ],
      "stateMutability": "view",
      "type": "function"
    },
    {
      "inputs": [
        {
          "internalType": "string",
          "name": "name",
          "type": "string"
        }
      ],
      "name": "addBlockchain",
      "outputs": [
        {
          "internalType": "uint256",
          "name": "",
          "type": "uint256"
        }
      ],
      "stateMutability": "nonpayable",
      "type": "function"
    },
    {
      "inputs": [
        {
          "internalType": "string",
          "name": "name",
          "type": "string"
        }
      ],
      "name": "delBlockchain",
      "outputs": [
        {
          "internalType": "bool",
          "name": "",
          "type": "bool"
        }
      ],
      "stateMutability": "nonpayable",
      "type": "function"
    },
    {
      "inputs": [],
      "name": "pause",
      "outputs": [],
      "stateMutability": "nonpayable",
      "type": "function"
    },
    {
      "inputs": [],
      "name": "unpause",
      "outputs": [],
      "stateMutability": "nonpayable",
      "type": "function"
    }
  ],
  "bytecode": "0x60806040523480156200001157600080fd5b5060405162005eca38038062005eca83398181016040528101906200003791906200025f565b6000600160006101000a81548160ff021916908315150217905550620000766000801b6200006a620000cf60201b60201c565b620000d760201b60201c565b806001806101000a81548173ffffffffffffffffffffffffffffffffffffffff021916908373ffffffffffffffffffffffffffffffffffffffff160217905550600a600381905550620186a060048190555050620002d9565b600033905090565b620000e98282620000ed60201b60201c565b5050565b620000ff8282620001de60201b60201c565b620001da57600160008084815260200190815260200160002060000160008373ffffffffffffffffffffffffffffffffffffffff1673ffffffffffffffffffffffffffffffffffffffff16815260200190815260200160002060006101000a81548160ff0219169083151502179055506200017f620000cf60201b60201c565b73ffffffffffffffffffffffffffffffffffffffff168173ffffffffffffffffffffffffffffffffffffffff16837f2f8788117e7eff1d82e926ec794901d17c78024a50270940304540a733656f0d60405160405180910390a45b5050565b600080600084815260200190815260200160002060000160008373ffffffffffffffffffffffffffffffffffffffff1673ffffffffffffffffffffffffffffffffffffffff16815260200190815260200160002060009054906101000a900460ff16905092915050565b6000815190506200025981620002bf565b92915050565b6000602082840312156200027257600080fd5b6000620002828482850162000248565b91505092915050565b600062000298826200029f565b9050919050565b600073ffffffffffffffffffffffffffffffffffffffff82169050919050565b620002ca816200028b565b8114620002d657600080fd5b50565b615be180620002e96000396000f3fe608060405234801561001057600080fd5b50600436106102745760003560e01c806375b238fc11610151578063badc9b79116100c3578063d547741f11610087578063d547741f1461085f578063d841bbb21461087b578063e0ddf3b6146108ab578063e1343dae146108db578063e44f6787146108f9578063fc0c546a1461091757610274565b8063badc9b7914610781578063bb52228b1461079f578063c1f0808a146107cf578063c25b1eaf146107ff578063cd09fc281461082f57610274565b80639283077011610115578063928307701461068557806399cd19d3146106a3578063a217fddf146106d3578063aeb670e3146106f1578063affa17e114610721578063b8c48a281461075157610274565b806375b238fc146105df57806382b2e257146105fd5780638456cb591461061b578063886f34511461062557806391d148541461065557610274565b80633f4ba83a116101ea57806354fd4d50116101ae57806354fd4d50146104f55780635c975abb146105135780635d27fc70146105315780635eee1f961461056157806362d918551461057f57806370480275146105af57610274565b80633f4ba83a1461043d578063420c04f0146104475780634d9b47e21461047757806350baa62214610495578063525a34e3146104c557610274565b8063248a9ca31161023c578063248a9ca31461035757806329c9a4da146103875780632a9b8a81146103b75780632f2ff15d146103e75780633222a6aa1461040357806336568abe1461042157610274565b806301ffc9a7146102795780630e7fef1e146102a957806310c22fa6146102d9578063144fa6d7146102f7578063212258a814610327575b600080fd5b610293600480360381019061028e919061406d565b610935565b6040516102a09190614a87565b60405180910390f35b6102c360048036038101906102be919061417d565b6109af565b6040516102d09190614a87565b60405180910390f35b6102e1610e5c565b6040516102ee9190614ef8565b60405180910390f35b610311600480360381019061030c9190613e90565b610e62565b60405161031e9190614a87565b60405180910390f35b610341600480360381019061033c9190614096565b610fef565b60405161034e9190614ef8565b60405180910390f35b610371600480360381019061036c9190614008565b611017565b60405161037e9190614aa2565b60405180910390f35b6103a1600480360381019061039c91906140d7565b611036565b6040516103ae9190614a87565b60405180910390f35b6103d160048036038101906103cc9190614096565b6111be565b6040516103de9190614ef8565b60405180910390f35b61040160048036038101906103fc9190614031565b6111e6565b005b61040b61120f565b6040516104189190614ef8565b60405180910390f35b61043b60048036038101906104369190614031565b611219565b005b6104456112e2565b005b610461600480360381019061045c9190613eb9565b61133f565b60405161046e9190614a87565b60405180910390f35b61047f6116ad565b60405161048c9190614aa2565b60405180910390f35b6104af60048036038101906104aa919061412b565b6116d1565b6040516104bc9190614a87565b60405180910390f35b6104df60048036038101906104da919061412b565b6118cf565b6040516104ec9190614a87565b60405180910390f35b6104fd611a07565b60405161050a9190614ad8565b60405180910390f35b61051b611a44565b6040516105289190614a87565b60405180910390f35b61054b60048036038101906105469190613e90565b611a5b565b6040516105589190614a87565b60405180910390f35b610569611b2b565b6040516105769190614ef8565b60405180910390f35b61059960048036038101906105949190613e90565b611b37565b6040516105a69190614a87565b60405180910390f35b6105c960048036038101906105c49190613e90565b611c07565b6040516105d69190614a87565b60405180910390f35b6105e7611cd7565b6040516105f49190614aa2565b60405180910390f35b610605611cfb565b6040516106129190614ef8565b60405180910390f35b610623611dab565b005b61063f600480360381019061063a91906140d7565b611e08565b60405161064c9190614a87565b60405180910390f35b61066f600480360381019061066a9190614031565b611fd8565b60405161067c9190614a87565b60405180910390f35b61068d612042565b60405161069a9190614ef8565b60405180910390f35b6106bd60048036038101906106b89190614096565b61204c565b6040516106ca9190614ef8565b60405180910390f35b6106db612187565b6040516106e89190614aa2565b60405180910390f35b61070b60048036038101906107069190613f7c565b61218e565b6040516107189190614aa2565b60405180910390f35b61073b6004803603810190610736919061412b565b612245565b6040516107489190614a87565b60405180910390f35b61076b60048036038101906107669190613e90565b61233c565b6040516107789190614a87565b60405180910390f35b61078961240c565b6040516107969190614ef8565b60405180910390f35b6107b960048036038101906107b49190614096565b612416565b6040516107c69190614a87565b60405180910390f35b6107e960048036038101906107e49190614008565b612760565b6040516107f69190614a87565b60405180910390f35b6108196004803603810190610814919061412b565b612780565b6040516108269190614ad8565b60405180910390f35b61084960048036038101906108449190614096565b61282c565b6040516108569190614a87565b60405180910390f35b61087960048036038101906108749190614031565b61294a565b005b6108956004803603810190610890919061412b565b6129f5565b6040516108a29190614a87565b60405180910390f35b6108c560048036038101906108c09190614096565b612b09565b6040516108d29190614ef8565b60405180910390f35b6108e3612b31565b6040516108f09190614a65565b60405180910390f35b610901612c0a565b60405161090e9190614ef8565b60405180910390f35b61091f612c14565b60405161092c9190614abd565b60405180910390f35b60007f7965db0b000000000000000000000000000000000000000000000000000000007bffffffffffffffffffffffffffffffffffffffffffffffffffffffff1916827bffffffffffffffffffffffffffffffffffffffffffffffffffffffff191614806109a857506109a782612c38565b5b9050919050565b60006109b9611a44565b156109f9576040517f08c379a00000000000000000000000000000000000000000000000000000000081526004016109f090614cb8565b60405180910390fd5b610a028361282c565b610a41576040517f08c379a0000000000000000000000000000000000000000000000000000000008152600401610a3890614c18565b60405180910390fd5b610a5a8260405180602001604052806000815250612ca2565b15610a9a576040517f08c379a0000000000000000000000000000000000000000000000000000000008152600401610a9190614e78565b60405180910390fd5b600683604051610aaa9190614921565b90815260200160405180910390205484600060028110610af3577f4e487b7100000000000000000000000000000000000000000000000000000000600052603260045260246000fd5b60200201511015610b39576040517f08c379a0000000000000000000000000000000000000000000000000000000008152600401610b3090614cd8565b60405180910390fd5b600783604051610b499190614921565b90815260200160405180910390205484600160028110610b92577f4e487b7100000000000000000000000000000000000000000000000000000000600052603260045260246000fd5b60200201511015610bd8576040517f08c379a0000000000000000000000000000000000000000000000000000000008152600401610bcf90614e98565b60405180910390fd5b60008511610c1b576040517f08c379a0000000000000000000000000000000000000000000000000000000008152600401610c1290614b58565b60405180910390fd5b600883604051610c2b9190614921565b908152602001604051809103902054851015610c7c576040517f08c379a0000000000000000000000000000000000000000000000000000000008152600401610c7390614bf8565b60405180910390fd5b600084600060028110610cb8577f4e487b7100000000000000000000000000000000000000000000000000000000600052603260045260246000fd5b602002015186610cc8919061503e565b9050600061271060035488610cdd91906150c5565b610ce79190615094565b905060008188610cf7919061511f565b90508160026000828254610d0b919061503e565b925050819055507f0424dad9840ff9e43e3db8fbda830b4db1af324cf59b056dd728876c88ea8807610d3b612cfb565b8289600160028110610d76577f4e487b7100000000000000000000000000000000000000000000000000000000600052603260045260246000fd5b6020020151888a604051610d8e959493929190614a04565b60405180910390a160018054906101000a900473ffffffffffffffffffffffffffffffffffffffff1673ffffffffffffffffffffffffffffffffffffffff166323b872dd610dda612cfb565b30866040518463ffffffff1660e01b8152600401610dfa939291906149a4565b602060405180830381600087803b158015610e1457600080fd5b505af1158015610e28573d6000803e3d6000fd5b505050506040513d601f19601f82011682018060405250810190610e4c9190613fdf565b5060019350505050949350505050565b61271081565b6000610e786000801b610e73612cfb565b611fd8565b610eb7576040517f08c379a0000000000000000000000000000000000000000000000000000000008152600401610eae90614d78565b60405180910390fd5b610ebf611a44565b15610eff576040517f08c379a0000000000000000000000000000000000000000000000000000000008152600401610ef690614cb8565b60405180910390fd5b600073ffffffffffffffffffffffffffffffffffffffff168273ffffffffffffffffffffffffffffffffffffffff161415610f6f576040517f08c379a0000000000000000000000000000000000000000000000000000000008152600401610f6690614df8565b60405180910390fd5b7f5d108ca248943e98e1886bbc2c38beda701271994a14354258a11692b81b73cf82604051610f9e9190614989565b60405180910390a1816001806101000a81548173ffffffffffffffffffffffffffffffffffffffff021916908373ffffffffffffffffffffffffffffffffffffffff16021790555060019050919050565b60006008826040516110019190614921565b9081526020016040518091039020549050919050565b6000806000838152602001908152602001600020600101549050919050565b60006110697fa49807205ce4d355092ef5a8a18f56e8913cf4a201fbe287825b095693c21775611064612cfb565b611fd8565b6110a8576040517f08c379a000000000000000000000000000000000000000000000000000000000815260040161109f90614dd8565b60405180910390fd5b6110b0611a44565b156110f0576040517f08c379a00000000000000000000000000000000000000000000000000000000081526004016110e790614cb8565b60405180910390fd5b6110f98361282c565b611138576040517f08c379a000000000000000000000000000000000000000000000000000000000815260040161112f90614c98565b60405180910390fd5b7f4b44a0f1f9ad83f48ce1c55d8b93720658c4dbdd91f7c1d3f22612cd6474ab7b8360088560405161116a9190614921565b9081526020016040518091039020548460405161118993929190614afa565b60405180910390a1816008846040516111a29190614921565b9081526020016040518091039020819055506001905092915050565b60006006826040516111d09190614921565b9081526020016040518091039020549050919050565b6111ef82611017565b611200816111fb612cfb565b612d03565b61120a8383612da0565b505050565b6000600254905090565b6000801b82141561125f576040517f08c379a000000000000000000000000000000000000000000000000000000000815260040161125690614e18565b60405180910390fd5b611267612cfb565b73ffffffffffffffffffffffffffffffffffffffff168173ffffffffffffffffffffffffffffffffffffffff16146112d4576040517f08c379a00000000000000000000000000000000000000000000000000000000081526004016112cb90614e58565b60405180910390fd5b6112de8282612e80565b5050565b6112f66000801b6112f1612cfb565b611fd8565b611335576040517f08c379a000000000000000000000000000000000000000000000000000000000815260040161132c90614d78565b60405180910390fd5b61133d612f03565b565b60006113727f8227712ef8ad39d0f26f06731ef0df8665eb7ada7f41b1ee089adf3c238862a261136d612cfb565b611fd8565b6113b1576040517f08c379a00000000000000000000000000000000000000000000000000000000081526004016113a890614c58565b60405180910390fd5b6113b9611a44565b156113f9576040517f08c379a00000000000000000000000000000000000000000000000000000000081526004016113f090614cb8565b60405180910390fd5b600073ffffffffffffffffffffffffffffffffffffffff168973ffffffffffffffffffffffffffffffffffffffff161415611469576040517f08c379a000000000000000000000000000000000000000000000000000000000815260040161146090614c38565b60405180910390fd5b600088116114ac576040517f08c379a00000000000000000000000000000000000000000000000000000000081526004016114a390614b58565b60405180910390fd5b600087879050116114f2576040517f08c379a00000000000000000000000000000000000000000000000000000000081526004016114e990614cf8565b60405180910390fd5b61153f85858080601f016020809104026020016040519081016040528093929190818152602001838380828437600081840152601f19601f8201169050808301925050505050505061282c565b61157e576040517f08c379a000000000000000000000000000000000000000000000000000000000815260040161157590614d58565b60405180910390fd5b6000801b836000600281106115bc577f4e487b7100000000000000000000000000000000000000000000000000000000600052603260045260246000fd5b60200201351415611602576040517f08c379a00000000000000000000000000000000000000000000000000000000081526004016115f990614d18565b60405180910390fd5b6000801b83600160028110611640577f4e487b7100000000000000000000000000000000000000000000000000000000600052603260045260246000fd5b60200201351415611686576040517f08c379a000000000000000000000000000000000000000000000000000000000815260040161167d90614bd8565b60405180910390fd5b611692838a8a85612fa5565b61169c8989613101565b506001905098975050505050505050565b7f8227712ef8ad39d0f26f06731ef0df8665eb7ada7f41b1ee089adf3c238862a281565b60006116e76000801b6116e2612cfb565b611fd8565b611726576040517f08c379a000000000000000000000000000000000000000000000000000000000815260040161171d90614d78565b60405180910390fd5b60018054906101000a900473ffffffffffffffffffffffffffffffffffffffff1673ffffffffffffffffffffffffffffffffffffffff166370a08231306040518263ffffffff1660e01b815260040161177f9190614989565b60206040518083038186803b15801561179757600080fd5b505afa1580156117ab573d6000803e3d6000fd5b505050506040513d601f19601f820116820180604052508101906117cf9190614154565b821115611811576040517f08c379a000000000000000000000000000000000000000000000000000000000815260040161180890614b98565b60405180910390fd5b60018054906101000a900473ffffffffffffffffffffffffffffffffffffffff1673ffffffffffffffffffffffffffffffffffffffff1663a9059cbb611855612cfb565b846040518363ffffffff1660e01b81526004016118739291906149db565b602060405180830381600087803b15801561188d57600080fd5b505af11580156118a1573d6000803e3d6000fd5b505050506040513d601f19601f820116820180604052508101906118c59190613fdf565b5060019050919050565b60006118e56000801b6118e0612cfb565b611fd8565b611924576040517f08c379a000000000000000000000000000000000000000000000000000000000815260040161191b90614d78565b60405180910390fd5b61192c611a44565b1561196c576040517f08c379a000000000000000000000000000000000000000000000000000000000815260040161196390614cb8565b60405180910390fd5b600a61271061197b9190615094565b82106119bc576040517f08c379a00000000000000000000000000000000000000000000000000000000081526004016119b390614eb8565b60405180910390fd5b7f423d9a8a1d4011c45245817ab10cc09937b0786496dad82dba18141ca4fb7c8e600354836040516119ef929190614f13565b60405180910390a18160038190555060019050919050565b60606040518060400160405280600281526020017f7630000000000000000000000000000000000000000000000000000000000000815250905090565b6000600160009054906101000a900460ff16905090565b6000611a716000801b611a6c612cfb565b611fd8565b611ab0576040517f08c379a0000000000000000000000000000000000000000000000000000000008152600401611aa790614d78565b60405180910390fd5b611ab8611a44565b15611af8576040517f08c379a0000000000000000000000000000000000000000000000000000000008152600401611aef90614cb8565b60405180910390fd5b611b227f8227712ef8ad39d0f26f06731ef0df8665eb7ada7f41b1ee089adf3c238862a28361294a565b60019050919050565b670de0b6b3a764000081565b6000611b4d6000801b611b48612cfb565b611fd8565b611b8c576040517f08c379a0000000000000000000000000000000000000000000000000000000008152600401611b8390614d78565b60405180910390fd5b611b94611a44565b15611bd4576040517f08c379a0000000000000000000000000000000000000000000000000000000008152600401611bcb90614cb8565b60405180910390fd5b611bfe7fa49807205ce4d355092ef5a8a18f56e8913cf4a201fbe287825b095693c217758361294a565b60019050919050565b6000611c1d6000801b611c18612cfb565b611fd8565b611c5c576040517f08c379a0000000000000000000000000000000000000000000000000000000008152600401611c5390614d78565b60405180910390fd5b611c64611a44565b15611ca4576040517f08c379a0000000000000000000000000000000000000000000000000000000008152600401611c9b90614cb8565b60405180910390fd5b611cce7fa49807205ce4d355092ef5a8a18f56e8913cf4a201fbe287825b095693c21775836111e6565b60019050919050565b7fa49807205ce4d355092ef5a8a18f56e8913cf4a201fbe287825b095693c2177581565b600060018054906101000a900473ffffffffffffffffffffffffffffffffffffffff1673ffffffffffffffffffffffffffffffffffffffff166370a08231306040518263ffffffff1660e01b8152600401611d569190614989565b60206040518083038186803b158015611d6e57600080fd5b505afa158015611d82573d6000803e3d6000fd5b505050506040513d601f19601f82011682018060405250810190611da69190614154565b905090565b611dbf6000801b611dba612cfb565b611fd8565b611dfe576040517f08c379a0000000000000000000000000000000000000000000000000000000008152600401611df590614d78565b60405180910390fd5b611e0661335e565b565b6000611e3b7fa49807205ce4d355092ef5a8a18f56e8913cf4a201fbe287825b095693c21775611e36612cfb565b611fd8565b611e7a576040517f08c379a0000000000000000000000000000000000000000000000000000000008152600401611e7190614dd8565b60405180910390fd5b611e82611a44565b15611ec2576040517f08c379a0000000000000000000000000000000000000000000000000000000008152600401611eb990614cb8565b60405180910390fd5b611ecb8361282c565b611f0a576040517f08c379a0000000000000000000000000000000000000000000000000000000008152600401611f0190614c98565b60405180910390fd5b7f7c2e63122e83f3475fafd4ed3573fe53ba5c4b416df3e184d2a74547cc5ba99883600785604051611f3c9190614921565b90815260200160405180910390205484604051611f5b93929190614afa565b60405180910390a181600784604051611f749190614921565b908152602001604051809103902081905550611f8f83613400565b611fce576040517f08c379a0000000000000000000000000000000000000000000000000000000008152600401611fc590614d38565b60405180910390fd5b6001905092915050565b600080600084815260200190815260200160002060000160008373ffffffffffffffffffffffffffffffffffffffff1673ffffffffffffffffffffffffffffffffffffffff16815260200190815260200160002060009054906101000a900460ff16905092915050565b6000600354905090565b60006120626000801b61205d612cfb565b611fd8565b6120a1576040517f08c379a000000000000000000000000000000000000000000000000000000000815260040161209890614d78565b60405180910390fd5b6120a9611a44565b156120e9576040517f08c379a00000000000000000000000000000000000000000000000000000000081526004016120e090614cb8565b60405180910390fd5b6120f28261282c565b15612132576040517f08c379a000000000000000000000000000000000000000000000000000000000815260040161212990614d98565b60405180910390fd5b600a8290806001815401808255809150506001900390600052602060002001600090919091909150908051906020019061216d929190613b33565b506001600a80549050612180919061511f565b9050919050565b6000801b81565b6000846000600281106121ca577f4e487b7100000000000000000000000000000000000000000000000000000000600052603260045260246000fd5b602002013585600160028110612209577f4e487b7100000000000000000000000000000000000000000000000000000000600052603260045260246000fd5b60200201358585856040516020016122259594939291906148c2565b604051602081830303815290604052805190602001209050949350505050565b600061225b6000801b612256612cfb565b611fd8565b61229a576040517f08c379a000000000000000000000000000000000000000000000000000000000815260040161229190614d78565b60405180910390fd5b7febcf09282d3e90997e82c0106e658c0c72acb9a28e8372636cc14cd3a9010b26600454836040516122cd929190614f13565b60405180910390a1816004819055506122f460405180602001604052806000815250613400565b612333576040517f08c379a000000000000000000000000000000000000000000000000000000000815260040161232a90614d38565b60405180910390fd5b60019050919050565b60006123526000801b61234d612cfb565b611fd8565b612391576040517f08c379a000000000000000000000000000000000000000000000000000000000815260040161238890614d78565b60405180910390fd5b612399611a44565b156123d9576040517f08c379a00000000000000000000000000000000000000000000000000000000081526004016123d090614cb8565b60405180910390fd5b6124037f8227712ef8ad39d0f26f06731ef0df8665eb7ada7f41b1ee089adf3c238862a2836111e6565b60019050919050565b6000600454905090565b600061242c6000801b612427612cfb565b611fd8565b61246b576040517f08c379a000000000000000000000000000000000000000000000000000000000815260040161246290614d78565b60405180910390fd5b612473611a44565b156124b3576040517f08c379a00000000000000000000000000000000000000000000000000000000081526004016124aa90614cb8565b60405180910390fd5b6124bc8261282c565b6124fb576040517f08c379a00000000000000000000000000000000000000000000000000000000081526004016124f290614c98565b60405180910390fd5b6001600a8054905011612543576040517f08c379a000000000000000000000000000000000000000000000000000000000815260040161253a90614e38565b60405180910390fd5b600080600090505b600a8054905081101561264e5761262e84600a8381548110612596577f4e487b7100000000000000000000000000000000000000000000000000000000600052603260045260246000fd5b9060005260206000200180546125ab9061527e565b80601f01602080910402602001604051908101604052809291908181526020018280546125d79061527e565b80156126245780601f106125f957610100808354040283529160200191612624565b820191906000526020600020905b81548152906001019060200180831161260757829003601f168201915b5050505050612ca2565b1561263b5780915061264e565b8080612646906152e1565b91505061254b565b50600a6001600a80549050612663919061511f565b8154811061269a577f4e487b7100000000000000000000000000000000000000000000000000000000600052603260045260246000fd5b90600052602060002001600a82815481106126de577f4e487b7100000000000000000000000000000000000000000000000000000000600052603260045260246000fd5b906000526020600020019080546126f49061527e565b6126ff929190613bb9565b50600a805480612738577f4e487b7100000000000000000000000000000000000000000000000000000000600052603160045260246000fd5b6001900381819060005260206000200160006127549190613c46565b90556001915050919050565b60096020528060005260406000206000915054906101000a900460ff1681565b600a818154811061279057600080fd5b9060005260206000200160009150905080546127ab9061527e565b80601f01602080910402602001604051908101604052809291908181526020018280546127d79061527e565b80156128245780601f106127f957610100808354040283529160200191612824565b820191906000526020600020905b81548152906001019060200180831161280757829003601f168201915b505050505081565b600080600090505b600a805490508160ff16101561293f5761291d83600a8360ff1681548110612885577f4e487b7100000000000000000000000000000000000000000000000000000000600052603260045260246000fd5b90600052602060002001805461289a9061527e565b80601f01602080910402602001604051908101604052809291908181526020018280546128c69061527e565b80156129135780601f106128e857610100808354040283529160200191612913565b820191906000526020600020905b8154815290600101906020018083116128f657829003601f168201915b5050505050612ca2565b1561292c576001915050612945565b80806129379061532a565b915050612834565b50600090505b919050565b61295382611017565b6129648161295f612cfb565b612d03565b6000801b8314156129e657612977612cfb565b73ffffffffffffffffffffffffffffffffffffffff168273ffffffffffffffffffffffffffffffffffffffff1614156129e5576040517f08c379a00000000000000000000000000000000000000000000000000000000081526004016129dc90614db8565b60405180910390fd5b5b6129f0838361372f565b505050565b6000612a287fa49807205ce4d355092ef5a8a18f56e8913cf4a201fbe287825b095693c21775612a23612cfb565b611fd8565b612a67576040517f08c379a0000000000000000000000000000000000000000000000000000000008152600401612a5e90614dd8565b60405180910390fd5b7f78673c9ac5931e3ad348cae8e890865e3c177cf3dc3002cdad5ddc5fb2a2d2ef60055483604051612a9a929190614f13565b60405180910390a181600581905550612ac160405180602001604052806000815250613400565b612b00576040517f08c379a0000000000000000000000000000000000000000000000000000000008152600401612af790614d38565b60405180910390fd5b60019050919050565b6000600782604051612b1b9190614921565b9081526020016040518091039020549050919050565b6060600a805480602002602001604051908101604052809291908181526020016000905b82821015612c01578382906000526020600020018054612b749061527e565b80601f0160208091040260200160405190810160405280929190818152602001828054612ba09061527e565b8015612bed5780601f10612bc257610100808354040283529160200191612bed565b820191906000526020600020905b815481529060010190602001808311612bd057829003601f168201915b505050505081526020019060010190612b55565b50505050905090565b6000600554905090565b60018054906101000a900473ffffffffffffffffffffffffffffffffffffffff1681565b60007f01ffc9a7000000000000000000000000000000000000000000000000000000007bffffffffffffffffffffffffffffffffffffffffffffffffffffffff1916827bffffffffffffffffffffffffffffffffffffffffffffffffffffffff1916149050919050565b600081604051602001612cb59190614921565b6040516020818303038152906040528051906020012083604051602001612cdc9190614921565b6040516020818303038152906040528051906020012014905092915050565b600033905090565b612d0d8282611fd8565b612d9c57612d328173ffffffffffffffffffffffffffffffffffffffff166014613758565b612d408360001c6020613758565b604051602001612d5192919061494f565b6040516020818303038152906040526040517f08c379a0000000000000000000000000000000000000000000000000000000008152600401612d939190614ad8565b60405180910390fd5b5050565b612daa8282611fd8565b612e7c57600160008084815260200190815260200160002060000160008373ffffffffffffffffffffffffffffffffffffffff1673ffffffffffffffffffffffffffffffffffffffff16815260200190815260200160002060006101000a81548160ff021916908315150217905550612e21612cfb565b73ffffffffffffffffffffffffffffffffffffffff168173ffffffffffffffffffffffffffffffffffffffff16837f2f8788117e7eff1d82e926ec794901d17c78024a50270940304540a733656f0d60405160405180910390a45b5050565b612e88612cfb565b73ffffffffffffffffffffffffffffffffffffffff168173ffffffffffffffffffffffffffffffffffffffff1614612ef5576040517f08c379a0000000000000000000000000000000000000000000000000000000008152600401612eec90614ed8565b60405180910390fd5b612eff8282613a52565b5050565b612f0b611a44565b612f4a576040517f08c379a0000000000000000000000000000000000000000000000000000000008152600401612f4190614b78565b60405180910390fd5b6000600160006101000a81548160ff0219169083151502179055507f5db9ee0a495bf2e6ff9c91a7834c1ba4fdd244a5e8aa4e537bd38aeae4b073aa612f8e612cfb565b604051612f9b9190614989565b60405180910390a1565b612fd67f8227712ef8ad39d0f26f06731ef0df8665eb7ada7f41b1ee089adf3c238862a2612fd1612cfb565b611fd8565b613015576040517f08c379a000000000000000000000000000000000000000000000000000000000815260040161300c90614c58565b60405180910390fd5b61301d611a44565b1561305d576040517f08c379a000000000000000000000000000000000000000000000000000000000815260040161305490614cb8565b60405180910390fd5b600061306b8585858561218e565b90506009600082815260200190815260200160002060009054906101000a900460ff16156130ce576040517f08c379a00000000000000000000000000000000000000000000000000000000081526004016130c590614bb8565b60405180910390fd5b60016009600083815260200190815260200160002060006101000a81548160ff0219169083151502179055505050505050565b60006131347f8227712ef8ad39d0f26f06731ef0df8665eb7ada7f41b1ee089adf3c238862a261312f612cfb565b611fd8565b613173576040517f08c379a000000000000000000000000000000000000000000000000000000000815260040161316a90614c58565b60405180910390fd5b61317b611a44565b156131bb576040517f08c379a00000000000000000000000000000000000000000000000000000000081526004016131b290614cb8565b60405180910390fd5b8160018054906101000a900473ffffffffffffffffffffffffffffffffffffffff1673ffffffffffffffffffffffffffffffffffffffff166370a08231306040518263ffffffff1660e01b81526004016132159190614989565b60206040518083038186803b15801561322d57600080fd5b505afa158015613241573d6000803e3d6000fd5b505050506040513d601f19601f820116820180604052508101906132659190614154565b10156132a6576040517f08c379a000000000000000000000000000000000000000000000000000000000815260040161329d90614c78565b60405180910390fd5b60018054906101000a900473ffffffffffffffffffffffffffffffffffffffff1673ffffffffffffffffffffffffffffffffffffffff1663a9059cbb84846040518363ffffffff1660e01b81526004016133019291906149db565b602060405180830381600087803b15801561331b57600080fd5b505af115801561332f573d6000803e3d6000fd5b505050506040513d601f19601f820116820180604052508101906133539190613fdf565b506001905092915050565b613366611a44565b156133a6576040517f08c379a000000000000000000000000000000000000000000000000000000000815260040161339d90614cb8565b60405180910390fd5b60018060006101000a81548160ff0219169083151502179055507f62e78cea01bee320cd4e420270b5ea74000d11b0c9f74754ebdbfc544b05a2586133e9612cfb565b6040516133f69190614989565b60405180910390a1565b600061341b8260405180602001604052806000815250612ca2565b6134f1576000670de0b6b3a764000060055460078560405161343d9190614921565b90815260200160405180910390205460045461345991906150c5565b61346391906150c5565b61346d9190615094565b90507fc0f63a2fe4f0a439b93231a74430c3138edb2a42c0db8189fd3ad3046b4e9df7836006856040516134a19190614921565b908152602001604051809103902054836040516134c093929190614afa565b60405180910390a1806006846040516134d99190614921565b90815260200160405180910390208190555050613726565b60005b600a805490508160ff1610156137245760006007600a8360ff1681548110613545577f4e487b7100000000000000000000000000000000000000000000000000000000600052603260045260246000fd5b9060005260206000200160405161355c9190614938565b9081526020016040518091039020541115613711576000670de0b6b3a76400006005546007600a8560ff16815481106135be577f4e487b7100000000000000000000000000000000000000000000000000000000600052603260045260246000fd5b906000526020600020016040516135d59190614938565b9081526020016040518091039020546004546135f191906150c5565b6135fb91906150c5565b6136059190615094565b90507fc0f63a2fe4f0a439b93231a74430c3138edb2a42c0db8189fd3ad3046b4e9df7846006600a8560ff1681548110613668577f4e487b7100000000000000000000000000000000000000000000000000000000600052603260045260246000fd5b9060005260206000200160405161367f9190614938565b9081526020016040518091039020548360405161369e93929190614afa565b60405180910390a1806006600a8460ff16815481106136e6577f4e487b7100000000000000000000000000000000000000000000000000000000600052603260045260246000fd5b906000526020600020016040516136fd9190614938565b908152602001604051809103902081905550505b808061371c9061532a565b9150506134f4565b505b60019050919050565b61373882611017565b61374981613744612cfb565b612d03565b6137538383613a52565b505050565b60606000600283600261376b91906150c5565b613775919061503e565b67ffffffffffffffff8111156137b4577f4e487b7100000000000000000000000000000000000000000000000000000000600052604160045260246000fd5b6040519080825280601f01601f1916602001820160405280156137e65781602001600182028036833780820191505090505b5090507f300000000000000000000000000000000000000000000000000000000000000081600081518110613844577f4e487b7100000000000000000000000000000000000000000000000000000000600052603260045260246000fd5b60200101907effffffffffffffffffffffffffffffffffffffffffffffffffffffffffffff1916908160001a9053507f7800000000000000000000000000000000000000000000000000000000000000816001815181106138ce577f4e487b7100000000000000000000000000000000000000000000000000000000600052603260045260246000fd5b60200101907effffffffffffffffffffffffffffffffffffffffffffffffffffffffffffff1916908160001a9053506000600184600261390e91906150c5565b613918919061503e565b90505b6001811115613a04577f3031323334353637383961626364656600000000000000000000000000000000600f861660108110613980577f4e487b7100000000000000000000000000000000000000000000000000000000600052603260045260246000fd5b1a60f81b8282815181106139bd577f4e487b7100000000000000000000000000000000000000000000000000000000600052603260045260246000fd5b60200101907effffffffffffffffffffffffffffffffffffffffffffffffffffffffffffff1916908160001a905350600485901c9450806139fd90615254565b905061391b565b5060008414613a48576040517f08c379a0000000000000000000000000000000000000000000000000000000008152600401613a3f90614b38565b60405180910390fd5b8091505092915050565b613a5c8282611fd8565b15613b2f57600080600084815260200190815260200160002060000160008373ffffffffffffffffffffffffffffffffffffffff1673ffffffffffffffffffffffffffffffffffffffff16815260200190815260200160002060006101000a81548160ff021916908315150217905550613ad4612cfb565b73ffffffffffffffffffffffffffffffffffffffff168173ffffffffffffffffffffffffffffffffffffffff16837ff6391f5c32d9c69d2a47ea670b442974b53935d1edc7fd64eb21e047a839171b60405160405180910390a45b5050565b828054613b3f9061527e565b90600052602060002090601f016020900481019282613b615760008555613ba8565b82601f10613b7a57805160ff1916838001178555613ba8565b82800160010185558215613ba8579182015b82811115613ba7578251825591602001919060010190613b8c565b5b509050613bb59190613c86565b5090565b828054613bc59061527e565b90600052602060002090601f016020900481019282613be75760008555613c35565b82601f10613bf85780548555613c35565b82800160010185558215613c3557600052602060002091601f016020900482015b82811115613c34578254825591600101919060010190613c19565b5b509050613c429190613c86565b5090565b508054613c529061527e565b6000825580601f10613c645750613c83565b601f016020900490600052602060002090810190613c829190613c86565b5b50565b5b80821115613c9f576000816000905550600101613c87565b5090565b6000613cb6613cb184614f61565b614f3c565b90508082856020860282011115613ccc57600080fd5b60005b85811015613cfc5781613ce28882613e51565b845260208401935060208301925050600181019050613ccf565b5050509392505050565b6000613d19613d1484614f87565b614f3c565b905082815260208101848484011115613d3157600080fd5b613d3c848285615212565b509392505050565b600081359050613d5381615b21565b92915050565b600081905082602060020282011115613d7157600080fd5b92915050565b600082601f830112613d8857600080fd5b6002613d95848285613ca3565b91505092915050565b600081519050613dad81615b38565b92915050565b600081359050613dc281615b4f565b92915050565b600081359050613dd781615b66565b92915050565b60008083601f840112613def57600080fd5b8235905067ffffffffffffffff811115613e0857600080fd5b602083019150836001820283011115613e2057600080fd5b9250929050565b600082601f830112613e3857600080fd5b8135613e48848260208601613d06565b91505092915050565b600081359050613e6081615b7d565b92915050565b600081519050613e7581615b7d565b92915050565b600081359050613e8a81615b94565b92915050565b600060208284031215613ea257600080fd5b6000613eb084828501613d44565b91505092915050565b60008060008060008060008060e0898b031215613ed557600080fd5b6000613ee38b828c01613d44565b9850506020613ef48b828c01613e51565b975050604089013567ffffffffffffffff811115613f1157600080fd5b613f1d8b828c01613ddd565b9650965050606089013567ffffffffffffffff811115613f3c57600080fd5b613f488b828c01613ddd565b94509450506080613f5b8b828c01613d59565b92505060c0613f6c8b828c01613e7b565b9150509295985092959890939650565b60008060008060a08587031215613f9257600080fd5b6000613fa087828801613d59565b9450506040613fb187828801613d44565b9350506060613fc287828801613e51565b9250506080613fd387828801613e7b565b91505092959194509250565b600060208284031215613ff157600080fd5b6000613fff84828501613d9e565b91505092915050565b60006020828403121561401a57600080fd5b600061402884828501613db3565b91505092915050565b6000806040838503121561404457600080fd5b600061405285828601613db3565b925050602061406385828601613d44565b9150509250929050565b60006020828403121561407f57600080fd5b600061408d84828501613dc8565b91505092915050565b6000602082840312156140a857600080fd5b600082013567ffffffffffffffff8111156140c257600080fd5b6140ce84828501613e27565b91505092915050565b600080604083850312156140ea57600080fd5b600083013567ffffffffffffffff81111561410457600080fd5b61411085828601613e27565b925050602061412185828601613e51565b9150509250929050565b60006020828403121561413d57600080fd5b600061414b84828501613e51565b91505092915050565b60006020828403121561416657600080fd5b600061417484828501613e66565b91505092915050565b60008060008060a0858703121561419357600080fd5b60006141a187828801613e51565b94505060206141b287828801613d77565b935050606085013567ffffffffffffffff8111156141cf57600080fd5b6141db87828801613e27565b925050608085013567ffffffffffffffff8111156141f857600080fd5b61420487828801613e27565b91505092959194509250565b600061421c8383614303565b905092915050565b61422d81615153565b82525050565b61424461423f82615153565b615354565b82525050565b600061425582614fdd565b61425f8185615000565b93508360208202850161427185614fb8565b8060005b858110156142ad578484038952815161428e8582614210565b945061429983614ff3565b925060208a01995050600181019050614275565b50829750879550505050505092915050565b6142c881615165565b82525050565b6142d781615171565b82525050565b6142ee6142e982615171565b615366565b82525050565b6142fd816151ee565b82525050565b600061430e82614fe8565b6143188185615011565b9350614328818560208601615221565b6143318161545a565b840191505092915050565b600061434782614fe8565b6143518185615022565b9350614361818560208601615221565b61436a8161545a565b840191505092915050565b600061438082614fe8565b61438a8185615033565b935061439a818560208601615221565b80840191505092915050565b600081546143b38161527e565b6143bd8186615033565b945060018216600081146143d857600181146143e95761441c565b60ff1983168652818601935061441c565b6143f285614fc8565b60005b83811015614414578154818901526001820191506020810190506143f5565b838801955050505b50505092915050565b6000614432602083615022565b915061443d82615485565b602082019050919050565b6000614455601383615022565b9150614460826154ae565b602082019050919050565b6000614478601483615022565b9150614483826154d7565b602082019050919050565b600061449b601b83615022565b91506144a682615500565b602082019050919050565b60006144be601983615022565b91506144c982615529565b602082019050919050565b60006144e1601f83615022565b91506144ec82615552565b602082019050919050565b6000614504602383615022565b915061450f8261557b565b604082019050919050565b6000614527601f83615022565b9150614532826155ca565b602082019050919050565b600061454a601883615022565b9150614555826155f3565b602082019050919050565b600061456d601383615022565b91506145788261561c565b602082019050919050565b6000614590601c83615022565b915061459b82615645565b602082019050919050565b60006145b3601d83615022565b91506145be8261566e565b602082019050919050565b60006145d6601083615022565b91506145e182615697565b602082019050919050565b60006145f9602383615022565b9150614604826156c0565b604082019050919050565b600061461c601183615022565b91506146278261570f565b602082019050919050565b600061463f601983615022565b915061464a82615738565b602082019050919050565b6000614662601d83615022565b915061466d82615761565b602082019050919050565b6000614685602183615022565b91506146908261578a565b604082019050919050565b60006146a8601183615022565b91506146b3826157d9565b602082019050919050565b60006146cb602183615022565b91506146d682615802565b604082019050919050565b60006146ee602d83615022565b91506146f982615851565b604082019050919050565b6000614711601183615022565b915061471c826158a0565b602082019050919050565b6000614734601483615022565b915061473f826158c9565b602082019050919050565b6000614757602383615022565b9150614762826158f2565b604082019050919050565b600061477a601783615033565b915061478582615941565b601782019050919050565b600061479d602683615022565b91506147a88261596a565b604082019050919050565b60006147c0602883615022565b91506147cb826159b9565b604082019050919050565b60006147e3601983615022565b91506147ee82615a08565b602082019050919050565b6000614806602583615022565b915061481182615a31565b604082019050919050565b6000614829601783615022565b915061483482615a80565b602082019050919050565b600061484c601183615033565b915061485782615aa9565b601182019050919050565b600061486f602f83615022565b915061487a82615ad2565b604082019050919050565b61488e816151c7565b82525050565b6148a56148a0826151c7565b615382565b82525050565b6148bc6148b7826151d1565b61538c565b82525050565b60006148ce82886142dd565b6020820191506148de82876142dd565b6020820191506148ee8286614233565b6014820191506148fe8285614894565b60208201915061490e82846148ab565b6004820191508190509695505050505050565b600061492d8284614375565b915081905092915050565b600061494482846143a6565b915081905092915050565b600061495a8261476d565b91506149668285614375565b91506149718261483f565b915061497d8284614375565b91508190509392505050565b600060208201905061499e6000830184614224565b92915050565b60006060820190506149b96000830186614224565b6149c66020830185614224565b6149d36040830184614885565b949350505050565b60006040820190506149f06000830185614224565b6149fd6020830184614885565b9392505050565b600060a082019050614a196000830188614224565b614a266020830187614885565b614a336040830186614885565b8181036060830152614a45818561433c565b90508181036080830152614a59818461433c565b90509695505050505050565b60006020820190508181036000830152614a7f818461424a565b905092915050565b6000602082019050614a9c60008301846142bf565b92915050565b6000602082019050614ab760008301846142ce565b92915050565b6000602082019050614ad260008301846142f4565b92915050565b60006020820190508181036000830152614af2818461433c565b905092915050565b60006060820190508181036000830152614b14818661433c565b9050614b236020830185614885565b614b306040830184614885565b949350505050565b60006020820190508181036000830152614b5181614425565b9050919050565b60006020820190508181036000830152614b7181614448565b9050919050565b60006020820190508181036000830152614b918161446b565b9050919050565b60006020820190508181036000830152614bb18161448e565b9050919050565b60006020820190508181036000830152614bd1816144b1565b9050919050565b60006020820190508181036000830152614bf1816144d4565b9050919050565b60006020820190508181036000830152614c11816144f7565b9050919050565b60006020820190508181036000830152614c318161451a565b9050919050565b60006020820190508181036000830152614c518161453d565b9050919050565b60006020820190508181036000830152614c7181614560565b9050919050565b60006020820190508181036000830152614c9181614583565b9050919050565b60006020820190508181036000830152614cb1816145a6565b9050919050565b60006020820190508181036000830152614cd1816145c9565b9050919050565b60006020820190508181036000830152614cf1816145ec565b9050919050565b60006020820190508181036000830152614d118161460f565b9050919050565b60006020820190508181036000830152614d3181614632565b9050919050565b60006020820190508181036000830152614d5181614655565b9050919050565b60006020820190508181036000830152614d7181614678565b9050919050565b60006020820190508181036000830152614d918161469b565b9050919050565b60006020820190508181036000830152614db1816146be565b9050919050565b60006020820190508181036000830152614dd1816146e1565b9050919050565b60006020820190508181036000830152614df181614704565b9050919050565b60006020820190508181036000830152614e1181614727565b9050919050565b60006020820190508181036000830152614e318161474a565b9050919050565b60006020820190508181036000830152614e5181614790565b9050919050565b60006020820190508181036000830152614e71816147b3565b9050919050565b60006020820190508181036000830152614e91816147d6565b9050919050565b60006020820190508181036000830152614eb1816147f9565b9050919050565b60006020820190508181036000830152614ed18161481c565b9050919050565b60006020820190508181036000830152614ef181614862565b9050919050565b6000602082019050614f0d6000830184614885565b92915050565b6000604082019050614f286000830185614885565b614f356020830184614885565b9392505050565b6000614f46614f57565b9050614f5282826152b0565b919050565b6000604051905090565b600067ffffffffffffffff821115614f7c57614f7b61542b565b5b602082029050919050565b600067ffffffffffffffff821115614fa257614fa161542b565b5b614fab8261545a565b9050602081019050919050565b6000819050602082019050919050565b60008190508160005260206000209050919050565b600081519050919050565b600081519050919050565b6000602082019050919050565b600082825260208201905092915050565b600082825260208201905092915050565b600082825260208201905092915050565b600081905092915050565b6000615049826151c7565b9150615054836151c7565b9250827fffffffffffffffffffffffffffffffffffffffffffffffffffffffffffffffff038211156150895761508861539e565b5b828201905092915050565b600061509f826151c7565b91506150aa836151c7565b9250826150ba576150b96153cd565b5b828204905092915050565b60006150d0826151c7565b91506150db836151c7565b9250817fffffffffffffffffffffffffffffffffffffffffffffffffffffffffffffffff04831182151516156151145761511361539e565b5b828202905092915050565b600061512a826151c7565b9150615135836151c7565b9250828210156151485761514761539e565b5b828203905092915050565b600061515e826151a7565b9050919050565b60008115159050919050565b6000819050919050565b60007fffffffff0000000000000000000000000000000000000000000000000000000082169050919050565b600073ffffffffffffffffffffffffffffffffffffffff82169050919050565b6000819050919050565b600063ffffffff82169050919050565b600060ff82169050919050565b60006151f982615200565b9050919050565b600061520b826151a7565b9050919050565b82818337600083830152505050565b60005b8381101561523f578082015181840152602081019050615224565b8381111561524e576000848401525b50505050565b600061525f826151c7565b915060008214156152735761527261539e565b5b600182039050919050565b6000600282049050600182168061529657607f821691505b602082108114156152aa576152a96153fc565b5b50919050565b6152b98261545a565b810181811067ffffffffffffffff821117156152d8576152d761542b565b5b80604052505050565b60006152ec826151c7565b91507fffffffffffffffffffffffffffffffffffffffffffffffffffffffffffffffff82141561531f5761531e61539e565b5b600182019050919050565b6000615335826151e1565b915060ff8214156153495761534861539e565b5b600182019050919050565b600061535f82615370565b9050919050565b6000819050919050565b600061537b82615478565b9050919050565b6000819050919050565b60006153978261546b565b9050919050565b7f4e487b7100000000000000000000000000000000000000000000000000000000600052601160045260246000fd5b7f4e487b7100000000000000000000000000000000000000000000000000000000600052601260045260246000fd5b7f4e487b7100000000000000000000000000000000000000000000000000000000600052602260045260246000fd5b7f4e487b7100000000000000000000000000000000000000000000000000000000600052604160045260246000fd5b6000601f19601f8301169050919050565b60008160e01b9050919050565b60008160601b9050919050565b7f537472696e67733a20686578206c656e67746820696e73756666696369656e74600082015250565b7f4272696467653a20616d6f756e74206973203000000000000000000000000000600082015250565b7f5061757361626c653a206e6f7420706175736564000000000000000000000000600082015250565b7f4272696467653a20696e737566696369656e742062616c616e63650000000000600082015250565b7f4272696467653a20616c72656164792070726f63657373656400000000000000600082015250565b7f4272696467653a207472616e73616374696f6e48617368206973206e756c6c00600082015250565b7f4272696467653a20616d6f756e74206973206c657373207468616e206d696e6960008201527f6d756d0000000000000000000000000000000000000000000000000000000000602082015250565b7f4272696467653a20746f426c6f636b636861696e206e6f742065786973747300600082015250565b7f4272696467653a207265636569766572206973207a65726f0000000000000000600082015250565b7f4272696467653a206e6f74206d6f6e69746f7200000000000000000000000000600082015250565b7f4272696467653a20696e73756666696369656e742062616c616e636500000000600082015250565b7f4272696467653a20626c6f636b636861696e206e6f7420657869737473000000600082015250565b7f5061757361626c653a2070617573656400000000000000000000000000000000600082015250565b7f4272696467653a2066656542525a206973206c657373207468616e206d696e6960008201527f6d756d0000000000000000000000000000000000000000000000000000000000602082015250565b7f4272696467653a206e6f2073656e646572000000000000000000000000000000600082015250565b7f4272696467653a20626c6f636b48617368206973206e756c6c00000000000000600082015250565b7f4272696467653a207570646174654d696e42525a466565206572726f72000000600082015250565b7f4272696467653a2066726f6d426c6f636b636861696e206e6f7420657869737460008201527f7300000000000000000000000000000000000000000000000000000000000000602082015250565b7f4272696467653a206e6f74206f776e6572000000000000000000000000000000600082015250565b7f4272696467653a20626c6f636b636861696e20616c726561647920657869737460008201527f7300000000000000000000000000000000000000000000000000000000000000602082015250565b7f4272696467653a2063616e206e6f74207265766f6b6520796f757273656c662060008201527f696e20726f6c65206f776e657200000000000000000000000000000000000000602082015250565b7f4272696467653a206e6f742061646d696e000000000000000000000000000000600082015250565b7f4272696467653a207a65726f2061646472657373000000000000000000000000600082015250565b7f4272696467653a2063616e206e6f742072656e6f756e636520726f6c65206f7760008201527f6e65720000000000000000000000000000000000000000000000000000000000602082015250565b7f416363657373436f6e74726f6c3a206163636f756e7420000000000000000000600082015250565b7f4272696467653a207265717569726573206174206c65617374203120626c6f6360008201527f6b636861696e0000000000000000000000000000000000000000000000000000602082015250565b7f4272696467653a2063616e206f6e6c792072656e6f756e636520726f6c65732060008201527f666f722073656c66000000000000000000000000000000000000000000000000602082015250565b7f4272696467653a20746f41646472657373206973206e756c6c00000000000000600082015250565b7f4272696467653a206761735072696365206973206c657373207468616e206d6960008201527f6e696d756d000000000000000000000000000000000000000000000000000000602082015250565b7f4272696467653a20626967676572207468616e20313025000000000000000000600082015250565b7f206973206d697373696e6720726f6c6520000000000000000000000000000000600082015250565b7f416363657373436f6e74726f6c3a2063616e206f6e6c792072656e6f756e636560008201527f20726f6c657320666f722073656c660000000000000000000000000000000000602082015250565b615b2a81615153565b8114615b3557600080fd5b50565b615b4181615165565b8114615b4c57600080fd5b50565b615b5881615171565b8114615b6357600080fd5b50565b615b6f8161517b565b8114615b7a57600080fd5b50565b615b86816151c7565b8114615b9157600080fd5b50565b615b9d816151d1565b8114615ba857600080fd5b5056fea26469706673582212206b76d623642bc214f58e4ada19b855a7437e91040c4ac26730d2bcea8a91e7d164736f6c63430008040033",
  "immutableReferences": {},
  "source": "// SPDX-License-Identifier: MIT\npragma solidity 0.8.4;\n\n/// @title BRZ token Bridge\n/// @author Solange Gueiros\n\n// Inpired on\n// https://github.com/rsksmart/tokenbridge/blob/master/bridge/contracts/Bridge.sol\n// https://github.com/DistributedCollective/Bridge-SC/blob/master/sovryn-token-bridge/bridge/contracts/Bridge_v3.sol\n\n// AccessControl.sol :  https://github.com/OpenZeppelin/openzeppelin-contracts/blob/v4.1.0/contracts/access/AccessControl.sol\n// Pausable.sol :       https://github.com/OpenZeppelin/openzeppelin-contracts/blob/v4.1.0/contracts/security/Pausable.sol\nimport \"./ozeppelin/access/AccessControl.sol\";\nimport \"./ozeppelin/security/Pausable.sol\";\nimport \"./IBridge.sol\";\n\n/**\n * @dev BRZ token Bridge\n *\n * Author: Solange Gueiros\n *\n * Smart contract to cross the BRZ token between EVM compatible blockchains.\n *\n * The tokens are crossed by TransferoSwiss, the company that controls the issuance of BRZs.\n *\n * It uses [Open Zeppelin Contracts]\n * (https://github.com/OpenZeppelin/openzeppelin-contracts/blob/v4.1.0/)\n *\n */\ncontract Bridge is AccessControl, IBridge, Pausable {\n  address private constant ZERO_ADDRESS = address(0);\n  bytes32 private constant NULL_HASH = bytes32(0);\n  bytes32 public constant MONITOR_ROLE = keccak256(\"MONITOR_ROLE\");\n  bytes32 public constant ADMIN_ROLE = keccak256(\"ADMIN_ROLE\");  \n\n  /**\n   * @dev DECIMALPERCENT is the representation of 100% using (2) decimal places\n   * 100.00 = percentage accuracy (2) to 100%\n   */\n  uint256 public constant DECIMALPERCENT = 10000;\n  uint256 public constant ETH_IN_WEI = 1000000000000000000;\n\n  IERC20 public token;\n  uint256 private totalFeeReceivedBridge; // fee received per Bridge, not for transaction in other blockchain\n  uint256 private feePercentageBridge;  // Include 2 decimal places\n  uint256 private gasAcceptTransfer;    // in Wei - Estimative function acceptTransfer: 100000, it can change in EVM cost updates  \n  uint256 private quoteETH_BRZ;         // It can use a oracle in future versions\n  mapping(string => uint256) private minBRZFee; // quoteETH_BRZ * gasAcceptTransfer * minGasPrice\n  mapping(string => uint256) private minGasPrice; //in Wei\n  mapping(string => uint256) private minTokenAmount;\n  mapping(bytes32 => bool) public processed;\n  string[] public blockchain;\n\n  /**\n   * @dev Function called only when the smart contract is deployed.\n   *\n   * Parameters:\n   * - address tokenAddress - address of BRZ token used in this blockchain network\n   *\n   * Actions:\n   * - the transaction's sender will be added in the DEFAULT_ADMIN_ROLE.\n   * - the token will be defined by the parameter tokenAddress\n   * - the feePercentageBridge default value is be setted in 10, which means 0.1%\n   */\n  constructor(address tokenAddress) {\n    _setupRole(DEFAULT_ADMIN_ROLE, _msgSender());\n    token = IERC20(tokenAddress);\n    feePercentageBridge = 10;   //0.1%\n    gasAcceptTransfer = 100000; //Estimative function acceptTransfer: 100000 wei\n  }\n\n  /**\n   * @dev Modifier which verifies if the caller is an owner,\n   * it means he has the role `DEFAULT_ADMIN_ROLE`.\n   *\n   * The role `DEFAULT_ADMIN_ROLE` is defined by Open Zeppelin's AccessControl smart contract.\n   *\n   * By default (setted in the constructor) the account which deployed this smart contract is in this role.\n   *\n   * This owner can add / remove other owners.\n   */\n  modifier onlyOwner() {\n    require(hasRole(DEFAULT_ADMIN_ROLE, _msgSender()), \"Bridge: not owner\");\n    _;\n  }\n\n  /**\n   * @dev Modifier which verifies if the caller is a monitor,\n   * it means he has the role `MONITOR_ROLE`.\n   *\n   * Role MONITOR are referred to its `bytes32` identifier,\n   * defined in the `public constant` called MONITOR_ROLE.\n   * It should be exposed in the external API and be unique.\n   *\n   * Role MONITOR is used to manage the permissions of monitor's addresses.\n   */\n  modifier onlyMonitor() {\n    require(hasRole(MONITOR_ROLE, _msgSender()), \"Bridge: not monitor\");\n    _;\n  }\n\n  /**\n   * @dev Modifier which verifies if the caller is a monitor,\n   * it means he has the role `ADMIN_ROLE`.\n   *\n   * Role ADMIN are referred to its `bytes32` identifier,\n   * defined in the `public constant` called ADMIN_ROLE.\n   * It should be exposed in the external API and be unique.\n   *\n   * Role ADMIN is used to manage the permissions for update minimum fee per blockchain.\n   */\n  modifier onlyAdmin() {\n    require(hasRole(ADMIN_ROLE, _msgSender()), \"Bridge: not admin\");\n    _;\n  }\n\n  /**\n   * @dev Function which returns the bridge's version.\n   *\n   * This is a fixed value define in source code.\n   *\n   * Parameters: none\n   *\n   * Returns: string\n   */\n  function version() external pure override returns (string memory) {\n    return \"v0\";\n  }\n\n  /**\n   * @dev Private function to compare two strings\n   * and returns `true` if the strings are equal,\n   * otherwise it returns false.\n   *\n   * Parameters: stringA, stringB\n   *\n   * Returns: bool\n   */\n  function compareStrings(string memory a, string memory b)\n    private\n    pure\n    returns (bool)\n  {\n    return (keccak256(abi.encodePacked((a))) ==\n      keccak256(abi.encodePacked((b))));\n  }\n\n  /**\n   * @dev This function starts the process of crossing tokens in the Bridge.\n   *\n   * > Any account / person can call it!\n   *\n   * Can not be called if the Bridge is paused.\n   *\n   * Parameters:\n   * - amount - gross amount of tokens to be crossed.\n   *   - The Bridge fee will be deducted from this amount.\n   * - transactionFee - array with the fees:\n   *   - transactionFee[0] - fee in BRL - this fee will be added to amount transfered from caller's account.\n   *   - transactionFee[1] - gas price for fee in destiny currency(minor unit) - this information will be\n   *      used in the destination Blockchain,\n   *      by the monitor who will create the transaction and send using this fee defined here.\n   * - toBlockchain - the amount will be sent to this blockchain.\n   * - toAddress - the amount will be sent to this address. It can be diferent from caller's address.\n   * This is a string because some blockchain could not have the same pattern from Ethereum / RSK / BSC.\n   *\n   * Returns: bool - true if it is sucessful.\n   *\n   * > Before call this function, the caller MUST have called function `approve` in BRZ token,\n   * > allowing the bridge's smart contract address to use the BRZ tokens,\n   * > calling the function `transferFrom`.\n   *\n   * References:\n   *\n   * ERC-20 tokens approve and transferFrom pattern:\n   * [eip-20#transferfrom](https://eips.ethereum.org/EIPS/eip-20#transferfrom)\n   *\n   * Requirements:\n   * - fee in BRZ (transactionFee[0]) must be at least (BRZFactorFee[blockchainName] * minGasPrice[toBlockchain]).\n   * - gasPrice (transactionFee[1]) in destiny blockchain (minor unit) greater than minGasPrice in toBlockchain.\n   * - toBlockchain exists.\n   * - toAddress is not an empty string.\n   * - amount must be greater than minTokenAmount in toBlockchain.\n   * - amount greater than zero.\n   *\n   * Actions:\n   * - add the blockchain fee in BRZ to amount in BRZ, in totalAmount.\n   * - calculate bridge's fee using the original amount to be sent.\n   * - discount bridge's fee from the original amount, in amountMinusFees.\n   * - add bridge's fee to `totalFeeReceivedBridge`, a variable to store all the fees received by the bridge.\n   * - BRZ transfer totalAmount from the caller's address to bridge address.\n   * - emit `CrossRequest` event, with the parameters:\n   *   - from - address of the caller's function.\n   *   - amount - the net amount to be transfered in the destination blockchain.\n   *   - toFee - the gas price fee, which must be used to send the transfer transaction in the destination blockchain.\n   *   - toAddress - string representing the address which will receive the tokens.\n   *   - toBlockchain - the destination blockchain.\n   *\n   * > The `CrossRequest` event is very important because it must be listened by the monitor,\n   * an external program which will\n   * send the transaction on the destination blockchain.\n   *\n   * #### More info about fees\n   *\n   * - Blockchain / transaction fee in BRL (transactionFee[0])\n   * It will be transfered from user's account,\n   * along with the amount he would like to receive in the account.\n   *\n   * This will be spent in `toBlockchain`.\n   * Does not depend of amount, but of destination blockchain.\n   *\n   * It must be at least the (BRZFactorFee * minGasPrice) per blockchain.\n   *\n   * > BRZFactorFee = \n   * >\n   * > Estimative function acceptTransfer (100000)\n   * >\n   * >            x \n   * >\n   * > Estimative ETH quote in BRZ in minor unit (4 decimal places).\n   *\n   * It is used in the function acceptTransfer,\n   * which can not accept a BRZ fee less than BRZFactorFee * minGasPrice (per blockchain).   \n   *\n   * - Bridge Fee - it is deducted from the requested amount.\n   * It is a percentage of the requested amount.\n   * Cannot include the transaction fee in order to be calculated.\n   * \n   *\n   */\n  function receiveTokens(\n    uint256 amount,\n    uint256[2] memory transactionFee,\n    string memory toBlockchain,\n    string memory toAddress\n  ) external override whenNotPaused returns (bool) {\n    require(existsBlockchain(toBlockchain), \"Bridge: toBlockchain not exists\");\n    require(!compareStrings(toAddress, \"\"), \"Bridge: toAddress is null\");\n\n    require(\n      transactionFee[0] >= minBRZFee[toBlockchain],\n      \"Bridge: feeBRZ is less than minimum\"\n    );\n    require(\n      transactionFee[1] >= minGasPrice[toBlockchain],\n      \"Bridge: gasPrice is less than minimum\"\n    );\n    require(amount > 0, \"Bridge: amount is 0\");\n    require(\n      amount >= minTokenAmount[toBlockchain],\n      \"Bridge: amount is less than minimum\"\n    );\n\n    //The total amount is the amount desired plus the blockchain fee to destination, in the token unit\n    uint256 totalAmount = amount + transactionFee[0];\n\n    //Bridge fee or service fee\n    uint256 bridgeFee = (amount * feePercentageBridge) / DECIMALPERCENT;\n    uint256 amountMinusFees = amount - bridgeFee;\n    totalFeeReceivedBridge += bridgeFee;\n\n    //This is the message for Monitor off-chain manage the transaction and send the tokens on the other Blockchain\n    emit CrossRequest(\n      _msgSender(),\n      amountMinusFees,\n      transactionFee[1],\n      toAddress,\n      toBlockchain\n    );\n\n    //Transfer the tokens on IERC20, they should be already approved for the bridge Address to use them\n    token.transferFrom(_msgSender(), address(this), totalAmount);\n    return true;\n  }\n\n  /**\n   * @dev This function calculate a transaction id hash.\n   *\n   * Any person can call it.\n   *\n   * Parameters:\n   * - hashes - from transaction in the origin blockchain:\n   *   - blockHash - hash of the block where was the transaction `receiveTokens`\n   *   - transactionHash - hash of the transaction `receiveTokens` with the event `CrossRequest`.\n   * - receiver - the address which will receive the tokens.\n   * - amount - the net amount to be transfered.\n   * - logIndex - the index of the event `CrossRequest` in the logs of transaction.\n   *\n   * Returns: a bytes32 hash of all the information sent.\n   *\n   * Notes:\n   * It did not use origin blockchain and sender address\n   * because the possibility of having the same origin transaction from different blockchain source is minimal.\n   *\n   * It is a point to be evaluated in an audit.\n   *\n   */\n  function getTransactionId(\n    bytes32[2] calldata hashes, //blockHash, transactionHash\n    address receiver,\n    uint256 amount,\n    uint32 logIndex\n  ) public pure override returns (bytes32) {\n    return\n      keccak256(\n        abi.encodePacked(hashes[0], hashes[1], receiver, amount, logIndex)\n      );\n  }\n\n  /**\n   * @dev This function update the variable processed for a transaction\n   *\n   * > Only monitor can call it!\n   *\n   * This variable is a public mapping.\n   *\n   * Each bytes32 which represents a Transaction Id has his boolen value stored.\n   *\n   */\n  function _processTransaction(\n    bytes32[2] calldata hashes, //blockHash, transactionHash\n    address receiver,\n    uint256 amount,\n    uint32 logIndex\n  ) private onlyMonitor whenNotPaused {\n    bytes32 transactionId = getTransactionId(\n      hashes,\n      receiver,\n      amount,\n      logIndex\n    );\n    require(!processed[transactionId], \"Bridge: already processed\");\n    processed[transactionId] = true;\n  }\n\n  /**\n   * @dev This function transfer tokens from the the internal balance of bridge smart contract\n   * to the internal balance of the destination address.\n   *\n   * The token.balanceOf(bridgeAddress) must always be greather than or equal the total amount to be claimed by users,\n   * as there may be tokens not yet claimed.\n   *\n   * Can not be called if the Bridge is paused.\n   *\n   * > Only monitor can call it!\n   *\n   */\n  function _sendToken(address to, uint256 amount)\n    private\n    onlyMonitor\n    whenNotPaused\n    returns (bool)\n  {\n    require(\n      token.balanceOf(address(this)) >= amount,\n      \"Bridge: insufficient balance\"\n    );\n    token.transfer(to, amount);\n    return true;\n  }\n\n  /**\n   * @dev This function accept the cross of token,\n   * which means it is called in the destination blockchain,\n   * who will send the tokens accepted to be crossed.\n   *\n   * > Only monitor can call it!\n   *\n   * Can not be called if the Bridge is paused.\n   *\n   * Parameters:\n   * - receiver - the address which will receive the tokens.\n   * - amount - the net amount to be transfered.\n   * - sender - string representing the address of the token's sender.\n   * - fromBlockchain - the origin blockchain.\n   * - hashes - from transaction in the origin blockchain:\n   *   - blockHash - hash of the block where was the transaction `receiveTokens`.\n   *   - transactionHash - hash of the transaction `receiveTokens` with the event `CrossRequest`.\n   * - logIndex - the index of the event `CrossRequest` in the transaction logs.\n   *\n   * Returns: bool - true if it is sucessful\n   *\n   * Requirements:\n   * - receiver is not a zero address.\n   * - amount greater than zero.\n   * - sender is not an empty string.\n   * - fromBlockchain exists.\n   * - blockHash is not null hash.\n   * - transactionHash is not hash.\n   *\n   * Actions:\n   * - processTransaction:\n   *   - getTransactionId\n   *   - verify if the transactionId was already processed\n   *   - update the status processed for transactionId\n   * - sendToken:\n   *   - check if the bridge has in his balance at least the amount required to do the transfer\n   *   - transfer the amount tokens to destination address\n   *\n   */\n  function acceptTransfer(\n    address receiver,\n    uint256 amount,\n    string calldata sender,\n    string calldata fromBlockchain,\n    bytes32[2] calldata hashes, //blockHash, transactionHash\n    uint32 logIndex\n  ) external override onlyMonitor whenNotPaused returns (bool) {\n    require(receiver != ZERO_ADDRESS, \"Bridge: receiver is zero\");\n    require(amount > 0, \"Bridge: amount is 0\");\n    require(bytes(sender).length > 0, \"Bridge: no sender\");\n    require(\n      existsBlockchain(fromBlockchain),\n      \"Bridge: fromBlockchain not exists\"\n    );\n    require(hashes[0] != NULL_HASH, \"Bridge: blockHash is null\");\n    require(hashes[1] != NULL_HASH, \"Bridge: transactionHash is null\");\n\n    _processTransaction(hashes, receiver, amount, logIndex);\n    _sendToken(receiver, amount);\n    return true;\n  }\n\n  /**\n   * @dev Returns token balance in bridge.\n   *\n   * Parameters: none\n   *\n   * Returns: integer amount of tokens in bridge\n   *\n   */\n  function getTokenBalance() external view override returns (uint256) {\n    return token.balanceOf(address(this));\n  }\n\n  /**\n   * @dev Returns total of fees received by bridge.\n   *\n   * Parameters: none\n   *\n   * Returns: integer\n   *\n   */\n  function getTotalFeeReceivedBridge()\n    external\n    view\n    override\n    returns (uint256)\n  {\n    return totalFeeReceivedBridge;\n  }\n\n  /**\n   * @dev Withdraw tokens from bridge\n   *\n   * Only owner can call it.\n   *\n   * Can be called even if the Bridge is paused,\n   * because can happens a problem and it is necessary to withdraw tokens,\n   * maybe to create a new version of bridge, for example.\n   *\n   * The tokens only can be sent to the caller's function.\n   *\n   * Parameters: integer amount of tokens\n   *\n   * Returns: true if it is successful\n   *\n   * Requirements:\n   * - amount less or equal balance of tokens in bridge.\n   *\n   */\n  function withdrawToken(uint256 amount) external onlyOwner returns (bool) {\n    require(\n      amount <= token.balanceOf(address(this)),\n      \"Bridge: insuficient balance\"\n    );\n    token.transfer(_msgSender(), amount);\n    return true;\n  }\n\n  /**\n   * @dev This function add an address in the `MONITOR_ROLE`.\n   *\n   * Only owner can call it.\n   *\n   * Can not be called if the Bridge is paused.\n   *\n   * Parameters: address of monitor to be added\n   *\n   * Returns: bool - true if it is sucessful\n   *\n   */\n  function addMonitor(address account)\n    external\n    onlyOwner\n    whenNotPaused\n    returns (bool)\n  {\n    grantRole(MONITOR_ROLE, account);\n    return true;\n  }\n\n  /**\n   * @dev This function excludes an address in the `MONITOR_ROLE`.\n   *\n   * Only owner can call it.\n   *\n   * Can not be called if the Bridge is paused.\n   *\n   * Parameters: address of monitor to be excluded\n   *\n   * Returns: bool - true if it is sucessful\n   *\n   */\n  function delMonitor(address account)\n    external\n    onlyOwner\n    whenNotPaused\n    returns (bool)\n  {\n    //Can be called only by the account defined in constructor: DEFAULT_ADMIN_ROLE\n    revokeRole(MONITOR_ROLE, account);\n    return true;\n  }\n\n  /**\n   * @dev This function add an address in the `ADMIN_ROLE`.\n   *\n   * Only owner can call it.\n   *\n   * Can not be called if the Bridge is paused.\n   *\n   * Parameters: address of admin to be added\n   *\n   * Returns: bool - true if it is sucessful\n   *\n   */\n  function addAdmin(address account)\n    external\n    onlyOwner\n    whenNotPaused\n    returns (bool)\n  {\n    grantRole(ADMIN_ROLE, account);\n    return true;\n  }\n\n  /**\n   * @dev This function excludes an address in the `ADMIN_ROLE`.\n   *\n   * Only owner can call it.\n   *\n   * Can not be called if the Bridge is paused.\n   *\n   * Parameters: address of admin to be excluded\n   *\n   * Returns: bool - true if it is sucessful\n   *\n   */\n  function delAdmin(address account)\n    external\n    onlyOwner\n    whenNotPaused\n    returns (bool)\n  {\n    //Can be called only by the account defined in constructor: DEFAULT_ADMIN_ROLE\n    revokeRole(ADMIN_ROLE, account);\n    return true;\n  }\n\n  /**\n   * @dev This function allows a user to renounce a role\n   *\n   * Parameters: bytes32 role, address account\n   *\n   * Returns: none\n   *\n   * Requirements:\n   *\n   * - An owner can not renounce the role DEFAULT_ADMIN_ROLE.\n   * - Can only renounce roles for your own account.\n   *\n   */\n  function renounceRole(bytes32 role, address account) public virtual override {\n    require (role != DEFAULT_ADMIN_ROLE, \"Bridge: can not renounce role owner\");\n    require(account == _msgSender(), \"Bridge: can only renounce roles for self\");\n    super.renounceRole(role, account);\n  }\n\n\n  /**\n   * @dev This function allows to revoke a role\n   *\n   * Parameters: bytes32 role, address account\n   *\n   * Returns: none\n   *\n   * Requirements:\n   *\n   * - An owner can not revoke yourself in the role DEFAULT_ADMIN_ROLE.\n   *\n   */\n  function revokeRole(bytes32 role, address account)\n    public\n    virtual\n    override\n    onlyRole(getRoleAdmin(role))\n  {\n    if (role == DEFAULT_ADMIN_ROLE) {\n      require ( account != _msgSender(), \"Bridge: can not revoke yourself in role owner\");\n    }\n    super.revokeRole(role, account);\n  }\n\n  /**\n   * @dev This function update the minimum blockchain fee - gas price - in the minor unit.\n   *\n   * It is an internal function, called when quoteETH_BRZ, gasAcceptTransfer \n   * or minGasPrice[blockchainName] changed.\n   *\n   * Returns: bool - true if it is sucessful\n   *\n   * Emit the event `MinBRZFeeChanged(blockchain, oldFee, newFee)`.\n   *\n   */\n  function _updateMinBRZFee(string memory blockchainName) internal returns (bool)\n  {\n    // quoteETH_BRZ (1 ETH in BRZ)\n    if (!compareStrings(blockchainName, \"\")) {\n      uint256 newFee = gasAcceptTransfer * minGasPrice[blockchainName] * quoteETH_BRZ / ETH_IN_WEI;\n      emit MinBRZFeeChanged(\n        blockchainName,\n        minBRZFee[blockchainName],\n        newFee\n      );\n      minBRZFee[blockchainName] = newFee;\n    }\n    else {\n      for (uint8 i = 0; i < blockchain.length; i++) {\n        if (minGasPrice[blockchain[i]] > 0) {\n          uint256 newFee = gasAcceptTransfer * minGasPrice[blockchain[i]] * quoteETH_BRZ / ETH_IN_WEI;\n          emit MinBRZFeeChanged(\n            blockchainName,\n            minBRZFee[blockchain[i]],\n            newFee\n          );\n          minBRZFee[blockchain[i]] = newFee;\n        }\n      }\n    }\n    return true;\n  }\n\n  /**\n   * @dev Returns the quote of pair ETH / BRZ.\n   *\n   * (1 ETH = the amount of BRZ returned)\n   * \n   * in BRZ in minor unit (4 decimal places).\n   *\n   * It is used to calculate minBRZFee in destination \n   * which can not accept a BRZ fee less than minBRZFee (per blockchain).\n   *\n   * Returns: integer\n   *\n   */\n  function getQuoteETH_BRZ()\n    external\n    view\n    override\n    returns (uint256)\n  {\n    return quoteETH_BRZ;\n  }\n\n  /**\n   * @dev This function update quote of pair ETH / BRZ.\n   *\n   * (1 ETH = the amount of BRZ defined)\n   *\n   * Only admin can call it.\n   *\n   * Each time quoteETH_BRZ is updated, the MinBRZFee is updated too.\n   *\n   * Parameters: integer, the new quote\n   *\n   * Returns: bool - true if it is sucessful\n   *\n   * Emit the event `QuoteETH_BRZChanged(oldValue, newValue)`.\n   *\n   */\n  function setQuoteETH_BRZ(uint256 newValue)\n    public\n    onlyAdmin\n    returns (bool)\n  {\n    emit QuoteETH_BRZChanged(\n      quoteETH_BRZ,\n      newValue\n    );\n    quoteETH_BRZ = newValue;\n    require(_updateMinBRZFee(\"\"), \"Bridge: updateMinBRZFee error\");\n    return true;\n  }\n\n  /**\n   * @dev Returns the minimum gas price to cross tokens.\n   *\n   * The function acceptTransfer can not accept less than the minimum gas price per blockchain.\n   *\n   * Parameters: string, blockchain name\n   *\n   * Returns: integer\n   *\n   */\n  function getMinGasPrice(string memory blockchainName)\n    external\n    view\n    override\n    returns (uint256)\n  {\n    return minGasPrice[blockchainName];\n  }\n\n  /**\n   * @dev This function update the minimum blockchain fee - gas price - in the minor unit.\n   *\n   * Each time setMinGasPrice is updated, the MinBRZFee is updated too.\n   *\n   * Only admin can call it.\n   *\n   * Can not be called if the Bridge is paused.\n   *\n   * Parameters: integer, the new fee\n   *\n   * Returns: bool - true if it is sucessful\n   *\n   * Requirements:\n   * - blockchain must exists.\n   *\n   * Emit the event `MinGasPriceChanged(blockchain, oldFee, newFee)`.\n   *\n   */\n  function setMinGasPrice(string memory blockchainName, uint256 newFee)\n    public\n    onlyAdmin\n    whenNotPaused\n    returns (bool)\n  {\n    require(existsBlockchain(blockchainName), \"Bridge: blockchain not exists\");\n    emit MinGasPriceChanged(\n      blockchainName,\n      minGasPrice[blockchainName],\n      newFee\n    );\n    minGasPrice[blockchainName] = newFee;\n    require(_updateMinBRZFee(blockchainName), \"Bridge: updateMinBRZFee error\");    \n    return true;\n  }\n\n  /**\n   * @dev Returns the minimum destination blockchain fee in BRZ,\n   * in minor unit (4 decimal places)\n   * \n   * It is updated when one of these itens be updated:\n   *  - gasAcceptTransfer\n   *  - quoteETH_BRZ\n   *  - minGasPrice per Blockchain \n   *\n   * It is used in the function acceptTransfer,\n   * which can not accept a BRZ fee less than minBRZFee (per blockchain).\n   *\n   * Parameters: string, blockchain name\n   *\n   * Returns: integer\n   *\n   */\n  function getMinBRZFee(string memory blockchainName)\n    external\n    view\n    override\n    returns (uint256)\n  {\n    return minBRZFee[blockchainName];\n  }\n\n  /**\n   * @dev Returns an estimative of the gas amount used in function AcceptTransfer.\n   *\n   * (1 ETH = the amount of BRZ returned)\n   * \n   * in BRZ in minor unit (4 decimal places).\n   *\n   * It is used to calculate minBRZFee in destination \n   * which can not accept a BRZ fee less than minBRZFee (per blockchain).\n   *\n   * Returns: integer\n   *\n   */\n  function getGasAcceptTransfer()\n    external\n    view\n    override\n    returns (uint256)\n  {\n    return gasAcceptTransfer;\n  }\n\n  /**\n   * @dev This function update the estimative of the gas amount used in function AcceptTransfer.\n   *\n   * It will only change if happen some EVM cost update.\n   *\n   * Only owner can call it.\n   *\n   * Each time gasAcceptTransfer is updated, the MinBRZFee is updated too.\n   *\n   * Parameters: integer, the new gas amount\n   *\n   * Returns: bool - true if it is sucessful\n   *\n   * Emit the event `GasAcceptTransferChanged(oldValue, newValue)`.\n   *\n   */\n  function setGasAcceptTransfer(uint256 newValue)\n    public\n    onlyOwner\n    returns (bool)\n  {\n    emit GasAcceptTransferChanged(\n      gasAcceptTransfer,\n      newValue\n    );\n    gasAcceptTransfer = newValue;\n    require(_updateMinBRZFee(\"\"), \"Bridge: updateMinBRZFee error\");\n    return true;\n  }\n\n  /**\n   * @dev Returns the minimum token amount to cross.\n   *\n   * The function acceptTransfer can not accpept less than the minimum per blockchain.\n   *\n   * Parameters: string, blockchain name\n   *\n   * Returns: integer\n   *\n   */\n  function getMinTokenAmount(string memory blockchainName)\n    external\n    view\n    override\n    returns (uint256)\n  {\n    return minTokenAmount[blockchainName];\n  }\n\n  /**\n   * @dev This function update the minimum token's amount to be crossed.\n   *\n   * Only admin can call it.\n   *\n   * Can not be called if the Bridge is paused.\n   *\n   * Parameters: integer, the new amount\n   *\n   * Returns: bool - true if it is sucessful\n   *\n   * Requirements:\n   * - blockchain must exists.\n   *\n   * Emit the event `MinTokenAmountChanged(blockchain, oldMinimumAmount, newMinimumAmount)`.\n   *\n   */\n  function setMinTokenAmount(string memory blockchainName, uint256 newAmount)\n    public\n    onlyAdmin\n    whenNotPaused\n    returns (bool)\n  {\n    require(existsBlockchain(blockchainName), \"Bridge: blockchain not exists\");\n    emit MinTokenAmountChanged(\n      blockchainName,\n      minTokenAmount[blockchainName],\n      newAmount\n    );\n    minTokenAmount[blockchainName] = newAmount;\n    return true;\n  }\n\n  /**\n   * @dev Returns the fee percentage bridge.\n   *\n   * For each amount received in the bridge, a fee percentage is discounted.\n   * This function returns this fee percentage bridge.\n   *\n   * Parameters: none\n   *\n   * Returns: integer\n   *\n   */\n  function getFeePercentageBridge() external view override returns (uint256) {\n    return feePercentageBridge;\n  }\n\n  /**\n   * @dev This function update the fee percentage bridge.\n   *\n   * Only owner can call it.\n   *\n   * Can not be called if the Bridge is paused.\n   *\n   * Parameters: integer, the new fee\n   *\n   * Returns: bool - true if it is sucessful\n   *\n   * Requirements:\n   * - The new fee must be lower than 10% .\n   *\n   * Emit the event `FeePercentageBridgeChanged(oldFee, newFee)`.\n   *\n   */\n  function setFeePercentageBridge(uint256 newFee)\n    external\n    onlyOwner\n    whenNotPaused\n    returns (bool)\n  {\n    require(newFee < (DECIMALPERCENT / 10), \"Bridge: bigger than 10%\");\n    emit FeePercentageBridgeChanged(feePercentageBridge, newFee);\n    feePercentageBridge = newFee;\n    return true;\n  }\n\n  /**\n   * @dev This function update the BRZ token.\n   *\n   * Only owner can call it.\n   *\n   * Can not be called if the Bridge is paused.\n   *\n   * Parameters: address of new BRZ token\n   *\n   * Returns: bool - true if it is sucessful\n   *\n   * Requirements:\n   * - The token address must not be a zero address.\n   *\n   * Emit the event `TokenChanged(tokenAddress)`.\n   *\n   */\n  function setToken(address tokenAddress)\n    external\n    onlyOwner\n    whenNotPaused\n    returns (bool)\n  {\n    require(tokenAddress != ZERO_ADDRESS, \"Bridge: zero address\");\n    emit TokenChanged(tokenAddress);\n    token = IERC20(tokenAddress);\n    return true;\n  }\n\n  /**\n   * @dev Returns if a blockchain is in the list of allowed blockchains to cross tokens using the bridge.\n   *\n   * Parameters: string name of blockchain\n   *\n   * Returns: boolean true if it is in the list\n   *\n   */\n  function existsBlockchain(string memory name)\n    public\n    view\n    override\n    returns (bool)\n  {\n    for (uint8 i = 0; i < blockchain.length; i++) {\n      if (compareStrings(name, blockchain[i])) {\n        return true;\n      }\n    }\n    return false;\n  }\n\n  /**\n   * @dev List of blockchains allowed to cross tokens using the bridge.\n   *\n   * Parameters: none\n   *\n   * Returns: an array of strings containing the blockchain list\n   *\n   */\n  function listBlockchain() external view override returns (string[] memory) {\n    return blockchain;\n  }\n\n  /**\n   * @dev This function include a new blockchain in the list of allowed blockchains used in the bridge.\n   *\n   * Only owner can call it.\n   *\n   * Can not be called if the Bridge is paused.\n   *\n   * Parameters: string name of blockchain to be added\n   *\n   * Returns: index of blockchain in the array\n   *\n   * Requirements:\n   * - blockchain not exists.\n   *\n   */\n  function addBlockchain(string memory name)\n    external\n    onlyOwner\n    whenNotPaused\n    returns (uint256)\n  {\n    require(!existsBlockchain(name), \"Bridge: blockchain already exists\");\n    blockchain.push(name);\n    return (blockchain.length - 1);\n  }\n\n  /**\n   * @dev This function exclude a blockchain in the list of allowed blockchains used in the bridge.\n   *\n   * Only owner can call it.\n   *\n   * Can not be called if the Bridge is paused.\n   *\n   * Parameters: string name of blockchain to be excluded\n   *\n   * Returns: bool - true if it is sucessful\n   *\n   * Requirements:\n   * - blockchain exists.\n   * - there must be at least one blockchain left.\n   *\n   */\n  function delBlockchain(string memory name)\n    external\n    onlyOwner\n    whenNotPaused\n    returns (bool)\n  {\n    require(existsBlockchain(name), \"Bridge: blockchain not exists\");\n    require(blockchain.length > 1, \"Bridge: requires at least 1 blockchain\");\n\n    uint256 index;\n    for (uint256 i = 0; i < blockchain.length; i++) {\n      if (compareStrings(name, blockchain[i])) {\n        index = i;\n        break;\n      }\n    }\n    blockchain[index] = blockchain[blockchain.length - 1];\n    blockchain.pop();\n    return true;\n  }\n\n  /**\n   * @dev This function pauses the bridge.\n   *\n   * Only owner can call it.\n   *\n   * Parameters: none\n   *\n   * Returns: none\n   *\n   * Requirements:\n   *\n   * - The contract must not be paused.\n   *\n   */\n  function pause() external onlyOwner {\n    /**\n     * @dev See {Pausable-_pause}.\n     *\n     * Requirements:\n     *\n     * - The contract must not be paused.\n     */\n    _pause();\n  }\n\n  /**\n   * @dev This function unpauses the bridge.\n   *\n   * Only owner can call it.\n   *\n   * Parameters: none\n   *\n   * Returns: none\n   *\n   * Requirements:\n   *\n   * - The contract must be paused.\n   */\n  function unpause() external onlyOwner {\n    /**\n     * @dev See {Pausable-_unpause}.\n     *\n     * Requirements:\n     *\n     * - The contract must be paused.\n     */\n    _unpause();\n  }\n}\n",
  "sourcePath": "C:\\BLOCKCHAIN\\TRANSFERO\\GITHUB\\brz-token-bridge-SOL\\contracts\\Bridge.sol",
  "compiler": {
    "name": "solc",
    "version": "0.8.4+commit.c7e474f2.Emscripten.clang"
  },
  "schemaVersion": "3.4.3",
  "updatedAt": "2021-09-24T22:00:09.867Z",
  "devdoc": {
    "details": "BRZ token Bridge Author: Solange Gueiros Smart contract to cross the BRZ token between EVM compatible blockchains. The tokens are crossed by TransferoSwiss, the company that controls the issuance of BRZs. It uses [Open Zeppelin Contracts] (https://github.com/OpenZeppelin/openzeppelin-contracts/blob/v4.1.0/)",
    "kind": "dev",
    "methods": {
      "acceptTransfer(address,uint256,string,string,bytes32[2],uint32)": {
        "details": "This function accept the cross of token, which means it is called in the destination blockchain, who will send the tokens accepted to be crossed. > Only monitor can call it! Can not be called if the Bridge is paused. Parameters: - receiver - the address which will receive the tokens. - amount - the net amount to be transfered. - sender - string representing the address of the token's sender. - fromBlockchain - the origin blockchain. - hashes - from transaction in the origin blockchain:   - blockHash - hash of the block where was the transaction `receiveTokens`.   - transactionHash - hash of the transaction `receiveTokens` with the event `CrossRequest`. - logIndex - the index of the event `CrossRequest` in the transaction logs. Returns: bool - true if it is sucessful Requirements: - receiver is not a zero address. - amount greater than zero. - sender is not an empty string. - fromBlockchain exists. - blockHash is not null hash. - transactionHash is not hash. Actions: - processTransaction:   - getTransactionId   - verify if the transactionId was already processed   - update the status processed for transactionId - sendToken:   - check if the bridge has in his balance at least the amount required to do the transfer   - transfer the amount tokens to destination address"
      },
      "addAdmin(address)": {
        "details": "This function add an address in the `ADMIN_ROLE`. Only owner can call it. Can not be called if the Bridge is paused. Parameters: address of admin to be added Returns: bool - true if it is sucessful"
      },
      "addBlockchain(string)": {
        "details": "This function include a new blockchain in the list of allowed blockchains used in the bridge. Only owner can call it. Can not be called if the Bridge is paused. Parameters: string name of blockchain to be added Returns: index of blockchain in the array Requirements: - blockchain not exists."
      },
      "addMonitor(address)": {
        "details": "This function add an address in the `MONITOR_ROLE`. Only owner can call it. Can not be called if the Bridge is paused. Parameters: address of monitor to be added Returns: bool - true if it is sucessful"
      },
      "constructor": {
        "details": "Function called only when the smart contract is deployed. Parameters: - address tokenAddress - address of BRZ token used in this blockchain network Actions: - the transaction's sender will be added in the DEFAULT_ADMIN_ROLE. - the token will be defined by the parameter tokenAddress - the feePercentageBridge default value is be setted in 10, which means 0.1%"
      },
      "delAdmin(address)": {
        "details": "This function excludes an address in the `ADMIN_ROLE`. Only owner can call it. Can not be called if the Bridge is paused. Parameters: address of admin to be excluded Returns: bool - true if it is sucessful"
      },
      "delBlockchain(string)": {
        "details": "This function exclude a blockchain in the list of allowed blockchains used in the bridge. Only owner can call it. Can not be called if the Bridge is paused. Parameters: string name of blockchain to be excluded Returns: bool - true if it is sucessful Requirements: - blockchain exists. - there must be at least one blockchain left."
      },
      "delMonitor(address)": {
        "details": "This function excludes an address in the `MONITOR_ROLE`. Only owner can call it. Can not be called if the Bridge is paused. Parameters: address of monitor to be excluded Returns: bool - true if it is sucessful"
      },
      "existsBlockchain(string)": {
        "details": "Returns if a blockchain is in the list of allowed blockchains to cross tokens using the bridge. Parameters: string name of blockchain Returns: boolean true if it is in the list"
      },
      "getFeePercentageBridge()": {
        "details": "Returns the fee percentage bridge. For each amount received in the bridge, a fee percentage is discounted. This function returns this fee percentage bridge. Parameters: none Returns: integer"
      },
      "getGasAcceptTransfer()": {
        "details": "Returns an estimative of the gas amount used in function AcceptTransfer. (1 ETH = the amount of BRZ returned)  in BRZ in minor unit (4 decimal places). It is used to calculate minBRZFee in destination  which can not accept a BRZ fee less than minBRZFee (per blockchain). Returns: integer"
      },
      "getMinBRZFee(string)": {
        "details": "Returns the minimum destination blockchain fee in BRZ, in minor unit (4 decimal places)  It is updated when one of these itens be updated:  - gasAcceptTransfer  - quoteETH_BRZ  - minGasPrice per Blockchain  It is used in the function acceptTransfer, which can not accept a BRZ fee less than minBRZFee (per blockchain). Parameters: string, blockchain name Returns: integer"
      },
      "getMinGasPrice(string)": {
        "details": "Returns the minimum gas price to cross tokens. The function acceptTransfer can not accept less than the minimum gas price per blockchain. Parameters: string, blockchain name Returns: integer"
      },
      "getMinTokenAmount(string)": {
        "details": "Returns the minimum token amount to cross. The function acceptTransfer can not accpept less than the minimum per blockchain. Parameters: string, blockchain name Returns: integer"
      },
      "getQuoteETH_BRZ()": {
        "details": "Returns the quote of pair ETH / BRZ. (1 ETH = the amount of BRZ returned)  in BRZ in minor unit (4 decimal places). It is used to calculate minBRZFee in destination  which can not accept a BRZ fee less than minBRZFee (per blockchain). Returns: integer"
      },
      "getRoleAdmin(bytes32)": {
        "details": "Returns the admin role that controls `role`. See {grantRole} and {revokeRole}. To change a role's admin, use {_setRoleAdmin}."
      },
      "getTokenBalance()": {
        "details": "Returns token balance in bridge. Parameters: none Returns: integer amount of tokens in bridge"
      },
      "getTotalFeeReceivedBridge()": {
        "details": "Returns total of fees received by bridge. Parameters: none Returns: integer"
      },
      "getTransactionId(bytes32[2],address,uint256,uint32)": {
        "details": "This function calculate a transaction id hash. Any person can call it. Parameters: - hashes - from transaction in the origin blockchain:   - blockHash - hash of the block where was the transaction `receiveTokens`   - transactionHash - hash of the transaction `receiveTokens` with the event `CrossRequest`. - receiver - the address which will receive the tokens. - amount - the net amount to be transfered. - logIndex - the index of the event `CrossRequest` in the logs of transaction. Returns: a bytes32 hash of all the information sent. Notes: It did not use origin blockchain and sender address because the possibility of having the same origin transaction from different blockchain source is minimal. It is a point to be evaluated in an audit."
      },
      "grantRole(bytes32,address)": {
        "details": "Grants `role` to `account`. If `account` had not been already granted `role`, emits a {RoleGranted} event. Requirements: - the caller must have ``role``'s admin role."
      },
      "hasRole(bytes32,address)": {
        "details": "Returns `true` if `account` has been granted `role`."
      },
      "listBlockchain()": {
        "details": "List of blockchains allowed to cross tokens using the bridge. Parameters: none Returns: an array of strings containing the blockchain list"
      },
      "pause()": {
        "details": "This function pauses the bridge. Only owner can call it. Parameters: none Returns: none Requirements: - The contract must not be paused."
      },
      "paused()": {
        "details": "Returns true if the contract is paused, and false otherwise."
      },
      "receiveTokens(uint256,uint256[2],string,string)": {
        "details": "This function starts the process of crossing tokens in the Bridge. > Any account / person can call it! Can not be called if the Bridge is paused. Parameters: - amount - gross amount of tokens to be crossed.   - The Bridge fee will be deducted from this amount. - transactionFee - array with the fees:   - transactionFee[0] - fee in BRL - this fee will be added to amount transfered from caller's account.   - transactionFee[1] - gas price for fee in destiny currency(minor unit) - this information will be      used in the destination Blockchain,      by the monitor who will create the transaction and send using this fee defined here. - toBlockchain - the amount will be sent to this blockchain. - toAddress - the amount will be sent to this address. It can be diferent from caller's address. This is a string because some blockchain could not have the same pattern from Ethereum / RSK / BSC. Returns: bool - true if it is sucessful. > Before call this function, the caller MUST have called function `approve` in BRZ token, > allowing the bridge's smart contract address to use the BRZ tokens, > calling the function `transferFrom`. References: ERC-20 tokens approve and transferFrom pattern: [eip-20#transferfrom](https://eips.ethereum.org/EIPS/eip-20#transferfrom) Requirements: - fee in BRZ (transactionFee[0]) must be at least (BRZFactorFee[blockchainName] * minGasPrice[toBlockchain]). - gasPrice (transactionFee[1]) in destiny blockchain (minor unit) greater than minGasPrice in toBlockchain. - toBlockchain exists. - toAddress is not an empty string. - amount must be greater than minTokenAmount in toBlockchain. - amount greater than zero. Actions: - add the blockchain fee in BRZ to amount in BRZ, in totalAmount. - calculate bridge's fee using the original amount to be sent. - discount bridge's fee from the original amount, in amountMinusFees. - add bridge's fee to `totalFeeReceivedBridge`, a variable to store all the fees received by the bridge. - BRZ transfer totalAmount from the caller's address to bridge address. - emit `CrossRequest` event, with the parameters:   - from - address of the caller's function.   - amount - the net amount to be transfered in the destination blockchain.   - toFee - the gas price fee, which must be used to send the transfer transaction in the destination blockchain.   - toAddress - string representing the address which will receive the tokens.   - toBlockchain - the destination blockchain. > The `CrossRequest` event is very important because it must be listened by the monitor, an external program which will send the transaction on the destination blockchain. #### More info about fees - Blockchain / transaction fee in BRL (transactionFee[0]) It will be transfered from user's account, along with the amount he would like to receive in the account. This will be spent in `toBlockchain`. Does not depend of amount, but of destination blockchain. It must be at least the (BRZFactorFee * minGasPrice) per blockchain. > BRZFactorFee =  > > Estimative function acceptTransfer (100000) > >            x  > > Estimative ETH quote in BRZ in minor unit (4 decimal places). It is used in the function acceptTransfer, which can not accept a BRZ fee less than BRZFactorFee * minGasPrice (per blockchain).    - Bridge Fee - it is deducted from the requested amount. It is a percentage of the requested amount. Cannot include the transaction fee in order to be calculated. "
      },
      "renounceRole(bytes32,address)": {
        "details": "This function allows a user to renounce a role Parameters: bytes32 role, address account Returns: none Requirements: - An owner can not renounce the role DEFAULT_ADMIN_ROLE. - Can only renounce roles for your own account."
      },
      "revokeRole(bytes32,address)": {
        "details": "This function allows to revoke a role Parameters: bytes32 role, address account Returns: none Requirements: - An owner can not revoke yourself in the role DEFAULT_ADMIN_ROLE."
      },
      "setFeePercentageBridge(uint256)": {
        "details": "This function update the fee percentage bridge. Only owner can call it. Can not be called if the Bridge is paused. Parameters: integer, the new fee Returns: bool - true if it is sucessful Requirements: - The new fee must be lower than 10% . Emit the event `FeePercentageBridgeChanged(oldFee, newFee)`."
      },
      "setGasAcceptTransfer(uint256)": {
        "details": "This function update the estimative of the gas amount used in function AcceptTransfer. It will only change if happen some EVM cost update. Only owner can call it. Each time gasAcceptTransfer is updated, the MinBRZFee is updated too. Parameters: integer, the new gas amount Returns: bool - true if it is sucessful Emit the event `GasAcceptTransferChanged(oldValue, newValue)`."
      },
      "setMinGasPrice(string,uint256)": {
        "details": "This function update the minimum blockchain fee - gas price - in the minor unit. Each time setMinGasPrice is updated, the MinBRZFee is updated too. Only admin can call it. Can not be called if the Bridge is paused. Parameters: integer, the new fee Returns: bool - true if it is sucessful Requirements: - blockchain must exists. Emit the event `MinGasPriceChanged(blockchain, oldFee, newFee)`."
      },
      "setMinTokenAmount(string,uint256)": {
        "details": "This function update the minimum token's amount to be crossed. Only admin can call it. Can not be called if the Bridge is paused. Parameters: integer, the new amount Returns: bool - true if it is sucessful Requirements: - blockchain must exists. Emit the event `MinTokenAmountChanged(blockchain, oldMinimumAmount, newMinimumAmount)`."
      },
      "setQuoteETH_BRZ(uint256)": {
        "details": "This function update quote of pair ETH / BRZ. (1 ETH = the amount of BRZ defined) Only admin can call it. Each time quoteETH_BRZ is updated, the MinBRZFee is updated too. Parameters: integer, the new quote Returns: bool - true if it is sucessful Emit the event `QuoteETH_BRZChanged(oldValue, newValue)`."
      },
      "setToken(address)": {
        "details": "This function update the BRZ token. Only owner can call it. Can not be called if the Bridge is paused. Parameters: address of new BRZ token Returns: bool - true if it is sucessful Requirements: - The token address must not be a zero address. Emit the event `TokenChanged(tokenAddress)`."
      },
      "supportsInterface(bytes4)": {
        "details": "See {IERC165-supportsInterface}."
      },
      "unpause()": {
        "details": "This function unpauses the bridge. Only owner can call it. Parameters: none Returns: none Requirements: - The contract must be paused."
      },
      "version()": {
        "details": "Function which returns the bridge's version. This is a fixed value define in source code. Parameters: none Returns: string"
      },
      "withdrawToken(uint256)": {
        "details": "Withdraw tokens from bridge Only owner can call it. Can be called even if the Bridge is paused, because can happens a problem and it is necessary to withdraw tokens, maybe to create a new version of bridge, for example. The tokens only can be sent to the caller's function. Parameters: integer amount of tokens Returns: true if it is successful Requirements: - amount less or equal balance of tokens in bridge."
      }
    },
    "stateVariables": {
      "DECIMALPERCENT": {
        "details": "DECIMALPERCENT is the representation of 100% using (2) decimal places 100.00 = percentage accuracy (2) to 100%"
      }
    },
    "version": 1
  },
  "userdoc": {
    "kind": "user",
    "methods": {},
    "version": 1
  }
}