{
  "contractName": "BRZToken",
  "abi": [
    {
      "inputs": [],
      "stateMutability": "nonpayable",
      "type": "constructor"
    },
    {
      "anonymous": false,
      "inputs": [
        {
          "indexed": true,
          "internalType": "address",
          "name": "owner",
          "type": "address"
        },
        {
          "indexed": true,
          "internalType": "address",
          "name": "spender",
          "type": "address"
        },
        {
          "indexed": false,
          "internalType": "uint256",
          "name": "value",
          "type": "uint256"
        }
      ],
      "name": "Approval",
      "type": "event"
    },
    {
      "anonymous": false,
      "inputs": [
        {
          "indexed": false,
          "internalType": "address",
          "name": "account",
          "type": "address"
        }
      ],
      "name": "Paused",
      "type": "event"
    },
    {
      "anonymous": false,
      "inputs": [
        {
          "indexed": true,
          "internalType": "bytes32",
          "name": "role",
          "type": "bytes32"
        },
        {
          "indexed": true,
          "internalType": "bytes32",
          "name": "previousAdminRole",
          "type": "bytes32"
        },
        {
          "indexed": true,
          "internalType": "bytes32",
          "name": "newAdminRole",
          "type": "bytes32"
        }
      ],
      "name": "RoleAdminChanged",
      "type": "event"
    },
    {
      "anonymous": false,
      "inputs": [
        {
          "indexed": true,
          "internalType": "bytes32",
          "name": "role",
          "type": "bytes32"
        },
        {
          "indexed": true,
          "internalType": "address",
          "name": "account",
          "type": "address"
        },
        {
          "indexed": true,
          "internalType": "address",
          "name": "sender",
          "type": "address"
        }
      ],
      "name": "RoleGranted",
      "type": "event"
    },
    {
      "anonymous": false,
      "inputs": [
        {
          "indexed": true,
          "internalType": "bytes32",
          "name": "role",
          "type": "bytes32"
        },
        {
          "indexed": true,
          "internalType": "address",
          "name": "account",
          "type": "address"
        },
        {
          "indexed": true,
          "internalType": "address",
          "name": "sender",
          "type": "address"
        }
      ],
      "name": "RoleRevoked",
      "type": "event"
    },
    {
      "anonymous": false,
      "inputs": [
        {
          "indexed": true,
          "internalType": "address",
          "name": "from",
          "type": "address"
        },
        {
          "indexed": true,
          "internalType": "address",
          "name": "to",
          "type": "address"
        },
        {
          "indexed": false,
          "internalType": "uint256",
          "name": "value",
          "type": "uint256"
        }
      ],
      "name": "Transfer",
      "type": "event"
    },
    {
      "anonymous": false,
      "inputs": [
        {
          "indexed": false,
          "internalType": "address",
          "name": "account",
          "type": "address"
        }
      ],
      "name": "Unpaused",
      "type": "event"
    },
    {
      "inputs": [],
      "name": "DEFAULT_ADMIN_ROLE",
      "outputs": [
        {
          "internalType": "bytes32",
          "name": "",
          "type": "bytes32"
        }
      ],
      "stateMutability": "view",
      "type": "function",
      "constant": true
    },
    {
      "inputs": [],
      "name": "MINTER_ROLE",
      "outputs": [
        {
          "internalType": "bytes32",
          "name": "",
          "type": "bytes32"
        }
      ],
      "stateMutability": "view",
      "type": "function",
      "constant": true
    },
    {
      "inputs": [],
      "name": "PAUSER_ROLE",
      "outputs": [
        {
          "internalType": "bytes32",
          "name": "",
          "type": "bytes32"
        }
      ],
      "stateMutability": "view",
      "type": "function",
      "constant": true
    },
    {
      "inputs": [
        {
          "internalType": "address",
          "name": "owner",
          "type": "address"
        },
        {
          "internalType": "address",
          "name": "spender",
          "type": "address"
        }
      ],
      "name": "allowance",
      "outputs": [
        {
          "internalType": "uint256",
          "name": "",
          "type": "uint256"
        }
      ],
      "stateMutability": "view",
      "type": "function",
      "constant": true
    },
    {
      "inputs": [
        {
          "internalType": "address",
          "name": "spender",
          "type": "address"
        },
        {
          "internalType": "uint256",
          "name": "amount",
          "type": "uint256"
        }
      ],
      "name": "approve",
      "outputs": [
        {
          "internalType": "bool",
          "name": "",
          "type": "bool"
        }
      ],
      "stateMutability": "nonpayable",
      "type": "function"
    },
    {
      "inputs": [
        {
          "internalType": "address",
          "name": "account",
          "type": "address"
        }
      ],
      "name": "balanceOf",
      "outputs": [
        {
          "internalType": "uint256",
          "name": "",
          "type": "uint256"
        }
      ],
      "stateMutability": "view",
      "type": "function",
      "constant": true
    },
    {
      "inputs": [
        {
          "internalType": "uint256",
          "name": "amount",
          "type": "uint256"
        }
      ],
      "name": "burn",
      "outputs": [],
      "stateMutability": "nonpayable",
      "type": "function"
    },
    {
      "inputs": [
        {
          "internalType": "address",
          "name": "account",
          "type": "address"
        },
        {
          "internalType": "uint256",
          "name": "amount",
          "type": "uint256"
        }
      ],
      "name": "burnFrom",
      "outputs": [],
      "stateMutability": "nonpayable",
      "type": "function"
    },
    {
      "inputs": [],
      "name": "decimals",
      "outputs": [
        {
          "internalType": "uint8",
          "name": "",
          "type": "uint8"
        }
      ],
      "stateMutability": "view",
      "type": "function",
      "constant": true
    },
    {
      "inputs": [
        {
          "internalType": "address",
          "name": "spender",
          "type": "address"
        },
        {
          "internalType": "uint256",
          "name": "subtractedValue",
          "type": "uint256"
        }
      ],
      "name": "decreaseAllowance",
      "outputs": [
        {
          "internalType": "bool",
          "name": "",
          "type": "bool"
        }
      ],
      "stateMutability": "nonpayable",
      "type": "function"
    },
    {
      "inputs": [
        {
          "internalType": "bytes32",
          "name": "role",
          "type": "bytes32"
        }
      ],
      "name": "getRoleAdmin",
      "outputs": [
        {
          "internalType": "bytes32",
          "name": "",
          "type": "bytes32"
        }
      ],
      "stateMutability": "view",
      "type": "function",
      "constant": true
    },
    {
      "inputs": [
        {
          "internalType": "bytes32",
          "name": "role",
          "type": "bytes32"
        },
        {
          "internalType": "uint256",
          "name": "index",
          "type": "uint256"
        }
      ],
      "name": "getRoleMember",
      "outputs": [
        {
          "internalType": "address",
          "name": "",
          "type": "address"
        }
      ],
      "stateMutability": "view",
      "type": "function",
      "constant": true
    },
    {
      "inputs": [
        {
          "internalType": "bytes32",
          "name": "role",
          "type": "bytes32"
        }
      ],
      "name": "getRoleMemberCount",
      "outputs": [
        {
          "internalType": "uint256",
          "name": "",
          "type": "uint256"
        }
      ],
      "stateMutability": "view",
      "type": "function",
      "constant": true
    },
    {
      "inputs": [
        {
          "internalType": "bytes32",
          "name": "role",
          "type": "bytes32"
        },
        {
          "internalType": "address",
          "name": "account",
          "type": "address"
        }
      ],
      "name": "grantRole",
      "outputs": [],
      "stateMutability": "nonpayable",
      "type": "function"
    },
    {
      "inputs": [
        {
          "internalType": "bytes32",
          "name": "role",
          "type": "bytes32"
        },
        {
          "internalType": "address",
          "name": "account",
          "type": "address"
        }
      ],
      "name": "hasRole",
      "outputs": [
        {
          "internalType": "bool",
          "name": "",
          "type": "bool"
        }
      ],
      "stateMutability": "view",
      "type": "function",
      "constant": true
    },
    {
      "inputs": [
        {
          "internalType": "address",
          "name": "spender",
          "type": "address"
        },
        {
          "internalType": "uint256",
          "name": "addedValue",
          "type": "uint256"
        }
      ],
      "name": "increaseAllowance",
      "outputs": [
        {
          "internalType": "bool",
          "name": "",
          "type": "bool"
        }
      ],
      "stateMutability": "nonpayable",
      "type": "function"
    },
    {
      "inputs": [
        {
          "internalType": "address",
          "name": "to",
          "type": "address"
        },
        {
          "internalType": "uint256",
          "name": "amount",
          "type": "uint256"
        }
      ],
      "name": "mint",
      "outputs": [],
      "stateMutability": "nonpayable",
      "type": "function"
    },
    {
      "inputs": [],
      "name": "name",
      "outputs": [
        {
          "internalType": "string",
          "name": "",
          "type": "string"
        }
      ],
      "stateMutability": "view",
      "type": "function",
      "constant": true
    },
    {
      "inputs": [],
      "name": "pause",
      "outputs": [],
      "stateMutability": "nonpayable",
      "type": "function"
    },
    {
      "inputs": [],
      "name": "paused",
      "outputs": [
        {
          "internalType": "bool",
          "name": "",
          "type": "bool"
        }
      ],
      "stateMutability": "view",
      "type": "function",
      "constant": true
    },
    {
      "inputs": [
        {
          "internalType": "bytes32",
          "name": "role",
          "type": "bytes32"
        },
        {
          "internalType": "address",
          "name": "account",
          "type": "address"
        }
      ],
      "name": "renounceRole",
      "outputs": [],
      "stateMutability": "nonpayable",
      "type": "function"
    },
    {
      "inputs": [
        {
          "internalType": "bytes32",
          "name": "role",
          "type": "bytes32"
        },
        {
          "internalType": "address",
          "name": "account",
          "type": "address"
        }
      ],
      "name": "revokeRole",
      "outputs": [],
      "stateMutability": "nonpayable",
      "type": "function"
    },
    {
      "inputs": [
        {
          "internalType": "bytes4",
          "name": "interfaceId",
          "type": "bytes4"
        }
      ],
      "name": "supportsInterface",
      "outputs": [
        {
          "internalType": "bool",
          "name": "",
          "type": "bool"
        }
      ],
      "stateMutability": "view",
      "type": "function",
      "constant": true
    },
    {
      "inputs": [],
      "name": "symbol",
      "outputs": [
        {
          "internalType": "string",
          "name": "",
          "type": "string"
        }
      ],
      "stateMutability": "view",
      "type": "function",
      "constant": true
    },
    {
      "inputs": [],
      "name": "totalSupply",
      "outputs": [
        {
          "internalType": "uint256",
          "name": "",
          "type": "uint256"
        }
      ],
      "stateMutability": "view",
      "type": "function",
      "constant": true
    },
    {
      "inputs": [
        {
          "internalType": "address",
          "name": "recipient",
          "type": "address"
        },
        {
          "internalType": "uint256",
          "name": "amount",
          "type": "uint256"
        }
      ],
      "name": "transfer",
      "outputs": [
        {
          "internalType": "bool",
          "name": "",
          "type": "bool"
        }
      ],
      "stateMutability": "nonpayable",
      "type": "function"
    },
    {
      "inputs": [
        {
          "internalType": "address",
          "name": "sender",
          "type": "address"
        },
        {
          "internalType": "address",
          "name": "recipient",
          "type": "address"
        },
        {
          "internalType": "uint256",
          "name": "amount",
          "type": "uint256"
        }
      ],
      "name": "transferFrom",
      "outputs": [
        {
          "internalType": "bool",
          "name": "",
          "type": "bool"
        }
      ],
      "stateMutability": "nonpayable",
      "type": "function"
    },
    {
      "inputs": [],
      "name": "unpause",
      "outputs": [],
      "stateMutability": "nonpayable",
      "type": "function"
    }
  ],
  "bytecode": "0x60806040523480156200001157600080fd5b506040518060400160405280600381526020017f42525a00000000000000000000000000000000000000000000000000000000008152506040518060400160405280600381526020017f42525a0000000000000000000000000000000000000000000000000000000000815250818181600590805190602001906200009892919062000413565b508060069080519060200190620000b192919062000413565b5050506000600760006101000a81548160ff021916908315150217905550620000f36000801b620000e76200017d60201b60201c565b6200018560201b60201c565b620001347f9f2df0fed2c77648de5860a4cc508cd0818c85b8b8a1ab4ceeef8d981c8956a6620001286200017d60201b60201c565b6200018560201b60201c565b620001757f65d7a28e3265b37a6474929f336521b332c1681b933f6cb9f3376673440d862a620001696200017d60201b60201c565b6200018560201b60201c565b505062000528565b600033905090565b6200019c8282620001cd60201b62000efb1760201c565b620001c88160016000858152602001908152602001600020620001e360201b62000f091790919060201c565b505050565b620001df82826200021b60201b60201c565b5050565b600062000213836000018373ffffffffffffffffffffffffffffffffffffffff1660001b6200030c60201b60201c565b905092915050565b6200022d82826200038660201b60201c565b6200030857600160008084815260200190815260200160002060000160008373ffffffffffffffffffffffffffffffffffffffff1673ffffffffffffffffffffffffffffffffffffffff16815260200190815260200160002060006101000a81548160ff021916908315150217905550620002ad6200017d60201b60201c565b73ffffffffffffffffffffffffffffffffffffffff168173ffffffffffffffffffffffffffffffffffffffff16837f2f8788117e7eff1d82e926ec794901d17c78024a50270940304540a733656f0d60405160405180910390a45b5050565b6000620003208383620003f060201b60201c565b6200037b57826000018290806001815401808255809150506001900390600052602060002001600090919091909150558260000180549050836001016000848152602001908152602001600020819055506001905062000380565b600090505b92915050565b600080600084815260200190815260200160002060000160008373ffffffffffffffffffffffffffffffffffffffff1673ffffffffffffffffffffffffffffffffffffffff16815260200190815260200160002060009054906101000a900460ff16905092915050565b600080836001016000848152602001908152602001600020541415905092915050565b8280546200042190620004c3565b90600052602060002090601f01602090048101928262000445576000855562000491565b82601f106200046057805160ff191683800117855562000491565b8280016001018555821562000491579182015b828111156200049057825182559160200191906001019062000473565b5b509050620004a09190620004a4565b5090565b5b80821115620004bf576000816000905550600101620004a5565b5090565b60006002820490506001821680620004dc57607f821691505b60208210811415620004f357620004f2620004f9565b5b50919050565b7f4e487b7100000000000000000000000000000000000000000000000000000000600052602260045260246000fd5b6134f480620005386000396000f3fe608060405234801561001057600080fd5b50600436106101c45760003560e01c806370a08231116100f9578063a457c2d711610097578063d539139311610071578063d53913931461052d578063d547741f1461054b578063dd62ed3e14610567578063e63ab1e914610597576101c4565b8063a457c2d71461049d578063a9059cbb146104cd578063ca15c873146104fd576101c4565b80639010d07c116100d35780639010d07c1461040157806391d148541461043157806395d89b4114610461578063a217fddf1461047f576101c4565b806370a08231146103ab57806379cc6790146103db5780638456cb59146103f7576101c4565b8063313ce567116101665780633f4ba83a116101405780633f4ba83a1461034b57806340c10f191461035557806342966c68146103715780635c975abb1461038d576101c4565b8063313ce567146102e157806336568abe146102ff578063395093511461031b576101c4565b806318160ddd116101a257806318160ddd1461024757806323b872dd14610265578063248a9ca3146102955780632f2ff15d146102c5576101c4565b806301ffc9a7146101c957806306fdde03146101f9578063095ea7b314610217575b600080fd5b6101e360048036038101906101de919061247c565b6105b5565b6040516101f091906128da565b60405180910390f35b61020161062f565b60405161020e9190612910565b60405180910390f35b610231600480360381019061022c919061239f565b6106c1565b60405161023e91906128da565b60405180910390f35b61024f6106df565b60405161025c9190612bb2565b60405180910390f35b61027f600480360381019061027a9190612350565b6106e9565b60405161028c91906128da565b60405180910390f35b6102af60048036038101906102aa91906123db565b6107ea565b6040516102bc91906128f5565b60405180910390f35b6102df60048036038101906102da9190612404565b610809565b005b6102e961083d565b6040516102f69190612bcd565b60405180910390f35b61031960048036038101906103149190612404565b610846565b005b6103356004803603810190610330919061239f565b61087a565b60405161034291906128da565b60405180910390f35b610353610926565b005b61036f600480360381019061036a919061239f565b6109a0565b005b61038b600480360381019061038691906124a5565b610a1e565b005b610395610a32565b6040516103a291906128da565b60405180910390f35b6103c560048036038101906103c091906122eb565b610a49565b6040516103d29190612bb2565b60405180910390f35b6103f560048036038101906103f0919061239f565b610a92565b005b6103ff610b16565b005b61041b60048036038101906104169190612440565b610b90565b60405161042891906128bf565b60405180910390f35b61044b60048036038101906104469190612404565b610bbf565b60405161045891906128da565b60405180910390f35b610469610c29565b6040516104769190612910565b60405180910390f35b610487610cbb565b60405161049491906128f5565b60405180910390f35b6104b760048036038101906104b2919061239f565b610cc2565b6040516104c491906128da565b60405180910390f35b6104e760048036038101906104e2919061239f565b610db6565b6040516104f491906128da565b60405180910390f35b610517600480360381019061051291906123db565b610dd4565b6040516105249190612bb2565b60405180910390f35b610535610df8565b60405161054291906128f5565b60405180910390f35b61056560048036038101906105609190612404565b610e1c565b005b610581600480360381019061057c9190612314565b610e50565b60405161058e9190612bb2565b60405180910390f35b61059f610ed7565b6040516105ac91906128f5565b60405180910390f35b60007f5a05180f000000000000000000000000000000000000000000000000000000007bffffffffffffffffffffffffffffffffffffffffffffffffffffffff1916827bffffffffffffffffffffffffffffffffffffffffffffffffffffffff19161480610628575061062782610f39565b5b9050919050565b60606005805461063e90612ddb565b80601f016020809104026020016040519081016040528092919081815260200182805461066a90612ddb565b80156106b75780601f1061068c576101008083540402835291602001916106b7565b820191906000526020600020905b81548152906001019060200180831161069a57829003601f168201915b5050505050905090565b60006106d56106ce610fb3565b8484610fbb565b6001905092915050565b6000600454905090565b60006106f6848484611186565b6000600360008673ffffffffffffffffffffffffffffffffffffffff1673ffffffffffffffffffffffffffffffffffffffff1681526020019081526020016000206000610741610fb3565b73ffffffffffffffffffffffffffffffffffffffff1673ffffffffffffffffffffffffffffffffffffffff168152602001908152602001600020549050828110156107c1576040517f08c379a00000000000000000000000000000000000000000000000000000000081526004016107b890612a52565b60405180910390fd5b6107de856107cd610fb3565b85846107d99190612cbf565b610fbb565b60019150509392505050565b6000806000838152602001908152602001600020600101549050919050565b6108138282611408565b6108388160016000858152602001908152602001600020610f0990919063ffffffff16565b505050565b60006012905090565b6108508282611431565b61087581600160008581526020019081526020016000206114b490919063ffffffff16565b505050565b600061091c610887610fb3565b848460036000610895610fb3565b73ffffffffffffffffffffffffffffffffffffffff1673ffffffffffffffffffffffffffffffffffffffff16815260200190815260200160002060008873ffffffffffffffffffffffffffffffffffffffff1673ffffffffffffffffffffffffffffffffffffffff168152602001908152602001600020546109179190612c0f565b610fbb565b6001905092915050565b6109577f65d7a28e3265b37a6474929f336521b332c1681b933f6cb9f3376673440d862a610952610fb3565b610bbf565b610996576040517f08c379a000000000000000000000000000000000000000000000000000000000815260040161098d906129d2565b60405180910390fd5b61099e6114e4565b565b6109d17f9f2df0fed2c77648de5860a4cc508cd0818c85b8b8a1ab4ceeef8d981c8956a66109cc610fb3565b610bbf565b610a10576040517f08c379a0000000000000000000000000000000000000000000000000000000008152600401610a0790612a72565b60405180910390fd5b610a1a8282611586565b5050565b610a2f610a29610fb3565b826116db565b50565b6000600760009054906101000a900460ff16905090565b6000600260008373ffffffffffffffffffffffffffffffffffffffff1673ffffffffffffffffffffffffffffffffffffffff168152602001908152602001600020549050919050565b6000610aa583610aa0610fb3565b610e50565b905081811015610aea576040517f08c379a0000000000000000000000000000000000000000000000000000000008152600401610ae190612a92565b60405180910390fd5b610b0783610af6610fb3565b8484610b029190612cbf565b610fbb565b610b1183836116db565b505050565b610b477f65d7a28e3265b37a6474929f336521b332c1681b933f6cb9f3376673440d862a610b42610fb3565b610bbf565b610b86576040517f08c379a0000000000000000000000000000000000000000000000000000000008152600401610b7d90612b12565b60405180910390fd5b610b8e6118b1565b565b6000610bb7826001600086815260200190815260200160002061195490919063ffffffff16565b905092915050565b600080600084815260200190815260200160002060000160008373ffffffffffffffffffffffffffffffffffffffff1673ffffffffffffffffffffffffffffffffffffffff16815260200190815260200160002060009054906101000a900460ff16905092915050565b606060068054610c3890612ddb565b80601f0160208091040260200160405190810160405280929190818152602001828054610c6490612ddb565b8015610cb15780601f10610c8657610100808354040283529160200191610cb1565b820191906000526020600020905b815481529060010190602001808311610c9457829003601f168201915b5050505050905090565b6000801b81565b60008060036000610cd1610fb3565b73ffffffffffffffffffffffffffffffffffffffff1673ffffffffffffffffffffffffffffffffffffffff16815260200190815260200160002060008573ffffffffffffffffffffffffffffffffffffffff1673ffffffffffffffffffffffffffffffffffffffff16815260200190815260200160002054905082811015610d8e576040517f08c379a0000000000000000000000000000000000000000000000000000000008152600401610d8590612b32565b60405180910390fd5b610dab610d99610fb3565b858584610da69190612cbf565b610fbb565b600191505092915050565b6000610dca610dc3610fb3565b8484611186565b6001905092915050565b6000610df16001600084815260200190815260200160002061196e565b9050919050565b7f9f2df0fed2c77648de5860a4cc508cd0818c85b8b8a1ab4ceeef8d981c8956a681565b610e268282611983565b610e4b81600160008581526020019081526020016000206114b490919063ffffffff16565b505050565b6000600360008473ffffffffffffffffffffffffffffffffffffffff1673ffffffffffffffffffffffffffffffffffffffff16815260200190815260200160002060008373ffffffffffffffffffffffffffffffffffffffff1673ffffffffffffffffffffffffffffffffffffffff16815260200190815260200160002054905092915050565b7f65d7a28e3265b37a6474929f336521b332c1681b933f6cb9f3376673440d862a81565b610f0582826119ac565b5050565b6000610f31836000018373ffffffffffffffffffffffffffffffffffffffff1660001b611a8c565b905092915050565b60007f7965db0b000000000000000000000000000000000000000000000000000000007bffffffffffffffffffffffffffffffffffffffffffffffffffffffff1916827bffffffffffffffffffffffffffffffffffffffffffffffffffffffff19161480610fac5750610fab82611afc565b5b9050919050565b600033905090565b600073ffffffffffffffffffffffffffffffffffffffff168373ffffffffffffffffffffffffffffffffffffffff16141561102b576040517f08c379a000000000000000000000000000000000000000000000000000000000815260040161102290612af2565b60405180910390fd5b600073ffffffffffffffffffffffffffffffffffffffff168273ffffffffffffffffffffffffffffffffffffffff16141561109b576040517f08c379a0000000000000000000000000000000000000000000000000000000008152600401611092906129f2565b60405180910390fd5b80600360008573ffffffffffffffffffffffffffffffffffffffff1673ffffffffffffffffffffffffffffffffffffffff16815260200190815260200160002060008473ffffffffffffffffffffffffffffffffffffffff1673ffffffffffffffffffffffffffffffffffffffff168152602001908152602001600020819055508173ffffffffffffffffffffffffffffffffffffffff168373ffffffffffffffffffffffffffffffffffffffff167f8c5be1e5ebec7d5bd14f71427d1e84f3dd0314c0f7b2291e5b200ac8c7c3b925836040516111799190612bb2565b60405180910390a3505050565b600073ffffffffffffffffffffffffffffffffffffffff168373ffffffffffffffffffffffffffffffffffffffff1614156111f6576040517f08c379a00000000000000000000000000000000000000000000000000000000081526004016111ed90612ad2565b60405180910390fd5b600073ffffffffffffffffffffffffffffffffffffffff168273ffffffffffffffffffffffffffffffffffffffff161415611266576040517f08c379a000000000000000000000000000000000000000000000000000000000815260040161125d90612972565b60405180910390fd5b611271838383611b66565b6000600260008573ffffffffffffffffffffffffffffffffffffffff1673ffffffffffffffffffffffffffffffffffffffff168152602001908152602001600020549050818110156112f8576040517f08c379a00000000000000000000000000000000000000000000000000000000081526004016112ef90612a12565b60405180910390fd5b81816113049190612cbf565b600260008673ffffffffffffffffffffffffffffffffffffffff1673ffffffffffffffffffffffffffffffffffffffff1681526020019081526020016000208190555081600260008573ffffffffffffffffffffffffffffffffffffffff1673ffffffffffffffffffffffffffffffffffffffff16815260200190815260200160002060008282546113969190612c0f565b925050819055508273ffffffffffffffffffffffffffffffffffffffff168473ffffffffffffffffffffffffffffffffffffffff167fddf252ad1be2c89b69c2b068fc378daa952ba7f163c4a11628f55a4df523b3ef846040516113fa9190612bb2565b60405180910390a350505050565b611411826107ea565b6114228161141d610fb3565b611b76565b61142c83836119ac565b505050565b611439610fb3565b73ffffffffffffffffffffffffffffffffffffffff168173ffffffffffffffffffffffffffffffffffffffff16146114a6576040517f08c379a000000000000000000000000000000000000000000000000000000000815260040161149d90612b52565b60405180910390fd5b6114b08282611c13565b5050565b60006114dc836000018373ffffffffffffffffffffffffffffffffffffffff1660001b611cf4565b905092915050565b6114ec610a32565b61152b576040517f08c379a000000000000000000000000000000000000000000000000000000000815260040161152290612992565b60405180910390fd5b6000600760006101000a81548160ff0219169083151502179055507f5db9ee0a495bf2e6ff9c91a7834c1ba4fdd244a5e8aa4e537bd38aeae4b073aa61156f610fb3565b60405161157c91906128bf565b60405180910390a1565b600073ffffffffffffffffffffffffffffffffffffffff168273ffffffffffffffffffffffffffffffffffffffff1614156115f6576040517f08c379a00000000000000000000000000000000000000000000000000000000081526004016115ed90612b72565b60405180910390fd5b61160260008383611b66565b80600460008282546116149190612c0f565b9250508190555080600260008473ffffffffffffffffffffffffffffffffffffffff1673ffffffffffffffffffffffffffffffffffffffff168152602001908152602001600020600082825461166a9190612c0f565b925050819055508173ffffffffffffffffffffffffffffffffffffffff16600073ffffffffffffffffffffffffffffffffffffffff167fddf252ad1be2c89b69c2b068fc378daa952ba7f163c4a11628f55a4df523b3ef836040516116cf9190612bb2565b60405180910390a35050565b600073ffffffffffffffffffffffffffffffffffffffff168273ffffffffffffffffffffffffffffffffffffffff16141561174b576040517f08c379a000000000000000000000000000000000000000000000000000000000815260040161174290612ab2565b60405180910390fd5b61175782600083611b66565b6000600260008473ffffffffffffffffffffffffffffffffffffffff1673ffffffffffffffffffffffffffffffffffffffff168152602001908152602001600020549050818110156117de576040517f08c379a00000000000000000000000000000000000000000000000000000000081526004016117d5906129b2565b60405180910390fd5b81816117ea9190612cbf565b600260008573ffffffffffffffffffffffffffffffffffffffff1673ffffffffffffffffffffffffffffffffffffffff16815260200190815260200160002081905550816004600082825461183f9190612cbf565b92505081905550600073ffffffffffffffffffffffffffffffffffffffff168373ffffffffffffffffffffffffffffffffffffffff167fddf252ad1be2c89b69c2b068fc378daa952ba7f163c4a11628f55a4df523b3ef846040516118a49190612bb2565b60405180910390a3505050565b6118b9610a32565b156118f9576040517f08c379a00000000000000000000000000000000000000000000000000000000081526004016118f090612a32565b60405180910390fd5b6001600760006101000a81548160ff0219169083151502179055507f62e78cea01bee320cd4e420270b5ea74000d11b0c9f74754ebdbfc544b05a25861193d610fb3565b60405161194a91906128bf565b60405180910390a1565b60006119638360000183611e72565b60001c905092915050565b600061197c82600001611f0c565b9050919050565b61198c826107ea565b61199d81611998610fb3565b611b76565b6119a78383611c13565b505050565b6119b68282610bbf565b611a8857600160008084815260200190815260200160002060000160008373ffffffffffffffffffffffffffffffffffffffff1673ffffffffffffffffffffffffffffffffffffffff16815260200190815260200160002060006101000a81548160ff021916908315150217905550611a2d610fb3565b73ffffffffffffffffffffffffffffffffffffffff168173ffffffffffffffffffffffffffffffffffffffff16837f2f8788117e7eff1d82e926ec794901d17c78024a50270940304540a733656f0d60405160405180910390a45b5050565b6000611a988383611f1d565b611af1578260000182908060018154018082558091505060019003906000526020600020016000909190919091505582600001805490508360010160008481526020019081526020016000208190555060019050611af6565b600090505b92915050565b60007f01ffc9a7000000000000000000000000000000000000000000000000000000007bffffffffffffffffffffffffffffffffffffffffffffffffffffffff1916827bffffffffffffffffffffffffffffffffffffffffffffffffffffffff1916149050919050565b611b71838383611f40565b505050565b611b808282610bbf565b611c0f57611ba58173ffffffffffffffffffffffffffffffffffffffff166014611f98565b611bb38360001c6020611f98565b604051602001611bc4929190612885565b6040516020818303038152906040526040517f08c379a0000000000000000000000000000000000000000000000000000000008152600401611c069190612910565b60405180910390fd5b5050565b611c1d8282610bbf565b15611cf057600080600084815260200190815260200160002060000160008373ffffffffffffffffffffffffffffffffffffffff1673ffffffffffffffffffffffffffffffffffffffff16815260200190815260200160002060006101000a81548160ff021916908315150217905550611c95610fb3565b73ffffffffffffffffffffffffffffffffffffffff168173ffffffffffffffffffffffffffffffffffffffff16837ff6391f5c32d9c69d2a47ea670b442974b53935d1edc7fd64eb21e047a839171b60405160405180910390a45b5050565b60008083600101600084815260200190815260200160002054905060008114611e66576000600182611d269190612cbf565b9050600060018660000180549050611d3e9190612cbf565b90506000866000018281548110611d7e577f4e487b7100000000000000000000000000000000000000000000000000000000600052603260045260246000fd5b9060005260206000200154905080876000018481548110611dc8577f4e487b7100000000000000000000000000000000000000000000000000000000600052603260045260246000fd5b9060005260206000200181905550838760010160008381526020019081526020016000208190555086600001805480611e2a577f4e487b7100000000000000000000000000000000000000000000000000000000600052603160045260246000fd5b60019003818190600052602060002001600090559055866001016000878152602001908152602001600020600090556001945050505050611e6c565b60009150505b92915050565b600081836000018054905011611ebd576040517f08c379a0000000000000000000000000000000000000000000000000000000008152600401611eb490612932565b60405180910390fd5b826000018281548110611ef9577f4e487b7100000000000000000000000000000000000000000000000000000000600052603260045260246000fd5b9060005260206000200154905092915050565b600081600001805490509050919050565b600080836001016000848152602001908152602001600020541415905092915050565b611f4b838383612292565b611f53610a32565b15611f93576040517f08c379a0000000000000000000000000000000000000000000000000000000008152600401611f8a90612b92565b60405180910390fd5b505050565b606060006002836002611fab9190612c65565b611fb59190612c0f565b67ffffffffffffffff811115611ff4577f4e487b7100000000000000000000000000000000000000000000000000000000600052604160045260246000fd5b6040519080825280601f01601f1916602001820160405280156120265781602001600182028036833780820191505090505b5090507f300000000000000000000000000000000000000000000000000000000000000081600081518110612084577f4e487b7100000000000000000000000000000000000000000000000000000000600052603260045260246000fd5b60200101907effffffffffffffffffffffffffffffffffffffffffffffffffffffffffffff1916908160001a9053507f78000000000000000000000000000000000000000000000000000000000000008160018151811061210e577f4e487b7100000000000000000000000000000000000000000000000000000000600052603260045260246000fd5b60200101907effffffffffffffffffffffffffffffffffffffffffffffffffffffffffffff1916908160001a9053506000600184600261214e9190612c65565b6121589190612c0f565b90505b6001811115612244577f3031323334353637383961626364656600000000000000000000000000000000600f8616601081106121c0577f4e487b7100000000000000000000000000000000000000000000000000000000600052603260045260246000fd5b1a60f81b8282815181106121fd577f4e487b7100000000000000000000000000000000000000000000000000000000600052603260045260246000fd5b60200101907effffffffffffffffffffffffffffffffffffffffffffffffffffffffffffff1916908160001a905350600485901c94508061223d90612db1565b905061215b565b5060008414612288576040517f08c379a000000000000000000000000000000000000000000000000000000000815260040161227f90612952565b60405180910390fd5b8091505092915050565b505050565b6000813590506122a681613462565b92915050565b6000813590506122bb81613479565b92915050565b6000813590506122d081613490565b92915050565b6000813590506122e5816134a7565b92915050565b6000602082840312156122fd57600080fd5b600061230b84828501612297565b91505092915050565b6000806040838503121561232757600080fd5b600061233585828601612297565b925050602061234685828601612297565b9150509250929050565b60008060006060848603121561236557600080fd5b600061237386828701612297565b935050602061238486828701612297565b9250506040612395868287016122d6565b9150509250925092565b600080604083850312156123b257600080fd5b60006123c085828601612297565b92505060206123d1858286016122d6565b9150509250929050565b6000602082840312156123ed57600080fd5b60006123fb848285016122ac565b91505092915050565b6000806040838503121561241757600080fd5b6000612425858286016122ac565b925050602061243685828601612297565b9150509250929050565b6000806040838503121561245357600080fd5b6000612461858286016122ac565b9250506020612472858286016122d6565b9150509250929050565b60006020828403121561248e57600080fd5b600061249c848285016122c1565b91505092915050565b6000602082840312156124b757600080fd5b60006124c5848285016122d6565b91505092915050565b6124d781612cf3565b82525050565b6124e681612d05565b82525050565b6124f581612d11565b82525050565b600061250682612be8565b6125108185612bf3565b9350612520818560208601612d7e565b61252981612e6b565b840191505092915050565b600061253f82612be8565b6125498185612c04565b9350612559818560208601612d7e565b80840191505092915050565b6000612572602283612bf3565b915061257d82612e7c565b604082019050919050565b6000612595602083612bf3565b91506125a082612ecb565b602082019050919050565b60006125b8602383612bf3565b91506125c382612ef4565b604082019050919050565b60006125db601483612bf3565b91506125e682612f43565b602082019050919050565b60006125fe602283612bf3565b915061260982612f6c565b604082019050919050565b6000612621603983612bf3565b915061262c82612fbb565b604082019050919050565b6000612644602283612bf3565b915061264f8261300a565b604082019050919050565b6000612667602683612bf3565b915061267282613059565b604082019050919050565b600061268a601083612bf3565b9150612695826130a8565b602082019050919050565b60006126ad602883612bf3565b91506126b8826130d1565b604082019050919050565b60006126d0603683612bf3565b91506126db82613120565b604082019050919050565b60006126f3602483612bf3565b91506126fe8261316f565b604082019050919050565b6000612716602183612bf3565b9150612721826131be565b604082019050919050565b6000612739602583612bf3565b91506127448261320d565b604082019050919050565b600061275c602483612bf3565b91506127678261325c565b604082019050919050565b600061277f603783612bf3565b915061278a826132ab565b604082019050919050565b60006127a2601783612c04565b91506127ad826132fa565b601782019050919050565b60006127c5602583612bf3565b91506127d082613323565b604082019050919050565b60006127e8601183612c04565b91506127f382613372565b601182019050919050565b600061280b602f83612bf3565b91506128168261339b565b604082019050919050565b600061282e601f83612bf3565b9150612839826133ea565b602082019050919050565b6000612851602a83612bf3565b915061285c82613413565b604082019050919050565b61287081612d67565b82525050565b61287f81612d71565b82525050565b600061289082612795565b915061289c8285612534565b91506128a7826127db565b91506128b38284612534565b91508190509392505050565b60006020820190506128d460008301846124ce565b92915050565b60006020820190506128ef60008301846124dd565b92915050565b600060208201905061290a60008301846124ec565b92915050565b6000602082019050818103600083015261292a81846124fb565b905092915050565b6000602082019050818103600083015261294b81612565565b9050919050565b6000602082019050818103600083015261296b81612588565b9050919050565b6000602082019050818103600083015261298b816125ab565b9050919050565b600060208201905081810360008301526129ab816125ce565b9050919050565b600060208201905081810360008301526129cb816125f1565b9050919050565b600060208201905081810360008301526129eb81612614565b9050919050565b60006020820190508181036000830152612a0b81612637565b9050919050565b60006020820190508181036000830152612a2b8161265a565b9050919050565b60006020820190508181036000830152612a4b8161267d565b9050919050565b60006020820190508181036000830152612a6b816126a0565b9050919050565b60006020820190508181036000830152612a8b816126c3565b9050919050565b60006020820190508181036000830152612aab816126e6565b9050919050565b60006020820190508181036000830152612acb81612709565b9050919050565b60006020820190508181036000830152612aeb8161272c565b9050919050565b60006020820190508181036000830152612b0b8161274f565b9050919050565b60006020820190508181036000830152612b2b81612772565b9050919050565b60006020820190508181036000830152612b4b816127b8565b9050919050565b60006020820190508181036000830152612b6b816127fe565b9050919050565b60006020820190508181036000830152612b8b81612821565b9050919050565b60006020820190508181036000830152612bab81612844565b9050919050565b6000602082019050612bc76000830184612867565b92915050565b6000602082019050612be26000830184612876565b92915050565b600081519050919050565b600082825260208201905092915050565b600081905092915050565b6000612c1a82612d67565b9150612c2583612d67565b9250827fffffffffffffffffffffffffffffffffffffffffffffffffffffffffffffffff03821115612c5a57612c59612e0d565b5b828201905092915050565b6000612c7082612d67565b9150612c7b83612d67565b9250817fffffffffffffffffffffffffffffffffffffffffffffffffffffffffffffffff0483118215151615612cb457612cb3612e0d565b5b828202905092915050565b6000612cca82612d67565b9150612cd583612d67565b925082821015612ce857612ce7612e0d565b5b828203905092915050565b6000612cfe82612d47565b9050919050565b60008115159050919050565b6000819050919050565b60007fffffffff0000000000000000000000000000000000000000000000000000000082169050919050565b600073ffffffffffffffffffffffffffffffffffffffff82169050919050565b6000819050919050565b600060ff82169050919050565b60005b83811015612d9c578082015181840152602081019050612d81565b83811115612dab576000848401525b50505050565b6000612dbc82612d67565b91506000821415612dd057612dcf612e0d565b5b600182039050919050565b60006002820490506001821680612df357607f821691505b60208210811415612e0757612e06612e3c565b5b50919050565b7f4e487b7100000000000000000000000000000000000000000000000000000000600052601160045260246000fd5b7f4e487b7100000000000000000000000000000000000000000000000000000000600052602260045260246000fd5b6000601f19601f8301169050919050565b7f456e756d657261626c655365743a20696e646578206f7574206f6620626f756e60008201527f6473000000000000000000000000000000000000000000000000000000000000602082015250565b7f537472696e67733a20686578206c656e67746820696e73756666696369656e74600082015250565b7f45524332303a207472616e7366657220746f20746865207a65726f206164647260008201527f6573730000000000000000000000000000000000000000000000000000000000602082015250565b7f5061757361626c653a206e6f7420706175736564000000000000000000000000600082015250565b7f45524332303a206275726e20616d6f756e7420657863656564732062616c616e60008201527f6365000000000000000000000000000000000000000000000000000000000000602082015250565b7f45524332305072657365744d696e7465725061757365723a206d75737420686160008201527f76652070617573657220726f6c6520746f20756e706175736500000000000000602082015250565b7f45524332303a20617070726f766520746f20746865207a65726f20616464726560008201527f7373000000000000000000000000000000000000000000000000000000000000602082015250565b7f45524332303a207472616e7366657220616d6f756e742065786365656473206260008201527f616c616e63650000000000000000000000000000000000000000000000000000602082015250565b7f5061757361626c653a2070617573656400000000000000000000000000000000600082015250565b7f45524332303a207472616e7366657220616d6f756e742065786365656473206160008201527f6c6c6f77616e6365000000000000000000000000000000000000000000000000602082015250565b7f45524332305072657365744d696e7465725061757365723a206d75737420686160008201527f7665206d696e74657220726f6c6520746f206d696e7400000000000000000000602082015250565b7f45524332303a206275726e20616d6f756e74206578636565647320616c6c6f7760008201527f616e636500000000000000000000000000000000000000000000000000000000602082015250565b7f45524332303a206275726e2066726f6d20746865207a65726f2061646472657360008201527f7300000000000000000000000000000000000000000000000000000000000000602082015250565b7f45524332303a207472616e736665722066726f6d20746865207a65726f20616460008201527f6472657373000000000000000000000000000000000000000000000000000000602082015250565b7f45524332303a20617070726f76652066726f6d20746865207a65726f2061646460008201527f7265737300000000000000000000000000000000000000000000000000000000602082015250565b7f45524332305072657365744d696e7465725061757365723a206d75737420686160008201527f76652070617573657220726f6c6520746f207061757365000000000000000000602082015250565b7f416363657373436f6e74726f6c3a206163636f756e7420000000000000000000600082015250565b7f45524332303a2064656372656173656420616c6c6f77616e63652062656c6f7760008201527f207a65726f000000000000000000000000000000000000000000000000000000602082015250565b7f206973206d697373696e6720726f6c6520000000000000000000000000000000600082015250565b7f416363657373436f6e74726f6c3a2063616e206f6e6c792072656e6f756e636560008201527f20726f6c657320666f722073656c660000000000000000000000000000000000602082015250565b7f45524332303a206d696e7420746f20746865207a65726f206164647265737300600082015250565b7f45524332305061757361626c653a20746f6b656e207472616e7366657220776860008201527f696c652070617573656400000000000000000000000000000000000000000000602082015250565b61346b81612cf3565b811461347657600080fd5b50565b61348281612d11565b811461348d57600080fd5b50565b61349981612d1b565b81146134a457600080fd5b50565b6134b081612d67565b81146134bb57600080fd5b5056fea264697066735822122069f9665f2b585c2f202fccc57982080e5077ec8189de4747dc287873aa73218e64736f6c63430008040033",
  "immutableReferences": {},
  "source": "// SPDX-License-Identifier: MIT\r\npragma solidity 0.8.4;\r\n\r\nimport \"./ozeppelin/token/ERC20/presets/ERC20PresetMinterPauser.sol\";\r\n\r\ncontract BRZToken is ERC20PresetMinterPauser {\r\n    constructor() ERC20PresetMinterPauser(\"BRZ\", \"BRZ\") {\r\n    }\r\n}\r\n",
  "sourcePath": "C:/BLOCKCHAIN/TRANSFERO/brz-tokenbridge/contracts/BRZToken.sol",
  "compiler": {
    "name": "solc",
    "version": "0.8.4+commit.c7e474f2.Emscripten.clang"
  },
  "schemaVersion": "3.4.1",
  "updatedAt": "2021-06-15T19:09:36.310Z",
  "networkType": "ethereum",
  "devdoc": {
    "kind": "dev",
    "methods": {
      "allowance(address,address)": {
        "details": "See {IERC20-allowance}."
      },
      "approve(address,uint256)": {
        "details": "See {IERC20-approve}. Requirements: - `spender` cannot be the zero address."
      },
      "balanceOf(address)": {
        "details": "See {IERC20-balanceOf}."
      },
      "burn(uint256)": {
        "details": "Destroys `amount` tokens from the caller. See {ERC20-_burn}."
      },
      "burnFrom(address,uint256)": {
        "details": "Destroys `amount` tokens from `account`, deducting from the caller's allowance. See {ERC20-_burn} and {ERC20-allowance}. Requirements: - the caller must have allowance for ``accounts``'s tokens of at least `amount`."
      },
      "decimals()": {
        "details": "Returns the number of decimals used to get its user representation. For example, if `decimals` equals `2`, a balance of `505` tokens should be displayed to a user as `5,05` (`505 / 10 ** 2`). Tokens usually opt for a value of 18, imitating the relationship between Ether and Wei. This is the value {ERC20} uses, unless this function is overridden; NOTE: This information is only used for _display_ purposes: it in no way affects any of the arithmetic of the contract, including {IERC20-balanceOf} and {IERC20-transfer}."
      },
      "decreaseAllowance(address,uint256)": {
        "details": "Atomically decreases the allowance granted to `spender` by the caller. This is an alternative to {approve} that can be used as a mitigation for problems described in {IERC20-approve}. Emits an {Approval} event indicating the updated allowance. Requirements: - `spender` cannot be the zero address. - `spender` must have allowance for the caller of at least `subtractedValue`."
      },
      "getRoleAdmin(bytes32)": {
        "details": "Returns the admin role that controls `role`. See {grantRole} and {revokeRole}. To change a role's admin, use {_setRoleAdmin}."
      },
      "getRoleMember(bytes32,uint256)": {
        "details": "Returns one of the accounts that have `role`. `index` must be a value between 0 and {getRoleMemberCount}, non-inclusive. Role bearers are not sorted in any particular way, and their ordering may change at any point. WARNING: When using {getRoleMember} and {getRoleMemberCount}, make sure you perform all queries on the same block. See the following https://forum.openzeppelin.com/t/iterating-over-elements-on-enumerableset-in-openzeppelin-contracts/2296[forum post] for more information."
      },
      "getRoleMemberCount(bytes32)": {
        "details": "Returns the number of accounts that have `role`. Can be used together with {getRoleMember} to enumerate all bearers of a role."
      },
      "grantRole(bytes32,address)": {
        "details": "Overload {grantRole} to track enumerable memberships"
      },
      "hasRole(bytes32,address)": {
        "details": "Returns `true` if `account` has been granted `role`."
      },
      "increaseAllowance(address,uint256)": {
        "details": "Atomically increases the allowance granted to `spender` by the caller. This is an alternative to {approve} that can be used as a mitigation for problems described in {IERC20-approve}. Emits an {Approval} event indicating the updated allowance. Requirements: - `spender` cannot be the zero address."
      },
      "mint(address,uint256)": {
        "details": "Creates `amount` new tokens for `to`. See {ERC20-_mint}. Requirements: - the caller must have the `MINTER_ROLE`."
      },
      "name()": {
        "details": "Returns the name of the token."
      },
      "pause()": {
        "details": "Pauses all token transfers. See {ERC20Pausable} and {Pausable-_pause}. Requirements: - the caller must have the `PAUSER_ROLE`."
      },
      "paused()": {
        "details": "Returns true if the contract is paused, and false otherwise."
      },
      "renounceRole(bytes32,address)": {
        "details": "Overload {renounceRole} to track enumerable memberships"
      },
      "revokeRole(bytes32,address)": {
        "details": "Overload {revokeRole} to track enumerable memberships"
      },
      "supportsInterface(bytes4)": {
        "details": "See {IERC165-supportsInterface}."
      },
      "symbol()": {
        "details": "Returns the symbol of the token, usually a shorter version of the name."
      },
      "totalSupply()": {
        "details": "See {IERC20-totalSupply}."
      },
      "transfer(address,uint256)": {
        "details": "See {IERC20-transfer}. Requirements: - `recipient` cannot be the zero address. - the caller must have a balance of at least `amount`."
      },
      "transferFrom(address,address,uint256)": {
        "details": "See {IERC20-transferFrom}. Emits an {Approval} event indicating the updated allowance. This is not required by the EIP. See the note at the beginning of {ERC20}. Requirements: - `sender` and `recipient` cannot be the zero address. - `sender` must have a balance of at least `amount`. - the caller must have allowance for ``sender``'s tokens of at least `amount`."
      },
      "unpause()": {
        "details": "Unpauses all token transfers. See {ERC20Pausable} and {Pausable-_unpause}. Requirements: - the caller must have the `PAUSER_ROLE`."
      }
    },
    "version": 1
  },
  "userdoc": {
    "kind": "user",
    "methods": {},
    "version": 1
  }
}