{
  "contractName": "Escrow",
  "abi": [
    {
      "anonymous": false,
      "inputs": [
        {
          "indexed": true,
          "internalType": "address",
          "name": "payee",
          "type": "address"
        },
        {
          "indexed": false,
          "internalType": "uint256",
          "name": "weiAmount",
          "type": "uint256"
        }
      ],
      "name": "Deposited",
      "type": "event"
    },
    {
      "anonymous": false,
      "inputs": [
        {
          "indexed": true,
          "internalType": "address",
          "name": "previousOwner",
          "type": "address"
        },
        {
          "indexed": true,
          "internalType": "address",
          "name": "newOwner",
          "type": "address"
        }
      ],
      "name": "OwnershipTransferred",
      "type": "event"
    },
    {
      "anonymous": false,
      "inputs": [
        {
          "indexed": true,
          "internalType": "address",
          "name": "payee",
          "type": "address"
        },
        {
          "indexed": false,
          "internalType": "uint256",
          "name": "weiAmount",
          "type": "uint256"
        }
      ],
      "name": "Withdrawn",
      "type": "event"
    },
    {
      "inputs": [],
      "name": "owner",
      "outputs": [
        {
          "internalType": "address",
          "name": "",
          "type": "address"
        }
      ],
      "stateMutability": "view",
      "type": "function"
    },
    {
      "inputs": [],
      "name": "renounceOwnership",
      "outputs": [],
      "stateMutability": "nonpayable",
      "type": "function"
    },
    {
      "inputs": [
        {
          "internalType": "address",
          "name": "newOwner",
          "type": "address"
        }
      ],
      "name": "transferOwnership",
      "outputs": [],
      "stateMutability": "nonpayable",
      "type": "function"
    },
    {
      "inputs": [
        {
          "internalType": "address",
          "name": "payee",
          "type": "address"
        }
      ],
      "name": "depositsOf",
      "outputs": [
        {
          "internalType": "uint256",
          "name": "",
          "type": "uint256"
        }
      ],
      "stateMutability": "view",
      "type": "function"
    },
    {
      "inputs": [
        {
          "internalType": "address",
          "name": "payee",
          "type": "address"
        }
      ],
      "name": "deposit",
      "outputs": [],
      "stateMutability": "payable",
      "type": "function"
    },
    {
      "inputs": [
        {
          "internalType": "address payable",
          "name": "payee",
          "type": "address"
        }
      ],
      "name": "withdraw",
      "outputs": [],
      "stateMutability": "nonpayable",
      "type": "function"
    }
  ],
  "bytecode": "0x608060405234801561001057600080fd5b5060006100216100c460201b60201c565b9050806000806101000a81548173ffffffffffffffffffffffffffffffffffffffff021916908373ffffffffffffffffffffffffffffffffffffffff1602179055508073ffffffffffffffffffffffffffffffffffffffff16600073ffffffffffffffffffffffffffffffffffffffff167f8be0079c531659141344cd1fd0a4f28419497f9722a3daafe3b4186f6b6457e060405160405180910390a3506100cc565b600033905090565b610cd3806100db6000396000f3fe6080604052600436106100555760003560e01c806351cff8d91461005a578063715018a6146100835780638da5cb5b1461009a578063e3a9db1a146100c5578063f2fde38b14610102578063f340fa011461012b575b600080fd5b34801561006657600080fd5b50610081600480360381019061007c91906108cc565b610147565b005b34801561008f57600080fd5b506100986102c7565b005b3480156100a657600080fd5b506100af610401565b6040516100bc91906109d7565b60405180910390f35b3480156100d157600080fd5b506100ec60048036038101906100e791906108a3565b61042a565b6040516100f99190610a72565b60405180910390f35b34801561010e57600080fd5b50610129600480360381019061012491906108a3565b610473565b005b610145600480360381019061014091906108a3565b61061c565b005b61014f61077d565b73ffffffffffffffffffffffffffffffffffffffff1661016d610401565b73ffffffffffffffffffffffffffffffffffffffff16146101c3576040517f08c379a00000000000000000000000000000000000000000000000000000000081526004016101ba90610a52565b60405180910390fd5b6000600160008373ffffffffffffffffffffffffffffffffffffffff1673ffffffffffffffffffffffffffffffffffffffff1681526020019081526020016000205490506000600160008473ffffffffffffffffffffffffffffffffffffffff1673ffffffffffffffffffffffffffffffffffffffff16815260200190815260200160002081905550610275818373ffffffffffffffffffffffffffffffffffffffff1661078590919063ffffffff16565b8173ffffffffffffffffffffffffffffffffffffffff167f7084f5476618d8e60b11ef0d7d3f06914655adb8793e28ff7f018d4c76d505d5826040516102bb9190610a72565b60405180910390a25050565b6102cf61077d565b73ffffffffffffffffffffffffffffffffffffffff166102ed610401565b73ffffffffffffffffffffffffffffffffffffffff1614610343576040517f08c379a000000000000000000000000000000000000000000000000000000000815260040161033a90610a52565b60405180910390fd5b600073ffffffffffffffffffffffffffffffffffffffff1660008054906101000a900473ffffffffffffffffffffffffffffffffffffffff1673ffffffffffffffffffffffffffffffffffffffff167f8be0079c531659141344cd1fd0a4f28419497f9722a3daafe3b4186f6b6457e060405160405180910390a360008060006101000a81548173ffffffffffffffffffffffffffffffffffffffff021916908373ffffffffffffffffffffffffffffffffffffffff160217905550565b60008060009054906101000a900473ffffffffffffffffffffffffffffffffffffffff16905090565b6000600160008373ffffffffffffffffffffffffffffffffffffffff1673ffffffffffffffffffffffffffffffffffffffff168152602001908152602001600020549050919050565b61047b61077d565b73ffffffffffffffffffffffffffffffffffffffff16610499610401565b73ffffffffffffffffffffffffffffffffffffffff16146104ef576040517f08c379a00000000000000000000000000000000000000000000000000000000081526004016104e690610a52565b60405180910390fd5b600073ffffffffffffffffffffffffffffffffffffffff168173ffffffffffffffffffffffffffffffffffffffff16141561055f576040517f08c379a0000000000000000000000000000000000000000000000000000000008152600401610556906109f2565b60405180910390fd5b8073ffffffffffffffffffffffffffffffffffffffff1660008054906101000a900473ffffffffffffffffffffffffffffffffffffffff1673ffffffffffffffffffffffffffffffffffffffff167f8be0079c531659141344cd1fd0a4f28419497f9722a3daafe3b4186f6b6457e060405160405180910390a3806000806101000a81548173ffffffffffffffffffffffffffffffffffffffff021916908373ffffffffffffffffffffffffffffffffffffffff16021790555050565b61062461077d565b73ffffffffffffffffffffffffffffffffffffffff16610642610401565b73ffffffffffffffffffffffffffffffffffffffff1614610698576040517f08c379a000000000000000000000000000000000000000000000000000000000815260040161068f90610a52565b60405180910390fd5b600034905080600160008473ffffffffffffffffffffffffffffffffffffffff1673ffffffffffffffffffffffffffffffffffffffff168152602001908152602001600020546106e89190610aa9565b600160008473ffffffffffffffffffffffffffffffffffffffff1673ffffffffffffffffffffffffffffffffffffffff168152602001908152602001600020819055508173ffffffffffffffffffffffffffffffffffffffff167f2da466a7b24304f47e87fa2e1e5a81b9831ce54fec19055ce277ca2f39ba42c4826040516107719190610a72565b60405180910390a25050565b600033905090565b804710156107c8576040517f08c379a00000000000000000000000000000000000000000000000000000000081526004016107bf90610a32565b60405180910390fd5b60008273ffffffffffffffffffffffffffffffffffffffff16826040516107ee906109c2565b60006040518083038185875af1925050503d806000811461082b576040519150601f19603f3d011682016040523d82523d6000602084013e610830565b606091505b5050905080610874576040517f08c379a000000000000000000000000000000000000000000000000000000000815260040161086b90610a12565b60405180910390fd5b505050565b60008135905061088881610c6f565b92915050565b60008135905061089d81610c86565b92915050565b6000602082840312156108b557600080fd5b60006108c384828501610879565b91505092915050565b6000602082840312156108de57600080fd5b60006108ec8482850161088e565b91505092915050565b6108fe81610aff565b82525050565b6000610911602683610a98565b915061091c82610b7c565b604082019050919050565b6000610934603a83610a98565b915061093f82610bcb565b604082019050919050565b6000610957601d83610a98565b915061096282610c1a565b602082019050919050565b600061097a602083610a98565b915061098582610c43565b602082019050919050565b600061099d600083610a8d565b91506109a882610c6c565b600082019050919050565b6109bc81610b43565b82525050565b60006109cd82610990565b9150819050919050565b60006020820190506109ec60008301846108f5565b92915050565b60006020820190508181036000830152610a0b81610904565b9050919050565b60006020820190508181036000830152610a2b81610927565b9050919050565b60006020820190508181036000830152610a4b8161094a565b9050919050565b60006020820190508181036000830152610a6b8161096d565b9050919050565b6000602082019050610a8760008301846109b3565b92915050565b600081905092915050565b600082825260208201905092915050565b6000610ab482610b43565b9150610abf83610b43565b9250827fffffffffffffffffffffffffffffffffffffffffffffffffffffffffffffffff03821115610af457610af3610b4d565b5b828201905092915050565b6000610b0a82610b23565b9050919050565b6000610b1c82610b23565b9050919050565b600073ffffffffffffffffffffffffffffffffffffffff82169050919050565b6000819050919050565b7f4e487b7100000000000000000000000000000000000000000000000000000000600052601160045260246000fd5b7f4f776e61626c653a206e6577206f776e657220697320746865207a65726f206160008201527f6464726573730000000000000000000000000000000000000000000000000000602082015250565b7f416464726573733a20756e61626c6520746f2073656e642076616c75652c207260008201527f6563697069656e74206d61792068617665207265766572746564000000000000602082015250565b7f416464726573733a20696e73756666696369656e742062616c616e6365000000600082015250565b7f4f776e61626c653a2063616c6c6572206973206e6f7420746865206f776e6572600082015250565b50565b610c7881610aff565b8114610c8357600080fd5b50565b610c8f81610b11565b8114610c9a57600080fd5b5056fea2646970667358221220b2aa8b4bc79503c34d579d15bd02f2faaa4963cd1129e59e1c654857e579c6c864736f6c63430008040033",
  "immutableReferences": {},
  "source": "// SPDX-License-Identifier: MIT\n\npragma solidity ^0.8.0;\n\nimport \"../../access/Ownable.sol\";\nimport \"../Address.sol\";\n\n /**\n  * @title Escrow\n  * @dev Base escrow contract, holds funds designated for a payee until they\n  * withdraw them.\n  *\n  * Intended usage: This contract (and derived escrow contracts) should be a\n  * standalone contract, that only interacts with the contract that instantiated\n  * it. That way, it is guaranteed that all Ether will be handled according to\n  * the `Escrow` rules, and there is no need to check for payable functions or\n  * transfers in the inheritance tree. The contract that uses the escrow as its\n  * payment method should be its owner, and provide public methods redirecting\n  * to the escrow's deposit and withdraw.\n  */\ncontract Escrow is Ownable {\n    using Address for address payable;\n\n    event Deposited(address indexed payee, uint256 weiAmount);\n    event Withdrawn(address indexed payee, uint256 weiAmount);\n\n    mapping(address => uint256) private _deposits;\n\n    function depositsOf(address payee) public view returns (uint256) {\n        return _deposits[payee];\n    }\n\n    /**\n     * @dev Stores the sent amount as credit to be withdrawn.\n     * @param payee The destination address of the funds.\n     */\n    function deposit(address payee) public payable virtual onlyOwner {\n        uint256 amount = msg.value;\n        _deposits[payee] = _deposits[payee] + amount;\n\n        emit Deposited(payee, amount);\n    }\n\n    /**\n     * @dev Withdraw accumulated balance for a payee, forwarding all gas to the\n     * recipient.\n     *\n     * WARNING: Forwarding all gas opens the door to reentrancy vulnerabilities.\n     * Make sure you trust the recipient, or are either following the\n     * checks-effects-interactions pattern or using {ReentrancyGuard}.\n     *\n     * @param payee The address whose funds will be withdrawn and transferred to.\n     */\n    function withdraw(address payable payee) public virtual onlyOwner {\n        uint256 payment = _deposits[payee];\n\n        _deposits[payee] = 0;\n\n        payee.sendValue(payment);\n\n        emit Withdrawn(payee, payment);\n    }\n}\n",
  "sourcePath": "C:\\BLOCKCHAIN\\TRANSFERO\\brz-token-bridge-SOL\\contracts\\ozeppelin\\utils\\escrow\\Escrow.sol",
  "compiler": {
    "name": "solc",
    "version": "0.8.4+commit.c7e474f2.Emscripten.clang"
  },
  "schemaVersion": "3.4.3",
  "updatedAt": "2021-08-16T19:34:28.144Z",
  "devdoc": {
    "details": "Base escrow contract, holds funds designated for a payee until they withdraw them. Intended usage: This contract (and derived escrow contracts) should be a standalone contract, that only interacts with the contract that instantiated it. That way, it is guaranteed that all Ether will be handled according to the `Escrow` rules, and there is no need to check for payable functions or transfers in the inheritance tree. The contract that uses the escrow as its payment method should be its owner, and provide public methods redirecting to the escrow's deposit and withdraw.",
    "kind": "dev",
    "methods": {
      "deposit(address)": {
        "details": "Stores the sent amount as credit to be withdrawn.",
        "params": {
          "payee": "The destination address of the funds."
        }
      },
      "owner()": {
        "details": "Returns the address of the current owner."
      },
      "renounceOwnership()": {
        "details": "Leaves the contract without owner. It will not be possible to call `onlyOwner` functions anymore. Can only be called by the current owner. NOTE: Renouncing ownership will leave the contract without an owner, thereby removing any functionality that is only available to the owner."
      },
      "transferOwnership(address)": {
        "details": "Transfers ownership of the contract to a new account (`newOwner`). Can only be called by the current owner."
      },
      "withdraw(address)": {
        "details": "Withdraw accumulated balance for a payee, forwarding all gas to the recipient. WARNING: Forwarding all gas opens the door to reentrancy vulnerabilities. Make sure you trust the recipient, or are either following the checks-effects-interactions pattern or using {ReentrancyGuard}.",
        "params": {
          "payee": "The address whose funds will be withdrawn and transferred to."
        }
      }
    },
    "title": "Escrow",
    "version": 1
  },
  "userdoc": {
    "kind": "user",
    "methods": {},
    "version": 1
  }
}