{
  "contractName": "Monitor",
  "abi": [
    {
      "inputs": [
        {
          "internalType": "address[]",
          "name": "_members",
          "type": "address[]"
        },
        {
          "internalType": "uint256",
          "name": "_required",
          "type": "uint256"
        }
      ],
      "stateMutability": "nonpayable",
      "type": "constructor"
    },
    {
      "anonymous": false,
      "inputs": [
        {
          "indexed": false,
          "internalType": "address",
          "name": "bridge",
          "type": "address"
        }
      ],
      "name": "BridgeChanged",
      "type": "event"
    },
    {
      "anonymous": false,
      "inputs": [
        {
          "indexed": true,
          "internalType": "bytes32",
          "name": "transactionId",
          "type": "bytes32"
        }
      ],
      "name": "Executed",
      "type": "event"
    },
    {
      "anonymous": false,
      "inputs": [
        {
          "indexed": true,
          "internalType": "address",
          "name": "member",
          "type": "address"
        }
      ],
      "name": "MemberAdded",
      "type": "event"
    },
    {
      "anonymous": false,
      "inputs": [
        {
          "indexed": true,
          "internalType": "address",
          "name": "member",
          "type": "address"
        }
      ],
      "name": "MemberDeleted",
      "type": "event"
    },
    {
      "anonymous": false,
      "inputs": [
        {
          "indexed": false,
          "internalType": "uint256",
          "name": "oldRequired",
          "type": "uint256"
        },
        {
          "indexed": false,
          "internalType": "uint256",
          "name": "newRequired",
          "type": "uint256"
        }
      ],
      "name": "RequirementChanged",
      "type": "event"
    },
    {
      "anonymous": false,
      "inputs": [
        {
          "indexed": true,
          "internalType": "bytes32",
          "name": "role",
          "type": "bytes32"
        },
        {
          "indexed": true,
          "internalType": "bytes32",
          "name": "previousAdminRole",
          "type": "bytes32"
        },
        {
          "indexed": true,
          "internalType": "bytes32",
          "name": "newAdminRole",
          "type": "bytes32"
        }
      ],
      "name": "RoleAdminChanged",
      "type": "event"
    },
    {
      "anonymous": false,
      "inputs": [
        {
          "indexed": true,
          "internalType": "bytes32",
          "name": "role",
          "type": "bytes32"
        },
        {
          "indexed": true,
          "internalType": "address",
          "name": "account",
          "type": "address"
        },
        {
          "indexed": true,
          "internalType": "address",
          "name": "sender",
          "type": "address"
        }
      ],
      "name": "RoleGranted",
      "type": "event"
    },
    {
      "anonymous": false,
      "inputs": [
        {
          "indexed": true,
          "internalType": "bytes32",
          "name": "role",
          "type": "bytes32"
        },
        {
          "indexed": true,
          "internalType": "address",
          "name": "account",
          "type": "address"
        },
        {
          "indexed": true,
          "internalType": "address",
          "name": "sender",
          "type": "address"
        }
      ],
      "name": "RoleRevoked",
      "type": "event"
    },
    {
      "anonymous": false,
      "inputs": [
        {
          "indexed": true,
          "internalType": "address",
          "name": "member",
          "type": "address"
        },
        {
          "indexed": true,
          "internalType": "bytes32",
          "name": "transactionId",
          "type": "bytes32"
        },
        {
          "indexed": false,
          "internalType": "address",
          "name": "sender",
          "type": "address"
        },
        {
          "indexed": false,
          "internalType": "uint256",
          "name": "amount",
          "type": "uint256"
        },
        {
          "indexed": false,
          "internalType": "string",
          "name": "receiver",
          "type": "string"
        },
        {
          "indexed": false,
          "internalType": "string",
          "name": "blockchain",
          "type": "string"
        },
        {
          "indexed": false,
          "internalType": "bytes32",
          "name": "blockHash",
          "type": "bytes32"
        },
        {
          "indexed": true,
          "internalType": "bytes32",
          "name": "transactionHash",
          "type": "bytes32"
        },
        {
          "indexed": false,
          "internalType": "uint32",
          "name": "logIndex",
          "type": "uint32"
        }
      ],
      "name": "Voted",
      "type": "event"
    },
    {
      "inputs": [],
      "name": "DEFAULT_ADMIN_ROLE",
      "outputs": [
        {
          "internalType": "bytes32",
          "name": "",
          "type": "bytes32"
        }
      ],
      "stateMutability": "view",
      "type": "function",
      "constant": true
    },
    {
      "inputs": [],
      "name": "MAX_MEMBER_COUNT",
      "outputs": [
        {
          "internalType": "uint256",
          "name": "",
          "type": "uint256"
        }
      ],
      "stateMutability": "view",
      "type": "function",
      "constant": true
    },
    {
      "inputs": [],
      "name": "MONITOR_ROLE",
      "outputs": [
        {
          "internalType": "bytes32",
          "name": "",
          "type": "bytes32"
        }
      ],
      "stateMutability": "view",
      "type": "function",
      "constant": true
    },
    {
      "inputs": [],
      "name": "bridge",
      "outputs": [
        {
          "internalType": "contract IBridge",
          "name": "",
          "type": "address"
        }
      ],
      "stateMutability": "view",
      "type": "function",
      "constant": true
    },
    {
      "inputs": [
        {
          "internalType": "bytes32",
          "name": "",
          "type": "bytes32"
        }
      ],
      "name": "countVotes",
      "outputs": [
        {
          "internalType": "uint256",
          "name": "",
          "type": "uint256"
        }
      ],
      "stateMutability": "view",
      "type": "function",
      "constant": true
    },
    {
      "inputs": [
        {
          "internalType": "bytes32",
          "name": "role",
          "type": "bytes32"
        }
      ],
      "name": "getRoleAdmin",
      "outputs": [
        {
          "internalType": "bytes32",
          "name": "",
          "type": "bytes32"
        }
      ],
      "stateMutability": "view",
      "type": "function",
      "constant": true
    },
    {
      "inputs": [
        {
          "internalType": "bytes32",
          "name": "role",
          "type": "bytes32"
        },
        {
          "internalType": "uint256",
          "name": "index",
          "type": "uint256"
        }
      ],
      "name": "getRoleMember",
      "outputs": [
        {
          "internalType": "address",
          "name": "",
          "type": "address"
        }
      ],
      "stateMutability": "view",
      "type": "function",
      "constant": true
    },
    {
      "inputs": [
        {
          "internalType": "bytes32",
          "name": "role",
          "type": "bytes32"
        }
      ],
      "name": "getRoleMemberCount",
      "outputs": [
        {
          "internalType": "uint256",
          "name": "",
          "type": "uint256"
        }
      ],
      "stateMutability": "view",
      "type": "function",
      "constant": true
    },
    {
      "inputs": [
        {
          "internalType": "bytes32",
          "name": "role",
          "type": "bytes32"
        },
        {
          "internalType": "address",
          "name": "account",
          "type": "address"
        }
      ],
      "name": "grantRole",
      "outputs": [],
      "stateMutability": "nonpayable",
      "type": "function"
    },
    {
      "inputs": [
        {
          "internalType": "bytes32",
          "name": "role",
          "type": "bytes32"
        },
        {
          "internalType": "address",
          "name": "account",
          "type": "address"
        }
      ],
      "name": "hasRole",
      "outputs": [
        {
          "internalType": "bool",
          "name": "",
          "type": "bool"
        }
      ],
      "stateMutability": "view",
      "type": "function",
      "constant": true
    },
    {
      "inputs": [
        {
          "internalType": "bytes32",
          "name": "",
          "type": "bytes32"
        }
      ],
      "name": "processed",
      "outputs": [
        {
          "internalType": "bool",
          "name": "",
          "type": "bool"
        }
      ],
      "stateMutability": "view",
      "type": "function",
      "constant": true
    },
    {
      "inputs": [
        {
          "internalType": "bytes32",
          "name": "role",
          "type": "bytes32"
        },
        {
          "internalType": "address",
          "name": "account",
          "type": "address"
        }
      ],
      "name": "renounceRole",
      "outputs": [],
      "stateMutability": "nonpayable",
      "type": "function"
    },
    {
      "inputs": [],
      "name": "required",
      "outputs": [
        {
          "internalType": "uint256",
          "name": "",
          "type": "uint256"
        }
      ],
      "stateMutability": "view",
      "type": "function",
      "constant": true
    },
    {
      "inputs": [
        {
          "internalType": "bytes32",
          "name": "role",
          "type": "bytes32"
        },
        {
          "internalType": "address",
          "name": "account",
          "type": "address"
        }
      ],
      "name": "revokeRole",
      "outputs": [],
      "stateMutability": "nonpayable",
      "type": "function"
    },
    {
      "inputs": [
        {
          "internalType": "bytes4",
          "name": "interfaceId",
          "type": "bytes4"
        }
      ],
      "name": "supportsInterface",
      "outputs": [
        {
          "internalType": "bool",
          "name": "",
          "type": "bool"
        }
      ],
      "stateMutability": "view",
      "type": "function",
      "constant": true
    },
    {
      "inputs": [
        {
          "internalType": "bytes32",
          "name": "",
          "type": "bytes32"
        },
        {
          "internalType": "address",
          "name": "",
          "type": "address"
        }
      ],
      "name": "votes",
      "outputs": [
        {
          "internalType": "bool",
          "name": "",
          "type": "bool"
        }
      ],
      "stateMutability": "view",
      "type": "function",
      "constant": true
    },
    {
      "inputs": [
        {
          "internalType": "address",
          "name": "_bridge",
          "type": "address"
        }
      ],
      "name": "setBridge",
      "outputs": [],
      "stateMutability": "nonpayable",
      "type": "function"
    },
    {
      "inputs": [
        {
          "internalType": "address",
          "name": "sender",
          "type": "address"
        },
        {
          "internalType": "uint256",
          "name": "amount",
          "type": "uint256"
        },
        {
          "internalType": "string[2]",
          "name": "receiver",
          "type": "string[2]"
        },
        {
          "internalType": "bytes32[2]",
          "name": "hashes",
          "type": "bytes32[2]"
        },
        {
          "internalType": "uint32",
          "name": "logIndex",
          "type": "uint32"
        }
      ],
      "name": "voteTransaction",
      "outputs": [
        {
          "internalType": "bool",
          "name": "",
          "type": "bool"
        }
      ],
      "stateMutability": "nonpayable",
      "type": "function"
    },
    {
      "inputs": [
        {
          "internalType": "bytes32",
          "name": "transactionId",
          "type": "bytes32"
        }
      ],
      "name": "getTransactionCount",
      "outputs": [
        {
          "internalType": "uint256",
          "name": "",
          "type": "uint256"
        }
      ],
      "stateMutability": "view",
      "type": "function",
      "constant": true
    },
    {
      "inputs": [
        {
          "internalType": "bytes32",
          "name": "transactionId",
          "type": "bytes32"
        }
      ],
      "name": "hasVoted",
      "outputs": [
        {
          "internalType": "bool",
          "name": "",
          "type": "bool"
        }
      ],
      "stateMutability": "view",
      "type": "function",
      "constant": true
    },
    {
      "inputs": [
        {
          "internalType": "bytes32",
          "name": "transactionId",
          "type": "bytes32"
        }
      ],
      "name": "transactionProcessed",
      "outputs": [
        {
          "internalType": "bool",
          "name": "",
          "type": "bool"
        }
      ],
      "stateMutability": "view",
      "type": "function",
      "constant": true
    },
    {
      "inputs": [
        {
          "internalType": "address",
          "name": "sender",
          "type": "address"
        },
        {
          "internalType": "uint256",
          "name": "amount",
          "type": "uint256"
        },
        {
          "internalType": "string[2]",
          "name": "receiver",
          "type": "string[2]"
        },
        {
          "internalType": "bytes32[2]",
          "name": "hashes",
          "type": "bytes32[2]"
        },
        {
          "internalType": "uint32",
          "name": "logIndex",
          "type": "uint32"
        }
      ],
      "name": "getTransactionId",
      "outputs": [
        {
          "internalType": "bytes32",
          "name": "",
          "type": "bytes32"
        }
      ],
      "stateMutability": "pure",
      "type": "function",
      "constant": true
    },
    {
      "inputs": [
        {
          "internalType": "address",
          "name": "_memberAddress",
          "type": "address"
        }
      ],
      "name": "addMember",
      "outputs": [
        {
          "internalType": "bool",
          "name": "",
          "type": "bool"
        }
      ],
      "stateMutability": "nonpayable",
      "type": "function"
    },
    {
      "inputs": [
        {
          "internalType": "address",
          "name": "_memberAddress",
          "type": "address"
        }
      ],
      "name": "delMember",
      "outputs": [
        {
          "internalType": "bool",
          "name": "",
          "type": "bool"
        }
      ],
      "stateMutability": "nonpayable",
      "type": "function"
    },
    {
      "inputs": [],
      "name": "getMemberCount",
      "outputs": [
        {
          "internalType": "uint256",
          "name": "",
          "type": "uint256"
        }
      ],
      "stateMutability": "view",
      "type": "function",
      "constant": true
    },
    {
      "inputs": [
        {
          "internalType": "uint256",
          "name": "index",
          "type": "uint256"
        }
      ],
      "name": "getMemberAt",
      "outputs": [
        {
          "internalType": "address",
          "name": "",
          "type": "address"
        }
      ],
      "stateMutability": "view",
      "type": "function",
      "constant": true
    },
    {
      "inputs": [
        {
          "internalType": "uint256",
          "name": "_required",
          "type": "uint256"
        }
      ],
      "name": "changeRequirement",
      "outputs": [],
      "stateMutability": "nonpayable",
      "type": "function"
    }
  ],
  "bytecode": "0x60806040523480156200001157600080fd5b50604051620042e8380380620042e8833981810160405281019062000037919062000742565b8151818181111580156200004c575060008114155b80156200005a575060008214155b6200009c576040517f08c379a00000000000000000000000000000000000000000000000000000000081526004016200009390620008a9565b60405180910390fd5b603284511115620000e4576040517f08c379a0000000000000000000000000000000000000000000000000000000008152600401620000db9062000887565b60405180910390fd5b620001086000801b620000fc620003dc60201b60201c565b620003e460201b60201c565b60005b84518110156200038c57620001887f8227712ef8ad39d0f26f06731ef0df8665eb7ada7f41b1ee089adf3c238862a286838151811062000174577f4e487b7100000000000000000000000000000000000000000000000000000000600052603260045260246000fd5b60200260200101516200042c60201b60201c565b15620001cb576040517f08c379a0000000000000000000000000000000000000000000000000000000008152600401620001c290620008ed565b60405180910390fd5b600073ffffffffffffffffffffffffffffffffffffffff168582815181106200021d577f4e487b7100000000000000000000000000000000000000000000000000000000600052603260045260246000fd5b602002602001015173ffffffffffffffffffffffffffffffffffffffff1614156200027f576040517f08c379a00000000000000000000000000000000000000000000000000000000081526004016200027690620008cb565b60405180910390fd5b620002f27f8227712ef8ad39d0f26f06731ef0df8665eb7ada7f41b1ee089adf3c238862a2868381518110620002de577f4e487b7100000000000000000000000000000000000000000000000000000000600052603260045260246000fd5b6020026020010151620003e460201b60201c565b8481815181106200032c577f4e487b7100000000000000000000000000000000000000000000000000000000600052603260045260246000fd5b602002602001015173ffffffffffffffffffffffffffffffffffffffff167fb251eb052afc73ffd02ffe85ad79990a8b3fed60d76dbc2fa2fdd7123dffd91460405160405180910390a28080620003839062000a00565b9150506200010b565b50826003819055507ffdecd314df9af617a0893bcc0b463cd2c588badccd38bec4e9d73a214a08daa76000600354604051620003ca9291906200085a565b60405180910390a15050505062000bbb565b600033905090565b620003fb82826200049660201b62000e111760201c565b620004278160016000858152602001908152602001600020620004ac60201b62000e1f1790919060201c565b505050565b600080600084815260200190815260200160002060000160008373ffffffffffffffffffffffffffffffffffffffff1673ffffffffffffffffffffffffffffffffffffffff16815260200190815260200160002060009054906101000a900460ff16905092915050565b620004a88282620004e460201b60201c565b5050565b6000620004dc836000018373ffffffffffffffffffffffffffffffffffffffff1660001b620005d560201b60201c565b905092915050565b620004f682826200042c60201b60201c565b620005d157600160008084815260200190815260200160002060000160008373ffffffffffffffffffffffffffffffffffffffff1673ffffffffffffffffffffffffffffffffffffffff16815260200190815260200160002060006101000a81548160ff02191690831515021790555062000576620003dc60201b60201c565b73ffffffffffffffffffffffffffffffffffffffff168173ffffffffffffffffffffffffffffffffffffffff16837f2f8788117e7eff1d82e926ec794901d17c78024a50270940304540a733656f0d60405160405180910390a45b5050565b6000620005e983836200064f60201b60201c565b6200064457826000018290806001815401808255809150506001900390600052602060002001600090919091909150558260000180549050836001016000848152602001908152602001600020819055506001905062000649565b600090505b92915050565b600080836001016000848152602001908152602001600020541415905092915050565b600062000689620006838462000938565b6200090f565b90508083825260208201905082856020860282011115620006a957600080fd5b60005b85811015620006dd5781620006c28882620006e7565b845260208401935060208301925050600181019050620006ac565b5050509392505050565b600081519050620006f88162000b87565b92915050565b600082601f8301126200071057600080fd5b81516200072284826020860162000672565b91505092915050565b6000815190506200073c8162000ba1565b92915050565b600080604083850312156200075657600080fd5b600083015167ffffffffffffffff8111156200077157600080fd5b6200077f85828601620006fe565b925050602062000792858286016200072b565b9150509250929050565b620007a781620009b6565b82525050565b6000620007bc60288362000967565b9150620007c98262000abd565b604082019050919050565b6000620007e3601d8362000967565b9150620007f08262000b0c565b602082019050919050565b60006200080a60148362000967565b9150620008178262000b35565b602082019050919050565b60006200083160178362000967565b91506200083e8262000b5e565b602082019050919050565b6200085481620009ac565b82525050565b60006040820190506200087160008301856200079c565b62000880602083018462000849565b9392505050565b60006020820190508181036000830152620008a281620007ad565b9050919050565b60006020820190508181036000830152620008c481620007d4565b9050919050565b60006020820190508181036000830152620008e681620007fb565b9050919050565b60006020820190508181036000830152620009088162000822565b9050919050565b60006200091b6200092e565b9050620009298282620009ca565b919050565b6000604051905090565b600067ffffffffffffffff82111562000956576200095562000a7d565b5b602082029050602081019050919050565b600082825260208201905092915050565b600062000985826200098c565b9050919050565b600073ffffffffffffffffffffffffffffffffffffffff82169050919050565b6000819050919050565b6000620009c382620009ac565b9050919050565b620009d58262000aac565b810181811067ffffffffffffffff82111715620009f757620009f662000a7d565b5b80604052505050565b600062000a0d82620009ac565b91507fffffffffffffffffffffffffffffffffffffffffffffffffffffffffffffffff82141562000a435762000a4262000a4e565b5b600182019050919050565b7f4e487b7100000000000000000000000000000000000000000000000000000000600052601160045260246000fd5b7f4e487b7100000000000000000000000000000000000000000000000000000000600052604160045260246000fd5b6000601f19601f8301169050919050565b7f4d6f6e69746f723a206d656d62657273206c6172676572207468616e206d617860008201527f20616c6c6f776564000000000000000000000000000000000000000000000000602082015250565b7f4d6f6e69746f723a20696e76616c696420726571756972656d656e7473000000600082015250565b7f4d6f6e69746f723a206e756c6c206d656d626572000000000000000000000000600082015250565b7f4d6f6e69746f723a20696e76616c6964206d656d626572000000000000000000600082015250565b62000b928162000978565b811462000b9e57600080fd5b50565b62000bac81620009ac565b811462000bb857600080fd5b50565b61371d8062000bcb6000396000f3fe608060405234801561001057600080fd5b50600436106101a95760003560e01c80639386775a116100f9578063c8729d9211610097578063d547741f11610071578063d547741f14610566578063dc8452cd14610582578063e78cea92146105a0578063e992c817146105be576101a9565b8063c8729d92146104d6578063ca15c87314610506578063ca6d56dc14610536576101a9565b8063a1fb4acb116100d3578063a1fb4acb1461043c578063a217fddf1461046c578063ba51a6df1461048a578063c1f0808a146104a6576101a9565b80639386775a146103be578063997072f7146103ee5780639ddec1a91461040c576101a9565b806336568abe11610166578063681fc92111610140578063681fc921146103245780638dd14802146103425780639010d07c1461035e57806391d148541461038e576101a9565b806336568abe146102ba5780634d9b47e2146102d65780636634674e146102f4576101a9565b806301ffc9a7146101ae578063159608cf146101de5780631b4613cb1461020e5780631f81595d1461023e578063248a9ca31461026e5780632f2ff15d1461029e575b600080fd5b6101c860048036038101906101c3919061264b565b6105ee565b6040516101d59190612b56565b60405180910390f35b6101f860048036038101906101f391906125aa565b610668565b6040516102059190612ce9565b60405180910390f35b610228600480360381019061022391906125aa565b610680565b6040516102359190612b56565b60405180910390f35b610258600480360381019061025391906124c9565b6106ee565b6040516102659190612b56565b60405180910390f35b610288600480360381019061028391906125aa565b610723565b6040516102959190612b71565b60405180910390f35b6102b860048036038101906102b391906125d3565b610742565b005b6102d460048036038101906102cf91906125d3565b610776565b005b6102de6107aa565b6040516102eb9190612b71565b60405180910390f35b61030e600480360381019061030991906124f2565b6107ce565b60405161031b9190612b56565b60405180910390f35b61032c6107e8565b6040516103399190612ce9565b60405180910390f35b61035c600480360381019061035791906124c9565b6107ed565b005b6103786004803603810190610373919061260f565b61092b565b6040516103859190612a57565b60405180910390f35b6103a860048036038101906103a391906125d3565b61095a565b6040516103b59190612b56565b60405180910390f35b6103d860048036038101906103d391906125d3565b6109c4565b6040516103e59190612b56565b60405180910390f35b6103f66109f3565b6040516104039190612ce9565b60405180910390f35b610426600480360381019061042191906125aa565b610a23565b6040516104339190612b56565b60405180910390f35b610456600480360381019061045191906125aa565b610a4d565b6040516104639190612ce9565b60405180910390f35b610474610a6a565b6040516104819190612b71565b60405180910390f35b6104a4600480360381019061049f9190612674565b610a71565b005b6104c060048036038101906104bb91906125aa565b610bb5565b6040516104cd9190612b56565b60405180910390f35b6104f060048036038101906104eb91906124f2565b610bd5565b6040516104fd9190612b71565b60405180910390f35b610520600480360381019061051b91906125aa565b610d25565b60405161052d9190612ce9565b60405180910390f35b610550600480360381019061054b91906124c9565b610d49565b60405161055d9190612b56565b60405180910390f35b610580600480360381019061057b91906125d3565b610d7e565b005b61058a610db2565b6040516105979190612ce9565b60405180910390f35b6105a8610db8565b6040516105b59190612b8c565b60405180910390f35b6105d860048036038101906105d39190612674565b610dde565b6040516105e59190612a57565b60405180910390f35b60007f5a05180f000000000000000000000000000000000000000000000000000000007bffffffffffffffffffffffffffffffffffffffffffffffffffffffff1916827bffffffffffffffffffffffffffffffffffffffffffffffffffffffff19161480610661575061066082610e4f565b5b9050919050565b60056020528060005260406000206000915090505481565b600060046000838152602001908152602001600020600061069f610ec9565b73ffffffffffffffffffffffffffffffffffffffff1673ffffffffffffffffffffffffffffffffffffffff16815260200190815260200160002060009054906101000a900460ff169050919050565b600061071a7f8227712ef8ad39d0f26f06731ef0df8665eb7ada7f41b1ee089adf3c238862a283610d7e565b60019050919050565b6000806000838152602001908152602001600020600101549050919050565b61074c8282610ed1565b6107718160016000858152602001908152602001600020610e1f90919063ffffffff16565b505050565b6107808282610efa565b6107a58160016000858152602001908152602001600020610f7d90919063ffffffff16565b505050565b7f8227712ef8ad39d0f26f06731ef0df8665eb7ada7f41b1ee089adf3c238862a281565b60006107dd8686868686610fad565b905095945050505050565b603281565b6108016000801b6107fc610ec9565b61095a565b610840576040517f08c379a000000000000000000000000000000000000000000000000000000000815260040161083790612c09565b60405180910390fd5b600073ffffffffffffffffffffffffffffffffffffffff168173ffffffffffffffffffffffffffffffffffffffff1614156108b0576040517f08c379a00000000000000000000000000000000000000000000000000000000081526004016108a790612c29565b60405180910390fd5b80600260006101000a81548173ffffffffffffffffffffffffffffffffffffffff021916908373ffffffffffffffffffffffffffffffffffffffff1602179055507f9775531310b2880b61484ed85cbb0b491c8fde3a07f289c63b92551782794497816040516109209190612a57565b60405180910390a150565b600061095282600160008681526020019081526020016000206115a490919063ffffffff16565b905092915050565b600080600084815260200190815260200160002060000160008373ffffffffffffffffffffffffffffffffffffffff1673ffffffffffffffffffffffffffffffffffffffff16815260200190815260200160002060009054906101000a900460ff16905092915050565b60046020528160005260406000206020528060005260406000206000915091509054906101000a900460ff1681565b6000610a1e7f8227712ef8ad39d0f26f06731ef0df8665eb7ada7f41b1ee089adf3c238862a2610d25565b905090565b60006006600083815260200190815260200160002060009054906101000a900460ff169050919050565b600060056000838152602001908152602001600020549050919050565b6000801b81565b610a856000801b610a80610ec9565b61095a565b610ac4576040517f08c379a0000000000000000000000000000000000000000000000000000000008152600401610abb90612c09565b60405180910390fd5b610acc6109f3565b81818111158015610ade575060008114155b8015610aeb575060008214155b610b2a576040517f08c379a0000000000000000000000000000000000000000000000000000000008152600401610b2190612c49565b60405180910390fd5b6001831015610b6e576040517f08c379a0000000000000000000000000000000000000000000000000000000008152600401610b6590612ca9565b60405180910390fd5b7ffdecd314df9af617a0893bcc0b463cd2c588badccd38bec4e9d73a214a08daa760035484604051610ba1929190612d04565b60405180910390a182600381905550505050565b60066020528060005260406000206000915054906101000a900460ff1681565b6000858585600060028110610c13577f4e487b7100000000000000000000000000000000000000000000000000000000600052603260045260246000fd5b602002810190610c239190612d2d565b87600160028110610c5d577f4e487b7100000000000000000000000000000000000000000000000000000000600052603260045260246000fd5b602002810190610c6d9190612d2d565b88600060028110610ca7577f4e487b7100000000000000000000000000000000000000000000000000000000600052603260045260246000fd5b602002013589600160028110610ce6577f4e487b7100000000000000000000000000000000000000000000000000000000600052603260045260246000fd5b602002013589604051602001610d04999897969594939291906129a0565b60405160208183030381529060405280519060200120905095945050505050565b6000610d42600160008481526020019081526020016000206115be565b9050919050565b6000610d757f8227712ef8ad39d0f26f06731ef0df8665eb7ada7f41b1ee089adf3c238862a283610742565b60019050919050565b610d8882826115d3565b610dad8160016000858152602001908152602001600020610f7d90919063ffffffff16565b505050565b60035481565b600260009054906101000a900473ffffffffffffffffffffffffffffffffffffffff1681565b6000610e0a7f8227712ef8ad39d0f26f06731ef0df8665eb7ada7f41b1ee089adf3c238862a28361092b565b9050919050565b610e1b82826115fc565b5050565b6000610e47836000018373ffffffffffffffffffffffffffffffffffffffff1660001b6116dc565b905092915050565b60007f7965db0b000000000000000000000000000000000000000000000000000000007bffffffffffffffffffffffffffffffffffffffffffffffffffffffff1916827bffffffffffffffffffffffffffffffffffffffffffffffffffffffff19161480610ec25750610ec18261174c565b5b9050919050565b600033905090565b610eda82610723565b610eeb81610ee6610ec9565b6117b6565b610ef583836115fc565b505050565b610f02610ec9565b73ffffffffffffffffffffffffffffffffffffffff168173ffffffffffffffffffffffffffffffffffffffff1614610f6f576040517f08c379a0000000000000000000000000000000000000000000000000000000008152600401610f6690612cc9565b60405180910390fd5b610f798282611853565b5050565b6000610fa5836000018373ffffffffffffffffffffffffffffffffffffffff1660001b611934565b905092915050565b6000610fe07f8227712ef8ad39d0f26f06731ef0df8665eb7ada7f41b1ee089adf3c238862a2610fdb610ec9565b61095a565b61101f576040517f08c379a000000000000000000000000000000000000000000000000000000000815260040161101690612c89565b60405180910390fd5b600061102e8787878787610bd5565b90506006600082815260200190815260200160002060009054906101000a900460ff161561106057600191505061159b565b60046000828152602001908152602001600020600061107d610ec9565b73ffffffffffffffffffffffffffffffffffffffff1673ffffffffffffffffffffffffffffffffffffffff16815260200190815260200160002060009054906101000a900460ff16156110d457600191505061159b565b60016004600083815260200190815260200160002060006110f3610ec9565b73ffffffffffffffffffffffffffffffffffffffff1673ffffffffffffffffffffffffffffffffffffffff16815260200190815260200160002060006101000a81548160ff021916908315150217905550600560008281526020019081526020016000206000815480929190611168906132ff565b919050556005600083815260200190815260200160002081905550836001600281106111bd577f4e487b7100000000000000000000000000000000000000000000000000000000600052603260045260246000fd5b6020020135816111cb610ec9565b73ffffffffffffffffffffffffffffffffffffffff167ffccacdfcd17784581567cde58c8b6e7869c0e516c1de75b491bd33644fceb5298a8a8a60006002811061123e577f4e487b7100000000000000000000000000000000000000000000000000000000600052603260045260246000fd5b60200281019061124e9190612d2d565b8c600160028110611288577f4e487b7100000000000000000000000000000000000000000000000000000000600052603260045260246000fd5b6020028101906112989190612d2d565b8d6000600281106112d2577f4e487b7100000000000000000000000000000000000000000000000000000000600052603260045260246000fd5b60200201358d6040516112ec989796959493929190612a72565b60405180910390a4600060056000838152602001908152602001600020549050600354811015801561133d5750600160026113256109f3565b61132f9190612e82565b6113399190612df5565b8110155b156115945760016006600084815260200190815260200160002060006101000a81548160ff0219169083151502179055506000611405876000600281106113ad577f4e487b7100000000000000000000000000000000000000000000000000000000600052603260045260246000fd5b6020028101906113bd9190612d2d565b8080601f016020809104026020016040519081016040528093929190818152602001838380828437600081840152601f19601f82011690508083019250505050505050611ab2565b905060006114128a611dcc565b90506000600260009054906101000a900473ffffffffffffffffffffffffffffffffffffffff1673ffffffffffffffffffffffffffffffffffffffff1663420c04f0848c858d600160028110611491577f4e487b7100000000000000000000000000000000000000000000000000000000600052603260045260246000fd5b6020028101906114a19190612d2d565b8e8e6040518863ffffffff1660e01b81526004016114c59796959493929190612ae5565b602060405180830381600087803b1580156114df57600080fd5b505af11580156114f3573d6000803e3d6000fd5b505050506040513d601f19601f820116820180604052508101906115179190612581565b905080611559576040517f08c379a000000000000000000000000000000000000000000000000000000000815260040161155090612c69565b60405180910390fd5b847fa74c8847d513feba22a0f0cb38d53081abf97562cdb293926ba243689e7c41ca60405160405180910390a260019550505050505061159b565b6001925050505b95945050505050565b60006115b38360000183612001565b60001c905092915050565b60006115cc8260000161209b565b9050919050565b6115dc82610723565b6115ed816115e8610ec9565b6117b6565b6115f78383611853565b505050565b611606828261095a565b6116d857600160008084815260200190815260200160002060000160008373ffffffffffffffffffffffffffffffffffffffff1673ffffffffffffffffffffffffffffffffffffffff16815260200190815260200160002060006101000a81548160ff02191690831515021790555061167d610ec9565b73ffffffffffffffffffffffffffffffffffffffff168173ffffffffffffffffffffffffffffffffffffffff16837f2f8788117e7eff1d82e926ec794901d17c78024a50270940304540a733656f0d60405160405180910390a45b5050565b60006116e883836120ac565b611741578260000182908060018154018082558091505060019003906000526020600020016000909190919091505582600001805490508360010160008481526020019081526020016000208190555060019050611746565b600090505b92915050565b60007f01ffc9a7000000000000000000000000000000000000000000000000000000007bffffffffffffffffffffffffffffffffffffffffffffffffffffffff1916827bffffffffffffffffffffffffffffffffffffffffffffffffffffffff1916149050919050565b6117c0828261095a565b61184f576117e58173ffffffffffffffffffffffffffffffffffffffff1660146120cf565b6117f38360001c60206120cf565b604051602001611804929190612a1d565b6040516020818303038152906040526040517f08c379a00000000000000000000000000000000000000000000000000000000081526004016118469190612ba7565b60405180910390fd5b5050565b61185d828261095a565b1561193057600080600084815260200190815260200160002060000160008373ffffffffffffffffffffffffffffffffffffffff1673ffffffffffffffffffffffffffffffffffffffff16815260200190815260200160002060006101000a81548160ff0219169083151502179055506118d5610ec9565b73ffffffffffffffffffffffffffffffffffffffff168173ffffffffffffffffffffffffffffffffffffffff16837ff6391f5c32d9c69d2a47ea670b442974b53935d1edc7fd64eb21e047a839171b60405160405180910390a45b5050565b60008083600101600084815260200190815260200160002054905060008114611aa6576000600182611966919061316c565b905060006001866000018054905061197e919061316c565b905060008660000182815481106119be577f4e487b7100000000000000000000000000000000000000000000000000000000600052603260045260246000fd5b9060005260206000200154905080876000018481548110611a08577f4e487b7100000000000000000000000000000000000000000000000000000000600052603260045260246000fd5b9060005260206000200181905550838760010160008381526020019081526020016000208190555086600001805480611a6a577f4e487b7100000000000000000000000000000000000000000000000000000000600052603160045260246000fd5b60019003818190600052602060002001600090559055866001016000878152602001908152602001600020600090556001945050505050611aac565b60009150505b92915050565b600080829050600080806000600290505b602a811015611dbf5761010084611ada9190613055565b9350848181518110611b15577f4e487b7100000000000000000000000000000000000000000000000000000000600052603260045260246000fd5b602001015160f81c60f81b60f81c60ff16925084600182611b369190612df5565b81518110611b6d577f4e487b7100000000000000000000000000000000000000000000000000000000600052603260045260246000fd5b602001015160f81c60f81b60f81c60ff16915060618373ffffffffffffffffffffffffffffffffffffffff1610158015611bbe575060668373ffffffffffffffffffffffffffffffffffffffff1611155b15611bd757605783611bd09190613138565b9250611c83565b60418373ffffffffffffffffffffffffffffffffffffffff1610158015611c15575060468373ffffffffffffffffffffffffffffffffffffffff1611155b15611c2e57603783611c279190613138565b9250611c82565b60308373ffffffffffffffffffffffffffffffffffffffff1610158015611c6c575060398373ffffffffffffffffffffffffffffffffffffffff1611155b15611c8157603083611c7e9190613138565b92505b5b5b60618273ffffffffffffffffffffffffffffffffffffffff1610158015611cc1575060668273ffffffffffffffffffffffffffffffffffffffff1611155b15611cda57605782611cd39190613138565b9150611d86565b60418273ffffffffffffffffffffffffffffffffffffffff1610158015611d18575060468273ffffffffffffffffffffffffffffffffffffffff1611155b15611d3157603782611d2a9190613138565b9150611d85565b60308273ffffffffffffffffffffffffffffffffffffffff1610158015611d6f575060398273ffffffffffffffffffffffffffffffffffffffff1611155b15611d8457603082611d819190613138565b91505b5b5b81601084611d949190613055565b611d9e9190612dab565b84611da99190612dab565b9350600281611db89190612df5565b9050611ac3565b5082945050505050919050565b60606000602867ffffffffffffffff811115611e11577f4e487b7100000000000000000000000000000000000000000000000000000000600052604160045260246000fd5b6040519080825280601f01601f191660200182016040528015611e435781602001600182028036833780820191505090505b50905060005b6014811015611ff7576000816013611e61919061316c565b6008611e6d91906130a3565b6002611e799190612f37565b8573ffffffffffffffffffffffffffffffffffffffff16611e9a9190612e82565b60f81b9050600060108260f81c611eb19190612eb3565b60f81b905060008160f81c6010611ec891906130fd565b8360f81c611ed691906131a0565b60f81b9050611ee4826123c9565b85856002611ef291906130a3565b81518110611f29577f4e487b7100000000000000000000000000000000000000000000000000000000600052603260045260246000fd5b60200101907effffffffffffffffffffffffffffffffffffffffffffffffffffffffffffff1916908160001a905350611f61816123c9565b856001866002611f7191906130a3565b611f7b9190612df5565b81518110611fb2577f4e487b7100000000000000000000000000000000000000000000000000000000600052603260045260246000fd5b60200101907effffffffffffffffffffffffffffffffffffffffffffffffffffffffffffff1916908160001a9053505050508080611fef906132ff565b915050611e49565b5080915050919050565b60008183600001805490501161204c576040517f08c379a000000000000000000000000000000000000000000000000000000000815260040161204390612bc9565b60405180910390fd5b826000018281548110612088577f4e487b7100000000000000000000000000000000000000000000000000000000600052603260045260246000fd5b9060005260206000200154905092915050565b600081600001805490509050919050565b600080836001016000848152602001908152602001600020541415905092915050565b6060600060028360026120e291906130a3565b6120ec9190612df5565b67ffffffffffffffff81111561212b577f4e487b7100000000000000000000000000000000000000000000000000000000600052604160045260246000fd5b6040519080825280601f01601f19166020018201604052801561215d5781602001600182028036833780820191505090505b5090507f3000000000000000000000000000000000000000000000000000000000000000816000815181106121bb577f4e487b7100000000000000000000000000000000000000000000000000000000600052603260045260246000fd5b60200101907effffffffffffffffffffffffffffffffffffffffffffffffffffffffffffff1916908160001a9053507f780000000000000000000000000000000000000000000000000000000000000081600181518110612245577f4e487b7100000000000000000000000000000000000000000000000000000000600052603260045260246000fd5b60200101907effffffffffffffffffffffffffffffffffffffffffffffffffffffffffffff1916908160001a9053506000600184600261228591906130a3565b61228f9190612df5565b90505b600181111561237b577f3031323334353637383961626364656600000000000000000000000000000000600f8616601081106122f7577f4e487b7100000000000000000000000000000000000000000000000000000000600052603260045260246000fd5b1a60f81b828281518110612334577f4e487b7100000000000000000000000000000000000000000000000000000000600052603260045260246000fd5b60200101907effffffffffffffffffffffffffffffffffffffffffffffffffffffffffffff1916908160001a905350600485901c945080612374906132d5565b9050612292565b50600084146123bf576040517f08c379a00000000000000000000000000000000000000000000000000000000081526004016123b690612be9565b60405180910390fd5b8091505092915050565b6000600a8260f81c60ff1610156123f45760308260f81c6123ea9190612e4b565b60f81b905061240a565b60578260f81c6124049190612e4b565b60f81b90505b919050565b60008135905061241e8161365d565b92915050565b60008190508260206002028201111561243c57600080fd5b92915050565b60008190508260206002028201111561245a57600080fd5b92915050565b60008151905061246f81613674565b92915050565b6000813590506124848161368b565b92915050565b600081359050612499816136a2565b92915050565b6000813590506124ae816136b9565b92915050565b6000813590506124c3816136d0565b92915050565b6000602082840312156124db57600080fd5b60006124e98482850161240f565b91505092915050565b600080600080600060c0868803121561250a57600080fd5b60006125188882890161240f565b95505060206125298882890161249f565b945050604086013567ffffffffffffffff81111561254657600080fd5b61255288828901612442565b935050606061256388828901612424565b92505060a0612574888289016124b4565b9150509295509295909350565b60006020828403121561259357600080fd5b60006125a184828501612460565b91505092915050565b6000602082840312156125bc57600080fd5b60006125ca84828501612475565b91505092915050565b600080604083850312156125e657600080fd5b60006125f485828601612475565b92505060206126058582860161240f565b9150509250929050565b6000806040838503121561262257600080fd5b600061263085828601612475565b92505060206126418582860161249f565b9150509250929050565b60006020828403121561265d57600080fd5b600061266b8482850161248a565b91505092915050565b60006020828403121561268657600080fd5b60006126948482850161249f565b91505092915050565b6126a6816131d4565b82525050565b6126bd6126b8826131d4565b613348565b82525050565b6126cf60408383613293565b5050565b6126dc816131e6565b82525050565b6126eb816131f2565b82525050565b6127026126fd826131f2565b61335a565b82525050565b6127118161326f565b82525050565b60006127238385612d8f565b9350612730838584613293565b612739836133f0565b840190509392505050565b60006127508385612da0565b935061275d838584613293565b82840190509392505050565b600061277482612d84565b61277e8185612d8f565b935061278e8185602086016132a2565b612797816133f0565b840191505092915050565b60006127ad82612d84565b6127b78185612da0565b93506127c78185602086016132a2565b80840191505092915050565b60006127e0602283612d8f565b91506127eb82613428565b604082019050919050565b6000612803602083612d8f565b915061280e82613477565b602082019050919050565b6000612826601283612d8f565b9150612831826134a0565b602082019050919050565b6000612849601c83612d8f565b9150612854826134c9565b602082019050919050565b600061286c601d83612d8f565b9150612877826134f2565b602082019050919050565b600061288f602483612d8f565b915061289a8261351b565b604082019050919050565b60006128b2601383612d8f565b91506128bd8261356a565b602082019050919050565b60006128d5601c83612d8f565b91506128e082613593565b602082019050919050565b60006128f8601783612da0565b9150612903826135bc565b601782019050919050565b600061291b601183612da0565b9150612926826135e5565b601182019050919050565b600061293e602f83612d8f565b91506129498261360e565b604082019050919050565b61295d81613248565b82525050565b61297461296f82613248565b613376565b82525050565b61298381613252565b82525050565b61299a61299582613252565b613380565b82525050565b60006129ac828c6126ac565b6014820191506129bc828b612963565b6020820191506129cd82898b612744565b91506129da828789612744565b91506129e682866126f1565b6020820191506129f682856126f1565b602082019150612a068284612989565b6004820191508190509a9950505050505050505050565b6000612a28826128eb565b9150612a3482856127a2565b9150612a3f8261290e565b9150612a4b82846127a2565b91508190509392505050565b6000602082019050612a6c600083018461269d565b92915050565b600060c082019050612a87600083018b61269d565b612a94602083018a612954565b8181036040830152612aa781888a612717565b90508181036060830152612abc818688612717565b9050612acb60808301856126e2565b612ad860a083018461297a565b9998505050505050505050565b600060e082019050612afa600083018a61269d565b612b076020830189612954565b8181036040830152612b198188612769565b90508181036060830152612b2e818688612717565b9050612b3d60808301856126c3565b612b4a60c083018461297a565b98975050505050505050565b6000602082019050612b6b60008301846126d3565b92915050565b6000602082019050612b8660008301846126e2565b92915050565b6000602082019050612ba16000830184612708565b92915050565b60006020820190508181036000830152612bc18184612769565b905092915050565b60006020820190508181036000830152612be2816127d3565b9050919050565b60006020820190508181036000830152612c02816127f6565b9050919050565b60006020820190508181036000830152612c2281612819565b9050919050565b60006020820190508181036000830152612c428161283c565b9050919050565b60006020820190508181036000830152612c628161285f565b9050919050565b60006020820190508181036000830152612c8281612882565b9050919050565b60006020820190508181036000830152612ca2816128a5565b9050919050565b60006020820190508181036000830152612cc2816128c8565b9050919050565b60006020820190508181036000830152612ce281612931565b9050919050565b6000602082019050612cfe6000830184612954565b92915050565b6000604082019050612d196000830185612954565b612d266020830184612954565b9392505050565b60008083356001602003843603038112612d4657600080fd5b80840192508235915067ffffffffffffffff821115612d6457600080fd5b602083019250600182023603831315612d7c57600080fd5b509250929050565b600081519050919050565b600082825260208201905092915050565b600081905092915050565b6000612db682613228565b9150612dc183613228565b92508273ffffffffffffffffffffffffffffffffffffffff03821115612dea57612de9613392565b5b828201905092915050565b6000612e0082613248565b9150612e0b83613248565b9250827fffffffffffffffffffffffffffffffffffffffffffffffffffffffffffffffff03821115612e4057612e3f613392565b5b828201905092915050565b6000612e5682613262565b9150612e6183613262565b92508260ff03821115612e7757612e76613392565b5b828201905092915050565b6000612e8d82613248565b9150612e9883613248565b925082612ea857612ea76133c1565b5b828204905092915050565b6000612ebe82613262565b9150612ec983613262565b925082612ed957612ed86133c1565b5b828204905092915050565b6000808291508390505b6001851115612f2e57808604811115612f0a57612f09613392565b5b6001851615612f195780820291505b8081029050612f278561341b565b9450612eee565b94509492505050565b6000612f4282613248565b9150612f4d83613248565b9250612f7a7fffffffffffffffffffffffffffffffffffffffffffffffffffffffffffffffff8484612f82565b905092915050565b600082612f92576001905061304e565b81612fa0576000905061304e565b8160018114612fb65760028114612fc057612fef565b600191505061304e565b60ff841115612fd257612fd1613392565b5b8360020a915084821115612fe957612fe8613392565b5b5061304e565b5060208310610133831016604e8410600b84101617156130245782820a90508381111561301f5761301e613392565b5b61304e565b6130318484846001612ee4565b9250905081840481111561304857613047613392565b5b81810290505b9392505050565b600061306082613228565b915061306b83613228565b92508173ffffffffffffffffffffffffffffffffffffffff048311821515161561309857613097613392565b5b828202905092915050565b60006130ae82613248565b91506130b983613248565b9250817fffffffffffffffffffffffffffffffffffffffffffffffffffffffffffffffff04831182151516156130f2576130f1613392565b5b828202905092915050565b600061310882613262565b915061311383613262565b92508160ff048311821515161561312d5761312c613392565b5b828202905092915050565b600061314382613228565b915061314e83613228565b92508282101561316157613160613392565b5b828203905092915050565b600061317782613248565b915061318283613248565b92508282101561319557613194613392565b5b828203905092915050565b60006131ab82613262565b91506131b683613262565b9250828210156131c9576131c8613392565b5b828203905092915050565b60006131df82613228565b9050919050565b60008115159050919050565b6000819050919050565b60007fffffffff0000000000000000000000000000000000000000000000000000000082169050919050565b600073ffffffffffffffffffffffffffffffffffffffff82169050919050565b6000819050919050565b600063ffffffff82169050919050565b600060ff82169050919050565b600061327a82613281565b9050919050565b600061328c82613228565b9050919050565b82818337600083830152505050565b60005b838110156132c05780820151818401526020810190506132a5565b838111156132cf576000848401525b50505050565b60006132e082613248565b915060008214156132f4576132f3613392565b5b600182039050919050565b600061330a82613248565b91507fffffffffffffffffffffffffffffffffffffffffffffffffffffffffffffffff82141561333d5761333c613392565b5b600182019050919050565b600061335382613364565b9050919050565b6000819050919050565b600061336f8261340e565b9050919050565b6000819050919050565b600061338b82613401565b9050919050565b7f4e487b7100000000000000000000000000000000000000000000000000000000600052601160045260246000fd5b7f4e487b7100000000000000000000000000000000000000000000000000000000600052601260045260246000fd5b6000601f19601f8301169050919050565b60008160e01b9050919050565b60008160601b9050919050565b60008160011c9050919050565b7f456e756d657261626c655365743a20696e646578206f7574206f6620626f756e60008201527f6473000000000000000000000000000000000000000000000000000000000000602082015250565b7f537472696e67733a20686578206c656e67746820696e73756666696369656e74600082015250565b7f4d6f6e69746f723a206e6f74206f776e65720000000000000000000000000000600082015250565b7f4d6f6e69746f723a20627269646765206e756c6c206164647265737300000000600082015250565b7f4d6f6e69746f723a20696e76616c696420726571756972656d656e7473000000600082015250565b7f4d6f6e69746f723a20627269646765206163636570745472616e73666572206560008201527f72726f7200000000000000000000000000000000000000000000000000000000602082015250565b7f4d6f6e69746f723a206e6f74206d656d62657200000000000000000000000000600082015250565b7f4d6f6e69746f723a207265717569726573206174206c65617374203100000000600082015250565b7f416363657373436f6e74726f6c3a206163636f756e7420000000000000000000600082015250565b7f206973206d697373696e6720726f6c6520000000000000000000000000000000600082015250565b7f416363657373436f6e74726f6c3a2063616e206f6e6c792072656e6f756e636560008201527f20726f6c657320666f722073656c660000000000000000000000000000000000602082015250565b613666816131d4565b811461367157600080fd5b50565b61367d816131e6565b811461368857600080fd5b50565b613694816131f2565b811461369f57600080fd5b50565b6136ab816131fc565b81146136b657600080fd5b50565b6136c281613248565b81146136cd57600080fd5b50565b6136d981613252565b81146136e457600080fd5b5056fea2646970667358221220dcee71795e1fdf2d06fecc120f1ea5f09bae570aeb5846a0740eeb8c7e2114e264736f6c63430008040033",
  "immutableReferences": {},
  "source": "// SPDX-License-Identifier: MIT\r\npragma solidity 0.8.4;\r\n\r\n// Inspired on https://github.com/rsksmart/tokenbridge/blob/master/bridge/contracts/Federation.sol\r\n\r\nimport './ozeppelin/access/AccessControlEnumerable.sol';\r\n\r\nimport \"./IBridge.sol\";\r\n\r\n// Process transactions from Bridge with event CrossRequest\r\n\r\ncontract Monitor is AccessControlEnumerable {\r\n\r\n  address constant private NULL_ADDRESS = address(0);\r\n  uint constant public MAX_MEMBER_COUNT = 50;\r\n  bytes32 constant public MONITOR_ROLE = keccak256(\"MONITOR_ROLE\");\r\n\r\n  IBridge public bridge;\r\n  uint public required;\r\n\r\n  mapping (bytes32 => mapping (address => bool)) public votes;\r\n  mapping (bytes32 => uint) public countVotes;\r\n  mapping(bytes32 => bool) public processed;\r\n\r\n  event Voted(address indexed member, bytes32 indexed transactionId, address sender, uint256 amount, string receiver, string blockchain, bytes32 blockHash, bytes32 indexed transactionHash, uint32 logIndex);\r\n  event Executed(bytes32 indexed transactionId);\r\n  event MemberAdded(address indexed member);\r\n  event MemberDeleted(address indexed member);\r\n  event RequirementChanged(uint oldRequired, uint newRequired);\r\n  event BridgeChanged(address bridge);\r\n\r\n  modifier onlyOwner() {\r\n    require(hasRole(DEFAULT_ADMIN_ROLE, _msgSender()), \"Monitor: not owner\");\r\n    _;\r\n  }\r\n\r\n  modifier onlyMember() {\r\n    require(hasRole(MONITOR_ROLE, _msgSender()), \"Monitor: not member\");\r\n    _;\r\n  }\r\n\r\n  modifier validRequirement(uint _membersCount, uint _required) {\r\n    require(_required <= _membersCount && _required != 0 && _membersCount != 0, \"Monitor: invalid requirements\");\r\n    _;\r\n  }\r\n\r\n  constructor(address[] memory _members, uint _required) validRequirement(_members.length, _required) {\r\n    require(_members.length <= MAX_MEMBER_COUNT, \"Monitor: members larger than max allowed\");\r\n    _setupRole(DEFAULT_ADMIN_ROLE, _msgSender());\r\n\r\n    for (uint i = 0; i < _members.length; i++) {\r\n      require(!hasRole(MONITOR_ROLE, _members[i]), \"Monitor: invalid member\");\r\n      require(_members[i] != NULL_ADDRESS, \"Monitor: null member\");\r\n      _setupRole(MONITOR_ROLE, _members[i]);\r\n      emit MemberAdded(_members[i]);\r\n    }\r\n    required = _required;\r\n    emit RequirementChanged(0, required);\r\n  }\r\n\r\n  function setBridge(address _bridge) public onlyOwner {\r\n    require(_bridge != NULL_ADDRESS, \"Monitor: bridge null address\");\r\n    bridge = IBridge(_bridge);\r\n    emit BridgeChanged(_bridge);\r\n  }\r\n\r\n  function voteTransaction(\r\n    address sender,\r\n    uint256 amount,\r\n    string[2] calldata receiver, // receiverAddress, blockchain\r\n    bytes32[2] calldata hashes, //blockHash, transactionHash\r\n    uint32 logIndex)\r\n  external returns(bool) {\r\n    return _voteTransaction(sender, amount, receiver, hashes, logIndex);\r\n  }\r\n\r\n  function _voteTransaction(\r\n    address sender,\r\n    uint256 amount,\r\n    string[2] calldata receiver, // receiverAddress, blockchain\r\n    bytes32[2] calldata hashes, //blockHash, transactionHash\r\n    uint32 logIndex\r\n  ) internal onlyMember returns(bool) {\r\n    bytes32 transactionId = getTransactionId(sender, amount, receiver, hashes, logIndex);\r\n    if (processed[transactionId])\r\n      return true;\r\n\r\n    if (votes[transactionId][_msgSender()])\r\n      return true;\r\n\r\n    votes[transactionId][_msgSender()] = true;\r\n    countVotes[transactionId] = countVotes[transactionId] ++;\r\n    emit Voted(_msgSender(), transactionId, sender, amount, receiver[0], receiver[1], hashes[0], hashes[1], logIndex);\r\n\r\n    uint transactionCount = countVotes[transactionId];\r\n    if (transactionCount >= required && transactionCount >= getMemberCount() / 2 + 1) {\r\n      processed[transactionId] = true;\r\n      address receiverAddress = stringToAddress(receiver[0]);\r\n      string memory senderString = addressToAsciiString(sender);\r\n      bool acceptTransfer = bridge.acceptTransfer(\r\n        receiverAddress,\r\n        amount,\r\n        senderString,\r\n        receiver[1],\r\n        hashes,\r\n        logIndex\r\n      );\r\n      require(acceptTransfer, \"Monitor: bridge acceptTransfer error\");\r\n      emit Executed(transactionId);\r\n      return true;\r\n    }\r\n\r\n    return true;\r\n  }\r\n\r\n  function getTransactionCount(bytes32 transactionId) public view returns(uint) {\r\n    return countVotes[transactionId];\r\n  }\r\n\r\n  function hasVoted(bytes32 transactionId) external view returns(bool) {\r\n    return votes[transactionId][_msgSender()];\r\n  }\r\n\r\n  function transactionProcessed(bytes32 transactionId) external view returns(bool) {\r\n    return processed[transactionId];\r\n  }\r\n\r\n  function getTransactionId(\r\n    address sender,\r\n    uint256 amount,\r\n    string[2] calldata receiver, // receiverAddress, blockchain\r\n    bytes32[2] calldata hashes, //blockHash, transactionHash\r\n    uint32 logIndex)\r\n  public pure returns(bytes32) {\r\n    return keccak256(abi.encodePacked(sender, amount, receiver[0], receiver[1], hashes[0], hashes[1], logIndex));\r\n  }\r\n\r\n  function addMember(address _memberAddress) public returns (bool) {\r\n    //Can be called only by the account defined in constructor: DEFAULT_ADMIN_ROLE\r\n    grantRole(MONITOR_ROLE, _memberAddress);\r\n    return true;\r\n  }\r\n\r\n  function delMember(address _memberAddress) public returns (bool) {\r\n    //Can be called only by the account defined in constructor: DEFAULT_ADMIN_ROLE\r\n    revokeRole(MONITOR_ROLE, _memberAddress);\r\n    return true;\r\n  }\r\n\r\n  function getMemberCount() public view returns (uint) {\r\n    return getRoleMemberCount(MONITOR_ROLE);\r\n  }\r\n\r\n  function getMemberAt(uint index) public view returns (address) {\r\n    return getRoleMember(MONITOR_ROLE, index);\r\n  }\r\n\r\n  function changeRequirement(uint _required) public onlyOwner validRequirement(getMemberCount(), _required) {\r\n    require(_required >= 1, \"Monitor: requires at least 1\");\r\n    emit RequirementChanged(required, _required);\r\n    required = _required;    \r\n  }\r\n\r\n  // From: https://github.com/provable-things/ethereum-api/blob/master/oraclizeAPI_0.5.sol\r\n  function stringToAddress(string memory _a) internal pure returns (address _parsedAddress) {\r\n      bytes memory tmp = bytes(_a);\r\n      uint160 iaddr = 0;\r\n      uint160 b1;\r\n      uint160 b2;\r\n      for (uint i = 2; i < 2 + 2 * 20; i += 2) {\r\n          iaddr *= 256;\r\n          b1 = uint160(uint8(tmp[i]));\r\n          b2 = uint160(uint8(tmp[i + 1]));\r\n          if ((b1 >= 97) && (b1 <= 102)) {\r\n              b1 -= 87;\r\n          } else if ((b1 >= 65) && (b1 <= 70)) {\r\n              b1 -= 55;\r\n          } else if ((b1 >= 48) && (b1 <= 57)) {\r\n              b1 -= 48;\r\n          }\r\n          if ((b2 >= 97) && (b2 <= 102)) {\r\n              b2 -= 87;\r\n          } else if ((b2 >= 65) && (b2 <= 70)) {\r\n              b2 -= 55;\r\n          } else if ((b2 >= 48) && (b2 <= 57)) {\r\n              b2 -= 48;\r\n          }\r\n          iaddr += (b1 * 16 + b2);\r\n      }\r\n      return address(iaddr);\r\n  }\r\n\r\n  // From https://ethereum.stackexchange.com/questions/8346/convert-address-to-string\r\n  function addressToAsciiString(address x) internal pure returns (string memory) {\r\n      bytes memory s = new bytes(40);\r\n      for (uint i = 0; i < 20; i++) {\r\n          bytes1 b = bytes1(uint8(uint(uint160(x)) / (2**(8*(19 - i)))));\r\n          bytes1 hi = bytes1(uint8(b) / 16);\r\n          bytes1 lo = bytes1(uint8(b) - 16 * uint8(hi));\r\n          s[2*i] = char(hi);\r\n          s[2*i+1] = char(lo);            \r\n      }\r\n      return string(s);\r\n  }\r\n\r\n  function char(bytes1 b) internal pure returns (bytes1 c) {\r\n      if (uint8(b) < 10) return bytes1(uint8(b) + 0x30);\r\n      else return bytes1(uint8(b) + 0x57);\r\n  }\r\n\r\n\r\n}",
  "sourcePath": "C:/BLOCKCHAIN/TRANSFERO/brz-tokenbridge/contracts/Monitor.sol",
  "compiler": {
    "name": "solc",
    "version": "0.8.4+commit.c7e474f2.Emscripten.clang"
  },
  "schemaVersion": "3.4.1",
  "updatedAt": "2021-06-15T19:09:36.372Z",
  "networkType": "ethereum",
  "devdoc": {
    "kind": "dev",
    "methods": {
      "getRoleAdmin(bytes32)": {
        "details": "Returns the admin role that controls `role`. See {grantRole} and {revokeRole}. To change a role's admin, use {_setRoleAdmin}."
      },
      "getRoleMember(bytes32,uint256)": {
        "details": "Returns one of the accounts that have `role`. `index` must be a value between 0 and {getRoleMemberCount}, non-inclusive. Role bearers are not sorted in any particular way, and their ordering may change at any point. WARNING: When using {getRoleMember} and {getRoleMemberCount}, make sure you perform all queries on the same block. See the following https://forum.openzeppelin.com/t/iterating-over-elements-on-enumerableset-in-openzeppelin-contracts/2296[forum post] for more information."
      },
      "getRoleMemberCount(bytes32)": {
        "details": "Returns the number of accounts that have `role`. Can be used together with {getRoleMember} to enumerate all bearers of a role."
      },
      "grantRole(bytes32,address)": {
        "details": "Overload {grantRole} to track enumerable memberships"
      },
      "hasRole(bytes32,address)": {
        "details": "Returns `true` if `account` has been granted `role`."
      },
      "renounceRole(bytes32,address)": {
        "details": "Overload {renounceRole} to track enumerable memberships"
      },
      "revokeRole(bytes32,address)": {
        "details": "Overload {revokeRole} to track enumerable memberships"
      },
      "supportsInterface(bytes4)": {
        "details": "See {IERC165-supportsInterface}."
      }
    },
    "version": 1
  },
  "userdoc": {
    "kind": "user",
    "methods": {},
    "version": 1
  }
}